:020000040800F2
:1000000000500020A530000819150008211500082F
:1000100029150008311500083915000800000000F6
:10002000000000000000000000000000017900084E
:100030004115000800000000E17A0008297B000853
:10004000ED300008ED300008ED300008ED3000081C
:10005000ED300008ED300008ED300008ED3000080C
:10006000ED300008ED300008ED300008ED300008FC
:10007000ED300008ED300008ED300008ED300008EC
:10008000ED300008ED300008ED300008ED300008DC
:10009000ED300008ED300008ED300008ED300008CC
:1000A000ED300008ED300008ED300008ED300008BC
:1000B000ED300008ED3000084D150008ED30000867
:1000C000ED300008ED300008ED300008ED3000089C
:1000D000ED30000861150008ED300008ED30000833
:1000E000ED300008ED300008ED30000800000000A1
:1000F0000000000000000000000000000000000000
:0C01000000000000000000005FF808F1A3
:1001100010B5054C237833B9044B13B10448AFF341
:1001200000800123237010BDA0010020000000000A
:10013000888A000808B5034B1BB103490348AFF395
:10014000008008BD00000000A4010020888A00088B
:10015000034613F8012B002AFBD1181A0138704707
:1001600080B582B000AF0023FB710121174803F076
:1001700069FC0346002B03D1FB7943F00103FB71BB
:100180008021134803F05EFC0346002B03D1FB796A
:1001900043F00203FB7140210D4803F053FC03467A
:1001A000002B03D1FB7943F00403FB7102210748C4
:1001B00003F048FC0346002B03D1FB7943F008030E
:1001C000FB71FB7918460837BD4680BD000C014025
:1001D0000008014080B582B000AF7860124B9B7878
:1001E000002B04D1104B9B6801330F4A93600E4BD8
:1001F000DB78002B14D00C4B1B78042B03D00A4B5C
:100200001B78052B0CD1084B9B895A1C91B2064ACE
:100210009181312B04D901F06FFB034B00229A81AD
:1002200000BF0837BD4680BD0000002080B400AF8D
:10023000064B00229A60054B01229A70034B012263
:100240005A7100BFBD4680BC704700BF000000204F
:1002500090B583B000AF0023FB71FFF781FF034629
:10026000BB71BB7903F00F03002B00F08B80644B54
:100270005B79002B01D0FB79BDE0614B00229A70C5
:10028000BB79033B092B8CBF01220022D2B2002A8A
:1002900010D140F2CD2222FA03F303F00103002B28
:1002A00014BF01230023DBB2002B03D0554ABB79D6
:1002B000137003E0544ABB79137000BF534B1B7893
:1002C000BA799A420ED04E4B9C68BB79184600F022
:1002D0004BFC03461A4621464D4800F0B5FB4B4AFD
:1002E000BB791370484B1B78082B39D1444BDB7812
:1002F000002B14D0424B9B68322B10D9414B1B78FA
:10030000002B02D03E4B01221A713E4B1B78FB7131
:100310003C4B00221A703A4B00229A601EE0384B88
:100320009B68C72B18D9364BDB78002B08D11023DC
:10033000FB71334B0122DA70314B00229A8108E0C5
:100340002F4B9B7B002B04D02D4B00229A73202334
:10035000FB71FFF76BFF01E000234CE0FB794AE003
:10036000284B1B78002B45D0254B9B68B3F5FA7FB3
:1003700040D9244B1B78FB71224B00221A70FFF7E7
:1003800055FF37E0204B1B78002B15D0214B1A78F6
:100390001D4B1B789A420FD01B4B1B78184600F060
:1003A000E3FB0146164B9B681A461B4800F04CFBCA
:1003B000154B1A78174B1A70114B01229A70104B7B
:1003C0009B680A2B0DD90E4B9B68312B09D80C4B1F
:1003D0001B79002B05D10C4B1B78FB710A4B0022BB
:1003E0001A70074B00225A71054B00229A60044B89
:1003F00000221A71FB7918460C37BD4690BD00BF2C
:1004000000000020C0010020C1010020C201002026
:10041000A08A0008C3010020B48A000880B584B017
:1004200000AF0346FB710F23FB733D4B1B7819464E
:10043000FB791A463B4800F007FB394BDB78002B71
:100440003ED1FB79013B082B39D801A252F823F0A9
:10045000BF040008BF040008AF040008BF04000880
:10046000B70400089F040008BF04000875040008D2
:10047000A70400082A4B5B780133DAB2284B5A7084
:10048000274B5B78052B02D9254B00225A70244B51
:100490005B781A46244B9A5C214B1A7010E0204B73
:1004A0000D221A700CE01E4B0C221A7008E01C4B37
:1004B0000B221A7004E01A4B0E221A7000E000BFE3
:1004C000174B1B781946194800F0BEFA144B1B78DD
:1004D000FA791146184601F049FA0346FB73FB7B93
:1004E0000E2B0CD80E4AFB7B13700D4B1B78FA7940
:1004F0001146184601F03AFA0346FB730CE0084B2C
:10050000DB78002B08D0064B0022DA70044B012266
:100510001A70034B00225A7000BF1037BD4680BDD1
:1005200000000020D08A000810000020EC8A00089B
:1005300080B582B000AF184B1B680A21184605F041
:1005400075F8164B00229A70144B9B68B3F5967F92
:100550000FD3124B01221A70104B1B780021184642
:1005600001F004FA0D4B01229A700C4B00229A60A4
:1005700003E00A2005F011F8E6E7FFF769FE0346FD
:10058000FB71FB79002B03D0FB791846FFF746FF80
:100590000A2005F002F8F0E7BC010020000000206E
:1005A00080B582B000AF0E4B3B6000237B603B46C2
:1005B00000220121184605F005F80346094A136098
:1005C000084B1B68002B05D1074800F03DFA4FF09F
:1005D000FF3300E0002318460837BD4680BD00BF4A
:1005E000D5010008BC010020048B000880B500AFD5
:1005F000064800F029FA064A064B104619464723DA
:100600001A4607F0E5FD00BF80BD00BF288B00083B
:10061000C40100201800002080B500AF064800F09B
:1006200019F80346002B01D0FFF7E0FF034B024A05
:100630001A6000BF80BD00BFC40100200C02002072
:1006400080B500AF4721024800F030F800BF80BD00
:10065000C401002080B582B000AF7860472178687F
:1006600000F010F87B681B68192B04D0044800F0D8
:10067000EBF9012300E0002318460837BD4680BD92
:100680004C8B000880B584B000AF78603960064BB1
:10069000FB60FB683A681946786807F099FD00BF6F
:1006A0001037BD4680BD00BF00F80008B0B586B069
:1006B00000AF7860396000237B611C4B3B617B6835
:1006C000FB6002F049FF25E0FB681B68BB60BB686C
:1006D00000221C46154622462B463969022002F0AC
:1006E000CBFE0346002B0CD002F06CFF01467B6969
:1006F0003A680F4800F0A8F902F054FF4FF0FF33BA
:100700000FE0FB680433FB607B6904337B613B696A
:1007100004333B613B687A699A42D5D302F042FFC9
:10072000002318461837BD46B0BD00BF00F80008CA
:100730009C8B000880B584B000AF0346FB71FB7949
:10074000002B16D10023FB600FE01A4AFB6852F819
:100750003300184AFB68DB0013449B8801221946CA
:1007600003F087F9FB680133FB60FB68072BECDDC6
:100770001DE00023FB6017E0FA79FB6842FA03F3FF
:1007800003F00103002B0CD00A4AFB6852F8330037
:10079000084AFB68DB0013449B880022194603F0DB
:1007A00068F9FB680133FB60FB68072BE4DD103759
:1007B000BD4680BD6000002080B485B000AF034618
:1007C000FB71114B1B8801335A4203F07F0302F087
:1007D0007F0258BF5342FB600B4B5B881A46FB6895
:1007E00093420BD0084B1B881A46074B1344FA79E7
:1007F0001A71FB689AB2044B1A8000E000BF1437EC
:10080000BD4680BC704700BF1402002080B483B096
:1008100000AF7860114B1A88104B5B889A4201D167
:10082000002315E00D4B5B881A460C4B13441A79D4
:100830007B681A70094B5B8801335A4203F07F03CF
:1008400002F07F0258BF53429AB2044B5A800123F0
:1008500018460C37BD4680BC704700BF140200200C
:1008600080B582B000AF0023BB710023FB712CE088
:100870001C4B5B89002B02D1BB79CF2B24D1194BA8
:100880005B89092B09D8174B5B895A1C91B2154A11
:1008900051811A46B979134B9954124BDB681B02EC
:1008A000BA7913430F4AD3600E4BDB684FF6FF62F1
:1008B00093420AD10B4B5B89FB710A4B0022DA6031
:1008C000084B00225A8100E000BFBB1D1846FFF70D
:1008D0009DFF0346002BCBD1FB7918460837BD4658
:1008E00080BD00BF9802002080B582B000AFFFF746
:1008F000B7FF0346FB80FB88002B04D0044B9B789A
:100900001846FFF717FF0A2004F047FEEFE700BF85
:100910009802002080B582B000AF78607B681B68C9
:10092000084A934209D1084B1B781846FFF744FF49
:1009300001220549054804F026F800BF0837BD46E6
:1009400080BD00BF0038014010020020E80A0020EE
:1009500080B586B000AF03463A60FB710B46BB71B1
:10096000164A07F1080307CA03C31A80FB79BB7252
:10097000BB79FB7200233B7300237B733B681B0A2C
:10098000DBB2BB733B68DBB2FB7307F108014FF4CA
:100990007A730A220A4803F06BFF03467B617B6986
:1009A000002B05D0074800F04FF86FF0040300E07B
:1009B000002318461837BD4680BD00BFF48B0008E1
:1009C000E80A0020D88B000880B500AF0122034957
:1009D000034803F0D8FF0023184680BD1002002012
:1009E000E80A002080B485B000AFF860B9607A6092
:1009F000FB68064A1A60BB68054A1A607B68802259
:100A00001A6000BF1437BD4680BC7047A8020020A2
:100A10004803002080B485B000AFF860B9607A6008
:100A2000FB68074A1A60BB68064A1A607B684FF485
:100A300080721A6000BF1437BD4680BC704700BF8B
:100A400048050020E80500200FB480B582B000AF53
:100A500000237B6007F114037B607B683A69FF2108
:100A60000A4807F01DFB0948FFF772FB03469AB2DC
:100A70006FF07F430549064803F0FAFE00BF0837D0
:100A8000BD46BDE8804004B0704700BFE8090020C3
:100A9000300B002080B483B000AF78607B680E2BF1
:100AA0003CD801A252F823F0E50A0008E90A000840
:100AB000ED0A0008F10A0008F50A0008F90A000822
:100AC000FD0A0008010B0008050B0008090B0008CF
:100AD0001D0B00080D0B0008110B0008150B00087A
:100AE000190B0008114B1BE0114B19E0114B17E0DB
:100AF000114B15E0114B13E0114B11E0114B0FE0BE
:100B0000114B0DE0114B0BE0114B09E0114B07E0CD
:100B1000114B05E0114B03E0114B01E000BF114BFD
:100B200018460C37BD4680BC704700BF108C0008CB
:100B30001C8C0008288C0008388C00084C8C00089D
:100B40005C8C0008688C0008788C0008848C000895
:100B5000948C0008A48C0008B48C0008C08C000899
:100B6000D08C0008DC8C000880B483B000AF7860C3
:100B70007B68202B5ED801A252F823F0010C0008FC
:100B8000050C0008090C00080D0C0008110C0008E9
:100B9000150C0008190C0008350C00081D0C000885
:100BA000210C0008250C0008350C0008290C000851
:100BB000350C0008350C0008350C00082D0C000819
:100BC000350C0008350C0008350C0008350C000801
:100BD000350C0008350C0008350C0008350C0008F1
:100BE000350C0008350C0008350C0008350C0008E1
:100BF000350C0008350C0008350C0008310C0008D5
:100C0000104B19E0104B17E0104B15E0104B13E0A0
:100C1000104B11E0104B0FE0104B0DE0104B0BE0B0
:100C2000104B09E0104B07E0104B05E0104B03E0C0
:100C3000104B01E000BF104B18460C37BD4680BC7E
:100C4000704700BFEC8C0008F88C0008048D000889
:100C50000C8D0008188D0008248D0008348D0008C4
:100C6000408D00084C8D00085C8D00086C8D0008DC
:100C70007C8D00088C8D00089C8D000880B400AF2E
:100C8000024B1846BD4680BC704700BFA88D0008C7
:100C9000F0B585B004AF7748FFF7D6FE7648FFF78A
:100CA000D3FE46233F2B17D03223303B4FF47A72CA
:100CB00003FB02F23023303B642101FB03F3D11824
:100CC0003223A3F1300213469B0013445B00CA1881
:100CD0003523303BD41800E0632446233F2B67D0F4
:100CE00046234A2B05D16523612B02D162236E2B4B
:100CF0005CD04623462B56D046234D2B05D1652389
:100D0000612B02D16223722B4BD04623412B02D19F
:100D10006523702B42D046234D2B05D16523612BD3
:100D200002D16223792B36D046234A2B05D1652385
:100D3000752B02D162236E2B2AD046234A2B05D174
:100D40006523752B02D162236C2B1ED04623412BC9
:100D500002D16523752B15D04623532B10D0462383
:100D60004F2B0BD046234E2B06D04623442B01D1CC
:100D70000C2209E0632207E00B2205E00A2203E0CF
:100D8000092201E0082202E001E0072202E001E07E
:100D9000062202E001E0052202E001E0042204E074
:100DA00003E0032205E0022203E002E0012200E06A
:100DB000632246233F2B10D032232F2B08D9322316
:100DC000A3F130010B469B000B445B00194600E089
:100DD00000213023303BCD1800E0632531233F2B29
:100DE0000CD03123A3F130010B469B000B445B0078
:100DF000194636230B44A3F1300100E0632131236F
:100E00003F2B0CD03123A3F1300003469B00034459
:100E10005B00184639230344A3F1300000E063204F
:100E200031233F2B0BD03423A3F1300633469B00F4
:100E300033445B001E4633233344303B00E06323DE
:100E40000293019000912B4621460C48FFF7FCFDD0
:100E5000FFF714FF034619460948FFF7F5FD094956
:100E60000948FFF7F1FD0348FFF7EEFD00BF043727
:100E7000BD46F0BDBC8D0008FC8D0008208E00082A
:100E8000548E0008688E0008708E000880B500AF90
:100E9000FFF79AFD0346002B02D04FF0FF330AE024
:100EA000FFF7BAFBFFF77CFB0346002B02D04FF0A5
:100EB000FF3300E00023184680BD0000B0B590B0BD
:100EC00000AF02F015F900F05FF800F0F9F800F05B
:100ED000A3F800F0CBF8FFF7DBFEFFF7D7FF224BBC
:100EE000BB630023FB6307F138030022012118468E
:100EF00004F068FB03461D4A13601D4B07F11C04F8
:100F00001D460FCD0FC495E8070084E8070007F1E0
:100F10001C030021184604F0F4FA0346154A136036
:100F2000154B3C461D460FCD0FC495E8070084E8DD
:100F300007003B460021184604F0E3FA03460F4A37
:100F400013600C4B1B68002B02D10D48FFF77CFD92
:100F50000A4B1B68002B02D10A48FFF775FD04F00D
:100F6000C9FA00BFFDE700BF45120008800B002052
:100F7000DC8E0008780B0020048F00087C0B00201A
:100F8000888E0008AC8E000880B590B000AF07F1E5
:100F9000180328220021184607F090F83B1D002274
:100FA0001A605A609A60DA601A610923BB614FF4D3
:100FB0008033FB6100233B620123BB6201233B635F
:100FC00002237B634FF48033BB634FF4E013FB6376
:100FD00007F11803184602F07DFD0346002B01D0EF
:100FE00000F052F90F237B600223BB600023FB60FB
:100FF0004FF480633B6100237B613B1D0221184657
:1010000002F0EAFF0346002B01D000F03DF900BFDB
:101010004037BD4680BD000080B500AF114B124A7D
:101020001A60104B4FF4E1325A600E4B00229A6066
:101030000C4B0022DA600B4B00221A61094B0C2288
:101040005A61084B00229A61064B0022DA6105487A
:1010500003F0BEFB0346002B01D000F015F900BFE2
:1010600080BD00BFE80A00200038014080B500AF15
:10107000114B124A1A60104B4FF4E1325A600E4B7A
:1010800000229A600C4B0022DA600B4B00221A619E
:10109000094B0C225A61084B00229A61064B002230
:1010A000DA61054803F094FB0346002B01D000F001
:1010B000EBF800BF80BD00BF300B002000440040B3
:1010C00080B588B000AF07F1100300221A605A60A3
:1010D0009A60DA60454B9B69444A43F01003936180
:1010E000424B9B6903F01003FB60FB683F4B9B691D
:1010F0003E4A43F0200393613C4B9B6903F020037D
:10110000BB60BB68394B9B69384A43F00403936169
:10111000364B9B6903F004037B607B68334B9B6910
:10112000324A43F008039361304B9B6903F0080394
:101130003B603B6800224FF400512D4802F099FCBF
:1011400000224FF2F8312B4802F093FC00224FF4BA
:101150001941294802F08DFC4FF400533B610123F3
:101160007B610023BB610223FB6107F11003194679
:101170001F4802F0E3FAC0233B6100237B61002398
:10118000BB6107F1100319461B4802F0D7FA03238D
:101190003B6100237B610023BB6107F1100319460B
:1011A000144802F0CBFA4FF2F8333B6101237B6124
:1011B0000023BB610223FB6107F1100319460D48B0
:1011C00002F0BCFA4FF419433B6101237B61002319
:1011D000BB610223FB6107F110031946064802F0C8
:1011E000ADFA00BF2037BD4680BD00BF00100240F1
:1011F00000100140000C01400008014080B582B0A1
:1012000000AF78600948FFF71FFC00F0FBFA00F020
:1012100035FB074B1B684FF4FA71184604F006FAC9
:10122000FFF786F900BF0837BD4680BD208F000854
:10123000800B002080B582B000AF7860FFF754FBD0
:10124000FCE7000080B582B000AF78604FF4005139
:10125000034802F026FC00BF0837BD4680BD00BF32
:101260000010014080B582B000AF78607B681B68D9
:10127000044A934201D101F051FF00BF0837BD4637
:1012800080BD00BF0008004080B400AF72B600BF50
:1012900000BFFDE780B584B000AF184B9B69174ACB
:1012A00043F001039361154B9B6903F00103BB609D
:1012B000BB68124BDB69114A43F08053D3610F4B7B
:1012C000DB6903F080537B607B6800220F216FF0A5
:1012D000010001F0F4FF0A4B5B68FB60FB6823F040
:1012E000E063FB60FB6843F00073FB60044AFB684B
:1012F000536000BF1037BD4680BD00BF00100240E4
:101300000000014080B58AB000AF786007F1180393
:1013100000221A605A609A60DA607B681B683B4A58
:1013200093423AD13A4B9B69394A43F480439361E3
:10133000374B9B6903F480437B617B69344B9B692A
:10134000334A43F004039361314B9B6903F0040378
:101350003B613B694FF40073BB610223FB610323D4
:101360007B6207F1180319462A4802F0E7F94FF4A7
:101370008063BB610023FB6100233B6207F118031C
:101380001946244802F0DAF900220521252001F04F
:1013900096FF252001F0AFFF34E07B681B681E4AF2
:1013A00093422FD11A4BDB69194A43F40033D361BE
:1013B000174BDB6903F40033FB60FB68144B9B693C
:1013C000134A43F004039361114B9B6903F0040338
:1013D000BB60BB680423BB610223FB6103237B6208
:1013E00007F1180319460B4802F0A8F90823BB615E
:1013F0000023FB6100233B6207F1180319460548EF
:1014000002F09CF900BF2837BD4680BD003801407E
:1014100000100240000801400044004080B58EB03A
:1014200000AF78600023FB620023BB62002387F8D3
:101430003330344BDB69334A43F00403D361314B1F
:10144000DB6903F00403FB60FB6807F1100207F19E
:1014500014031146184602F02FFF3B6AFB62FB6A39
:10146000002B03D102F000FF786304E002F0FCFEE1
:1014700003465B007B637B6B234AA2FB03239B0C2D
:10148000013BBB62214B224A1A60204B40F2E732FB
:10149000DA601E4ABB6A53601C4B00221A611B4B68
:1014A00000229A60194B00229A61184802F052FFFC
:1014B000034687F8333097F83330002B1BD113489D
:1014C00002F0A0FF034687F8333097F83330002B43
:1014D00011D11E2001F00FFF7B680F2B08D80022CE
:1014E00079681E2001F0EBFE0A4A7B68136002E077
:1014F000012387F8333097F8333018463837BD4624
:1015000080BD00BF0010024083DE1B43840B00201F
:10151000000800404401002080B400AF00BFFDE798
:1015200080B400AF00BFFDE780B400AF00BFFDE7AF
:1015300080B400AF00BFFDE780B400AF00BFFDE79F
:1015400080B400AF00BFBD4680BC704780B500AF1F
:10155000024802F0A9FF00BF80BD00BF840B00203D
:1015600080B500AF024803F033FA00BF80BD00BF72
:10157000E80A002080B586B000AF7860144A154BA9
:10158000D31A7B617B693B61134B1B68002B02D133
:10159000114B124A1A60104B1A687B6813443A695F
:1015A0009A4207D206F0E8FD03460C221A604FF07B
:1015B000FF3309E0084B1B68FB60074B1A687B6828
:1015C0001344054A1360FB6818461837BD4680BDB2
:1015D0000050002000040000CC0B00206020002000
:1015E00080B400AF00BFBD4680BC704780B584B0FA
:1015F00000AF78600B46FB70FB78DB00FB700023CC
:10160000FB730CE0FB7B7A6813441B78184600F0F0
:1016100083F8012003F0C1FFFB7B0133FB73FA7BEE
:10162000FB789A42EED300BF00BF1037BD4680BDA5
:1016300080B500AF01224FF48071074802F019FA1B
:10164000022003F0AAFF00224FF48071024802F04A
:1016500010FA00BF80BD00BF0008014080B582B015
:1016600000AF0346FB71FB7903F00103DBB21A46BE
:101670004FF40041164802F0FCF9FB795B10DBB235
:1016800003F00103DBB21A464FF48041104802F028
:10169000F0F9FB799B10DBB203F00103DBB21A46D1
:1016A0004FF400510A4802F0E4F9FB79DB10DBB299
:1016B00003F00103DBB21A464FF48051044802F0F4
:1016C000D8F9FFF7B5FF00BF0837BD4680BD00BFA2
:1016D000000C014080B582B000AF0346FB710022D0
:1016E0004FF480510B4802F0C4F9FB791B09DBB2BF
:1016F0001846FFF7B3FFFB7903F00F03DBB2184680
:10170000FFF7ACFF022003F048FF00BF0837BD46DB
:1017100080BD00BF0008014080B582B000AF034625
:10172000FB7101224FF480510B4802F0A2F9FB79C2
:101730001B09DBB21846FFF791FFFB7903F00F039B
:10174000DBB21846FFF78AFF022003F026FF00BF36
:101750000837BD4680BD00BF0008014080B582B09B
:1017600000AF78607B685A1C7A601B781846FFF7D8
:10177000D3FF7B681B780A2BF4D100BF00BF08376A
:10178000BD4680BD80B500AF0120FFF7A3FF02205A
:1017900003F003FF00BF80BD80B500AF0C20FFF752
:1017A00099FF00BF80BD80B500AF0E20FFF792FF0C
:1017B00000BF80BD80B582B000AF03460A46FB7112
:1017C0001346BB71BB79013BBB71FB79012B02D086
:1017D000022B09D011E0BB7963F07F03BB71BB79A9
:1017E0001846FFF777FF08E0BB7963F03F03BB7152
:1017F000BB791846FFF76EFF00BF00BF0837BD4634
:1018000080BD000080B500AF01224FF480711948FF
:1018100002F02FF900224FF48051164802F029F906
:1018200000224FF40061134802F023F93320FFF740
:1018300051FF042003F0B1FE3220FFF74BFF0420DC
:1018400003F0ABFE2820FFF745FF0C20FFF742FF17
:101850000620FFF73FFFFFF795FFC82003F09DFE2E
:101860004020FFF737FF06210348FFF7BFFE00BF08
:1018700080BD00BF00080140A400002080B586B0F4
:1018800000AF4A220021154806F018FC144B1B68D3
:10189000144A1046194647231A4606F099FC3B1D88
:1018A000114A1249184606F0AFFB3B1D1946104875
:1018B000FFF7CAF802210120FFF77CFF3B1D184605
:1018C000FFF74CFF01210220FFF774FF0948FFF7E3
:1018D00045FF00BF1837BD4680BD00BFD00B0020BC
:1018E0000C0200201C0C0020510C0020388F000836
:1018F0003C8F0008508F000880B500AF0E4B9B7ADC
:10190000002B16D00C4B1B7B01211846FFF752FF12
:10191000094BDB7ADB43DAB2074BDA72064BDB7A30
:10192000002B03D00548FFF719FF02E00448FFF73A
:1019300015FF00BF80BD00BFD00B0020DD0B0020D5
:10194000F10B002080B582B000AF0346FB710B465F
:10195000BB711346BB80BA88B979FB791846FEF78C
:10196000F7FF00BF0837BD4680BD000090B587B0C7
:1019700000AF03460A46FB711346BB710D233B6162
:10198000FB791846FFF786F80446BB791846FFF73F
:10199000EBF803461A4621461448FFF755F8FB7941
:1019A0003B72BB799BB27B8100237B6115E0104ABF
:1019B0007B6912F83330FA799A420BD10C4A7B6971
:1019C000DB0013445B6807F1080292E803009847C4
:1019D000034606E07B6901337B613B69002BE6D15E
:1019E0000F2318461C37BD4690BD00BF648F00080A
:1019F000D400002090B591B002AF0346FB71AA4B12
:101A00001B78013387F83730FB791946A748FFF771
:101A10001BF8FB790E2B00F2CA8101A252F823F0C9
:101A20005D1A00088D1A0008BD1A0008EF1A000898
:101A3000391B0008611B0008891B0008A91B00084E
:101A4000E71B00083D1C00080B1C0008571C000881
:101A5000731C00088D1C00083D1D000897F83720F6
:101A600007F120039249184606F0CEFA97F837306E
:101A7000904A5B001344B3F807309BB21A4607F153
:101A80000C038D49184606F0BFFA90E197F837200D
:101A900007F120038949184606F0B6FA97F837305F
:101AA000844A5B001344B3F807309BB21A4607F12F
:101AB0000C038349184606F0A7FA78E197F8372017
:101AC00007F120037F49184606F09EFA97F8373051
:101AD000784A08335B001344B3F807309BB21A46C8
:101AE00007F10C037649184606F08EFA5FE197F885
:101AF000372007F120037449184606F085FA97F855
:101B000037306C4A134493F82730002B01D06F4ACA
:101B100000E06F4A07F10C036E49184606F074FAAC
:101B200007F10C03112219466B4806F051FB6B4973
:101B30006B4806F069FA3AE107F120036949184653
:101B400006F062FA5B4B1B79002B01D0664A00E07D
:101B5000664A07F10C036649184606F055FA26E175
:101B600007F120036349184606F04EFA514B1B79E2
:101B7000002B01D05C4A00E05C4A07F10C035E498F
:101B8000184606F041FA12E107F120035B491846B6
:101B900006F03AFA474B5B791A4607F10C035849AD
:101BA000184606F031FA02E107F1200355491846BC
:101BB00006F02AFA3F4B93F82F3019463D4B93F825
:101BC00030301C463B4B93F831301A46394B93F872
:101BD000323007F10C000193009223460A464A492D
:101BE00006F012FAE3E007F120034649184606F032
:101BF0000BFA304BB3F833309BB21A4607F10C03A3
:101C00004249184606F000FAD1E007F120033D49A9
:101C1000184606F0F9F9244B93F84930002B06D109
:101C200007F10C033A49184606F0EEF9BFE007F158
:101C30000C033849184606F0E7F9B8E007F120032D
:101C40003549184606F0E0F907F10C033349184608
:101C500006F0DAF9ABE007F12003314A31491846C2
:101C600006F0D2F907F10C032F49184606F0CCF91B
:101C70009DE007F120032D49184606F0C5F907F14C
:101C80000C032B49184606F0BFF990E007F120033A
:101C90002849184606F0B8F907F10C0326491846FA
:101CA00006F0B2F983E000BFD00B0020788F000867
:101CB000988F00081C0C0020AC8F0008BC8F000817
:101CC000D08F0008E08F0008F48F0008089000080B
:101CD0001090000818900008DD0B002028900008E4
:101CE000F10B00203C90000850900008589000082C
:101CF000609000087090000884900008949000089C
:101D0000A8900008BC900008D0900008E890000857
:101D1000F89000080C910008209100083491000808
:101D2000510C002048910008508F00085091000885
:101D300064910008789100088C910008284B93F872
:101D40004530284AA2FB0323DB08DBB21C46244BA8
:101D500093F84520234BA3FB0213D9080B469B00A5
:101D60000B445B00D31ADBB207F1200022461E4968
:101D700006F04AF91A4B93F846301A4AA2FB03239D
:101D8000DB08DBB21C46164B93F84620154BA3FB31
:101D90000213D9080B469B000B445B00D31ADBB23D
:101DA00007F10C002246114906F02EF900BF01216F
:101DB0000120FFF7FFFC07F120031846FFF7CEFCD8
:101DC00001210220FFF7F6FC07F10C031846FFF78C
:101DD000C5FC0748FEF738FE00BF3C37BD4690BD46
:101DE0001C0C0020CDCCCCCCA0910008B8910008F0
:101DF000D091000880B485B000AF03463960FB8005
:101E0000FB88FB60184BDB79BB6023E0BB683A685A
:101E10001344FF221A70FB68002B18D0FA68134B8A
:101E200083FB02139910D317C91A0B469B000B446E
:101E30005B00D11ABB683A6813444AB21A70FB6857
:101E40000A4A82FB03129210DB17D31AFB60BB68AD
:101E5000013BBB60BB68002BD8DA00BF00BF143762
:101E6000BD4680BC704700BFD00B00206766666629
:101E700080B485B000AF786000237B810023FB60D5
:101E800017E0FB687A68134493F90030002B0DDBF0
:101E90007B891A46920013445B009AB2FB6879680A
:101EA0000B4493F900309BB213447B81FB680133F0
:101EB000FB60064BDB791A46FB689342E1DD7B89C8
:101EC00018461437BD4680BC704700BFD00B0020B9
:101ED00080B582B000AF3B4683E803003E48FEF782
:101EE000B3FD3E4B00225A707B88102B67D801A2AD
:101EF00052F823F0391F0008BF1F0008411F0008D7
:101F0000BF1F00085D1F0008BF1F0008BF1F00089B
:101F1000BF1F0008BF1F0008BF1F0008BF1F000829
:101F2000BF1F0008BF1F0008BF1F0008BF1F000819
:101F3000BF1F0008791F0008284B00221A703FE0DD
:101F4000264B1B7801335A4203F0070302F00702C5
:101F500058BF5342DAB2214B1A7031E01F4B1B7845
:101F600007335A4203F0070302F0070258BF5342F7
:101F7000DAB21A4B1A7023E00120FFF73BFD174B32
:101F80001B78174A5B001344B3F807309AB2134B1F
:101F90001A81124B0D225A70104B0422DA710F4B2A
:101FA0001B8910491846FFF725FF0C4B5B78194633
:101FB0000220FFF7FFFBFFF7F6FB022307E000BF5D
:101FC0000020FFF717FD0848FEF73EFD0F231846D7
:101FD0000837BD4680BD00BFE8910008D00B002047
:101FE0001C0C0020D20B00200492000890B591B088
:101FF00000AF3B4683E803003B7887F83F30A64BB1
:102000005B7887F83730A44B5B78093B87F836302C
:10201000002387F83E30A04B1B7887F835307B884B
:10202000013B0B2B00F2EB8001A252F823F000BF22
:10203000FD20000861200008FF210008952000080D
:10204000FF210008FF210008FF2100088721000868
:10205000FF210008C9200008FF210008E320000834
:1020600097F836308C4A1A4492F90220D1B20131E5
:10207000C9B248B288490B4401469970082A05DD67
:1020800097F83630844A134400229A70012387F867
:102090003E30B4E097F836307F4A1A4492F9022075
:1020A000D1B20139C9B248B27B490B44014699709B
:1020B000002A05DC97F83630774A134409229A70D3
:1020C000012387F83E309AE0734B5B785A1ED1B2F9
:1020D000714A5170092B00F28F806F4B0D225A709C
:1020E0008AE06D4B5B785A1CD1B26B4A51700C2B55
:1020F00040F28480684B09225A707FE03B78022BC3
:1021000019D197F835406548FFF7B2FE03461946E6
:10211000634A630013440A46A3F80720B22387F8F2
:102120003D3097F835305E4A5B001344B3F8073012
:102130009BB2BB631BE097F835405848FFF798FE09
:1021400003461946564A04F108035B0013440A4645
:10215000A3F80720B32387F83D3097F83530504A6D
:1021600008335B001344B3F807309BB2BB63BB6B0F
:102170009AB297F8351097F83D301846FFF7E2FB12
:1021800000F098F83BE03B78022B23D10220FFF7C8
:1021900031FC032387F83F3097F83530404A083345
:1021A0005B001344B3F807309AB23B4B1A813A4BA9
:1021B0000D225A70384B0422DA71374B1B8937498C
:1021C0001846FFF717FE344B5B7819460220FFF7DD
:1021D000F1FA14E00320FFF70DFC2F4B01229A7255
:1021E0002D4B02221A732C4B0022DA72042387F83B
:1021F0003F30FFF7D1FA02E000BF00E000BF97F8E0
:102200003E30002B35D097F835305C1C2348FFF763
:102210002FFE03461A4621462248FEF715FC3B785E
:10222000022B09D197F835305A1C07F120031E49BB
:10223000184605F0E9FE08E097F835305A1C07F11A
:1022400020031A49184605F0DFFE1448FFF710FE78
:1022500003461A4607F10C031549184605F0D4FE4B
:1022600001210220FFF7A6FA07F10C031846FFF739
:1022700075FA094B5B7897F837209A4205D0064BE0
:102280005B7819460220FFF795FA97F83F30184619
:102290004437BD4690BD00BFD00B0020D20B0020BC
:1022A0001C0C002028920008BC8F0008E08F00085A
:1022B0004C92000880B500AF084B1B68084A1846CE
:1022C000114647231A4605F083FFFEF7B9F90020AF
:1022D000FFF790FB0F23184680BD00BF0C020020C3
:1022E0001C0C002080B500AF044B93F849301A460F
:1022F0000021C020FFF726FB00BF80BDD00B0020CF
:1023000080B584B000AF3B4683E803003B78FB73A5
:1023100000237B73FB7B042B08D1614B1B781A468F
:10232000604B134493F82730BB7302E05D4B1B797D
:10233000BB737B88013B0F2B00F2AA8001A252F8ED
:1023400023F000BFF723000885230008912400082C
:102350008523000891240008912400089124000896
:102360007524000891240008912400089124000895
:102370009124000891240008912400089124000869
:1023800017240008BB7BDB43BB73FB7B042B1BD1F7
:10239000BB7B002B01D0444B00E0444B1A46444920
:1023A000444805F031FEBB7B002B0CBF012300230A
:1023B000D9B23B4B1B781A463A4B13440A4683F872
:1023C0002720B8237B7366E0BB7B002B01D03A4B00
:1023D00000E03A4B1A463A49364805F015FEBB7BF9
:1023E000002B0CBF01230023DBB21A462D4B1A71C0
:1023F000B1237B734FE02A4B00229A72284B197845
:10240000BB7B9AB27B7B1846FFF79CFAFFF752FF23
:102410000346FB733FE0FB7B042B0FD1BB7B002B00
:1024200001D0224B00E0204B1A462149214805F0FB
:10243000EBFD2449244805F0E7FD11E0BB7B002BB0
:1024400001D01E4B00E01C4B1A461D49194805F0EF
:10245000DBFD1E491C4805F0D7FD0520FFF7CAFA31
:102460000F4B0022DA720E4B02221A730C4B012220
:102470009A7210E0FB7B042B03D10320FFF7BAFA1A
:1024800008E0FB7B052B05D10420FFF7B3FA01E040
:1024900000BF00E000BFFB7B18461037BD4680BD83
:1024A000D00B00201C0C00201090000808900008A1
:1024B00018900008DD0B002058900008509000088C
:1024C000609000085C920008F10B002070920008F8
:1024D00080B584B000AF3B4683E803003B78FB73D4
:1024E000494B5B79BB737B88013B0F2B77D801A2EB
:1024F00052F823F06525000835250008DF2500087F
:102500004D250008DF250008DF250008DF2500082D
:10251000CD250008DF250008DF250008DF2500089D
:10252000DF250008DF250008DF250008DF2500087B
:10253000A7250008344B5B795A1CD1B2324A51713D
:102540000A2B4ED9304B01225A714AE02E4B5B794F
:102550005A1ED1B22C4A5171012B44D82A4B0A225F
:102560005A7140E0294B93F84830002B12D0FFF706
:1025700013F9264B93F849301A460021C220FFF781
:10258000E1F9FFF797FE0346FB73204B002283F827
:1025900048202BE01D4B002283F849200A23FB73BF
:1025A000FFF7A0FE22E0194B012283F84820174BC9
:1025B0000E225A700620FFF71DFA144B5B7819465D
:1025C0000220FFF7F7F8FFF7EEF80FE00F4B93F854
:1025D0004830002B09D10620FFF70CFA05E000BFB8
:1025E00004E000BF02E000BF00E000BF064B5B79E3
:1025F000BA7B9A4202D00620FFF7FCF9FB7B184613
:102600001037BD4680BD00BF1C0C0020D00B002041
:1026100080B584B000AF78600B46FB707868FFF738
:1026200027FC0346FB81134B93F842307B73F97808
:10263000FA897B7B1048FEF707FAFB89FF2B14D938
:102640007B7B002B03D17B6800221A700DE0FB78A6
:10265000002B05D07B7B7A68134400221A7004E0BB
:102660007B7B7A68134405221A7000BF1037BD4681
:1026700080BD00BFD00B002084920008F0B58FB061
:1026800002AF3B4683E803003B7887F82F300023F6
:1026900087F82730AF4B5B7887F826307B88013B83
:1026A0000F2B00F2A08101A252F823F0D9280008D4
:1026B000ED260008E7290008ED260008E7290008B4
:1026C000E7290008E7290008D5290008E7290008BC
:1026D00001280008E72900086D280008E7290008FC
:1026E000E7290008E729000847290008994B93F8D3
:1026F00041301A4613465B0013443033954A134465
:102700005A1D07F120031188927819809A707B88EE
:10271000022B11D18F4B93F8423003F130023A442F
:1027200012F8102C0132D2B230333B4403F8102C93
:10273000012387F827301FE0864B93F8423030336F
:102740003B4413F8103C002B08D1824B93F84230E5
:1027500030333B44092203F8102C0DE07D4B93F8F5
:10276000423003F130023A4412F8102C013AD2B24E
:1027700030333B4403F8102C97F8272007F120034F
:1027800011461846FFF744FF724B93F841301A4642
:1027900013465B00134430336E4A134405331A4624
:1027A00007F1200319889B78118093706A48FFF71E
:1027B0005FFB0346DBB21D466848FFF759FB034643
:1027C000DBB21E466648FFF753FB0346DBB21C46EE
:1027D0006448FFF74DFB0346DBB207F10C000193A1
:1027E000009433462A46604905F00EFC0121022080
:1027F000FEF7E0FF07F10C031846FEF7AFFFF9E024
:10280000544B5B785A1ED1B2524A5170002B0AD1F8
:10281000504B0F225A704F4B032283F841204D4BEF
:10282000022283F842204B4B93F84230013BDAB24C
:10283000484B83F84220474B5B7803F00303DBB23D
:10284000002B40F0D280434B5B78013BDAB2414B26
:102850005A70404B93F84130013BDAB23D4B83F85C
:1028600041203C4B022283F84220BEE0394B5B788A
:102870005A1CD1B2374A51700E2B0AD9354B01225E
:102880005A70344B002283F84120324B002283F8E7
:102890004220304B93F842300133DAB22D4B83F8AB
:1028A00042202C4B5B7803F00303DBB2002B40F09B
:1028B0009E80284B5B780133DAB2264B5A70254B49
:1028C00093F841300133DAB2224B83F84120214B97
:1028D000002283F842208AE01E4B93F84830002BF8
:1028E00027D0FEF759FF0023BB6215E0BA6A1346F2
:1028F0005B0013443033174A134405331846FFF77F
:10290000B7FA0346D9B2194ABB6A13442F330A46B1
:102910001A70BB6A0133BB62BB6A032BE6DDFFF7AB
:10292000C9FC034687F82F300A4B002283F8482061
:1029300060E0084B012283F849200A2387F82F30F2
:10294000FFF7D0FC56E0034B0222DA710023BB6292
:1029500022E000BFD00B0020050C0020080C002056
:102960000B0C00200E0C0020D09000081C0C002046
:10297000294ABB6A13442F331B781846BA6A134698
:102980005B0013443033254A134405331946FFF7DF
:1029900031FABB6A0133BB62BB6A032BE8DD1F4B14
:1029A0000F225A701D4B032283F841201B4B022239
:1029B00083F84220194B012283F84820174B5B789B
:1029C00019460220FEF7F6FEFEF7EDFE0720FFF7A0
:1029D00011F80FE0114B93F84830002B09D1072074
:1029E000FFF708F805E000BF04E000BF02E000BF09
:1029F00000E000BF094B5B7897F826209A4205D08B
:102A0000064B5B7819460220FEF7D4FE97F82F306C
:102A100018463437BD46F0BD1C0C0020D00B0020FA
:102A200080B58AB000AF3B4683E803000F2387F8E8
:102A30002730974B5B7887F826307B88013B0F2B3C
:102A400000F2138101A252F823F000BFCF2B00083F
:102A50008D2A00086B2C00088D2A00086B2C0008BA
:102A60006B2C00086B2C0008592C00086B2C0008FC
:102A70006B2B00086B2C00089D2B00086B2C0008AA
:102A80006B2C00086B2C0008152C0008804A07F1FD
:102A9000200343321068186012791A717B88022B68
:102AA00020D17B4B93F8423028333B4413F8083C49
:102AB000092B08D1764B93F8423028333B4400224F
:102AC00003F8082C2EE0724B93F8423003F12802F1
:102AD0003A4412F8082C0132D2B228333B4403F8AE
:102AE000082C1FE06A4B93F8423028333B4413F81C
:102AF000083C002B08D1664B93F8423028333B4406
:102B0000092203F8082C0DE0614B93F8423003F1E1
:102B100028023A4412F8082C013AD2B228333B4436
:102B200003F8082C5A4B433307F120021068186051
:102B300012791A715748FFF79BF903461A4607F1B5
:102B40000C035549184605F05FFA01210220FEF7F3
:102B500031FE07F10C031846FEF700FE4C4B5B7884
:102B600019460220FEF726FE7FE0494B5B785A1E8D
:102B7000D1B2474A5170072B07D8454B0B225A70E8
:102B8000434B042283F842206FE0414B93F84230DC
:102B9000013BDAB23E4B83F8422066E03C4B5B7867
:102BA0005A1CD1B23A4A51700A2B07D9384B072226
:102BB0005A70374B002283F8422056E0344B93F88A
:102BC00042300133DAB2324B83F842204DE0304BD1
:102BD00093F84830002B13D0FEF7DEFD2D48FFF7A9
:102BE00047F903461A462D4BA3F83320FFF762FB43
:102BF000034687F82730264B002283F8482034E02C
:102C0000234B012283F849200A2387F82730FFF756
:102C100069FB2AE01E4B012283F848201C4B0B2243
:102C20005A701B4B0522DA71194B042283F842209B
:102C30001A4BB3F833309BB216491846FFF7DAF84F
:102C4000134B5B7819460220FEF7B4FDFEF7ABFD8F
:102C50000820FEF7CFFE08E00D4B93F84830002B1C
:102C600002D10820FEF7C6FE00BF094B5B7897F83B
:102C700026209A4205D0064B5B7819460220FEF7C3
:102C800099FD97F8273018462837BD4680BD00BF0C
:102C9000D00B0020130C0020AC9200081C0C00206C
:102CA00080B584B000AF3B4683E803000F23FB737D
:102CB0007B88012B05D0082B09D10920FEF79AFE4D
:102CC00005E000220021C120FEF73CFE00BFFB7B97
:102CD00018461037BD4680BD80B584B000AF3B4676
:102CE00083E803000F23FB737B88082B09D0202B7C
:102CF0000BD100220021BB20FEF724FE0123FB7331
:102D000003E00A20FEF776FE00BFFB7B1846103773
:102D1000BD4680BD80B485B000AF0346FB71002383
:102D2000FB600BE00A4AFB6813441B78FA799A426D
:102D300001D1FB6806E0FB680133FB60FB68402BB8
:102D4000F0D9002318461437BD4680BC704700BF39
:102D50004493000880B584B000AF78607B681B782E
:102D60001846FFF7D7FFF860FB6801331946084B98
:102D7000A3FB01239A0913469B011344CA1A054B6E
:102D80009A5C7B681A7000BF1037BD4680BD00BFDB
:102D9000FDC00FFC4493000880B588B000AF3B46EF
:102DA00083E803000F23FB77454B5B78BB777B8879
:102DB000013B0B2B74D801A252F823F0652E0008BA
:102DC000ED2D00087B2E0008ED2D0008A12E000837
:102DD000A12E0008A12E0008A12E0008A12E000897
:102DE0002D2E0008A12E0008492E0008344B5B78D8
:102DF0003033344A134405331846FFF7ABFF07F16D
:102E00000803314A3149184605F0FEF80121012036
:102E1000FEF7D0FC07F108031846FEF79FFC284B8D
:102E20005B7819460120FEF7C5FC39E0244B5B783E
:102E30000F335A4203F00F0302F00F0258BF534200
:102E4000DAB21F4B5A702BE01D4B5B7801335A42AC
:102E500003F00F0302F00F0258BF5342DAB2184BCF
:102E60005A701DE0FEF798FCFFF724FA0346FB7743
:102E7000134B002283F8482012E0114B012283F803
:102E800048200F4B02225A700D4B5B7819460120E7
:102E9000FEF790FCFEF787FC0B20FEF7ABFD00BFB2
:102EA000074B5B78BA7F9A4205D0054B5B78194691
:102EB0000120FEF77FFCFB7F18462037BD4680BD12
:102EC000D00B00201C0C0020510C0020BC920008EC
:102ED00080B584B000AF3B4683E803000F23FB734B
:102EE0007B88012B02D0092B04D00CE00020FEF7D8
:102EF00081FD08E00C20FEF77DFD00220021B920B5
:102F0000FEF720FD00BFFB7B18461037BD4680BD95
:102F100080B594B000AF184A3B461146502218467F
:102F200005F056F9154B5B78042B0BD11449154865
:102F300005F06AF81449154805F066F80F4B0222AF
:102F40001A7314E012490F4805F05EF80B4B5B78DA
:102F500019463A460B469B000B449B0013441A4605
:102F60000C490A4805F050F8044B01221A7300BFBF
:102F70005037BD4680BD00BFC0920008D00B002076
:102F80008C910008DD0B002070920008F10B0020EE
:102F900078910008BC92000880B584B000AF3B4631
:102FA00083E803000F23FB737B88013B052B51D87B
:102FB00001A252F823F000BF15300008D12F0008FD
:102FC00055300008F32F0008553000083530000850
:102FD000234B5B781A1D234B83FB02135910D31725
:102FE000C91A0B469B000B44D11ACAB21C4B5A702B
:102FF00030E01B4B5B785A1C1A4B83FB02135910B1
:10300000D317C91A0B469B000B44D11ACAB2144BF2
:103010005A701FE0124B00229A72114B5A78124BD1
:103020009A71FFF747F90346FB730D4B002283F8B3
:1030300048200FE00C4B9A79094B5A70084B00223C
:10304000DA72074B01229A72FFF762FF0D20FEF73A
:10305000D1FC00BFFB7B18461037BD4680BD00BFCA
:10306000D00B0020676666661C0C002080B584B01B
:1030700000AF3B4683E803000F23FB737B88012BE3
:1030800002D0052B04D007E00020FEF7B3FC03E0DC
:103090000520FEF7AFFC00BFFB7B18461037BD468E
:1030A00080BD0000FEF79CFA0B480C490C4A002337
:1030B00002E0D458C4500433C4188C42F9D3094AEE
:1030C000094C002301E013600432A242FBD305F057
:1030D00059F8FDF7F3FE704700000020A001002022
:1030E000E0930008A001002060200020FEE700001F
:1030F00080B500AF084B1B68074A43F0100313600C
:10310000032000F0D1F80F20FEF788F9FEF7C2F88F
:103110000023184680BD00BF0020024080B400AFED
:10312000054B1B781A46054B1B681344034A136072
:1031300000BFBD4680BC704748010020640C0020E1
:1031400080B400AF024B1B681846BD4680BC704778
:10315000640C002080B485B000AF78607B6803F019
:103160000703FB600C4BDB68BB60BA684FF6FF03DC
:103170001340BB60FB681A02BB68134343F0BF6394
:1031800043F40033BB60044ABB68D36000BF14370C
:10319000BD4680BC704700BF00ED00E080B400AFCA
:1031A000044BDB681B0A03F007031846BD4680BCCE
:1031B000704700BF00ED00E080B483B000AF03466D
:1031C000FB7197F90730002B0BDBFB7903F01F0233
:1031D000064997F907305B09012000FA02F241F82D
:1031E000232000BF0C37BD4680BC704700E100E0E3
:1031F00080B483B000AF03463960FB7197F90730A4
:10320000002B0ADB3B68DAB20C4997F90730120150
:10321000D2B20B4483F800230AE03B68DAB20849D3
:10322000FB7903F00F03043B1201D2B20B441A7670
:1032300000BF0C37BD4680BC704700BF00E100E016
:1032400000ED00E080B489B000AFF860B9607A604A
:10325000FB6803F00703FB61FB69C3F10703042B61
:1032600028BF0423BB61FB690433062B02D9FB6929
:10327000033B00E000237B614FF0FF32BB6902FAA1
:1032800003F3DA43BB681A407B699A404FF0FF3181
:103290007B6901FA03F3D9437B680B40134318465B
:1032A0002437BD4680BC704780B582B000AF7860DF
:1032B0007868FFF74FFF00BF0837BD4680BD80B577
:1032C00086B000AF0346B9607A60FB7300237B6170
:1032D000FFF764FF78617A68B9687869FFF7B2FF31
:1032E000024697F90F3011461846FFF781FF00BFDD
:1032F0001837BD4680BD80B582B000AF0346FB7174
:1033000097F907301846FFF757FF00BF0837BD464B
:1033100080BD80B485B000AF78600023FB737B680C
:1033200093F82130DBB2022B08D07B6804229A6329
:103330007B68002283F82020012320E07B681B6843
:103340001A687B681B6822F00E021A607B681B6893
:103350001A687B681B6822F001021A607B681A6C8D
:103360007B68DB6B012101FA02F25A607B68012263
:1033700083F821207B68002283F82020FB7B1846FD
:103380001437BD4680BC704780B584B000AF78600C
:103390000023FB737B6893F82130DBB2022B05D04E
:1033A0007B6804229A630123FB7351E07B681B68EE
:1033B0001A687B681B6822F00E021A607B681B6823
:1033C0001A687B681B6822F001021A607B681B6820
:1033D000224A934229D07B681B68214A934222D01B
:1033E0007B681B681F4A93421AD07B681B681E4A81
:1033F000934212D07B681B681C4A93420AD07B68B8
:103400001B681B4A934202D14FF480130EE04FF029
:1034100080730BE04FF4803308E04FF4805305E0F5
:103420004FF4807302E0102300E00123114A53603F
:103430007B68012283F821207B68002283F820200A
:103440007B685B6B002B03D07B685B6B786898476D
:10345000FB7B18461037BD4680BD00BF0800024008
:103460001C0002403000024044000240580002406C
:103470006C00024000000240F0B587B000AFF86079
:10348000B960C7E900230123FB750023BB75002346
:103490007B752F4B1B7E012B01D1022354E02C4B5B
:1034A00001221A764CF2503000F0B2F80346FB7558
:1034B000FB7D002B44D1FB68012B02D101237B75DE
:1034C00007E0FB68022B02D102237B7501E0042395
:1034D0007B750023BB752DE0BB7D5A00BB6802EBFA
:1034E000030CBB7D1901D7E90023C1F12006A1F12E
:1034F000200022FA01F403FA06F6344323FA00F01E
:10350000044323FA01F5A3B21946604600F064F8BB
:103510004CF2503000F07CF80346FB750D4B1B69F4
:103520000C4A23F001031361FB7D002B07D1BB7D07
:103530000133BB75BA7D7B7D9A42CDD300E000BFDD
:10354000034B00221A76FB7D18461C37BD46F0BDA2
:10355000680C00200020024080B483B000AF00233C
:10356000FB710D4B1B6903F08003002B0DD00A4B40
:103570000A4A5A60084B0A4A5A60074B1B6903F013
:103580008003002B01D00123FB71FB7918460C3717
:10359000BD4680BC704700BF002002402301674544
:1035A000AB89EFCD80B400AF054B1B69044A43F0F3
:1035B0008003136100231846BD4680BC704700BFDE
:1035C0000020024080B400AF024BDB691846BD46C4
:1035D00080BC7047680C002080B483B000AF786076
:1035E0000B467B80084B0022DA61084B1B69074AB7
:1035F00043F0010313617B687A881A8000BF0C379F
:10360000BD4680BC704700BF680C0020002002400F
:1036100080B584B000AF7860FFF792FDF86010E0ED
:103620007B68B3F1FF3F0CD07B68002B07D0FFF71E
:1036300087FD0246FB68D31A7A689A4201D20323B7
:1036400025E0154BDB6803F00103002BE8D1124B9A
:10365000DB6803F02003002B02D00F4B2022DA603E
:103660000D4BDB6803F01003002B0BD10A4BDB6919
:1036700003F00103002B05D1074BDB6803F00403C3
:10368000002B03D000F00AF8012300E000231846C5
:103690001037BD4680BD00BF0020024080B483B01B
:1036A00000AF00237B60234BDB6803F01003002B8B
:1036B00009D0214BDB6943F002031F4AD3617B68C9
:1036C00043F010037B601B4BDB6803F00403002B0B
:1036D00009D0194BDB6943F00103174AD3617B68BA
:1036E00043F004037B60134BDB6903F00103002B01
:1036F0000BD0114BDB6943F004030F4AD3610D4B30
:10370000DB690C4A23F00103D3617B6840F20112AC
:10371000934206D1074BDB69064A23F00103D361CC
:1037200002E0044A7B68D36000BF0C37BD4680BC12
:10373000704700BF00200240680C002080B48BB0AE
:1037400000AF7860396000237B6200233B6269E14F
:1037500001227B6A02FA03F3FB613B681B68FA698A
:103760001340BB61BA69FB699A4240F058813B68DB
:103770005B689A4A93425ED0984A934275D8984AB9
:10378000934258D0964A93426FD8964A934252D069
:10379000944A934269D8944A93424CD0924A9342B5
:1037A00063D8924A934246D0904A93425DD8122BF6
:1037B0002AD8122B59D801A252F823F03738000822
:1037C0001138000823380008653800086B380008F5
:1037D0006B3800086B3800086B3800086B3800083D
:1037E0006B3800086B3800086B3800086B3800082D
:1037F0006B3800086B3800086B3800086B3800081D
:10380000193800082D380008794A934213D02CE06B
:103810003B68DB683B6229E03B68DB6804333B6262
:1038200024E03B68DB6808333B621FE03B68DB68F1
:103830000C333B621AE03B689B68002B02D10423E7
:103840003B6213E03B689B68012B05D108233B6278
:103850007B68FA691A6109E008233B627B68FA69B0
:103860005A6103E000233B6200E000BFBB69FF2B0D
:1038700001D87B6801E07B6804337B61BB69FF2B67
:1038800002D87B6A9B0002E07B6A083B9B003B619D
:103890007B691A680F213B6901FA03F3DB431A4085
:1038A000396A3B6901FA03F31A437B691A603B6882
:1038B0005B6803F08053002B00F0B1804D4B9B6997
:1038C0004C4A43F0010393614A4B9B6903F00103A7
:1038D000BB60BB68484A7B6A9B08023352F82330BE
:1038E000FB607B6A03F003039B000F2202FA03F3E1
:1038F000DB43FA681340FB607B68404A934213D075
:103900007B683F4A93420DD07B683E4A934207D082
:103910007B683D4A934201D1032306E0042304E07F
:10392000022302E0012300E000237A6A02F003028E
:1039300092009340FA681343FB602F497B6A9B080F
:103940000233FA6841F823203B685B6803F4801374
:10395000002B06D02D4B9A682C49BB6913438B6012
:1039600006E02A4B9A68BB69DB43284913408B6009
:103970003B685B6803F40013002B06D0234BDA6826
:103980002249BB691343CB6006E0204BDA68BB6970
:10399000DB431E491340CB603B685B6803F4003394
:1039A000002B06D0194B5A681849BB6913434B606A
:1039B00006E0164B5A68BB69DB43144913404B6061
:1039C0003B685B6803F48033002B21D00F4B1A68EF
:1039D0000E49BB6913430B6021E000BF00003210A9
:1039E0000000311000002210000021100000121011
:1039F00000001110001002400000014000080140CA
:103A0000000C01400010014000140140000401407E
:103A10000B4B1A68BB69DB43094913400B607B6A97
:103A200001337B623B681A687B6A22FA03F3002B3E
:103A30007FF48EAE00BF00BF2C37BD4680BC704700
:103A40000004014080B485B000AF78600B467B80F5
:103A50007B689A687B881340002B02D00123FB739C
:103A600001E00023FB73FB7B18461437BD4680BC86
:103A7000704780B483B000AF78600B467B801346FC
:103A80007B707B78002B03D07A887B681A6103E017
:103A90007B881A047B681A6100BF0C37BD4680BC66
:103AA000704780B485B000AF78600B467B807B6840
:103AB000DB68FB607A88FB6813401A04FB68D94313
:103AC0007B880B401A437B681A6100BF1437BD46E0
:103AD00080BC704780B586B000AF78607B68002BF3
:103AE00001D1012372E27B681B6803F00103002B04
:103AF00000F08780924B5B6803F00C03042B0CD022
:103B00008F4B5B6803F00C03082B12D18C4B5B6866
:103B100003F48033B3F5803F0BD1894B1B6803F46A
:103B20000033002B6CD07B685B68002B68D10123CD
:103B30004CE27B685B68B3F5803F06D1804B1B6825
:103B40007F4A43F4803313602EE07B685B68002B70
:103B50000CD17B4B1B687A4A23F480331360784B7B
:103B60001B68774A23F4802313601DE07B685B6841
:103B7000B3F5A02F0CD1724B1B68714A43F480231C
:103B800013606F4B1B686E4A43F4803313600BE085
:103B90006B4B1B686A4A23F480331360684B1B68C5
:103BA000674A23F4802313607B685B68002B13D083
:103BB000FFF7C6FA386108E0FFF7C2FA02463B6930
:103BC000D31A642B01D9032300E25D4B1B6803F475
:103BD0000033002BF0D014E0FFF7B2FA386108E0B0
:103BE000FFF7AEFA02463B69D31A642B01D90323CF
:103BF000ECE1534B1B6803F40033002BF0D100E0E1
:103C000000BF7B681B6803F00203002B63D04C4BA2
:103C10005B6803F00C03002B0BD0494B5B6803F08F
:103C20000C03082B1CD1464B5B6803F48033002B3C
:103C300016D1434B1B6803F00203002B05D07B68B1
:103C40001B69012B01D00123C0E13D4B1B6823F010
:103C5000F8027B685B69DB00394913430B603AE08B
:103C60007B681B69002B20D0364B01221A60FFF7BE
:103C700067FA386108E0FFF763FA02463B69D31A36
:103C8000022B01D90323A1E12D4B1B6803F0020392
:103C9000002BF0D02A4B1B6823F0F8027B685B698D
:103CA000DB00274913430B6015E0264B00221A6006
:103CB000FFF746FA386108E0FFF742FA02463B692F
:103CC000D31A022B01D9032380E11D4B1B6803F09B
:103CD0000203002BF0D17B681B6803F00803002B64
:103CE0003AD07B689B69002B19D0174B01221A60D0
:103CF000FFF726FA386108E0FFF722FA02463B692F
:103D0000D31A022B01D9032360E10D4B5B6A03F048
:103D10000203002BF0D0012000F0FEFA1CE00A4B59
:103D200000221A60FFF70CFA38610FE0FFF708FA7B
:103D300002463B69D31A022B08D9032346E100BF90
:103D4000001002400000424280044242924B5B6AF3
:103D500003F00203002BE9D17B681B6803F0040326
:103D6000002B00F0A6800023FB758B4BDB6903F072
:103D70008053002B0DD1884BDB69874A43F0805379
:103D8000D361854BDB6903F08053BB60BB680123C3
:103D9000FB75824B1B6803F48073002B18D17F4B9B
:103DA0001B687E4A43F480731360FFF7C9F93861DA
:103DB00008E0FFF7C5F902463B69D31A642B01D925
:103DC000032303E1754B1B6803F48073002BF0D0D1
:103DD0007B68DB68012B06D16F4B1B6A6E4A43F090
:103DE000010313622DE07B68DB68002B0CD16A4B6A
:103DF0001B6A694A23F001031362674B1B6A664A18
:103E000023F0040313621CE07B68DB68052B0CD1F4
:103E1000614B1B6A604A43F0040313625E4B1B6AEA
:103E20005D4A43F0010313620BE05B4B1B6A5A4A85
:103E300023F001031362584B1B6A574A23F0040313
:103E400013627B68DB68002B15D0FFF779F93861C6
:103E50000AE0FFF775F902463B69D31A41F288324E
:103E6000934201D90323B1E04B4B1B6A03F00203D9
:103E7000002BEED014E0FFF763F938610AE0FFF79A
:103E80005FF902463B69D31A41F28832934201D965
:103E900003239BE0404B1B6A03F00203002BEED18F
:103EA000FB7D012B05D13C4BDB693B4A23F0805362
:103EB000D3617B68DB69002B00F08780364B5B6841
:103EC00003F00C03082B61D07B68DB69022B46D121
:103ED000334B00221A60FFF733F9386108E0FFF72F
:103EE0002FF902463B69D31A022B01D903236DE057
:103EF000294B1B6803F00073002BF0D17B681B6A11
:103F0000B3F5803F08D1244B5B6823F400327B6813
:103F10009B68214913434B601F4B5B6823F4741269
:103F20007B68196A7B685B6A0B431B4913434B60D0
:103F30001B4B01221A60FFF703F9386108E0FFF715
:103F4000FFF802463B69D31A022B01D903233DE057
:103F5000114B1B6803F00073002BF0D035E0104BC1
:103F600000221A60FFF7ECF8386108E0FFF7E8F884
:103F700002463B69D31A022B01D9032326E0064BE4
:103F80001B6803F00073002BF0D11EE07B68DB6937
:103F9000012B07D1012319E00010024000700040FE
:103FA000600042420B4B5B68FB60FB6803F48032AD
:103FB0007B681B6A9A4206D1FB6803F470127B6827
:103FC0005B6A9A4201D0012300E0002318461837AB
:103FD000BD4680BD0010024080B584B000AF78605F
:103FE00039607B68002B01D10123D0E06A4B1B684C
:103FF00003F007033A689A4210D9674B1B6823F015
:10400000070265493B6813430B60634B1B6803F071
:1040100007033A689A4201D00123B8E07B681B6825
:1040200003F00203002B20D07B681B6803F004031D
:10403000002B05D0594B5B68584A43F4E06353604A
:104040007B681B6803F00803002B05D0534B5B68AB
:10405000524A43F460535360504B5B6823F0F002C4
:104060007B689B684D4913434B607B681B6803F07A
:104070000103002B40D07B685B68012B07D1474BC5
:104080001B6803F40033002B15D101237FE07B680C
:104090005B68022B07D1414B1B6803F00073002BB8
:1040A00009D1012373E03D4B1B6803F00203002B91
:1040B00001D101236BE0394B5B6823F003027B687D
:1040C0005B68364913434B60FFF73AF8F8600AE043
:1040D000FFF736F80246FB68D31A41F28832934262
:1040E00001D9032353E02D4B5B6803F00C027B687E
:1040F0005B689B009A42EBD1274B1B6803F00703D8
:104100003A689A4210D2244B1B6823F007022249D6
:104110003B6813430B60204B1B6803F007033A68AE
:104120009A4201D0012332E07B681B6803F004034C
:10413000002B08D0194B5B6823F4E0627B68DB68D6
:10414000164913434B607B681B6803F00803002B80
:1041500009D0124B5B6823F460527B681B69DB005B
:104160000E4913434B6000F021F802460B4B5B688D
:104170001B0903F00F030A49CB5C22FA03F3094A37
:104180001360094B1B681846FDF748F900231846D1
:104190001037BD4680BD00BF002002400010024025
:1041A0002C930008A00000204401002080B487B0B8
:1041B00000AF0023FB600023BB6000237B61002372
:1041C0007B6000233B611E4B5B68FB60FB6803F078
:1041D0000C03042B02D0082B03D027E0194B3B61C2
:1041E00027E0FB689B0C03F00F03174AD35C7B604E
:1041F000FB6803F48033002B10D0114B5B685B0C21
:1042000003F00103114AD35CBB607B680D4A03FBDA
:1042100002F2BB68B2FBF3F37B6104E07B680C4AFB
:1042200002FB03F37B617B693B6102E0054B3B6171
:1042300000BF3B6918461C37BD4680BC704700BFB5
:104240000010024000127A0088930008989300083A
:1042500000093D0080B400AF024B1B681846BD4604
:1042600080BC7047A000002080B500AFFFF7F2FFD0
:104270000246054B5B681B0A03F007030349CB5C4E
:1042800022FA03F3184680BD001002403C93000858
:1042900080B500AFFFF7DEFF0246054B5B68DB0A27
:1042A00003F007030349CB5C22FA03F3184680BDF1
:1042B000001002403C93000880B483B000AF7860E7
:1042C00039607B680F221A60114B5B6803F00302B0
:1042D0007B685A600E4B5B6803F0F0027B689A6063
:1042E0000B4B5B6803F4E0627B68DA60084B5B6849
:1042F000DB0803F4E0627B681A61064B1B6803F07D
:1043000007023B681A6000BF0C37BD4680BC70478F
:10431000001002400020024080B485B000AF7860F9
:104320000A4B1B680A4AA2FB03235B0A7A6802FB5A
:1043300003F3FB6000BFFB685A1EFA60002BF9D143
:1043400000BF00BF1437BD4680BC7047A0000020EE
:10435000D34D621080B582B000AF78607B68002BCF
:1043600001D1012341E07B6893F83D30DBB2002BA3
:1043700006D17B68002283F83C20786800F039F889
:104380007B68022283F83D207B681A687B680433CF
:104390001946104600F09CF97B68012283F84620FC
:1043A0007B68012283F83E207B68012283F83F204E
:1043B0007B68012283F840207B68012283F841203A
:1043C0007B68012283F842207B68012283F8432026
:1043D0007B68012283F844207B68012283F8452012
:1043E0007B68012283F83D20002318460837BD462C
:1043F00080BD80B483B000AF786000BF0C37BD468D
:1044000080BC704780B485B000AF78607B6893F85B
:104410003D30DBB2012B01D001233AE07B68022260
:1044200083F83D207B681B68DA687B681B6842F074
:104430000102DA607B681B68184A93420ED07B68E1
:104440001B68B3F1804F09D07B681B68144A934204
:1044500004D07B681B68134A934211D17B681B68A8
:104460009B6803F00703FB60FB68062B10D07B689A
:104470001B681A687B681B6842F001021A6007E03B
:104480007B681B681A687B681B6842F001021A602F
:10449000002318461437BD4680BC7047002C0140ED
:1044A000000400400008004080B584B000AF786090
:1044B0007B681B68DB68FB607B681B681B69BB60F3
:1044C000BB6803F00203002B20D0FB6803F002035B
:1044D000002B1BD07B681B686FF002021A617B689F
:1044E00001221A777B681B689B6903F00303002B8A
:1044F00003D0786800F0D1F805E0786800F0C4F8DF
:10450000786800F0D3F87B6800221A77BB6803F064
:104510000403002B20D0FB6803F00403002B1BD006
:104520007B681B686FF004021A617B6802221A77AD
:104530007B681B689B6903F44073002B03D0786889
:1045400000F0ABF805E0786800F09EF8786800F0BD
:10455000ADF87B6800221A77BB6803F00803002BD4
:1045600020D0FB6803F00803002B1BD07B681B687E
:104570006FF008021A617B6804221A777B681B6857
:10458000DB6903F00303002B03D0786800F085F8A3
:1045900005E0786800F078F8786800F087F87B68C4
:1045A00000221A77BB6803F01003002B20D0FB68B1
:1045B00003F01003002B1BD07B681B686FF0100208
:1045C0001A617B6808221A777B681B68DB6903F431
:1045D0004073002B03D0786800F05FF805E078683E
:1045E00000F052F8786800F061F87B6800221A77D2
:1045F000BB6803F00103002B0CD0FB6803F0010340
:10460000002B07D07B681B686FF001021A61786885
:10461000FCF728FEBB6803F08003002B0CD0FB687E
:1046200003F08003002B07D07B681B686FF08002CB
:104630001A61786800F0C3F8BB6803F04003002BF0
:104640000CD0FB6803F04003002B07D07B681B688D
:104650006FF040021A61786800F031F8BB6803F02F
:104660002003002B0CD0FB6803F02003002B07D0A5
:104670007B681B686FF020021A61786800F096F87A
:1046800000BF1037BD4680BD80B483B000AF7860F6
:1046900000BF0C37BD4680BC704780B483B000AF0C
:1046A000786000BF0C37BD4680BC704780B483B0D3
:1046B00000AF786000BF0C37BD4680BC704780B447
:1046C00083B000AF786000BF0C37BD4680BC704738
:1046D00080B485B000AF786039607B681B68FB6090
:1046E0007B682F4A93420BD07B68B3F1804F07D091
:1046F0007B682C4A934203D07B682B4A934208D1B3
:10470000FB6823F07003FB603B685B68FA68134347
:10471000FB607B68224A93420BD07B68B3F1804FE9
:1047200007D07B681F4A934203D07B681E4A93429E
:1047300008D1FB6823F44073FB603B68DB68FA68D0
:104740001343FB60FB6823F080023B685B69134303
:10475000FB607B68FA681A603B689A687B68DA627B
:104760003B681A687B689A627B680D4A934203D162
:104770003B681A697B681A637B6801225A617B680F
:104780001B6903F00103002B05D07B681B6923F034
:1047900001027B681A6100BF1437BD4680BC7047B8
:1047A000002C0140000400400008004080B483B0A9
:1047B00000AF786000BF0C37BD4680BC704780B446
:1047C00083B000AF786000BF0C37BD4680BC704737
:1047D00080B582B000AF78607B68002B01D10123E7
:1047E00042E07B6893F84130DBB2002B06D17B6856
:1047F000002283F840207868FCF784FD7B6824223F
:1048000083F841207B681B68DA687B681B6822F4A8
:104810000052DA60786800F0B7FD7B681B681A699F
:104820007B681B6822F490421A617B681B685A6996
:104830007B681B6822F02A025A617B681B68DA6871
:104840007B681B6842F40052DA607B6800225A647D
:104850007B68202283F841207B68202283F8422055
:104860007B6800225A63002318460837BD4680BD86
:1048700080B58AB002AFF860B9603B601346FB8038
:1048800000237B61FB6893F84130DBB2202B75D1AC
:10489000BB68002B02D0FB88002B01D101236EE006
:1048A000FB6800225A64FB68212283F84120FEF74E
:1048B00047FC7861FB68FA889A84FB68FA88DA8496
:1048C000FB689B68B3F5805F08D1FB681B69002B10
:1048D00004D10023FB61BB68BB6103E0BB68FB61E3
:1048E0000023BB612EE03B6800937B69002280219E
:1048F000F86800F01CFB0346002B05D0FB68202263
:1049000083F8412003233AE0FB69002B0BD1BB69FC
:104910001B881A46FB681B68C2F308025A60BB6911
:104920000233BB6107E0FB691A78FB681B685A60B9
:10493000FB690133FB61FB68DB8C9BB2013B9AB2E4
:10494000FB68DA84FB68DB8C9BB2002BCBD13B6825
:1049500000937B6900224021F86800F0E8FA0346E2
:10496000002B05D0FB68202283F84120032306E0BA
:10497000FB68202283F84120002300E00223184630
:104980002037BD4680BD80B584B000AFF860B96007
:104990001346FB80FB6893F84230DBB2202B12D128
:1049A000BB68002B02D0FB88002B01D101230BE058
:1049B000FB6800221A63FB881A46B968F86800F0A1
:1049C0000FFB034600E0022318461037BD4680BDAA
:1049D00080B5BAB000AF78607B681B681B68C7F809
:1049E000E4307B681B68DB68C7F8E0307B681B68D5
:1049F0005B69C7F8DC300023C7F8D8300023C7F85C
:104A0000D430D7F8E43003F00F03C7F8D830D7F824
:104A1000D830002B0FD1D7F8E43003F02003002B5F
:104A200009D0D7F8E03003F02003002B03D07868DA
:104A300000F0ECFB5BE2D7F8D830002B00F0DE8012
:104A4000D7F8DC3003F00103002B06D1D7F8E030B3
:104A500003F49073002B00F0D180D7F8E43003F01A
:104A60000103002B0BD0D7F8E03003F48073002B48
:104A700005D07B685B6C43F001027B685A64D7F811
:104A8000E43003F00403002B0BD0D7F8DC3003F044
:104A90000103002B05D07B685B6C43F002027B684E
:104AA0005A64D7F8E43003F00203002B0BD0D7F898
:104AB000DC3003F00103002B05D07B685B6C43F016
:104AC00004027B685A64D7F8E43003F00803002B33
:104AD00011D0D7F8E03003F02003002B05D1D7F830
:104AE000DC3003F00103002B05D07B685B6C43F0E6
:104AF00008027B685A647B685B6C002B00F0F281D3
:104B0000D7F8E43003F02003002B08D0D7F8E030CA
:104B100003F02003002B02D0786800F077FB7B685D
:104B20001B685B6903F04003002B14BF01230023C3
:104B3000DBB2C7F8D4307B685B6C03F00803002B52
:104B400003D1D7F8D430002B4FD0786800F081FA29
:104B50007B681B685B6903F04003002B41D07B68D6
:104B60001B681433C7F89C30D7F89C3053E8003FDB
:104B7000C7F89830D7F8983023F04003C7F8D03002
:104B80007B681B681433D7F8D020C7F8A820C7F873
:104B9000A430D7F8A410D7F8A82041E80023C7F81C
:104BA000A030D7F8A030002BD9D17B68DB6B002B6D
:104BB00013D07B68DB6B7E4A5A637B68DB6B1846DD
:104BC000FEF7E2FB0346002B16D07B68DB6B5B6BCA
:104BD0007A68D26B104698470EE0786800F093F937
:104BE0000AE0786800F08FF906E0786800F08BF949
:104BF0007B6800225A6475E100BF73E17B681B6B20
:104C0000012B40F04F81D7F8E43003F01003002B64
:104C100000F04881D7F8E03003F01003002B00F0DB
:104C200041810023BB607B681B681B68BB607B689D
:104C30001B685B68BB60BB687B681B685B6903F0D3
:104C40004003002B00F0B6807B68DB6B1B685B6861
:104C5000A7F8BE30B7F8BE30002B00F045817B6866
:104C60009B8DB7F8BE209A4280F03E817B68B7F8F2
:104C7000BE20DA857B68DB6B9B69202B00F0888087
:104C80007B681B680C33C7F88830D7F8883053E846
:104C9000003FC7F88430D7F8843023F48073C7F816
:104CA000B8307B681B680C33D7F8B820C7F894205D
:104CB000C7F89030D7F89010D7F8942041E8002337
:104CC000C7F88C30D7F88C30002BD9D17B681B68A3
:104CD00014337B677B6F53E8003F3B673B6F23F0E8
:104CE0000103C7F8B4307B681B681433D7F8B420CD
:104CF000C7F88020FB67F96FD7F8802041E80023D0
:104D0000BB67BB6F002BE1D17B681B6814333B662C
:104D10003B6E53E8003FFB65FB6D23F04003C7F893
:104D2000B0307B681B681433D7F8B020FA66BB66D6
:104D3000B96EFA6E41E800237B667B6E002BE3D1EF
:104D40007B68202283F842207B6800221A637B68FC
:104D50001B680C33FB64FB6C53E8003FBB64BB6C0B
:104D600023F01003C7F8AC307B681B680C33D7F80E
:104D7000AC20BA657B65796DBA6D41E800233B656F
:104D80003B6D002BE3D17B68DB6B1846FEF7C1FA65
:104D90007B6802225A637B689A8D7B68DB8D9BB2AD
:104DA000D31A9BB21946786800F0B6F89CE000BFB1
:104DB000175100087B689A8D7B68DB8D9BB2D31AF4
:104DC000A7F8CE307B68DB8D9BB2002B00F08E8085
:104DD000B7F8CE30002B00F089807B681B680C335D
:104DE000BB63BB6B53E8003F7B637B6B23F4907327
:104DF000C7F8C8307B681B680C33D7F8C8207A64C2
:104E00003B64396C7A6C41E80023FB63FB6B002B3D
:104E1000E3D17B681B6814337B627B6A53E8003FF5
:104E20003B623B6A23F00103C7F8C4307B681B6810
:104E30001433D7F8C4203A63FB62F96A3A6B41E84D
:104E40000023BB62BB6A002BE3D17B68202283F87E
:104E500042207B6800221A637B681B680C333B612D
:104E60003B6953E8003FFB60FB6823F01003C7F881
:104E7000C0307B681B680C33D7F8C020FA61BB6177
:104E8000B969FA6941E800237B617B69002BE3D1B2
:104E90007B6802225A63B7F8CE301946786800F072
:104EA0003BF823E0D7F8E43003F08003002B09D06F
:104EB000D7F8E03003F08003002B03D0786800F0CF
:104EC0003EF914E0D7F8E43003F04003002B0ED095
:104ED000D7F8E03003F04003002B08D0786800F0EA
:104EE0007DF904E000BF02E000BF00E000BFE8374A
:104EF000BD4680BD80B483B000AF786000BF0C3782
:104F0000BD4680BC704780B483B000AF786000BFFE
:104F10000C37BD4680BC704780B483B000AF78606A
:104F20000B467B8000BF0C37BD4680BC704780B508
:104F300086B000AFF860B9603B601346FB713BE0A0
:104F40003B6AB3F1FF3F37D0FEF7FAF802463B6801
:104F5000D31A3A6A9A4202D33B6A002B01D1032347
:104F60003AE0FB681B68DB6803F00403002B23D0E6
:104F7000BB68802B20D0BB68402B1DD0FB681B6812
:104F80001B6803F00803082B16D100237B61FB6824
:104F90001B681B687B61FB681B685B687B617B69C6
:104FA000F86800F056F8FB6808225A64FB68002293
:104FB00083F8402001230FE0FB681B681A68BB6878
:104FC0001340BA689A420CBF01230023DBB21A4691
:104FD000FB799A42B4D0002318461837BD4680BDED
:104FE00080B485B000AFF860B9601346FB80FB6801
:104FF000BA689A62FB68FA889A85FB68FA88DA854B
:10500000FB6800225A64FB68222283F84220FB6876
:105010001B69002B07D0FB681B68DA68FB681B68FC
:1050200042F48072DA60FB681B685A69FB681B688F
:1050300042F001025A61FB681B68DA68FB681B6872
:1050400042F02002DA60002318461437BD4680BCC7
:10505000704780B495B000AF78607B681B680C33F4
:105060007B637B6B53E8003F3B633B6B23F49073A4
:10507000FB647B681B680C33FA6C3A64FB63F96B66
:105080003A6C41E80023BB63BB6B002BE5D17B6826
:105090001B6814333B623B6A53E8003FFB61FB69CA
:1050A00023F00103BB647B681B681433BA6CFA629B
:1050B000BB62B96AFA6A41E800237B627B6A002B13
:1050C000E5D17B681B6B012B19D17B681B680C3306
:1050D000FB60FB6853E8003FBB60BB6823F0100334
:1050E0007B647B681B680C337A6CBA617B6179697D
:1050F000BA6941E800233B613B69002BE5D17B683D
:10510000202283F842207B6800221A6300BF5437B4
:10511000BD4680BC704780B584B000AF78607B68C6
:105120005B6AFB60FB680022DA85FB680022DA8498
:10513000F868FFF7E8FE00BF1037BD4680BD80B4B9
:1051400085B000AF78607B6893F84130DBB2212BEB
:105150003ED17B689B68B3F5805F14D17B681B6987
:10516000002B10D17B681B6AFB60FB681B881A460A
:105170007B681B68C2F308025A607B681B6A9A1C32
:105180007B681A6208E07B681B6A591C7A681162A6
:105190001A787B681B685A607B68DB8C9BB2013B8A
:1051A0009BB27A681946D184002B0FD17B681B68AB
:1051B000DA687B681B6822F08002DA607B681B6813
:1051C000DA687B681B6842F04002DA60002300E086
:1051D000022318461437BD4680BC704780B582B0A4
:1051E00000AF78607B681B68DA687B681B6822F018
:1051F0004002DA607B68202283F841207868FFF75C
:1052000079FE002318460837BD4680BD80B58CB0B6
:1052100000AF78607B6893F84230DBB2222B40F01D
:10522000AE807B689B68B3F5805F17D17B681B6994
:10523000002B13D10023FB627B689B6ABB627B68F7
:105240001B685B689BB2C3F308039AB2BB6A1A80FF
:105250007B689B6A9A1C7B689A6226E07B689B6AE3
:10526000FB620023BB627B689B68B3F5805F07D05D
:105270007B689B68002B0AD17B681B69002B06D1D9
:105280007B681B685B68DAB2FB6A1A7008E07B68AF
:105290001B685B68DBB203F07F03DAB2FB6A1A704B
:1052A0007B689B6A5A1C7B689A627B68DB8D9BB229
:1052B000013B9BB27A681946D185002B5DD17B6892
:1052C0001B68DA687B681B6822F02002DA607B6862
:1052D0001B68DA687B681B6822F48072DA607B687E
:1052E0001B685A697B681B6822F001025A617B685F
:1052F000202283F842207B6800225A637B681B6B64
:10530000012B35D17B6800221A637B681B680C3344
:105310007B617B6953E8003F3B613B6923F01003ED
:105320007B627B681B680C337A6A3A62FB61F969BD
:105330003A6A41E80023BB61BB69002BE5D17B6879
:105340001B681B6803F01003102B0AD10023FB60BD
:105350007B681B681B68FB607B681B685B68FB6085
:10536000FB687B689B8D19467868FFF7D5FD02E0E6
:105370007868FBF7CFFA002302E0002300E0022365
:1053800018463037BD4680BD80B584B000AF786028
:105390007B681B681B6923F440517B68DA687B6873
:1053A0001B680A431A617B689A687B681B691A4309
:1053B0007B685B691343BB607B681B68DB6823F415
:1053C000B05323F00C037A681268B9680B43D360BA
:1053D0007B681B685B6923F440717B689A697B6812
:1053E0001B680A435A617B681B682C4A934203D1AD
:1053F000FEF74EFFF86002E0FEF736FFF860FA684D
:1054000013469B0013449A001A447B685B689B0018
:10541000B2FBF3F3224AA2FB03235B091901FA68EA
:1054200013469B0013449A001A447B685B689B00F8
:10543000B2FBF3F21A4BA3FB02035B09642000FBEF
:1054400003F3D31A1B013233154AA2FB03235B0972
:1054500003F0F0031944FA6813469B0013449A00C2
:105460001A447B685B689B00B2FBF3F20C4BA3FB16
:1054700002035B09642000FB03F3D31A1B013233E0
:10548000074AA2FB03235B0903F00F027B681B683A
:105490000A449A6000BF1037BD4680BD0038014005
:1054A0001F85EB5180B485B000AF0346FB8000231D
:1054B000FB60B7F90630842B05D0B7F90620FB68EE
:1054C00013440333FB60FB6818461437BD4680BCA9
:1054D000704780B483B000AFEFF305837B607B68D7
:1054E000002B14BF01230023DBB218460C37BD4646
:1054F00080BC704780B500AF01F066F80023184605
:1055000080BDF0B589B004AF786039607B685B69B5
:10551000002B20D07B689B69002B1CD07B685C68CB
:105520007B681D687B681E697B68B3F90830184684
:10553000FFF7B8FF01467B685B697A68926902925F
:10554000019300913B6832462946204600F056FE02
:105550000346FB601CE07B685C687B681D687B68B9
:105560001B699EB27B68B3F908301846FFF79AFFB3
:10557000024607F10C03019300923B68324629462C
:10558000204600F09BFE0346012B01D0002300E0E3
:10559000FB6818461437BD46F0BD80B584B000AF37
:1055A00078607B68FB60FB68002B01D0FB6800E043
:1055B0000123184600F0D2FF002318461037BD46DD
:1055C00080BD000080B586B002AFF8600B467A60FF
:1055D000FB72FB685B68002B13D0FB7A012B01D1B7
:1055E000012100E00021FB681B68FA685268019203
:1055F00000937B680A4601210B4801F0BAFD03467F
:105600000EE0FB7A012B01D1012200E00022FB68B1
:105610001B6800937B680121034801F089FD034664
:1056200018461037BD4680BD1093000880B588B07D
:1056300002AF7860396000237B610023FB603B6828
:105640003B613B69002B01D101233B61FFF741FF27
:105650000346002B1AD007F10C03002200923A698E
:105660000921786801F002FE0346012B02D0FF23D6
:105670007B6118E0FB68002B15D00D4B4FF080527A
:105680001A60BFF34F8FBFF36F8F0CE000230093BE
:1056900000233A690421786801F0E8FD0346012BF4
:1056A00001D0FF237B617B6918461837BD4680BD5A
:1056B00004ED00E080B483B000AF78607B6803F154
:1056C00008027B685A607B684FF0FF329A607B6803
:1056D00003F108027B68DA607B6803F108027B68EB
:1056E0001A617B6800221A6000BF0C37BD4680BC7F
:1056F000704780B483B000AF78607B6800221A6185
:1057000000BF0C37BD4680BC704780B485B000AF89
:10571000786039607B685B68FB603B68FA685A6058
:10572000FB689A683B689A60FB689B683A685A60B5
:10573000FB683A689A603B687A681A617B681B6804
:105740005A1C7B681A6000BF1437BD4680BC704786
:1057500080B485B000AF786039603B681B68BB607F
:10576000BB68B3F1FF3F03D17B681B69FB600CE0B2
:105770007B680833FB6002E0FB685B68FB60FB68EA
:105780005B681B68BA689A42F6D2FB685A683B6845
:105790005A603B685B683A689A603B68FA689A604E
:1057A000FB683A685A603B687A681A617B681B68D4
:1057B0005A1C7B681A6000BF1437BD4680BC704716
:1057C00080B485B000AF78607B681B69FB607B6844
:1057D0005B687A6892689A607B689B687A685268AE
:1057E0005A60FB685B687A689A4203D17B689A6862
:1057F000FB685A607B6800221A61FB681B685A1EAE
:10580000FB681A60FB681B6818461437BD4680BCED
:105810007047000080B584B000AF786039607B6865
:10582000FB60FB68002B0BD14FF0500383F3118812
:10583000BFF36F8FBFF34F8FBB6000BF00BFFDE7AB
:1058400002F0F4F8FB681A68FB68DB6BF968096C16
:1058500001FB03F31A44FB689A60FB6800229A6319
:10586000FB681A68FB685A60FB681A68FB68DB6BA8
:10587000013BF968096C01FB03F31A44FB68DA6029
:10588000FB68FF2283F84420FB68FF2283F8452051
:105890003B68002B14D1FB681B69002B1AD0FB68F6
:1058A0001033184601F028F90346002B12D00D4B97
:1058B0004FF080521A60BFF34F8FBFF36F8F09E034
:1058C000FB6810331846FFF7F5FEFB6824331846D3
:1058D000FFF7F0FE02F0DAF8012318461037BD4654
:1058E00080BD00BF04ED00E080B58EB002AFF8606F
:1058F000B9607A603B60FB68002B0BD14FF050031E
:1059000083F31188BFF36F8FBFF34F8FBB6200BF6C
:1059100000BFFDE73B68002B0BD14FF0500383F332
:105920001188BFF36F8FBFF34F8F7B6200BF00BF43
:10593000FDE77B68002B02D0BB68002B01D0012360
:1059400000E00023002B0BD14FF0500383F31188AC
:10595000BFF36F8FBFF34F8F3B6200BF00BFFDE708
:105960007B68002B02D1BB68002B01D1012300E032
:105970000023002B0BD14FF0500383F31188BFF3AA
:105980006F8FBFF34F8FFB6100BF00BFFDE7482360
:105990007B617B69482B0BD04FF0500383F3118858
:1059A000BFF36F8FBFF34F8FBB6100BF00BFFDE739
:1059B0007B693B68FB62FB6A002B0DD0FB6A01220E
:1059C00083F8462097F83820FB6A009313467A68DC
:1059D000B968F86800F005F8FB6A18463037BD462C
:1059E00080BD80B584B000AFF860B9607A60FB70AC
:1059F000BB68002B03D1BB69BA691A6002E0BB69BE
:105A00007A681A60BB69FA68DA63BB69BA681A64B3
:105A10000121B869FFF7FEFE00BF1037BD4680BD0B
:105A200080B58EB000AFF860B9607A603B6000234B
:105A30007B63FB683B633B6B002B0BD14FF0500348
:105A400083F31188BFF36F8FBFF34F8FBB6200BF2B
:105A500000BFFDE7BB68002B03D13B6B1B6C002B29
:105A600001D1012300E00023002B0BD14FF05003A4
:105A700083F31188BFF36F8FBFF34F8F7B6200BF3B
:105A800000BFFDE73B68022B03D13B6BDB6B012BB7
:105A900001D1012300E00023002B0BD14FF0500374
:105AA00083F31188BFF36F8FBFF34F8F3B6200BF4B
:105AB00000BFFDE701F0E6F90346002B02D17B6849
:105AC000002B01D1012300E00023002B0BD14FF06C
:105AD000500383F31188BFF36F8FBFF34F8FFB61C8
