:020000040800F2
:10000000005000200D380008BD180008C518000871
:10001000CD180008D5180008DD1800080000000001
:1000200000000000000000000000000051850008F2
:10003000E5180008000000003187000879870008F3
:10004000553800085538000855380008553800085C
:10005000553800085538000855380008553800084C
:10006000553800085538000855380008553800083C
:10007000553800085538000855380008553800082C
:10008000553800085538000855380008553800081C
:10009000553800085538000855380008553800080C
:1000A00055380008553800085538000855380008FC
:1000B0005538000855380008F11800085538000870
:1000C00055380008553800085538000855380008DC
:1000D000553800080519000855380008553800083B
:1000E0005538000855380008553800080000000051
:1000F0000000000000000000000000000000000000
:0C01000000000000000000005FF808F1A3
:1001100010B5054C237833B9044B13B10448AFF341
:1001200000800123237010BDA80100200000000002
:10013000EC96000808B5034B1BB103490348AFF325
:10014000008008BD00000000AC010020EC96000813
:10015000034613F8012B002AFBD1181A0138704707
:1001600080B582B000AF0023FB710121174804F075
:10017000C5F80346002B03D1FB7943F00103FB7163
:100180008021134804F0BAF80346002B03D1FB7911
:1001900043F00203FB7140210D4804F0AFF8034621
:1001A000002B03D1FB7943F00403FB7102210748C4
:1001B00004F0A4F80346002B03D1FB7943F00803B5
:1001C000FB71FB7918460837BD4680BD000C014025
:1001D0000008014080B483B000AF78600B4B9B787F
:1001E000002B04D1094B9B680133084A9360074BED
:1001F0001B7B002B05D0054BDB8901339AB2034BE7
:10020000DA8100BF0C37BD4680BC7047000000207B
:1002100080B500AF064B00229A60054B01229A7010
:10022000034B01225A71034800F030FD00BF80BD2E
:10023000000000200497000880B582B000AF0023C2
:10024000FB71FFF78DFF0346BB71BB7903F00F0312
:10025000002B7FD0594B5B79002B01D0FB79A9E0B3
:10026000564B00229A70BB79033B092B8CBF0122AD
:100270000022D2B2002A10D140F2CD2222FA03F39A
:1002800003F00103002B14BF01230023DBB2002B7A
:1002900003D04B4ABB79137003E04A4ABB79137011
:1002A00000BF494B1B78BA799A4202D0464ABB79C3
:1002B0001370444B1B78082B3AD1404BDB78002B52
:1002C00014D03E4B9B68322B10D93D4B1B78002B32
:1002D00002D03A4B01221A71394B1B78FB71384B13
:1002E00000221A70354B00229A601FE0334B9B6846
:1002F000C72B19D9314BDB78002B0CD12F4B1B7C32
:10030000002B08D11023FB712C4B0122DA702B4BF0
:100310000022DA8105E0294B1B7C002B01D0202331
:10032000FB71FFF775FF01E0002343E0FB7941E03B
:10033000234B1B78002B3CD0204B9B68B3F5FA7FF6
:1003400037D91F4B1B78FB711D4B00221A70FFF72A
:100350005FFF2EE01B4B1B78002B09D01B4B1A783C
:10036000184B1B789A4203D0164B1A78174B1A7009
:10037000124B01229A70114B9B680A2B0DD90F4B1F
:100380009B68312B09D80D4B1B79002B05D10D4BE8
:100390001B78FB710B4B00221A700B4B00221A705A
:1003A000064B00225A71054B00229A60034B002233
:1003B0001A71FB7918460837BD4680BD0000002041
:1003C000C9010020CA010020CB010020CC0100207F
:1003D00090B585B000AF0346FB710F23FB73704BE4
:1003E0001B781946FB791A466E4800F04FFC6C4B9F
:1003F000DB78002B70D1FB79013B1F2B6BD801A25E
:1004000052F823F0D7040008D7040008BF040008FE
:10041000D7040008C7040008AF040008D704000888
:1004200085040008B7040008D7040008D7040008B2
:10043000D7040008D7040008D7040008D704000830
:10044000D7040008D7040008D7040008D704000820
:10045000D7040008D7040008D7040008D704000810
:10046000D7040008D7040008D7040008D704000800
:10047000D7040008D7040008D7040008D7040008F0
:10048000CF040008464B5B780133DAB2444B5A7014
:10049000434B5B78052B02D9414B00225A70404BED
:1004A0005B781A46404B9A5C3D4B1A7014E03C4B0B
:1004B0000D221A7010E03A4B0C221A700CE0384BE7
:1004C0000B221A7008E0364B0E221A7004E0344BEF
:1004D00001221A7000E000BF314B1B7819463348E7
:1004E00000F0D4FB2E4BDB781946314800F0CEFBF0
:1004F0002B4B1B78FA791146184601F009FC03468C
:10050000FB73FB7B0E2B22D8FB7B184600F038FCDC
:100510000446234B1B78184600F032FC03461A466B
:100520002146244800F0B2FB1D4B1B78FA7B9A420F
:100530000DD01B4AFB7B1370194B1B78002118460A
:1005400001F0E6FB0346FB73154B0022DA70FB7BE0
:10055000184600F015FC0146FA7B114BDB78164873
:1005600000F094FBFB7B0F2B13D10D4BDB78002BA2
:1005700003D10B4B1B7C002B0BD0094B0022DA70F4
:10058000074B00221A74064B01221A70044B0022FA
:100590005A700A4800F07AFB00BF1437BD4690BD80
:1005A000000000201897000814000020349700086D
:1005B0004C9700086497000884970008B4970008D7
:1005C00080B582B000AF124B1B78012B00D103E045
:1005D000642005F03EFCF6E7FFF72EFE0346FB71B4
:1005E000FB79002B10D0FB79184600F03DFC034648
:1005F0001946084800F04AFB074B1B68F9794FF091
:10060000FF32184605F0DAFC0A2005F022FCE3E789
:10061000CD010020CC970008900B002080B584B05D
:1006200000AF304B1B680A21184605F05BFC2E4BCF
:1006300000229A702C4B9B68B3F5967F13D32A4BFC
:1006400001221A70284B1B780021184601F060FB2C
:10065000254B01229A70244B00229A6000BF234B45
:1006600001221A7003E00A2005F0F3FBE2E7204BB9
:1006700019683B460A22184605F0E0FC3B68102B3F
:1006800015D17B68FB73FB7B184600F0EDFB03463E
:100690001946184800F0FAFA134B1B7C002B02D0C5
:1006A000FB7B202B1BD1FB7B1846FFF791FE0E4BEB
:1006B0001B7B002BDBD00C4BDB89312BD7D90E4BAE
:1006C0001B78002BD3D10C4B01221A7001F0E6FAF3
:1006D000054B0022DA81084B00221A70C7E700BFE1
:1006E000C5E700BFC401002000000020CD010020AC
:1006F000900B0020E0970008C801002080B500AFF3
:10070000034800F0C3FA034B01221A7400BF80BDF6
:10071000F49700080000002080B483B000AF0346C7
:10072000FB71044AFB79137300BF0C37BD4680BCD4
:10073000704700BF0000002080B582B000AF0E4BB4
:100740003B6000237B603B4600220121184605F0F8
:1007500095FB0346094A1360084B1B68002B05D123
:10076000074800F093FA4FF0FF3300E000231846EB
:100770000837BD4680BD00BFD5010008C401002078
:100780000C98000880B500AF084800F07FFA084ACE
:10079000084B1046194647231A4608F04DFB4721DF
:1007A000034800F099F800BF80BD00BF30980008F2
:1007B000D00100201C00002080B500AF084800F0E8
:1007C00021F80346002B01D0FFF7DCFF054B044A5C
:1007D0001A60054A4721024800F0AAFA00BF80BD0E
:1007E000D0010020180200205498000880B500AF06
:1007F0004721034800F070F80346184680BD00BF4B
:10080000D001002080B582B000AF786047217868C1
:1008100000F04EF87B681B68102B04D0044800F0F1
:1008200035FA012300E0002318460837BD4680BD95
:100830006098000890B587B000AF03F041FA00233C
:100840003B60174BBB600123FB6007F110023B4686
:100850001146184603F026FB03467B617B69002B9B
:1008600017D03C6903F062FA03461A4621460D4848
:1008700000F00CFA03F04AFA7B69002B09D00A4811
:1008800000F004FA7A692221084800F0FFF97B6938
:1008900002E003F03BFA002318461C37BD4690BD2A
:1008A00000F8000888980008B0980008D49800085C
:1008B00080B584B000AF78603960064BFB60FB68A0
:1008C0003A681946786808F0B7FA00BF1037BD4695
:1008D00080BD00BF00F80008B0B586B000AF7860FA
:1008E000396000237B61204B3B617B68FB60FFF735
:1008F000A1FF0346002B02D04FF0FF332FE003F09F
:10090000DFF925E0FB681B88BB60BB6800221C4642
:10091000154622462B463969012003F061F903464A
:10092000002B0CD003F002FA01467B693A680F48AD
:1009300000F0ACF903F0EAF94FF0FF330FE0FB6889
:100940000233FB607B6902337B613B6902333B61AD
:100950003B687A699A42D5D303F0D8F90023184648
:100960001837BD46B0BD00BF00F800080899000860
:1009700080B584B000AF0346FB71FB79002B16D124
:100980000023FB600FE01A4AFB6852F83300184A54
:10099000FB68DB0013449B880122194603F0C5FC69
:1009A000FB680133FB60FB68072BECDD1DE00023D7
:1009B000FB6017E0FA79FB6842FA03F303F00103E6
:1009C000002B0CD00A4AFB6852F83300084AFB6837
:1009D000DB0013449B880022194603F0A6FCFB6849
:1009E0000133FB60FB68072BE4DD1037BD4680BD9B
:1009F0006400002080B485B000AF0346FB71114B4A
:100A00001B8801335A4203F07F0302F07F0258BF74
:100A10005342FB600B4B5B881A46FB6893420BD03A
:100A2000084B1B881A46074B1344FA791A71FB6866
:100A30009AB2044B1A8000E000BF1437BD4680BC58
:100A4000704700BF2002002080B483B000AF786000
:100A5000114B1A88104B5B889A4201D1002315E094
:100A60000D4B5B881A460C4B13441A797B681A703D
:100A7000094B5B8801335A4203F07F0302F07F0287
:100A800058BF53429AB2044B5A80012318460C3780
:100A9000BD4680BC704700BF2002002080B582B0F8
:100AA00000AF0023BB710023FB712CE01C4B5B8962
:100AB000002B02D1BB79DF2B24D1194B5B89092B89
:100AC00009D8174B5B895A1C91B2154A51811A46B5
:100AD000B979134B9954124BDB681B02BA79134353
:100AE0000F4AD3600E4BDB684FF6FF6293420AD188
:100AF0000B4B5B89FB710A4B0022DA60084B00222A
:100B00005A8100E000BFBB1D1846FFF79DFF03465A
:100B1000002BCBD1FB7918460837BD4680BD00BFFE
:100B2000A402002080B582B000AFFFF7B7FF0346F4
:100B3000FB80FB88002B08D0064B5B78332B04D15D
:100B4000044B9B781846FFF713FF0A2005F081F944
:100B5000EBE700BFA402002080B582B000AF786050
:100B60007B681B68084A934209D1084B1B781846DA
:100B7000FFF740FF01220549054804F060FB00BF74
:100B80000837BD4680BD00BF003801401C02002070
:100B9000F40A002080B586B000AF03463A60FB71CE
:100BA0000B46BB71164A07F1080307CA03C31A8034
:100BB000FB79BB72BB79FB7200233B7300237B7311
:100BC0003B681B0ADBB2BB733B68DBB2FB7307F10C
:100BD00008014FF47A730A220A4804F0A5FA034682
:100BE0007B617B69002B05D0074800F04FF86FF060
:100BF000040300E0002318461837BD4680BD00BF3F
:100C000060990008F40A00204499000880B500AFFC
:100C100001220349034804F012FB0023184680BD5B
:100C20001C020020F40A002080B485B000AFF860F8
:100C3000B9607A60FB68064A1A60BB68054A1A60A8
:100C40007B6880221A6000BF1437BD4680BC7047A5
:100C5000B40200205403002080B485B000AFF860D7
:100C6000B9607A60FB68074A1A60BB68064A1A6076
:100C70007B684FF480721A6000BF1437BD4680BC99
:100C8000704700BF54050020F40500200FB480B564
:100C900082B000AF00237B6007F114037B607B68A8
:100CA0003A69FF210A4808F027F80948FFF750FA87
:100CB00003469AB26FF07F430549064804F034FAC0
:100CC00000BF0837BD46BDE8804004B0704700BF94
:100CD000F40900203C0B002080B584B000AF7860A0
:100CE00039600023FB6012E0FA683B689A4208DA38
:100CF000FB687A6813441B7819460A48FFF7C6FF59
:100D000002E00948FFF7C2FFFB680133FB60FB68A4
:100D1000072BE9D90548FFF7B9FF00BF1037BD46DB
:100D200080BD00BF6C99000874990008789900088C
:100D300080B586B000AFF860B9607A60FB687B610F
:100D40007868FFF7A3FF0D48FFF7A0FF0CE0B96834
:100D50007869FFF7C1FFBB68072B09D9BB68083B5F
:100D6000BB607B6908337B61BB68002BEFDC00E074
:100D700000BF00BF1837BD4680BD00BF789900088E
:100D800080B483B000AF78607B680F2B42D801A29B
:100D900052F823F0D50D0008D90D0008DD0D00082C
:100DA000E10D0008E50D0008E90D0008ED0D000853
:100DB000F10D0008F50D0008F90D0008FD0D000803
:100DC000010E0008050E0008090E00080D0E0008AF
:100DD000110E0008134B1FE0134B1DE0134B1BE0DB
:100DE000134B19E0134B17E0134B15E0134B13E0B3
:100DF000134B11E0134B0FE0134B0DE0134B0BE0C3
:100E0000134B09E0134B07E0134B05E0134B03E0D2
:100E1000134B01E000BF134B18460C37BD4680BC96
:100E2000704700BF7C9900088899000894990008D1
:100E3000A4990008B8990008C8990008D499000836
:100E4000E4990008F0990008009A0008109A000838
:100E50001C9A00082C9A0008389A0008489A000842
:100E6000549A0008649A000880B483B000AF786098
:100E70007B68202B5ED801A252F823F0010F0008F6
:100E8000050F0008090F00080D0F0008110F0008DA
:100E9000150F0008190F0008350F00081D0F000876
:100EA000210F0008250F0008350F0008290F000842
:100EB000350F0008350F0008350F00082D0F00080A
:100EC000350F0008350F0008350F0008350F0008F2
:100ED000350F0008350F0008350F0008350F0008E2
:100EE000350F0008350F0008350F0008350F0008D2
:100EF000350F0008350F0008350F0008310F0008C6
:100F0000104B19E0104B17E0104B15E0104B13E09D
:100F1000104B11E0104B0FE0104B0DE0104B0BE0AD
:100F2000104B09E0104B07E0104B05E0104B03E0BD
:100F3000104B01E000BF104B18460C37BD4680BC7B
:100F4000704700BF749A0008809A00088C9A0008C5
:100F5000949A0008A09A0008AC9A0008BC9A00086D
:100F6000C89A0008D49A0008E49A0008F49A000885
:100F7000049B0008149B0008249B000880B400AF69
:100F8000024B1846BD4680BC704700BF309B00082E
:100F9000F0B585B004AF7748FFF778FE7648FFF7E5
:100FA00075FE4D233F2B17D03223303B4FF47A721E
:100FB00003FB02F23023303B642101FB03F3D11821
:100FC0003223A3F1300213469B0013445B00CA187E
:100FD0003523303BD41800E063244D233F2B67D0EA
:100FE0004D234A2B05D16123612B02D172236E2B35
:100FF0005CD04D23462B56D04D234D2B05D161237C
:10100000612B02D17223722B4BD04D23412B02D185
:101010006123702B42D04D234D2B05D16123612BD1
:1010200002D17223792B36D04D234A2B05D161236F
:10103000752B02D172236E2B2AD04D234A2B05D15A
:101040006123752B02D172236C2B1ED04D23412BB3
:1010500002D16123752B15D04D23532B10D04D2376
:101060004F2B0BD04D234E2B06D04D23442B01D1BB
:101070000C2209E0632207E00B2205E00A2203E0CC
:10108000092201E0082202E001E0072202E001E07B
:10109000062202E001E0052202E001E0042204E071
:1010A00003E0032205E0022203E002E0012200E067
:1010B00063224D233F2B10D032232F2B08D932230C
:1010C000A3F130010B469B000B445B00194600E086
:1010D00000213123303BCD1800E0632531233F2B25
:1010E0000CD03123A3F130010B469B000B445B0075
:1010F000194634230B44A3F1300100E0632131236E
:101100003F2B0CD03523A3F1300003469B00034452
:101110005B00184638230344A3F1300000E063204D
:1011200031233F2B0BD03123A3F1300633469B00F4
:1011300033445B001E4630233344303B00E06323DE
:101140000293019000912B4621460C48FFF79EFD2B
:10115000FFF714FF034619460948FFF797FD0949B1
:101160000948FFF793FD0348FFF790FD00BF0437E0
:10117000BD46F0BD449B0008849B0008A89B000866
:10118000DC9B0008F09B0008F89B000880B500AFCE
:10119000FFF73CFD0346002B02D04FF0FF330AE07F
:1011A000FFF70AFBFFF7C8FA0346002B02D04FF007
:1011B000FF3300E00023184680BD000080B582B0F8
:1011C00000AF7860396039680348FFF75FFD00BF02
:1011D0000837BD4680BD00BF109C0008B0B59CB06C
:1011E00000AF02F039FB00F091F800F02BF900F0AD
:1011F000D5F800F0FDF8FFF7CBFEFFF7C7FF364B41
:10120000BB660023FB6607F1680300220121184634
:1012100004F034FE0346314A1360314B07F15804A1
:101220000FCB84E80F0007F158030021184604F0A3
:101230009DFE03462B4A13602B4B07F13C041D46D1
:101240000FCD0FC495E8070084E8070007F13C03C1
:101250000021184604F0B1FD0346244A1360244BD4
:1012600007F120041D460FCD0FC495E8070084E860
:10127000070007F120030021184604F09EFD0346F5
:101280001C4A13601C4B3C1D1D460FCD0FC495E836
:10129000070084E807003B1D0021184604F08DFD7F
:1012A0000346164A1360114B1B68002B02D11448E9
:1012B000FFF7ECFC0F4B1B68002B02D11148FFF726
:1012C000E5FC0E4B1B68002B02D10F48FFF7DEFC3C
:1012D00004F06CFD00BFFDE7E9150008940B002049
:1012E0009C9C0008900B0020BC9C0008840B0020F4
:1012F000E49C0008880B0020089D00088C0B00204F
:10130000349C0008589C00087C9C000880B590B074
:1013100000AF07F1180328220021184607F0FAFC55
:101320003B1D00221A605A609A60DA601A61092334
:10133000BB614FF48033FB6100233B620123BB623E
:1013400001233B6302237B634FF48033BB634FF481
:10135000E013FB6307F11803184603F017F8034680
:10136000002B01D000F062F90F237B600223BB60E9
:101370000023FB604FF480633B6100237B613B1DD6
:101380000221184603F084FA0346002B01D000F036
:101390004DF900BF4037BD4680BD000080B500AFAD
:1013A000114B124A1A60104B4FF4E1325A600E4B47
:1013B00000229A600C4B0022DA600B4B00221A616B
:1013C000094B0C225A61084B00229A61064B0022FD
:1013D000DA61054803F058FE0346002B01D000F007
:1013E00025F900BF80BD00BFF40A0020003801408D
:1013F00080B500AF114B124A1A60104B4FF4E13226
:101400005A600E4B00229A600C4B0022DA600B4BA4
:1014100000221A61094B0C225A61084B00229A6182
:10142000064B0022DA61054803F02EFE0346002B2E
:1014300001D000F0FBF800BF80BD00BF3C0B0020D6
:101440000044004080B588B000AF07F110030022CF
:101450001A605A609A60DA60454B9B69444A43F0CF
:1014600010039361424B9B6903F01003FB60FB6820
:101470003F4B9B693E4A43F0200393613C4B9B6981
:1014800003F02003BB60BB68394B9B69384A43F0CB
:1014900004039361364B9B6903F004037B607B6814
:1014A000334B9B69324A43F008039361304B9B698D
:1014B00003F008033B603B6800224FF400512D48C5
:1014C00002F033FF00224FF2F8312B4802F02DFFDB
:1014D00000224FF41941294802F027FF4FF400532E
:1014E0003B6101237B610023BB610223FB6107F1A8
:1014F000100319461F4802F07DFDC0233B61002305
:101500007B610023BB6107F1100319461B4802F001
:1015100071FD03233B6100237B610023BB6107F165
:1015200010031946144802F065FD4FF2F8333B6191
:1015300001237B610023BB610223FB6107F11003E0
:1015400019460D4802F056FD4FF419433B61012343
:101550007B610023BB610223FB6107F11003194685
:10156000064802F047FD00BF2037BD4680BD00BFE2
:101570000010024000100140000C01400008014032
:1015800080B582B000AF78600948FFF77FFB00F0BC
:101590000BFB00F045FB074B1B684FF4FA71184634
:1015A00004F0A0FCFFF73AF800BF0837BD4680BD45
:1015B000249D0008940B002080B582B000AF7860B5
:1015C0000248FFF763FBFFF7ADFAFCE73C9D00081C
:1015D00080B582B000AF78600248FFF757FBFEF796
:1015E000EFFFFCE7549D000880B582B000AF786043
:1015F0004FF40051034802F0B0FE00BF0837BD466B
:1016000080BD00BF0010014080B582B000AF78609F
:101610007B681B68044A934201D102F033F900BF92
:101620000837BD4680BD00BF0008004080B400AF51
:1016300072B600BF00BFFDE780B584B000AF184BA5
:101640009B69174A43F001039361154B9B6903F0B3
:101650000103BB60BB68124BDB69114A43F0805346
:10166000D3610F4BDB6903F080537B607B68002202
:101670000F216FF0010002F0D6F90A4B5B68FB60A6
:10168000FB6823F0E063FB60FB6843F00073FB60E2
:10169000044AFB68536000BF1037BD4680BD00BFE1
:1016A000001002400000014080B58AB000AF7860B1
:1016B00007F1180300221A605A609A60DA607B68AA
:1016C0001B683B4A93423AD13A4B9B69394A43F4EF
:1016D00080439361374B9B6903F480437B617B6953
:1016E000344B9B69334A43F004039361314B9B694C
:1016F00003F004033B613B694FF40073BB610223B9
:10170000FB6103237B6207F1180319462A4802F0A4
:1017100071FC4FF48063BB610023FB6100233B62DB
:1017200007F118031946244802F064FC0022052141
:10173000252002F078F9252002F091F934E07B6849
:101740001B681E4A93422FD11A4BDB69194A43F496
:101750000033D361174BDB6903F40033FB60FB6894
:10176000144B9B69134A43F004039361114B9B692B
:1017700003F00403BB60BB680423BB610223FB616D
:1017800003237B6207F1180319460B4802F032FC71
:101790000823BB610023FB6100233B6207F11803B0
:1017A0001946054802F026FC00BF2837BD4680BD1B
:1017B0000038014000100240000801400044004091
:1017C00080B58EB000AF78600023FB620023BB625F
:1017D000002387F83330344BDB69334A43F004038A
:1017E000D361314BDB6903F00403FB60FB6807F155
:1017F000100207F114031146184603F0B9F93B6AC9
:10180000FB62FB6A002B03D103F08AF9786304E0E2
:1018100003F086F903465B007B637B6B234AA2FBE4
:1018200003239B0C013BBB62214B224A1A60204BD5
:1018300040F2E732DA601E4ABB6A53601C4B00225A
:101840001A611B4B00229A60194B00229A611848BA
:1018500003F0DCF9034687F8333097F83330002B78
:101860001BD1134803F02AFA034687F8333097F860
:101870003330002B11D11E2002F0F1F87B680F2BC2
:1018800008D8002279681E2002F0CDF80A4A7B6849
:10189000136002E0012387F8333097F8333018469D
:1018A0003837BD4680BD00BF0010024083DE1B43B9
:1018B000980B0020000800404C01002080B400AFCD
:1018C00000BFFDE780B400AF00BFFDE780B400AF0C
:1018D00000BFFDE780B400AF00BFFDE780B400AFFC
:1018E00000BFFDE780B400AF00BFBD4680BC7047BD
:1018F00080B500AF024803F033FA00BF80BD00BFDF
:10190000980B002080B500AF024803F0BDFC00BF7B
:1019100080BD00BFF40A002080B586B000AF7860BB
:10192000144A154BD31A7B617B693B61134B1B68CF
:10193000002B02D1114B124A1A60104B1A687B68B7
:1019400013443A699A4207D207F04AFA03460C2236
:101950001A604FF0FF3309E0084B1B68FB60074B30
:101960001A687B681344054A1360FB6818461837E9
:10197000BD4680BD0050002000040000E00B0020A8
:101980007838002080B400AF00BFBD4680BC7047EF
:1019900080B584B000AF78600B46FB70FB78DB004D
:1019A000FB700023FB730CE0FB7B7A6813441B780D
:1019B000184600F083F8012004F04BFAFB7B01335A
:1019C000FB73FA7BFB789A42EED300BF00BF10375F
:1019D000BD4680BD80B500AF01224FF4807107483D
:1019E00002F0A3FC022004F034FA00224FF48071CC
:1019F000024802F09AFC00BF80BD00BF0008014011
:101A000080B582B000AF0346FB71FB7903F00103A0
:101A1000DBB21A464FF40041164802F086FCFB790F
:101A20005B10DBB203F00103DBB21A464FF48041D6
:101A3000104802F07AFCFB799B10DBB203F0010343
:101A4000DBB21A464FF400510A4802F06EFCFB79F3
:101A5000DB10DBB203F00103DBB21A464FF4805116
:101A6000044802F062FCFFF7B5FF00BF0837BD462F
:101A700080BD00BF000C014080B582B000AF0346BE
:101A8000FB7100224FF480510B4802F04EFCFB79B1
:101A90001B09DBB21846FFF7B3FFFB7903F00F0316
:101AA000DBB21846FFF7ACFF022004F0D2F900BF0A
:101AB0000837BD4680BD00BF0008014080B582B038
:101AC00000AF0346FB7101224FF480510B4802F036
:101AD0002CFCFB791B09DBB21846FFF791FFFB7961
:101AE00003F00F03DBB21846FFF78AFF022004F071
:101AF000B0F900BF0837BD4680BD00BF00080140F7
:101B000080B582B000AF78607B685A1C7A601B7821
:101B10001846FFF7D3FF7B681B780A2BF4D100BF70
:101B200000BF0837BD4680BD80B500AF0120FFF77C
:101B3000A3FF022004F08DF900BF80BD80B500AF87
:101B40000C20FFF799FF00BF80BD80B500AF0E20CD
:101B5000FFF792FF00BF80BD80B582B000AF0346A3
:101B60000A46FB711346BB71BB79013BBB71FB7924
:101B7000012B02D0022B09D011E0BB7963F07F0367
:101B8000BB71BB791846FFF777FF08E0BB7963F0BC
:101B90003F03BB71BB791846FFF76EFF00BF00BF64
:101BA0000837BD4680BD000080B500AF01224FF46C
:101BB0008071194802F0B9FB00224FF48051164899
:101BC00002F0B3FB00224FF40061134802F0ADFBBA
:101BD0003320FFF751FF042004F03BF93220FFF7D8
:101BE0004BFF042004F035F92820FFF745FF0C20B7
:101BF000FFF742FF0620FFF73FFFFFF795FFC820E2
:101C000004F027F94020FFF737FF06210348FFF7CC
:101C1000BFFE00BF80BD00BF00080140A80000203B
:101C200080B586B000AF4A220021154807F072F84F
:101C3000144B1B68144A1046194647231A4607F0EE
:101C4000FBF83B1D114A1249184607F005F83B1DE9
:101C500019461048FFF71AF802210120FFF77CFF10
:101C60003B1D1846FFF74CFF01210220FFF774FFD0
:101C70000948FFF745FF00BF1837BD4680BD00BFCC
:101C8000E40B002018020020300C0020650C00201E
:101C9000689D00086C9D0008809D000880B500AF1D
:101CA000104B1B7B002B1AD00E4B9B7B012118463F
:101CB000FFF752FF0B4B5B7B83F00103DAB2094B5A
:101CC0005A73084B5B7B1A4613469B0013449B00D8
:101CD0000833044A134407331846FFF711FF00BFC7
:101CE00080BD00BFE40B002080B582B000AF03468A
:101CF000FB710B46BB711346BB80BA88B979FB797F
:101D00001846FEF747FF00BF0837BD4680BD0000FC
:101D100090B587B000AF03460A46FB711346BB710E
:101D20000D233B61FB791846FFF72AF80446BB797F
:101D30001846FFF799F80246154B1B7821461548BF
:101D4000FEF7A4FFFB793B72BB799BB27B8100233A
:101D50007B6115E0104A7B6912F83330FA799A42B8
:101D60000BD10D4A7B69DB0013445B6807F1080265
:101D700092E803009847034606E07B6901337B61E4
:101D80003B69002BE6D10F2318461C37BD4690BD9A
:101D9000E40B0020949D0008D800002090B591B07D
:101DA00002AF0346FB7107F1200300221A605A605C
:101DB0009A60DA601A6107F10C0300221A605A6017
:101DC0009A60DA601A61AC4B9B7887F83730AA4B7F
:101DD0009B78013387F83630FB7997F8372019461E
:101DE000A648FEF753FFFB790E2B00F2C68101A235
:101DF00052F823F0311E0008611E0008911E0008F1
:101E0000C31E00080D1F0008351F00085D1F0008D5
:101E10007D1F0008BB1F00080F200008DF1F0008FF
:101E200029200008452000085F200008092100083B
:101E300097F8362007F120039149184606F00CFF69
:101E400097F837308F4A5B001344B3F807309BB2E2
:101E50001A4607F10C038C49184606F0FDFE8CE18A
:101E600097F8362007F120038849184606F0F4FE5B
:101E700097F83730834A5B001344B3F807309BB2BE
:101E80001A4607F10C038249184606F0E5FE74E194
:101E900097F8362007F120037E49184606F0DCFE4D
:101EA00097F83730774A08335B001344B3F80730AC
:101EB0009BB21A4607F10C037549184606F0CCFE92
:101EC0005BE197F8362007F120037349184606F0C6
:101ED000C3FE97F837306B4A134493F82730002B32
:101EE00001D06E4A00E06E4A07F10C036D491846B6
:101EF00006F0B2FE07F10C03112219466A4806F0FB
:101F00009BFF6A496A4806F0A7FE36E107F1200305
:101F10006849184606F0A0FE5A4B1B79002B01D0E9
:101F2000654A00E0654A07F10C036549184606F06A
:101F300093FE22E107F120036249184606F08CFE69
:101F4000504B1B79002B01D05B4A00E05B4A07F144
:101F50000C035B49184606F07FFE0EE107F12003F3
:101F60005949184606F078FE464B5B791A4607F148
:101F70000C035649184606F06FFEFEE007F12003F9
:101F80005349184606F068FE3E4B93F82F30194629
:101F90003C4B93F830301C463A4B93F831301A469C
:101FA000384B93F8323007F10C000193009223462E
:101FB0000A46484906F050FEDFE007F12003444995
:101FC000184606F049FE2F4BB3F833309BB21A4641
:101FD00007F10C034049184606F03EFECDE007F13C
:101FE00020033B49184606F037FE234B5B78012B54
:101FF00006D107F10C033949184606F02DFEBCE066
:1020000007F10C033649184606F026FEB5E007F145
:1020100020033449184606F01FFE07F10C0332492D
:10202000184606F019FEA8E007F120032F4A3049B0
:10203000184606F011FE07F10C032E49184606F06B
:102040000BFE9AE007F120032B49184606F004FE28
:1020500007F10C032949184606F0FEFD8DE007F153
:1020600020032749184606F0F7FD07F10C03254920
:10207000184606F0F1FD80E0E40B0020B89D000852
:10208000E09D0008300C0020F49D0008049E00082C
:10209000189E0008289E00083C9E0008509E0008DC
:1020A000589E0008609E0008F30B0020709E0008F8
:1020B000070C0020849E0008989E0008A09E00083F
:1020C000A89E0008B89E0008CC9E0008E09E00086C
:1020D000F49E0008089F0008209F0008349F000815
:1020E000489F00085C9F0008709F0008650C002056
:1020F000849F0008809D00088C9F0008A09F000816
:10210000B49F0008C89F00082E4B93F845302E4A14
:10211000A2FB0323DB08DBB21C462A4B93F84520C5
:10212000294BA3FB0213D9080B469B000B445B0011
:10213000D31ADBB207F120002246244906F08CFDB9
:10214000204B93F84630204AA2FB0323DB08DBB286
:102150001C461C4B93F846201B4BA3FB0213D908CB
:102160000B469B000B445B00D31ADBB207F10C005B
:102170002246174906F070FD00BF07F120031946FB
:102180001448FEF783FD07F10C0319461248FEF7C9
:102190007DFD01210120FFF7DFFC07F12003184638
:1021A000FFF7AEFC01210220FFF7D6FC07F10C037C
:1021B0001846FFF7A5FC0948FEF768FD00BF3C374D
:1021C000BD4690BD300C0020CDCCCCCCDC9F0008AF
:1021D000F49F00080CA0000820A0000834A000080C
:1021E00080B584B000AF03463960FB80FB88FB609C
:1021F000FB88002B08D11B4B5B7A01331A46002168
:10220000386806F087FD2AE0164B5B7ABB6023E056
:10221000BB683A681344FF221A70FB68002B18D081
:10222000FA68114B83FB02139910D317C91A0B4696
:102230009B000B445B00D11ABB683A6813444AB256
:102240001A70FB68084A82FB03129210DB17D31A3C
:10225000FB60BB68013BBB60BB68002BD8DA103762
:10226000BD4680BDE40B00206766666680B485B01D
:1022700000AF78600023BB600023FB6016E0FB68C2
:102280007A68134493F90030002B0CDBBA681346CC
:102290009B0013445B001946FB687A68134493F96A
:1022A00000300B44BB60FB680133FB60054B5B7A7D
:1022B0001A46FB689342E2DDBB6818461437BD46F8
:1022C00080BC7047E40B002080B584B000AF3B4673
:1022D00083E80300624BFB60624B0022DA707B886C
:1022E000202B00F2B18001A252F823F071230008E4
:1022F000B923000881230008492400089D23000811
:1023000049240008492400084924000849240008F9
:1023100049240008492400084924000849240008E9
:10232000492400084924000849240008032400081F
:1023300049240008492400084924000849240008C9
:1023400049240008492400084924000849240008B9
:1023500049240008492400084924000849240008A9
:102360004924000849240008492400087123000872
:102370003C4B9B78072B69D93A4B00229A7065E059
:10238000384B9B7801335A4203F0070302F00702EF
:1023900058BF5342DAB2334B9A7058E0314B9B78B6
:1023A00007335A4203F0070302F0070258BF5342B3
:1023B000DAB22C4B9A704AE02A4B9A782A4B1B7857
:1023C0009A4206D0294B00221A70264B9A78264B47
:1023D0001A70264B1B7810333B4413F8043C184604
:1023E000FFF7DCFC214B1B780133DAB21F4B1A706C
:1023F0001E4B1B78032B02D91C4B00221A700F2393
:1024000029E00120FFF7CAFC164B9B78184A5B00B5
:102410001344B3F807309AB2124B5A81114B0D2274
:10242000DA70104B04225A720E4B5B891149184620
:10243000FFF7D6FE0B4BDB7819460220FFF78CFB2B
:10244000FFF783FB022306E000BF00E000BF00208F
:10245000FFF7A4FC0F2318461037BD4680BD00BF10
:1024600001020304E40B002048010020770C002047
:10247000300C0020E80B002080B590B000AF3B4648
:1024800083E803003B7887F83F30BA4BDB7887F866
:102490003730B84BDB78093B87F83630002387F8B4
:1024A0003E30B44B9B7887F835307B88013B0B2B53
:1024B00000F2698101A252F823F000BF71260008E2
:1024C000ED240008872700089125000887270008C9
:1024D00087270008872700080927000887270008A2
:1024E000352600088727000853260008A14B93F9DA
:1024F0000430052B06D197F83630002B02D097F820
:102500003F3081E197F83630002B21D197F83630F3
:10251000984A1A4492F90420D2B20132D2B251B28E
:10252000944A13440A461A7197F83630914A134474
:1025300093F90430052B05DD97F836308D4A1344A6
:1025400000221A71042200218B4806F0E3FB1BE0F5
:1025500097F83630874A1A4492F90420D2B20132F1
:10256000D2B251B2834A13440A461A7197F83630F0
:10257000804A134493F90430092B05DD97F836306F
:102580007C4A134400221A71012387F83E30FAE096
:10259000784B93F90430052B06D197F83630002B91
:1025A00002D097F83F302FE197F83630002B21D139
:1025B00097F836306F4A1A4492F90420D2B2013AA1
:1025C000D2B251B26B4A13440A461A7197F83630A8
:1025D000684A134493F90430002B05DA97F8363033
:1025E000644A134405221A7104220021624806F04D
:1025F00091FB1BE097F836305E4A1A4492F90420AA
:10260000D2B2013AD2B251B25A4A13440A461A71AE
:1026100097F83630574A134493F90430002B05DA03
:1026200097F83630534A134409221A71012387F868
:102630003E30A8E04F4BDB78013BDAB24D4BDA700D
:102640004C4BDB78082B00F292804A4B0D22DA705B
:102650008DE0484BDB780133DAB2464BDA70454BFC
:10266000DB780D2B40F28E80424B0922DA7089E034
:102670003B78022B19D14148FFF7F8FD024697F845
:10268000353091B23E4A5B0013440A46A3F8072056
:10269000B22387F83D3097F83530394A5B00134450
:1026A000B3F807309BB2BB631AE03448FFF7DEFD96
:1026B000024697F8353091B2314A08335B00134433
:1026C0000A46A3F80720B32387F83D3097F8353042
:1026D0002B4A08335B001344B3F807309BB2BB634B
:1026E00000F0A0F803460F2B05D0102387F83F30E9
:1026F00097F83F3088E0BB6B9AB297F8351097F89F
:102700003D301846FFF7F0FA3B78022B26D1022025
:10271000FFF744FB032387F83F3097F83530184A1A
:1027200008335B001344B3F807309AB2114B5A8157
:10273000104B0D22DA700F4B04225A720D4B5B893D
:102740000E491846FFF74CFD0A4BDB78194602206C
:10275000FFF702FA012387F83E3014E00320FFF769
:102760001DFB042387F83F30FFF7E8F90BE000BFBB
:1027700009E000BFE40B0020E90B0020E80B00207B
:10278000300C002000BF97F83E30002B2ED03B7855
:10279000022B09D197F835305A1C07F120031C4948
:1027A000184606F059FA08E097F835305A1C07F138
:1027B00020031849184606F04FFA1748FFF756FD50
:1027C000024607F10C031549184606F045FA0121A7
:1027D0000220FFF7C1F907F10C031846FFF790F943
:1027E0000F4BDB7819460220FFF7B6F90C4BDB786C
:1027F00097F837209A4205D0094BDB78194602201A
:10280000FFF7AAF997F83F3018464037BD4680BD1C
:10281000049E0008289E0008E80B00204CA0000839
:10282000E40B002080B500AF094B1B68094A18462D
:10283000114647231A4606F0FFFAFDF7D7FF034675
:10284000002B01DA102300E00F23184680BD00BFE3
:1028500018020020300C002080B500AFFDF74EFFBD
:10286000044B5B781A460021C020FFF73DFA00BFF9
:1028700080BD00BFE40B002080B584B000AF3B46B4
:1028800083E803003B78FB7300237B73FB7B042B03
:1028900008D1794B9B781A46784B134493F827302C
:1028A000BB7302E0754B1B79BB737B88013B0F2B1D
:1028B00000F2D98001A252F823F000BF8F2900084E
:1028C000FD280008672A0008FD280008672A00087C
:1028D000672A0008672A00084B2A0008672A0008B0
:1028E000672A0008672A0008672A0008672A000884
:1028F000672A0008672A0008DD2900085E4B1B785C
:10290000002B01D1FB7BB2E0BB7B83F00103BB73E7
:10291000FB7B042B1BD1BB7B002B01D1584B00E070
:10292000584B1A465849594806F096F9BB7B002B7C
:1029300014BF01230023D9B24F4B9B781A464F4B4B
:1029400013440A4683F82720B8237B7315E0BB7B2A
:10295000002B01D14E4B00E04E4B1A464E494B48DE
:1029600006F07AF9BB7B002B14BF01230023DBB2F6
:102970001A46424B1A71B1237B733F4B9B7B01215B
:102980001846FFF7E9F84148FFF7BAF86EE03A4B0E
:102990001B78002B1FD0384B00221A73364B0022B5
:1029A0001A70354B1B7B1846FDF7B6FEFFF73AFF52
:1029B0000346FB73FB7B0F2B01D0102357E02E4BFC
:1029C0009978BB7B9AB27B7B1846FFF78DF9002084
:1029D000FFF7E4F94AE00123FB7347E0FB7B042B9C
:1029E0000FD1BB7B012B01D1264B00E0244B1A46B3
:1029F0002549264806F030F92849294806F02CF9DF
:102A000011E0BB7B012B01D1224B00E0204B1A4689
:102A100021491E4806F020F92249214806F01CF9F8
:102A20000520FFF7BBF9144B00225A73124B022208
:102A30009A73114B01221A730F4B01221A700E4B1D
:102A40001B7B1846FDF768FE10E0FB7B042B03D1CF
:102A50000320FFF7A3F908E0FB7B052B05D1042039
:102A6000FFF79CF901E000BF00E000BFFB7B1846C8
:102A70001037BD4680BD00BFE40B0020300C0020A5
:102A8000589E0008509E0008609E0008F30B00202E
:102A9000A09E0008989E0008A89E0008709E00084E
:102AA000070C002060A0000880B584B000AF3B4652
:102AB00083E803003B78FB73484B5B79BB737B88EF
:102AC000013B0F2B75D801A252F823F03D2B0008D3
:102AD0000D2B0008B32B0008252B0008B32B000892
:102AE000B32B0008B32B0008A32B0008B32B00085E
:102AF000B32B0008B32B0008B32B0008B32B00083E
:102B0000B32B0008B32B00087F2B0008334B5B79F5
:102B10005A1CD1B2314A5171092B4CD92F4B012289
:102B20005A7148E02D4B5B795A1ED1B22B4A517134
:102B3000012B42D8294B0A225A713EE0284B1B78C0
:102B4000002B14D0FEF7FAFF254B00221A70FFF776
:102B500069FE0346FB73FB7B102B01D1FB7B38E046
:102B60001F4B5B781A460021C220FFF7BDF81C4BB3
:102B700001225A700A23FB73FFF76EFE20E0184B08
:102B800001221A70164B0E22DA700620FFF706F9A2
:102B9000134BDB7819460220FEF7DEFFFEF7D5FF68
:102BA0000EE00F4B1B78002B09D10620FFF7F6F83B
:102BB00005E000BF04E000BF02E000BF00E000BF8E
:102BC000064B5B79BA7B9A4202D00620FFF7E6F803
:102BD000FB7B18461037BD4680BD00BF300C00207F
:102BE000E40B002080B584B000AF78600B46FB702A
:102BF0007868FFF73BFB0346FB81174B93F84430A3
:102C00007B73FB89FF2B22D97B7B002B03D17B6855
:102C100000221A701BE0FB78002B05D07B7B7A68C2
:102C2000134400221A7012E07B7B012B0AD17B68CF
:102C300002331B78052B05D97B7B7A681344042269
:102C40001A7004E07B7B7A68134405221A7000BF77
:102C50001037BD4680BD00BFE40B0020F0B58FB03B
:102C600002AF3B4683E803003B7887F82F30002310
:102C700087F82730AE4BDB7887F826307B88102B1F
:102C800000F2D68101A252F823F000BF21300008E3
:102C90001F2F0008D12C000831300008D12C00086B
:102CA0003130000831300008313000082130000890
:102CB00031300008232E000831300008A12E000812
:102CC000313000083130000831300008B32F0008DF
:102CD000974B1B78002B02D197F82F30BDE1944B16
:102CE00093F843301A4613465B0013443033904A3E
:102CF0001344DA1D07F120031188927819809A7025
:102D00007B88022B23D18A4B93F8443030333B44E9
:102D100013F8103C092B08D1854B93F8443030331D
:102D20003B44002203F8102C0DE0814B93F8443013
:102D300003F130023A4412F8102C0132D2B230338F
:102D40003B4403F8102C012387F827301FE0784B11
:102D500093F8443030333B4413F8103C002B08D137
:102D6000734B93F8443030333B44092203F8102C62
:102D70000DE06F4B93F8443003F130023A4412F8FF
:102D8000102C013AD2B230333B4403F8102C97F8A0
:102D9000272007F1200311461846FFF723FF644B55
:102DA00093F843301A4613465B0013443033604AAD
:102DB000134407331A4607F1200319889B781180C2
:102DC00093705C48FFF752FA0346DBB21D465A483F
:102DD000FFF74CFA0346DBB21E465848FFF746FAA7
:102DE0000346DBB21C465648FFF740FA0346DBB207
:102DF00007F10C000193009433462A46514905F02F
:102E00002BFF01210220FEF7A7FE07F10C03184655
:102E1000FEF776FE464BDB7819460220FEF79CFE55
:102E20000DE1434B1B78002B02D197F82F3014E1B2
:102E30003F4BDB78013BDAB23D4BDA703C4BDB7841
:102E4000002B0AD13A4B0F22DA70394B032283F858
:102E50004320374B022283F84420354B93F844300B
:102E6000013BDAB2324B83F84420314BDB7803F07C
:102E70000303DBB2002B40F0DD802D4BDB78013B00
:102E8000DAB22B4BDA702A4B93F84330013BDAB2BB
:102E9000274B83F84320264B022283F84420C9E0C5
:102EA000234B1B78002B02D197F82F30D5E0204B15
:102EB000DB780133DAB21E4BDA701D4BDB780E2B58
:102EC0000AD91B4B0122DA70194B002283F84320E8
:102ED000174B002283F84420154B93F844300133FC
:102EE000DAB2134B83F84420114BDB7803F0030371
:102EF000DBB2002B40F0A0800D4BDB780133DAB25F
:102F00000B4BDA700A4B93F843300133DAB2084BBB
:102F100083F84320064B002283F844208CE0044BC6
:102F20001B78002B3CD0FEF709FE0023BB6221E09A
:102F3000E40B00201B0C00201E0C0020210C0020A4
:102F4000240C0020089F0008BA6A13465B00134453
:102F50003033444A134407331846FFF787F90346D2
:102F6000D9B2414ABB6A13442F330A461A70BB6A6E
:102F70000133BB62BB6A032BE6DDFFF753FC03465C
:102F800087F82F30374B00221A7097F82F30102B0C
:102F900002D197F82F3060E0082387F82F304EE0F9
:102FA000304B02225A700A2387F82F30FFF754FC67
:102FB00045E02C4B02225A720023BB6213E02A4ADE
:102FC000BB6A13442F331B781846BA6A13465B005A
:102FD00013443033234A134407331946FFF700F9EB
:102FE000BB6A0133BB62BB6A032BE8DD1D4B0F22BA
:102FF000DA701C4B032283F843201A4B022283F819
:103000004420184B01221A70164BDB781946022017
:10301000FEF7A2FDFEF799FD0720FEF7BFFE0EE0CA
:10302000104B1B78002B09D10720FEF7B7FE05E0F7
:1030300000BF04E000BF02E000BF00E000BF094B9A
:10304000DB7897F826209A4205D0064BDB781946A4
:103050000220FEF781FD97F82F3018463437BD4621
:10306000F0BD00BFE40B0020300C002080B58CB018
:1030700000AF3B4683E803003B7887F82F30B74B1F
:10308000DB7887F8233001237B627B88102B00F2EA
:10309000778101A252F823F071330008D53200087D
:1030A000DD30000881330008DD300008813300087E
:1030B0008133000881330008713300088133000830
:1030C0004D32000881330008913200088133000836
:1030D0008133000881330008213300089F4B1B789F
:1030E000002B02D197F82F3058E19C4A07F11C03BE
:1030F00045321068186012791A717B88022B1BD137
:10310000964B93F8443030333B4413F9143C5A1C2B
:10311000934B83FB02139910D317C91A0B469B00DC
:103120000B445B00D11A8D4B93F844304AB23033D4
:103130003B4403F8142C1EE0884B93F844303033A2
:103140003B4413F9143C03F10902854B83FB021342
:103150009910D317C91A0B469B000B445B00D11A78
:103160007E4B93F844304AB230333B4403F8142C7E
:103170004FF0FF337B6207F11C031846FFF776F828
:10318000B8623CE0754B93F8443030333B4413F95C
:10319000143CDAB27B6ADBB21344DAB26F4B93F8B9
:1031A000443052B230333B4403F8142C6B4B93F849
:1031B000443030333B4413F9143C092B08DD674B92
:1031C00093F8443030333B44002203F8142C10E0D1
:1031D000624B93F8443030333B4413F9143C002BDA
:1031E00007DA5E4B93F8443030333B44092203F84E
:1031F000142C07F11C031846FFF738F8B862BB6AB5
:10320000B3F5806FBEDBBB6AB3F5803FBADC534BCE
:10321000453307F11C021068186012791A7107F122
:103220000803BA6A4F49184605F016FD012102202D
:10323000FEF792FC07F108031846FEF761FC474BC6
:10324000DB7819460220FEF787FC99E0434B1B7898
:10325000002B02D197F82F30A0E0404BDB78013BE8
:10326000DAB23E4BDA703D4BDB78072B07D83B4B8D
:103270000C22DA70394B042283F8442080E0374B6B
:1032800093F84430013BDAB2344B83F8442077E0C2
:10329000324B1B78002B02D197F82F307EE02F4B5A
:1032A000DB780133DAB22D4BDA702C4BDB780C2B48
:1032B00007D92A4B0822DA70284B002283F84420D1
:1032C0005EE0264B93F844300133DAB2234B83F8A7
:1032D000442055E0214B1B78002B18D0FEF72EFC24
:1032E0002148FEF7C3FF03469AB2204BA3F83320D0
:1032F0001A4B00221A70FFF795FA034687F82F3011
:1033000097F82F30102B02D197F82F3046E0134B4F
:1033100002225A700A2387F82F30FFF79DFA2FE018
:103320000E4B01221A700D4B0C22DA700B4B04224B
:103330005A720A4B042283F844200C4BB3F8333002
:103340009BB209491846FEF74BFF044BDB78194640
:103350000220FEF701FCFEF7F8FB11E0E40B002071
:1033600067666666209F0008290C0020300C00204C
:103370000C4B1B78002B02D10820FEF70FFD00BF7D
:10338000084BDB7897F823209A4205D0054BDB7871
:1033900019460220FEF7E0FB97F82F301846303729
:1033A000BD4680BDE40B002080B584B000AF3B4635
:1033B00083E803000F23FB737B88012B05D0082BC8
:1033C00009D10920FEF7EAFC05E000220021C12016
:1033D000FEF78AFC00BFFB7B18461037BD4680BD58
:1033E00080B584B000AF3B4683E803003B78FB73B5
:1033F0007B88202B06D0202B10DC002B0AD0082B3A
:1034000008D00BE000220021BB20FEF76DFC012359
:10341000FB7303E00A20FEF7C1FC00BFFB7B1846EC
:103420001037BD4680BD000080B485B000AF0346B4
:10343000FB710023FB600BE00A4AFB6813441B7816
:10344000FA799A4201D1FB6806E0FB680133FB6020
:10345000FB68402BF0D9002318461437BD4680BCCA
:10346000704700BFFCA0000880B584B000AF786052
:103470007B681B781846FFF7D7FFF860FB680133BD
:103480001946084BA3FB01239A0913469B011344D9
:10349000CA1A054B9A5C7B681A7000BF1037BD468C
:1034A00080BD00BFFDC00FFCFCA0000880B588B047
:1034B00000AF3B4683E803003B78FB77474BDB7864
:1034C000BB777B88013B0B2B77D801A252F823F006
:1034D00079350008013500089535000801350008E8
:1034E000BB350008BB350008BB350008BB350008FC
:1034F000BB35000841350008BB3500085D350008C4
:10350000364BDB783033364A134405331846FFF721
:10351000ABFF07F10803334A3349184605F09CFB1B
:1035200001210120FEF718FB07F108031846FEF7FA
:10353000E7FA2A4BDB7819460120FEF70DFB3CE049
:10354000264BDB780F335A4203F00F0302F00F02D1
:1035500058BF5342DAB2214BDA702EE01F4BDB78B2
:1035600001335A4203F00F0302F00F0258BF5342D7
:10357000DAB21A4BDA7020E0FEF7E0FA174B0022BD
:103580001A70FFF74FF90346FB77FB7F102B13D11F
:10359000FB7F1EE0114B01221A70104B0222DA70E1
:1035A0000E4BDB7819460120FEF7D6FAFEF7CDFA6E
:1035B0000B20FEF7F3FB00E000BF084BDB78BA7F7F
:1035C0009A4205D0054BDB7819460120FEF7C4FA74
:1035D000FB7F18462037BD4680BD00BFE40B0020AE
:1035E000300C0020650C0020689D000880B584B078
:1035F00000AF3B4683E803000F23FB737B88012B5E
:1036000002D0092B19D01CE000220021B920FEF7BE
:103610006BFBFDF7B7F84A2200210C4805F07AFB56
:103620000B4B1B680B4A1046194647231A4605F0F8
:1036300003FC0020FEF7B2FB03E00C20FEF7AEFB1C
:1036400000BFFB7B18461037BD4680BDE40B002051
:1036500018020020300C002080B594B000AF184A4A
:103660003B4611465022184605F0E6FB154BDB7829
:10367000042B0BD11449154805F0EEFA14491548EE
:1036800005F0EAFA0F4B02229A7314E012490F4830
:1036900005F0E2FA0B4BDB7819463A460B469B00E5
:1036A0000B449B0013441A460C490A4805F0D4FA0F
:1036B000044B01229A7300BF5037BD4680BD00BF46
:1036C00078A00008E40B0020C89F0008F30B00203E
:1036D00060A00008070C0020B49F000874A0000838
:1036E00080B584B000AF3B4683E803003B78FB73B2
:1036F0007B88013B052B62D801A252F823F000BF62
:103700005D37000819370008BF3700083B3700084D
:10371000BF3700088D3700082B4BDB781A1D2B4B69
:1037200083FB02135910D317C91A0B469B000B4495
:10373000D11ACAB2244BDA7041E0234BDB785A1C11
:10374000224B83FB02135910D317C91A0B469B0057
:103750000B44D11ACAB21C4BDA7030E01A4B00226B
:103760001A73194B1B7B1846FCF7D6FF164BDA78F9
:10377000174B9A71144B00221A70FFF753F8034647
:10378000FB73FB7B102B19D1FB7B19E0104B9A7953
:103790000D4BDA700C4B00225A730B4B01221A733B
:1037A000094B01221A70084B1B7B1846FCF7B4FF2B
:1037B000FFF752FF0D20FEF7F1FA00E000BFFB7BA0
:1037C00018461037BD4680BDE40B0020676666666C
:1037D000300C002080B584B000AF3B4683E8030086
:1037E0000F23FB737B88012B02D0052B04D007E04D
:1037F0000020FEF7D3FA03E00520FEF7CFFA00BF62
:10380000FB7B18461037BD4680BD0000FEF7BAF8B6
:103810000B480C490C4A002302E0D458C45004332E
:10382000C4188C42F9D3094A094C002301E0136003
:103830000432A242FBD305F0D9FAFDF7CFFC704762
:1038400000000020A801002098A10008A801002085
:1038500078380020FEE7000080B500AF084B1B68F9
:10386000074A43F010031360032000F0D1F80F2043
:10387000FDF7A6FFFDF7E0FE0023184680BD00BF60
:103880000020024080B400AF054B1B781A46054B60
:103890001B681344034A136000BFBD4680BC7047D9
:1038A00050010020780C002080B400AF024B1B6850
:1038B0001846BD4680BC7047780C002080B485B0A7
:1038C00000AF78607B6803F00703FB600C4BDB689C
:1038D000BB60BA684FF6FF031340BB60FB681A0277
:1038E000BB68134343F0BF6343F40033BB60044A37
:1038F000BB68D36000BF1437BD4680BC704700BFB3
:1039000000ED00E080B400AF044BDB681B0A03F05D
:1039100007031846BD4680BC704700BF00ED00E0BD
:1039200080B483B000AF0346FB7197F90730002BDA
:103930000BDBFB7903F01F02064997F907305B099F
:10394000012000FA02F241F8232000BF0C37BD46E7
:1039500080BC704700E100E080B483B000AF034654
:103960003960FB7197F90730002B0ADB3B68DAB24C
:103970000C4997F907301201D2B20B4483F80023A7
:103980000AE03B68DAB20849FB7903F00F03043B15
:103990001201D2B20B441A7600BF0C37BD4680BC70
:1039A000704700BF00E100E000ED00E080B489B0A6
:1039B00000AFF860B9607A60FB6803F00703FB6151
:1039C000FB69C3F10703042B28BF0423BB61FB6918
:1039D0000433062B02D9FB69033B00E000237B6123
:1039E0004FF0FF32BB6902FA03F3DA43BB681A40B7
:1039F0007B699A404FF0FF317B6901FA03F3D943A9
:103A00007B680B40134318462437BD4680BC704783
:103A100080B582B000AF78607868FFF74FFF00BFD5
:103A20000837BD4680BD80B586B000AF0346B9609B
:103A30007A60FB7300237B61FFF764FF78617A682B
:103A4000B9687869FFF7B2FF024697F90F3011465F
:103A50001846FFF781FF00BF1837BD4680BD80B50F
:103A600082B000AF0346FB7197F907301846FFF7A5
:103A700057FF00BF0837BD4680BD80B485B000AF9A
:103A800078600023FB737B6893F82130DBB2022B54
:103A900008D07B6804229A637B68002283F8202088
:103AA000012320E07B681B681A687B681B6822F092
:103AB0000E021A607B681B681A687B681B6822F01C
:103AC00001021A607B681A6C7B68DB6B012101FACA
:103AD00002F25A607B68012283F821207B68002271
:103AE00083F82020FB7B18461437BD4680BC704706
:103AF00080B584B000AF78600023FB737B6893F8D7
:103B00002130DBB2022B05D07B6804229A630123AB
:103B1000FB7351E07B681B681A687B681B6822F0A6
:103B20000E021A607B681B681A687B681B6822F0AB
:103B300001021A607B681B68224A934229D07B6885
:103B40001B68214A934222D07B681B681F4A93421C
:103B50001AD07B681B681E4A934212D07B681B6890
:103B60001C4A93420AD07B681B681B4A934202D1CD
:103B70004FF480130EE04FF080730BE04FF480336E
:103B800008E04FF4805305E04FF4807302E0102307
:103B900000E00123114A53607B68012283F8212051
:103BA0007B68002283F820207B685B6B002B03D0AE
:103BB0007B685B6B78689847FB7B18461037BD467F
:103BC00080BD00BF080002401C00024030000240DF
:103BD00044000240580002406C00024000000240D5
:103BE000F0B587B000AFF860B960C7E900230123E2
:103BF000FB750023BB7500237B752F4B1B7E012BB0
:103C000001D1022354E02C4B01221A764CF25030A1
:103C100000F0B2F80346FB75FB7D002B44D1FB6836
:103C2000012B02D101237B7507E0FB68022B02D137
:103C300002237B7501E004237B750023BB752DE017
:103C4000BB7D5A00BB6802EB030CBB7D1901D7E9B1
:103C50000023C1F12006A1F1200022FA01F403FAA9
:103C600006F6344323FA00F0044323FA01F5A3B225
:103C70001946604600F064F84CF2503000F07CF8D1
:103C80000346FB750D4B1B690C4A23F001031361BE
:103C9000FB7D002B07D1BB7D0133BB75BA7D7B7DDE
:103CA0009A42CDD300E000BF034B00221A76FB7D81
:103CB00018461C37BD46F0BD800C00200020024095
:103CC00080B483B000AF0023FB710D4B1B6903F080
:103CD0008003002B0DD00A4B0A4A5A60084B0A4A4F
:103CE0005A60074B1B6903F08003002B01D00123AE
:103CF000FB71FB7918460C37BD4680BC704700BF8E
:103D00000020024023016745AB89EFCD80B400AFAE
:103D1000054B1B69044A43F08003136100231846D6
:103D2000BD4680BC704700BF0020024080B400AF99
:103D3000024BDB691846BD4680BC7047800C0020F2
:103D400080B483B000AF78600B467B80084B0022C4
:103D5000DA61084B1B69074A43F0010313617B6872
:103D60007A881A8000BF0C37BD4680BC704700BF00
:103D7000800C00200020024080B584B000AF786045
:103D8000FFF792FDF86010E07B68B3F1FF3F0CD0C5
:103D90007B68002B07D0FFF787FD0246FB68D31A2C
:103DA0007A689A4201D2032325E0154BDB6803F0C1
:103DB0000103002BE8D1124BDB6803F02003002B3A
:103DC00002D00F4B2022DA600D4BDB6803F01003AA
:103DD000002B0BD10A4BDB6903F00103002B05D14B
:103DE000074BDB6803F00403002B03D000F00AF854
:103DF000012300E0002318461037BD4680BD00BFF8
:103E00000020024080B483B000AF00237B60234BCE
:103E1000DB6803F01003002B09D0214BDB6943F072
:103E200002031F4AD3617B6843F010037B601B4B86
:103E3000DB6803F00403002B09D0194BDB6943F066
:103E40000103174AD3617B6843F004037B60134B83
:103E5000DB6903F00103002B0BD0114BDB6943F04E
:103E600004030F4AD3610D4BDB690C4A23F00103B5
:103E7000D3617B6840F20112934206D1074BDB69A4
:103E8000064A23F00103D36102E0044A7B68D36051
:103E900000BF0C37BD4680BC704700BF0020024009
:103EA000800C002080B584B000AF786039600123B9
:103EB000FB730023BB602F4B1B7E012B01D1022320
:103EC00053E02C4B01221A767B681B68022B16D11B
:103ED0004CF25030FFF750FF0346002B41D1012038
:103EE00000F04CF84CF25030FFF746FF0346FB73EE
:103EF000214B1B69204A23F00403136131E04CF28B
:103F00005030FFF739FF0346002B2AD13B684FF0B2
:103F1000FF321A607B689B68BB6019E0B86800F0EC
:103F200049F84CF25030FFF727FF0346FB73124B62
:103F30001B69114A23F002031361FB7B002B03D0A2
:103F40003B68BA681A600CE0BB6803F58063BB602D
:103F50007B68DB689A027B689B681344BA689A4264
:103F6000DCD3044B00221A76FB7B18461037BD4683
:103F700080BD00BF800C00200020024080B483B0D0
:103F800000AF7860094B0022DA61094B1B69084ACF
:103F900043F004031361064B1B69054A43F04003D9
:103FA000136100BF0C37BD4680BC7047800C0020F9
:103FB0000020024080B483B000AF78600B4B002239
:103FC000DA610B4B1B690A4A43F002031361084A8A
:103FD0007B685361064B1B69054A43F0400313613C
:103FE00000BF0C37BD4680BC704700BF800C00206E
:103FF0000020024080B48BB000AF786039600023AD
:104000007B6200233B6269E101227B6A02FA03F3CF
:10401000FB613B681B68FA691340BB61BA69FB69C5
:104020009A4240F058813B685B689A4A93425ED05E
:10403000984A934275D8984A934258D0964A9342E8
:104040006FD8964A934252D0944A934269D8944A80
:1040500093424CD0924A934263D8924A934246D0BC
:10406000904A93425DD8122B2AD8122B59D801A21C
:1040700052F823F0EF400008C9400008DB40000878
:104080001D41000823410008234100082341000886
:104090002341000823410008234100082341000870
:1040A0002341000823410008234100082341000860
:1040B0002341000823410008D1400008E5400008E2
:1040C000794A934213D02CE03B68DB683B6229E0DD
:1040D0003B68DB6804333B6224E03B68DB68083301
:1040E0003B621FE03B68DB680C333B621AE03B68D5
:1040F0009B68002B02D104233B6213E03B689B6862
:10410000012B05D108233B627B68FA691A6109E03B
:1041100008233B627B68FA695A6103E000233B6233
:1041200000E000BFBB69FF2B01D87B6801E07B6822
:1041300004337B61BB69FF2B02D87B6A9B0002E0E2
:104140007B6A083B9B003B617B691A680F213B69D6
:1041500001FA03F3DB431A40396A3B6901FA03F3BE
:104160001A437B691A603B685B6803F08053002B3D
:1041700000F0B1804D4B9B694C4A43F001039361C1
:104180004A4B9B6903F00103BB60BB68484A7B6AEA
:104190009B08023352F82330FB607B6A03F0030371
:1041A0009B000F2202FA03F3DB43FA681340FB6023
:1041B0007B68404A934213D07B683F4A93420DD0BC
:1041C0007B683E4A934207D07B683D4A934201D1C7
:1041D000032306E0042304E0022302E0012300E0BD
:1041E00000237A6A02F0030292009340FA681343B4
:1041F000FB602F497B6A9B080233FA6841F8232051
:104200003B685B6803F48013002B06D02D4B9A6843
:104210002C49BB6913438B6006E02A4B9A68BB6943
:10422000DB43284913408B603B685B6803F4001351
:10423000002B06D0234BDA682249BB691343CB60BD
:1042400006E0204BDA68BB69DB431E491340CB60B4
:104250003B685B6803F40033002B06D0194B5A68A7
:104260001849BB6913434B6006E0164B5A68BB699B
:10427000DB43144913404B603B685B6803F48033B5
:10428000002B21D00F4B1A680E49BB6913430B60FA
:1042900021E000BF000032100000311000002210A9
:1042A0000000211000001210000011100010024048
:1042B0000000014000080140000C014000100140D6
:1042C00000140140000401400B4B1A68BB69DB433A
:1042D000094913400B607B6A01337B623B681A68B3
:1042E0007B6A22FA03F3002B7FF48EAE00BF00BF7F
:1042F0002C37BD4680BC70470004014080B485B0B7
:1043000000AF78600B467B807B689A687B8813409F
:10431000002B02D00123FB7301E00023FB73FB7B26
:1043200018461437BD4680BC704780B483B000AFD8
:1043300078600B467B8013467B707B78002B03D024
:104340007A887B681A6103E07B881A047B681A61AB
:1043500000BF0C37BD4680BC704780B485B000AF4D
:1043600078600B467B807B68DB68FB607A88FB6843
:1043700013401A04FB68D9437B880B401A437B68BF
:104380001A6100BF1437BD4680BC704780B586B047
:1043900000AF78607B68002B01D1012372E27B685B
:1043A0001B6803F00103002B00F08780924B5B68D1
:1043B00003F00C03042B0CD08F4B5B6803F00C0351
:1043C000082B12D18C4B5B6803F48033B3F5803F2C
:1043D0000BD1894B1B6803F40033002B6CD07B6836
:1043E0005B68002B68D101234CE27B685B68B3F506
:1043F000803F06D1804B1B687F4A43F480331360B3
:104400002EE07B685B68002B0CD17B4B1B687A4AE3
:1044100023F480331360784B1B68774A23F480239E
:1044200013601DE07B685B68B3F5A02F0CD1724B65
:104430001B68714A43F4802313606F4B1B686E4AFC
:1044400043F4803313600BE06B4B1B686A4A23F420
:1044500080331360684B1B68674A23F48023136022
:104460007B685B68002B13D0FFF71EFA386108E009
:10447000FFF71AFA02463B69D31A642B01D90323CA
:1044800000E25D4B1B6803F40033002BF0D014E016
:10449000FFF70AFA386108E0FFF706FA02463B69BF
:1044A000D31A642B01D90323ECE1534B1B6803F4AB
:1044B0000033002BF0D100E000BF7B681B6803F0E5
:1044C0000203002B63D04C4B5B6803F00C03002B02
:1044D0000BD0494B5B6803F00C03082B1CD1464BF7
:1044E0005B6803F48033002B16D1434B1B6803F049
:1044F0000203002B05D07B681B69012B01D001232F
:10450000C0E13D4B1B6823F0F8027B685B69DB0070
:10451000394913430B603AE07B681B69002B20D0BC
:10452000364B01221A60FFF7BFF9386108E0FFF748
:10453000BBF902463B69D31A022B01D90323A1E13F
:104540002D4B1B6803F00203002BF0D02A4B1B6895
:1045500023F0F8027B685B69DB00274913430B609B
:1045600015E0264B00221A60FFF79EF9386108E03B
:10457000FFF79AF902463B69D31A022B01D90323AC
:1045800080E11D4B1B6803F00203002BF0D17B6818
:104590001B6803F00803002B3AD07B689B69002B53
:1045A00019D0174B01221A60FFF77EF9386108E035
:1045B000FFF77AF902463B69D31A022B01D903238C
:1045C00060E10D4B5B6A03F00203002BF0D0012089
:1045D00000F0FEFA1CE00A4B00221A60FFF764F9B3
:1045E00038610FE0FFF760F902463B69D31A022BEE
:1045F00008D9032346E100BF0010024000004242F8
:1046000080044242924B5B6A03F00203002BE9D123
:104610007B681B6803F00403002B00F0A6800023D6
:10462000FB758B4BDB6903F08053002B0DD1884B5E
:10463000DB69874A43F08053D361854BDB6903F024
:104640008053BB60BB680123FB75824B1B6803F47E
:104650008073002B18D17F4B1B687E4A43F4807314
:104660001360FFF721F9386108E0FFF71DF90246F2
:104670003B69D31A642B01D9032303E1754B1B68F3
:1046800003F48073002BF0D07B68DB68012B06D12C
:104690006F4B1B6A6E4A43F0010313622DE07B6887
:1046A000DB68002B0CD16A4B1B6A694A23F00103BB
:1046B0001362674B1B6A664A23F0040313621CE013
:1046C0007B68DB68052B0CD1614B1B6A604A43F0A9
:1046D000040313625E4B1B6A5D4A43F001031362DD
:1046E0000BE05B4B1B6A5A4A23F001031362584BE1
:1046F0001B6A574A23F0040313627B68DB68002BB4
:1047000015D0FFF7D1F838610AE0FFF7CDF802467F
:104710003B69D31A41F28832934201D90323B1E0B5
:104720004B4B1B6A03F00203002BEED014E0FFF7A3
:10473000BBF838610AE0FFF7B7F802463B69D31AC5
:1047400041F28832934201D903239BE0404B1B6A1C
:1047500003F00203002BEED1FB7D012B05D13C4B76
:10476000DB693B4A23F08053D3617B68DB69002B14
:1047700000F08780364B5B6803F00C03082B61D098
:104780007B68DB69022B46D1334B00221A60FFF7AE
:104790008BF8386108E0FFF787F802463B69D31AC7
:1047A000022B01D903236DE0294B1B6803F0007332
:1047B000002BF0D17B681B6AB3F5803F08D1244BF6
:1047C0005B6823F400327B689B68214913434B608C
:1047D0001F4B5B6823F474127B68196A7B685B6A01
:1047E0000B431B4913434B601B4B01221A60FFF71D
:1047F0005BF8386108E0FFF757F802463B69D31AC7
:10480000022B01D903233DE0114B1B6803F0007319
:10481000002BF0D035E0104B00221A60FFF744F86F
:10482000386108E0FFF740F802463B69D31A022BD3
:1048300001D9032326E0064B1B6803F00073002B0D
:10484000F0D11EE07B68DB69012B07D1012319E061
:104850000010024000700040600042420B4B5B6859
:10486000FB60FB6803F480327B681B6A9A4206D1C6
:10487000FB6803F470127B685B6A9A4201D00123E3
:1048800000E0002318461837BD4680BD00100240E6
:1048900080B584B000AF786039607B68002B01D1AF
:1048A0000123D0E06A4B1B6803F007033A689A4281
:1048B00010D9674B1B6823F0070265493B68134317
:1048C0000B60634B1B6803F007033A689A4201D000
:1048D0000123B8E07B681B6803F00203002B20D0A3
:1048E0007B681B6803F00403002B05D0594B5B6801
:1048F000584A43F4E06353607B681B6803F0080385
:10490000002B05D0534B5B68524A43F4605353600D
:10491000504B5B6823F0F0027B689B684D49134362
:104920004B607B681B6803F00103002B40D07B6861
:104930005B68012B07D1474B1B6803F40033002B46
:1049400015D101237FE07B685B68022B07D1414BC7
:104950001B6803F00073002B09D1012373E03D4B6A
:104960001B6803F00203002B01D101236BE0394BDC
:104970005B6823F003027B685B68364913434B6036
:10498000FEF792FFF8600AE0FEF78EFF0246FB6832
:10499000D31A41F28832934201D9032353E02D4BBD
:1049A0005B6803F00C027B685B689B009A42EBD16A
:1049B000274B1B6803F007033A689A4210D2244B36
:1049C0001B6823F0070222493B6813430B60204B0E
:1049D0001B6803F007033A689A4201D0012332E0D2
:1049E0007B681B6803F00403002B08D0194B5B683D
:1049F00023F4E0627B68DB68164913434B607B68F5
:104A00001B6803F00803002B09D0124B5B6823F4EA
:104A100060527B681B69DB000E4913434B6000F05A
:104A200021F802460B4B5B681B0903F00F030A4990
:104A3000CB5C22FA03F3094A1360094B1B68184642
:104A4000FCF7BEFE002318461037BD4680BD00BFF0
:104A50000020024000100240E4A00008A400002052
:104A60004C01002080B487B000AF0023FB6000231E
:104A7000BB6000237B6100237B6000233B611E4BF6
:104A80005B68FB60FB6803F00C03042B02D0082B6F
:104A900003D027E0194B3B6127E0FB689B0C03F038
:104AA0000F03174AD35C7B60FB6803F48033002B51
:104AB00010D0114B5B685B0C03F00103114AD35C0F
:104AC000BB607B680D4A03FB02F2BB68B2FBF3F3E9
:104AD0007B6104E07B680C4A02FB03F37B617B692A
:104AE0003B6102E0054B3B6100BF3B6918461C3748
:104AF000BD4680BC704700BF0010024000127A0023
:104B000040A1000850A1000800093D0080B400AF9A
:104B1000024B1B681846BD4680BC7047A4000020AD
:104B200080B500AFFFF7F2FF0246054B5B681B0A3A
:104B300003F007030349CB5C22FA03F3184680BD58
:104B400000100240F4A0000880B500AFFFF7DEFFC0
:104B50000246054B5B68DB0A03F007030349CB5CA5
:104B600022FA03F3184680BD00100240F4A00008AA
:104B700080B483B000AF786039607B680F221A6020
:104B8000114B5B6803F003027B685A600E4B5B6855
:104B900003F0F0027B689A600B4B5B6803F4E06201
:104BA0007B68DA60084B5B68DB0803F4E0627B68D3
:104BB0001A61064B1B6803F007023B681A6000BFCE
:104BC0000C37BD4680BC70470010024000200240F8
:104BD00080B485B000AF78600A4B1B680A4AA2FB1C
:104BE00003235B0A7A6802FB03F3FB6000BFFB68E8
:104BF0005A1EFA60002BF9D100BF00BF1437BD4622
:104C000080BC7047A4000020D34D621080B582B0F4
:104C100000AF78607B68002B01D1012341E07B6805
:104C200093F83D30DBB2002B06D17B68002283F87D
:104C30003C20786800F039F87B68022283F83D2038
:104C40007B681A687B6804331946104600F09CF9AB
:104C50007B68012283F846207B68012283F83E208E
:104C60007B68012283F83F207B68012283F8402083
:104C70007B68012283F841207B68012283F842206F
:104C80007B68012283F843207B68012283F844205B
:104C90007B68012283F845207B68012283F83D2050
:104CA000002318460837BD4680BD80B483B000AFEE
:104CB000786000BF0C37BD4680BC704780B485B0BB
:104CC00000AF78607B6893F83D30DBB2012B01D0F8
:104CD00001233AE07B68022283F83D207B681B6851
:104CE000DA687B681B6842F00102DA607B681B6847
:104CF000184A93420ED07B681B68B3F1804F09D0ED
:104D00007B681B68144A934204D07B681B68134A73
:104D1000934211D17B681B689B6803F00703FB601B
:104D2000FB68062B10D07B681B681A687B681B68C1
:104D300042F001021A6007E07B681B681A687B6812
:104D40001B6842F001021A60002318461437BD4662
:104D500080BC7047002C0140000400400008004067
:104D600080B584B000AF78607B681B68DB68FB604F
:104D70007B681B681B69BB60BB6803F00203002BE8
:104D800020D0FB6803F00203002B1BD07B681B685C
:104D90006FF002021A617B6801221A777B681B6838
:104DA0009B6903F00303002B03D0786800F0D1F86F
:104DB00005E0786800F0C4F8786800F0D3F87B6804
:104DC00000221A77BB6803F00403002B20D0FB6895
:104DD00003F00403002B1BD07B681B686FF00402F8
:104DE0001A617B6802221A777B681B689B6903F44F
:104DF0004073002B03D0786800F0ABF805E07868CA
:104E000000F09EF8786800F0ADF87B6800221A7711
:104E1000BB6803F00803002B20D0FB6803F00803F5
:104E2000002B1BD07B681B686FF008021A617B683F
:104E300004221A777B681B68DB6903F00303002BED
:104E400003D0786800F085F805E0786800F078F81D
:104E5000786800F087F87B6800221A77BB6803F057
:104E60001003002B20D0FB6803F01003002B1BD095
:104E70007B681B686FF010021A617B6808221A7742
:104E80007B681B68DB6903F44073002B03D07868F0
:104E900000F05FF805E0786800F052F8786800F0FC
:104EA00061F87B6800221A77BB6803F00103002BCE
:104EB0000CD0FB6803F00103002B07D07B681B6854
:104EC0006FF001021A617868FCF79EFBBB6803F083
:104ED0008003002B0CD0FB6803F08003002B07D06D
:104EE0007B681B686FF080021A61786800F0C3F875
:104EF000BB6803F04003002B0CD0FB6803F04003B9
:104F0000002B07D07B681B686FF040021A6178683D
:104F100000F031F8BB6803F02003002B0CD0FB68D5
:104F200003F02003002B07D07B681B686FF0200282
:104F30001A61786800F096F800BF1037BD4680BD52
:104F400080B483B000AF786000BF0C37BD4680BC32
:104F5000704780B483B000AF786000BF0C37BD46A7
:104F600080BC704780B483B000AF786000BF0C375E
:104F7000BD4680BC704780B483B000AF786000BF8E
:104F80000C37BD4680BC704780B485B000AF7860F8
:104F900039607B681B68FB607B682F4A93420BD0AB
:104FA0007B68B3F1804F07D07B682C4A934203D0D3
:104FB0007B682B4A934208D1FB6823F07003FB60A7
:104FC0003B685B68FA681343FB607B68224A934244
:104FD0000BD07B68B3F1804F07D07B681F4A9342A8
:104FE00003D07B681E4A934208D1FB6823F44073C8
:104FF000FB603B68DB68FA681343FB60FB6823F0E7
:1050000080023B685B691343FB607B68FA681A6047
:105010003B689A687B68DA623B681A687B689A62C8
:105020007B680D4A934203D13B681A697B681A6317
:105030007B6801225A617B681B6903F00103002B26
:1050400005D07B681B6923F001027B681A6100BFF1
:105050001437BD4680BC7047002C0140000400405E
:105060000008004080B483B000AF786000BF0C3708
:10507000BD4680BC704780B483B000AF786000BF8D
:105080000C37BD4680BC704780B582B000AF7860F9
:105090007B68002B01D1012342E07B6893F841300B
:1050A000DBB2002B06D17B68002283F840207868B1
:1050B000FCF7FAFA7B68242283F841207B681B689E
:1050C000DA687B681B6822F40052DA60786800F0C6
:1050D000B7FD7B681B681A697B681B6822F49042E5
:1050E0001A617B681B685A697B681B6822F02A0278
:1050F0005A617B681B68DA687B681B6842F400525F
:10510000DA607B6800225A647B68202283F84120A1
:105110007B68202283F842207B6800225A630023A8
:1051200018460837BD4680BD80B58AB002AFF8602A
:10513000B9603B601346FB8000237B61FB6893F8FA
:105140004130DBB2202B75D1BB68002B02D0FB882D
:10515000002B01D101236EE0FB6800225A64FB683A
:10516000212283F84120FEF79FFB7861FB68FA88D3
:105170009A84FB68FA88DA84FB689B68B3F5805FE1
:1051800008D1FB681B69002B04D10023FB61BB68BD
:10519000BB6103E0BB68FB610023BB612EE03B68A1
:1051A00000937B6900228021F86800F01CFB034615
:1051B000002B05D0FB68202283F8412003233AE02E
:1051C000FB69002B0BD1BB691B881A46FB681B6867
:1051D000C2F308025A60BB690233BB6107E0FB6996
:1051E0001A78FB681B685A60FB690133FB61FB6836
:1051F000DB8C9BB2013B9AB2FB68DA84FB68DB8CE8
:105200009BB2002BCBD13B6800937B6900224021ED
:10521000F86800F0E8FA0346002B05D0FB6820226E
:1052200083F84120032306E0FB68202283F8412015
:10523000002300E0022318462037BD4680BD80B51C
:1052400084B000AFF860B9601346FB80FB6893F848
:105250004230DBB2202B12D1BB68002B02D0FB887E
:10526000002B01D101230BE0FB6800221A63FB88AD
:105270001A46B968F86800F00FFB034600E0022305
:1052800018461037BD4680BD80B5BAB000AF786013
:105290007B681B681B68C7F8E4307B681B68DB68A9
:1052A000C7F8E0307B681B685B69C7F8DC30002317
:1052B000C7F8D8300023C7F8D430D7F8E43003F06B
:1052C0000F03C7F8D830D7F8D830002B0FD1D7F854
:1052D000E43003F02003002B09D0D7F8E03003F0CE
:1052E0002003002B03D0786800F0ECFB5BE2D7F8DA
:1052F000D830002B00F0DE80D7F8DC3003F001035B
:10530000002B06D1D7F8E03003F49073002B00F0A7
:10531000D180D7F8E43003F00103002B0BD0D7F88D
:10532000E03003F48073002B05D07B685B6C43F0A6
:1053300001027B685A64D7F8E43003F00403002BC1
:105340000BD0D7F8DC3003F00103002B05D07B68CD
:105350005B6C43F002027B685A64D7F8E43003F0D8
:105360000203002B0BD0D7F8DC3003F00103002B35
:1053700005D07B685B6C43F004027B685A64D7F805
:10538000E43003F00803002B11D0D7F8E03003F02D
:105390002003002B05D1D7F8DC3003F00103002BEC
:1053A00005D07B685B6C43F008027B685A647B68BD
:1053B0005B6C002B00F0F281D7F8E43003F020039F
:1053C000002B08D0D7F8E03003F02003002B02D0E8
:1053D000786800F077FB7B681B685B6903F040032B
:1053E000002B14BF01230023DBB2C7F8D4307B6845
:1053F0005B6C03F00803002B03D1D7F8D430002BEB
:105400004FD0786800F081FA7B681B685B6903F015
:105410004003002B41D07B681B681433C7F89C30D5
:10542000D7F89C3053E8003FC7F89830D7F8983049
:1054300023F04003C7F8D0307B681B681433D7F8DB
:10544000D020C7F8A820C7F8A430D7F8A410D7F800
:10545000A82041E80023C7F8A030D7F8A030002BDF
:10546000D9D17B68DB6B002B13D07B68DB6B7E4A6A
:105470005A637B68DB6B1846FEF73AFB0346002B4A
:1054800016D07B68DB6B5B6B7A68D26B10469847F3
:105490000EE0786800F093F90AE0786800F08FF980
:1054A00006E0786800F08BF97B6800225A6475E1A9
:1054B00000BF73E17B681B6B012B40F04F81D7F875
:1054C000E43003F01003002B00F04881D7F8E030FF
:1054D00003F01003002B00F041810023BB607B68C8
:1054E0001B681B68BB607B681B685B68BB60BB6834
:1054F0007B681B685B6903F04003002B00F0B680FB
:105500007B68DB6B1B685B68A7F8BE30B7F8BE3002
:10551000002B00F045817B689B8DB7F8BE209A4236
:1055200080F03E817B68B7F8BE20DA857B68DB6B54
:105530009B69202B00F088807B681B680C33C7F8C0
:105540008830D7F8883053E8003FC7F88430D7F860
:10555000843023F48073C7F8B8307B681B680C3341
:10556000D7F8B820C7F89420C7F89030D7F8901033
:10557000D7F8942041E80023C7F88C30D7F88C3056
:10558000002BD9D17B681B6814337B677B6F53E892
:10559000003F3B673B6F23F00103C7F8B4307B68E3
:1055A0001B681433D7F8B420C7F88020FB67F96F65
:1055B000D7F8802041E80023BB67BB6F002BE1D107
:1055C0007B681B6814333B663B6E53E8003FFB650A
:1055D000FB6D23F04003C7F8B0307B681B681433C1
:1055E000D7F8B020FA66BB66B96EFA6E41E80023C0
:1055F0007B667B6E002BE3D17B68202283F8422000
:105600007B6800221A637B681B680C33FB64FB6CAD
:1056100053E8003FBB64BB6C23F01003C7F8AC3009
:105620007B681B680C33D7F8AC20BA657B65796D55
:10563000BA6D41E800233B653B6D002BE3D17B68ED
:10564000DB6B1846FEF719FA7B6802225A637B6807
:105650009A8D7B68DB8D9BB2D31A9BB21946786812
:1056600000F0B6F89CE000BFCF5900087B689A8D27
:105670007B68DB8D9BB2D31AA7F8CE307B68DB8DBD
:105680009BB2002B00F08E80B7F8CE30002B00F0DC
:1056900089807B681B680C33BB63BB6B53E8003F9E
:1056A0007B637B6B23F49073C7F8C8307B681B68FF
:1056B0000C33D7F8C8207A643B64396C7A6C41E8C3
:1056C0000023FB63FB6B002BE3D17B681B68143367
:1056D0007B627B6A53E8003F3B623B6A23F0010335
:1056E000C7F8C4307B681B681433D7F8C4203A630A
:1056F000FB62F96A3A6B41E80023BB62BB6A002B8C
:10570000E3D17B68202283F842207B6800221A6361
:105710007B681B680C333B613B6953E8003FFB60CF
:10572000FB6823F01003C7F8C0307B681B680C339C
:10573000D7F8C020FA61BB61B969FA6941E8002372
:105740007B617B69002BE3D17B6802225A63B7F847
:10575000CE301946786800F03BF823E0D7F8E43003
:1057600003F08003002B09D0D7F8E03003F080036A
:10577000002B03D0786800F03EF914E0D7F8E4304D
:1057800003F04003002B0ED0D7F8E03003F04003C5
:10579000002B08D0786800F07DF904E000BF02E03B
:1057A00000BF00E000BFE837BD4680BD80B483B0D5
:1057B00000AF786000BF0C37BD4680BC704780B436
:1057C00083B000AF786000BF0C37BD4680BC704727
:1057D00080B483B000AF78600B467B8000BF0C378D
:1057E000BD4680BC704780B586B000AFF860B96038
:1057F0003B601346FB713BE03B6AB3F1FF3F37D0A0
:10580000FEF752F802463B68D31A3A6A9A4202D32C
:105810003B6A002B01D103233AE0FB681B68DB687D
:1058200003F00403002B23D0BB68802B20D0BB687F
:10583000402B1DD0FB681B681B6803F00803082B76
:1058400016D100237B61FB681B681B687B61FB68CA
:105850001B685B687B617B69F86800F056F8FB6841
:1058600008225A64FB68002283F8402001230FE0DD
:10587000FB681B681A68BB681340BA689A420CBF81
:1058800001230023DBB21A46FB799A42B4D00023ED
:1058900018461837BD4680BD80B485B000AFF860AB
:1058A000B9601346FB80FB68BA689A62FB68FA88A5
:1058B0009A85FB68FA88DA85FB6800225A64FB68DF
:1058C000222283F84220FB681B69002B07D0FB686B
:1058D0001B68DA68FB681B6842F48072DA60FB6858
:1058E0001B685A69FB681B6842F001025A61FB6839
:1058F0001B68DA68FB681B6842F02002DA6000234C
:1059000018461437BD4680BC704780B495B000AFD0
:1059100078607B681B680C337B637B6B53E8003FCC
:105920003B633B6B23F49073FB647B681B680C3315
:10593000FA6C3A64FB63F96B3A6C41E80023BB6391
:10594000BB6B002BE5D17B681B6814333B623B6A61
:1059500053E8003FFB61FB6923F00103BB647B68F4
:105960001B681433BA6CFA62BB62B96AFA6A41E81E
:1059700000237B627B6A002BE5D17B681B6B012BCC
:1059800019D17B681B680C33FB60FB6853E8003F50
:10599000BB60BB6823F010037B647B681B680C331F
:1059A0007A6CBA617B617969BA6941E800233B612D
:1059B0003B69002BE5D17B68202283F842207B687D
:1059C00000221A6300BF5437BD4680BC704780B5C3
:1059D00084B000AF78607B685B6AFB60FB68002284
:1059E000DA85FB680022DA84F868FFF7E8FE00BF7A
:1059F0001037BD4680BD80B485B000AF78607B684D
:105A000093F84130DBB2212B3ED17B689B68B3F524
:105A1000805F14D17B681B69002B10D17B681B6AE7
:105A2000FB60FB681B881A467B681B68C2F3080290
:105A30005A607B681B6A9A1C7B681A6208E07B6864
:105A40001B6A591C7A6811621A787B681B685A6055
:105A50007B68DB8C9BB2013B9BB27A681946D18490
:105A6000002B0FD17B681B68DA687B681B6822F00B
:105A70008002DA607B681B68DA687B681B6842F02A
:105A80004002DA60002300E0022318461437BD46C6
:105A900080BC704780B582B000AF78607B681B68BF
:105AA000DA687B681B6822F04002DA607B6820229B
:105AB00083F841207868FFF779FE002318460837FD
:105AC000BD4680BD80B58CB000AF78607B6893F830
:105AD0004230DBB2222B40F0AE807B689B68B3F58E
