:020000040800F2
:1000000000500020D9370008611700086917000860
:100010007117000879170008811700080000000018
:100020000000000000000000000000002185000822
:1000300089170008000000000187000849870008B0
:10004000213800082138000821380008213800082C
:10005000213800082138000821380008213800081C
:10006000213800082138000821380008213800080C
:1000700021380008213800082138000821380008FC
:1000800021380008213800082138000821380008EC
:1000900021380008213800082138000821380008DC
:1000A00021380008213800082138000821380008CC
:1000B0002138000821380008951700082138000869
:1000C00021380008213800082138000821380008AC
:1000D00021380008A9170008213800082138000835
:1000E00021380008213800082138000800000000ED
:1000F0000000000000000000000000000000000000
:0C01000000000000000000005FF808F1A3
:1001100010B5054C237833B9044B13B10448AFF341
:1001200000800123237010BDA80100200000000002
:10013000BC96000808B5034B1BB103490348AFF355
:10014000008008BD00000000AC010020BC96000843
:10015000034613F8012B002AFBD1181A0138704707
:1001600080B582B000AF0023FB710121174804F075
:10017000ABF80346002B03D1FB7943F00103FB717D
:100180008021134804F0A0F80346002B03D1FB792B
:1001900043F00203FB7140210D4804F095F803463B
:1001A000002B03D1FB7943F00403FB7102210748C4
:1001B00004F08AF80346002B03D1FB7943F00803CF
:1001C000FB71FB7918460837BD4680BD000C014025
:1001D0000008014080B483B000AF78600B4B9B787F
:1001E000002B04D1094B9B680133084A9360074BED
:1001F0001B7B002B05D0054BDB8901339AB2034BE7
:10020000DA8100BF0C37BD4680BC7047000000207B
:1002100080B400AF064B00229A60054B01229A7011
:10022000034B01225A7100BFBD4680BC704700BF1E
:100230000000002080B582B000AF0023FB71FFF703
:100240008FFF0346BB71BB7903F00F03002B00F057
:1002500089805E4B5B79002B01D0FB79B2E05B4B70
:1002600000229A70BB79033B092B8CBF012200222C
:10027000D2B2002A10D140F2CD2222FA03F303F0C9
:100280000103002B14BF01230023DBB2002B03D09A
:100290004F4ABB79137003E04E4ABB79137000BF1D
:1002A0004D4B1B78BA799A4202D04B4ABB791370F6
:1002B000484B1B78082B3AD1444BDB78002B14D0E9
:1002C000424B9B68322B10D9414B1B78002B02D03C
:1002D0003E4B01221A713E4B1B78FB713C4B0022B6
:1002E0001A703A4B00229A601FE0384B9B68C72B6C
:1002F00019D9364BDB78002B0CD1344B1B7C002BEF
:1003000008D11023FB71314B0122DA702F4B0022F0
:10031000DA8105E02D4B1B7C002B01D02023FB71E3
:10032000FFF776FF01E000234CE0FB794AE0284B21
:100330001B78002B45D0254B9B68B3F5FA7F40D93D
:10034000234B1B78FB71FB79062B02D0FB79032B27
:1003500002D11E4B0022DA811D4B00221A70FFF7DA
:1003600057FF2EE01B4B1B78002B09D01B4B1A7834
:10037000184B1B789A4203D0164B1A78174B1A70F9
:10038000124B01229A70114B9B680A2B0DD90F4B0F
:100390009B68312B09D80D4B1B79002B05D10D4BD8
:1003A0001B78FB710B4B00221A700B4B00221A704A
:1003B000064B00225A71054B00229A60034B002223
:1003C0001A71FB7918460837BD4680BD0000002031
:1003D000C9010020CA010020CB010020CC0100206F
:1003E00080B584B000AF0346FB710E23FB73604BF6
:1003F000DB78002B7AD15E4B5B7C002B76D1FB79CE
:10040000013B1F2B71D801A252F823F0EB04000826
:10041000EB040008CD040008EB040008DB0400082E
:10042000B7040008EB0400088D040008C5040008A8
:10043000EB040008EB040008EB040008EB040008E0
:10044000EB040008EB040008EB040008EB040008D0
:10045000EB040008EB040008EB040008EB040008C0
:10046000EB040008EB040008EB040008EB040008B0
:10047000EB040008EB040008EB040008EB040008A0
:10048000EB040008EB040008E3040008384B5B7839
:100490000133DAB2364B5A70354B5B78042B02D9F4
:1004A000334B00225A70324B5B781A46314B9A5CC0
:1004B0002F4B1A701AE02E4B0C221A702C4B012273
:1004C0005A7413E02A4B0B221A700FE0284B0A22B1
:1004D0001A70274B01225A7408E0254B0D221A701E
:1004E00004E0234B01221A7000E000BF204B1B7870
:1004F000FA791146184601F071FB0346FB73FB7B4A
:100500000D2B12D81A4B1B78FA7B9A420DD0184A41
:10051000FB7B1370164B1B780021184601F05EFB25
:100520000346FB73124B0022DA70FB7B0E2B1AD1B1
:100530000F4BDB78002B07D10D4B1B7C002B03D11D
:100540000B4B5B7C002B0ED0094B0022DA70084B62
:1005500000221A74064B01221A70054B00225A70B1
:10056000034B00225A7400BF1037BD4680BD00BF48
:10057000000000201400002080B582B000AF0E4BB8
:100580001B78012B00D103E0642005F048FCF6E75E
:10059000FFF750FE0346FB71FB79002B07D0074B9A
:1005A0001B68F9794FF0FF32184605F0EDFC0A2080
:1005B00005F035FCECE700BFCD010020940B0020D6
:1005C00080B584B000AF2B4B1B680A21184605F09C
:1005D0006FFC294B00229A70274B9B68B3F5967FDE
:1005E00013D3254B01221A70234B1B780021184688
:1005F00001F0F4FA204B01229A701F4B00229A60FE
:1006000000BF1E4B01221A7003E00A2005F007FC10
:10061000E2E71B4B19683B460A22184605F0F4FC3A
:100620003B68102B0CD17B68FB73134B1B7C002B9E
:1006300002D0FB7B202B1BD1FB7B1846FFF7D0FEA3
:100640000D4B1B7B002BE4D00B4BDB89312BE0D90E
:100650000C4B1B78002BDCD10A4B01221A7001F0E5
:1006600083FA054B0022DA81064B00221A70D0E78C
:1006700000BFCEE7C401002000000020CD01002013
:10068000940B0020C801002080B500AF034800F0A3
:10069000C3FA034B01221A7400BF80BDD496000830
:1006A0000000002080B483B000AF0346FB71044A11
:1006B000FB79137300BF0C37BD4680BC704700BF89
:1006C0000000002080B582B000AF0E4B3B600023DD
:1006D0007B603B4600220121184605F0B5FB03462E
:1006E000094A1360084B1B68002B05D1074800F02E
:1006F00093FA4FF0FF3300E0002318460837BD4659
:1007000080BD00BFD5010008C4010020EC960008A0
:1007100080B500AF084800F07FFA084A084B104641
:1007200019464C231A4608F06FFB4C21034800F091
:1007300099F800BF80BD00BF10970008D0010020CD
:100740001C00002080B500AF084800F021F80346E7
:10075000002B01D0FFF7DCFF054B044A1A60054A65
:100760004C21024800F0AAFA00BF80BDD001002051
:100770001C0200203497000880B500AF4C210348CC
:1007800000F070F80346184680BD00BFD00100207D
:1007900080B582B000AF78604C21786800F04EF8E8
:1007A0007B681B68102B04D0044800F035FA012345
:1007B00000E0002318460837BD4680BD409700087A
:1007C00090B587B000AF03F061FA00233B60174B90
:1007D000BB600123FB6007F110023B46114618463F
:1007E00003F046FB03467B617B69002B17D03C6915
:1007F00003F082FA03461A4621460D4800F00CFA2F
:1008000003F06AFA7B69002B09D00A4800F004FA69
:100810007A692221084800F0FFF97B6902E003F0C1
:100820005BFA002318461C37BD4690BD00F800084F
:100830006897000890970008B497000880B584B0C6
:1008400000AF78603960064BFB60FB683A68194678
:10085000786808F0D9FA00BF1037BD4680BD00BFE8
:1008600000F80008B0B586B000AF786039600023AA
:100870007B61204B3B617B68FB60FFF7A1FF034678
:10088000002B02D04FF0FF332FE003F0FFF925E0FB
:10089000FB681B88BB60BB6800221C4615462246CD
:1008A0002B463969012003F081F90346002B0CD057
:1008B00003F022FA01467B693A680F4800F0ACF970
:1008C00003F00AFA4FF0FF330FE0FB680233FB60DE
:1008D0007B6902337B613B6902333B613B687A6928
:1008E0009A42D5D303F0F8F9002318461837BD46CD
:1008F000B0BD00BF00F80008E897000880B584B0DC
:1009000000AF0346FB71FB79002B16D10023FB607F
:100910000FE01A4AFB6852F83300184AFB68DB0004
:1009200013449B880122194603F0E5FCFB68013360
:10093000FB60FB68072BECDD1DE00023FB6017E08C
:10094000FA79FB6842FA03F303F00103002B0CD0A1
:100950000A4AFB6852F83300084AFB68DB0013447C
:100960009B880022194603F0C6FCFB680133FB603C
:10097000FB68072BE4DD1037BD4680BD6800002012
:1009800080B485B000AF0346FB71114B1B88013367
:100990005A4203F07F0302F07F0258BF5342FB60CC
:1009A0000B4B5B881A46FB6893420BD0084B1B88A5
:1009B0001A46074B1344FA791A71FB689AB2044B32
:1009C0001A8000E000BF1437BD4680BC704700BFEE
:1009D0002402002080B483B000AF7860114B1A88E5
:1009E000104B5B889A4201D1002315E00D4B5B88C8
:1009F0001A460C4B13441A797B681A70094B5B88B2
:100A000001335A4203F07F0302F07F0258BF534282
:100A10009AB2044B5A80012318460C37BD4680BC5D
:100A2000704700BF2402002080B582B000AF0023D1
:100A3000BB710023FB712CE01C4B5B89002B02D1A6
:100A4000BB79DF2B24D1194B5B89092B09D8174BB4
:100A50005B895A1C91B2154A51811A46B979134BD8
:100A60009954124BDB681B02BA7913430F4AD360C7
:100A70000E4BDB684FF6FF6293420AD10B4B5B894A
:100A8000FB710A4B0022DA60084B00225A8100E019
:100A900000BFBB1D1846FFF79DFF0346002BCBD1BF
:100AA000FB7918460837BD4680BD00BFA80200206C
:100AB00080B582B000AFFFF7B7FF0346FB80FB882D
:100AC000002B08D0064B5B78332B04D1044B9B786A
:100AD0001846FFF713FF0A2005F0A1F9EBE700BF66
:100AE000A802002080B582B000AF78607B681B68E8
:100AF000084A934209D1084B1B781846FFF740FF7C
:100B000001220549054804F080FB00BF0837BD46B7
:100B100080BD00BF0038014020020020F80A0020FC
:100B200080B586B000AF03463A60FB710B46BB71DF
:100B3000164A07F1080307CA03C31A80FB79BB7280
:100B4000BB79FB7200233B7300237B733B681B0A5A
:100B5000DBB2BB733B68DBB2FB7307F108014FF4F8
:100B60007A730A220A4804F0C5FA03467B617B695E
:100B7000002B05D0074800F04FF86FF0040300E0A9
:100B8000002318461837BD4680BD00BF40980008B6
:100B9000F80A00202498000880B500AF012203491C
:100BA000034804F032FB0023184680BD20020020D9
:100BB000F80A002080B485B000AFF860B9607A60B0
:100BC000FB68064A1A60BB68054A1A607B68802287
:100BD0001A6000BF1437BD4680BC7047B8020020C1
:100BE0005803002080B485B000AFF860B9607A6027
:100BF000FB68074A1A60BB68064A1A607B684FF4B4
:100C000080721A6000BF1437BD4680BC704700BFB9
:100C100058050020F80500200FB480B582B000AF61
:100C200000237B6007F114037B607B683A69FF2136
:100C30000A4808F049F80948FFF78AFA03469AB2C9
:100C40006FF07F430549064804F054FA00BF0837A7
:100C5000BD46BDE8804004B0704700BFF8090020E1
:100C6000400B002080B584B000AF7860396000236D
:100C7000FB6012E0FA683B689A4208DAFB687A681F
:100C800013441B7819460A48FFF7C6FF02E00948DB
:100C9000FFF7C2FFFB680133FB60FB68072BE9D954
:100CA0000548FFF7B9FF00BF1037BD4680BD00BF44
:100CB0004C980008549800085898000880B586B0F1
:100CC00000AFF860B9607A60FB687B617868FFF715
:100CD000A3FF0D48FFF7A0FF0CE0B9687869FFF7A4
:100CE000C1FFBB68072B09D9BB68083BBB607B69A8
:100CF00008337B61BB68002BEFDC00E000BF00BF66
:100D00001837BD4680BD00BF5898000880B483B036
:100D100000AF78607B68202B5ED801A252F823F0E8
:100D2000A50D0008A90D0008AD0D0008B10D0008C3
:100D3000B50D0008B90D0008BD0D0008D90D00085B
:100D4000C10D0008C50D0008C90D0008D90D000827
:100D5000CD0D0008D90D0008D90D0008D90D0008E7
:100D6000D10D0008D90D0008D90D0008D90D0008D3
:100D7000D90D0008D90D0008D90D0008D90D0008BB
:100D8000D90D0008D90D0008D90D0008D90D0008AB
:100D9000D90D0008D90D0008D90D0008D90D00089B
:100DA000D50D0008104B19E0104B17E0104B15E063
:100DB000104B13E0104B11E0104B0FE0104B0DE007
:100DC000104B0BE0104B09E0104B07E0104B05E017
:100DD000104B03E0104B01E000BF104B18460C37DE
:100DE000BD4680BC704700BF449900085099000878
:100DF0005C99000864990008709900087C990008C3
:100E00008C99000898990008A4990008B4990008E2
:100E1000C4990008D4990008E4990008F4990008DE
:100E200080B400AF024B1846BD4680BC704700BF7F
:100E3000009A0008F0B585B004AF7748FFF7ECFEE4
:100E40007648FFF7E9FE4D233F2B17D03223303B86
:100E50004FF47A7203FB02F23023303B642101FB32
:100E600003F3D1183223A3F1300213469B0013443D
:100E70005B00CA183523303BD41800E063244D23AF
:100E80003F2B67D04D234A2B05D16123612B02D123
:100E900072236E2B5CD04D23462B56D04D234D2B09
:100EA00005D16123612B02D17223722B4BD04D23CC
:100EB000412B02D16123702B42D04D234D2B05D104
:100EC0006123612B02D17223792B36D04D234A2B1B
:100ED00005D16123752B02D172236E2B2AD04D23AD
:100EE0004A2B05D16123752B02D172236C2B1ED0A6
:100EF0004D23412B02D16123752B15D04D23532B4C
:100F000010D04D234F2B0BD04D234E2B06D04D230D
:100F1000442B01D10C2209E0632207E00B2205E0FB
:100F20000A2203E0092201E0082202E001E0072290
:100F300002E001E0062202E001E0052202E001E019
:100F4000042204E003E0032205E0022203E002E0C1
:100F5000012200E063224D233F2B10D032232F2BA0
:100F600008D93223A3F130010B469B000B445B00F0
:100F7000194600E000213523303BCD1800E0632501
:100F800031233F2B0CD03123A3F130010B469B00C2
:100F90000B445B00194631230B44A3F1300100E000
:100FA000632131233F2B0CD03023A3F130000346C3
:100FB0009B0003445B00184639230344A3F130002F
:100FC00000E0632031233F2B0BD03123A3F1300607
:100FD00033469B0033445B001E4633233344303B8F
:100FE00000E063230293019000912B4621460C48B8
:100FF000FFF712FEFFF714FF034619460948FFF7F3
:101000000BFE09490948FFF707FE0348FFF704FEF6
:1010100000BF0437BD46F0BD149A0008549A00087A
:10102000789A0008AC9A0008C09A0008C89A00088C
:1010300080B500AFFFF7B0FD0346002B02D04FF0A4
:10104000FF330AE0FFF77EFBFFF73CFB0346002B74
:1010500002D04FF0FF3300E00023184680BD0000AF
:1010600080B582B000AF7860396039680348FFF717
:10107000D3FD00BF0837BD4680BD00BFE09A000821
:10108000B0B59CB000AF02F0CDFB00F091F800F0DD
:101090002BF900F0D5F800F0FDF8FFF7CBFEFFF7D5
:1010A000C7FF364BBB660023FB6607F168030022CF
:1010B0000121184604F0C8FE0346314A1360314B43
:1010C00007F158040FCB84E80F0007F15803002103
:1010D000184604F031FF03462B4A13602B4B07F1EF
:1010E0003C041D460FCD0FC495E8070084E80700B7
:1010F00007F13C030021184604F045FE0346244A4C
:101100001360244B07F120041D460FCD0FC495E852
:10111000070084E8070007F120030021184604F0C7
:1011200032FE03461C4A13601C4B3C1D1D460FCD6E
:101130000FC495E8070084E807003B1D002118460E
:1011400004F021FE0346164A1360114B1B68002B66
:1011500002D11448FFF760FD0F4B1B68002B02D132
:101160001148FFF759FD0E4B1B68002B02D10F48A9
:10117000FFF752FD04F000FE00BFFDE78D140008EC
:10118000980B00206C9B0008940B00208C9B00089F
:10119000880B0020B49B00088C0B0020D89B000813
:1011A000900B0020049B0008289B00084C9B000823
:1011B00080B590B000AF07F118032822002118462F
:1011C00007F090FD3B1D00221A605A609A60DA60B9
:1011D0001A610923BB614FF48033FB6100233B623A
:1011E0000123BB6201233B6302237B634FF4803303
:1011F000BB634FF4E013FB6307F11803184603F0D9
:10120000ABF80346002B01D000F062F90F237B609E
:101210000223BB600023FB604FF480633B6100232B
:101220007B613B1D0221184603F018FB0346002B8F
:1012300001D000F04DF900BF4037BD4680BD000031
:1012400080B500AF114B124A1A60104B4FF4E132D7
:101250005A600E4B00229A600C4B0022DA600B4B56
:1012600000221A61094B0C225A61084B00229A6134
:10127000064B0022DA61054803F0ECFE0346002B22
:1012800001D000F025F900BF80BD00BFF80A0020A2
:101290000038014080B500AF114B124A1A60104B64
:1012A0004FF4E1325A600E4B00229A600C4B002240
:1012B000DA600B4B00221A61094B0C225A61084B71
:1012C00000229A61064B0022DA61054803F0C2FE53
:1012D0000346002B01D000F0FBF800BF80BD00BF2B
:1012E000400B00200044004080B588B000AF07F1FB
:1012F000100300221A605A609A60DA60454B9B69BD
:10130000444A43F010039361424B9B6903F010037E
:10131000FB60FB683F4B9B693E4A43F020039361AF
:101320003C4B9B6903F02003BB60BB68394B9B6956
:10133000384A43F004039361364B9B6903F004037E
:101340007B607B68334B9B69324A43F008039361AF
:10135000304B9B6903F008033B603B6800224FF46D
:1013600000512D4802F0C7FF00224FF2F8312B4800
:1013700002F0C1FF00224FF41941294802F0BBFFDF
:101380004FF400533B6101237B610023BB610223C7
:10139000FB6107F1100319461F4802F011FEC0233C
:1013A0003B6100237B610023BB6107F110031946F9
:1013B0001B4802F005FE03233B6100237B610023F1
:1013C000BB6107F110031946144802F0F9FD4FF212
:1013D000F8333B6101237B610023BB610223FB6186
:1013E00007F1100319460D4802F0EAFD4FF41943C6
:1013F0003B6101237B610023BB610223FB6107F199
:1014000010031946064802F0DBFD00BF2037BD4639
:1014100080BD00BF0010024000100140000C0140E0
:101420000008014080B582B000AF78600948FFF73E
:10143000F3FB00F015FB00F04FFB074B1B684FF46C
:10144000FA71184604F034FDFFF7BAF800BF083708
:10145000BD4680BDF49B0008980B002080B582B08B
:1014600000AF78600248FFF7D7FBFFF721FBFCE7EE
:101470000C9C000880B582B000AF78600248FFF78E
:10148000CBFBFFF779F8FCE7249C000880B582B01D
:1014900000AF78604FF40051034802F044FF00BFF2
:1014A0000837BD4680BD00BF0010014080B582B046
:1014B00000AF78607B681B68044A934201D102F058
:1014C000C7F900BF0837BD4680BD00BF0008004017
:1014D00080B400AF72B600BF00BFFDE780B584B036
:1014E00000AF184B9B69174A43F001039361154BFA
:1014F0009B6903F00103BB60BB68124BDB69114AB7
:1015000043F08053D3610F4BDB6903F080537B6062
:101510007B6800220F216FF0010002F06AFA0A4B8B
:101520005B68FB60FB6823F0E063FB60FB6843F0F3
:101530000073FB60044AFB68536000BF1037BD4670
:1015400080BD00BF001002400000014080B58AB09D
:1015500000AF786007F1180300221A605A609A60A1
:10156000DA607B681B683B4A93423AD13A4B9B69ED
:10157000394A43F480439361374B9B6903F48043BA
:101580007B617B69344B9B69334A43F0040393616D
:10159000314B9B6903F004033B613B694FF40073DB
:1015A000BB610223FB6103237B6207F11803194629
:1015B0002A4802F005FD4FF48063BB610023FB6104
:1015C00000233B6207F118031946244802F0F8FC97
:1015D00000220521252002F00CFA252002F025FA30
:1015E00034E07B681B681E4A93422FD11A4BDB699B
:1015F000194A43F40033D361174BDB6903F400331A
:10160000FB60FB68144B9B69134A43F0040393612E
:10161000114B9B6903F00403BB60BB680423BB61EF
:101620000223FB6103237B6207F1180319460B4871
:1016300002F0C6FC0823BB610023FB6100233B6270
:1016400007F118031946054802F0BAFC00BF283715
:10165000BD4680BD00380140001002400008014036
:101660000044004080B58EB000AF78600023FB627C
:101670000023BB62002387F83330344BDB69334AE5
:1016800043F00403D361314BDB6903F00403FB60D7
:10169000FB6807F1100207F114031146184603F026
:1016A0004DFA3B6AFB62FB6A002B03D103F01EFA82
:1016B000786304E003F01AFA03465B007B637B6BFC
:1016C000234AA2FB03239B0C013BBB62214B224A12
:1016D0001A60204B40F2E732DA601E4ABB6A536060
:1016E0001C4B00221A611B4B00229A60194B0022EE
:1016F0009A61184803F070FA034687F8333097F878
:101700003330002B1BD1134803F0BEFA034687F891
:10171000333097F83330002B11D11E2002F085F9B9
:101720007B680F2B08D8002279681E2002F061F92F
:101730000A4A7B68136002E0012387F8333097F888
:10174000333018463837BD4680BD00BF0010024018
:1017500083DE1B439C0B0020000800404801002052
:1017600080B400AF00BFFDE780B400AF00BFFDE76D
:1017700080B400AF00BFFDE780B400AF00BFFDE75D
:1017800080B400AF00BFFDE780B400AF00BFBD462E
:1017900080BC704780B500AF024803F0C7FA00BFB5
:1017A00080BD00BF9C0B002080B500AF024803F055
:1017B00051FD00BF80BD00BFF80A002080B586B093
:1017C00000AF7860144A154BD31A7B617B693B618B
:1017D000134B1B68002B02D1114B124A1A60104B9D
:1017E0001A687B6813443A699A4207D207F0E0FA14
:1017F00003460C221A604FF0FF3309E0084B1B68C8
:10180000FB60074B1A687B681344054A1360FB684A
:1018100018461837BD4680BD005000200004000067
:10182000E40B00208038002080B400AF00BFBD462C
:1018300080BC704780B584B000AF78600B46FB7009
:10184000FB78DB00FB700023FB730CE0FB7B7A680A
:1018500013441B78184600F083F8012004F0DFFAE7
:10186000FB7B0133FB73FA7BFB789A42EED300BF1C
:1018700000BF1037BD4680BD80B500AF01224FF4D8
:101880008071074802F037FD022004F0C8FA0022F8
:101890004FF48071024802F02EFD00BF80BD00BFF2
:1018A0000008014080B582B000AF0346FB71FB79B0
:1018B00003F00103DBB21A464FF40041164802F070
:1018C0001AFDFB795B10DBB203F00103DBB21A46B1
:1018D0004FF48041104802F00EFDFB799B10DBB203
:1018E00003F00103DBB21A464FF400510A4802F03C
:1018F00002FDFB79DB10DBB203F00103DBB21A4619
:101900004FF48051044802F0F6FCFFF7B5FF00BF2A
:101910000837BD4680BD00BF000C014080B582B0D5
:1019200000AF0346FB7100224FF480510B4802F0D8
:10193000E2FCFB791B09DBB21846FFF7B3FFFB792A
:1019400003F00F03DBB21846FFF7ACFF022004F0F0
:1019500066FA00BF0837BD4680BD00BF00080140E1
:1019600080B582B000AF0346FB7101224FF4805175
:101970000B4802F0C0FCFB791B09DBB21846FFF7ED
:1019800091FFFB7903F00F03DBB21846FFF78AFFE4
:10199000022004F044FA00BF0837BD4680BD00BFF6
:1019A0000008014080B582B000AF78607B685A1CA7
:1019B0007A601B781846FFF7D3FF7B681B780A2BE9
:1019C000F4D100BF00BF0837BD4680BD80B500AF71
:1019D0000120FFF7A3FF022004F021FA00BF80BD21
:1019E00080B500AF0C20FFF799FF00BF80BD80B528
:1019F00000AF0E20FFF792FF00BF80BD80B582B020
:101A000000AF03460A46FB711346BB71BB79002B3E
:101A100004D11248FFF700F90123BB71BB79013BE8
:101A2000BB71FB79012B02D0022B09D011E0BB79ED
:101A300063F07F03BB71BB791846FFF76FFF08E0C7
:101A4000BB7963F03F03BB71BB791846FFF766FFB4
:101A500000BF00BF0837BD4680BD00BF389C0008EE
:101A600080B500AF01224FF48071194802F043FCA9
:101A700000224FF48051164802F03DFC00224FF442
:101A80000061134802F037FC3320FFF747FF0420C2
:101A900004F0C5F93220FFF741FF042004F0BFF93C
:101AA0002820FFF73BFF0C20FFF738FF0620FFF749
:101AB00035FFFFF78BFFC82004F0B1F94020FFF796
:101AC0002DFF06210348FFF7B5FE00BF80BD00BF14
:101AD00000080140AC00002080B586B000AF4C2269
:101AE00000211A4807F0FEF8194B1B68194A1046E6
:101AF00019464C231A4607F087F9164B9B79013398
:101B0000DBB25B00DAB2114BDA703B1D124A1349AB
:101B1000184607F089F80D4BDB781A463B1D19462D
:101B20000F48FFF779F802210120FFF767FF3B1DFF
:101B30001846FFF737FF01210220FFF75FFF094832
:101B4000FFF730FF00BF1837BD4680BDE80B00200F
:101B50001C020020340C00206E0C0020609C000849
:101B6000649C0008849C000880B500AF104B9B7BF0
:101B7000002B1AD00E4B1B7C01211846FFF73EFFAD
:101B80000B4BDB7B83F00103DAB2094BDA73084BB2
:101B9000DB7B1A4613469B0013449B001033044A18
:101BA000134401331846FFF7FDFE00BF80BD00BFA0
:101BB000E80B002080B582B000AF0346FB710B46F6
:101BC000BB711346BB80BA88B979FB791846FEF71A
:101BD000A7FF00BF0837BD4680BD000080B586B0B6
:101BE00000AF03460A46FB711346BB710D233B61F0
:101BF000FB793B72BB799BB27B8100237B6115E053
:101C00000E4A7B6912F83330FA799A420BD10B4AAB
:101C10007B69DB0013445B6807F1080292E803006C
:101C20009847034606E07B6901337B613B69002BE3
:101C3000E6D10E2318461837BD4680BDDC000020D3
:101C400090B591B002AF0346FB7107F1200300226B
:101C50001A605A609A60DA601A6107F10C03002278
:101C60001A605A609A60DA601A61B94B9B7887F8FB
:101C70003730B74B9B78013387F83630FB79112B1F
:101C800000F2E98101A252F823F000BFD51C000840
:101C9000D51C0008191D0008191D00085D1D00084D
:101CA0005D1D0008A31D0008A31D0008011E0008FB
:101CB000291E0008511E0008711E0008AF1E0008F2
:101CC000CF1E0008FF1E00081B1F0008351F00085C
:101CD000E51F0008FB79002B08D197F8362007F1A3
:101CE00020039C49184606F09FFF05E007F12003FA
:101CF0009949184606F098FF97F83730974A5B00E5
:101D00001344B3F807309BB21A4607F10C03944909
:101D1000184606F089FF9EE1FB79022B08D197F85F
:101D2000362007F120038F49184606F07DFF05E0B5
:101D300007F120038C49184606F076FF97F83730F4
:101D4000864A5B001344B3F807309BB21A4607F18A
:101D50000C038649184606F067FF7CE1FB79042BEB
:101D600008D197F8362007F120038149184606F07C
:101D70005BFF05E007F120037E49184606F054FF9B
:101D800097F83730754A0C335B001344B3F80130D1
:101D90009BB21A4607F10C037449184606F044FF3B
:101DA00059E1FB79062B08D197F8362007F120037B
:101DB0007149184606F038FF05E007F120036F4926
:101DC000184606F031FF97F83730644A134493F809
:101DD0002B30002B01D06A4A00E06A4A07F10C035D
:101DE0006949184606F020FF07F10C031122194635
:101DF000664807F009F86649664806F015FF2AE1CB
:101E000007F120036449184606F00EFF534B1B7977
:101E1000002B01D0614A00E0614A07F10C036149DF
:101E2000184606F001FF16E107F120035E49184647
:101E300006F0FAFE494B1B79002B01D0574A00E00F
:101E4000574A07F10C035749184606F0EDFE02E128
:101E500007F120035549184606F0E6FE3F4B5B7933
:101E60001A4607F10C035249184606F0DDFEF2E06F
:101E700007F120034F49184606F0D6FE374B93F87A
:101E800034301946354B93F835301C46334B93F8B4
:101E900036301A46314B93F8373007F10C00019376
:101EA000009223460A46444906F0BEFED3E007F1FD
:101EB00020034049184606F0B7FE284B1B8F1A46F0
:101EC00007F10C033D49184606F0AEFEC3E007F1EA
:101ED00020033849184606F0A7FE1D4B5B78012BFE
:101EE00006D107F10C033649184606F09DFEB2E014
:101EF00007F10C033349184606F096FEABE007F1F4
:101F00002003314A3149184606F08EFE07F10C03D2
:101F10002F49184606F088FE9DE007F120032D4961
:101F2000184606F081FE07F10C032B49184606F00F
:101F30007BFE90E007F120032849184606F074FE66
:101F400007F10C032649184606F06EFE83E000BF39
:101F5000E80B0020989C0008AC9C0008340C002082
:101F6000C09C0008D09C0008E49C0008F89C000875
:101F7000089D00081C9D0008309D0008449D000835
:101F8000589D0008609D0008689D0008F90B00201E
:101F9000789D00080D0C00208C9D0008A09D000875
:101FA000A89D0008B09D0008C09D0008D49D0008B1
:101FB000E89D0008FC9D0008109E0008289E00086F
:101FC0003C9E0008509E00086E0C0020649E000895
:101FD000849C00086C9E0008809E0008949E000867
:101FE000A89E0008274B93F84A30274AA2FB0323F8
:101FF000DB08DBB21C46234B93F84A20224BA3FBA1
:102000000213D9080B469B000B445B00D31ADBB2CA
:1020100007F1200022461D4906F006FE194B93F8F1
:102020004B30194AA2FB0323DB08DBB21C46154BDD
:1020300093F84B20144BA3FB0213D9080B469B00CB
:102040000B445B00D31ADBB207F10C0022461049A7
:1020500006F0EAFD00BF01210120FFF7CFFC07F1E8
:1020600020031846FFF79EFC01210220FFF7C6FC63
:1020700007F10C031846FFF795FC00BF3C37BD463F
:1020800090BD00BF340C0020CDCCCCCCBC9E000851
:10209000D49E000880B584B000AF03463960FB8051
:1020A000FB88FB60FB88002B08D11B4B9B7A01331C
:1020B0001A460021386806F015FE2AE0164B9B7A76
:1020C000BB6023E0BB683A681344FF221A70FB68C8
:1020D000002B18D0FA68114B83FB02139910D31709
:1020E000C91A0B469B000B445B00D11ABB683A68C7
:1020F00013444AB21A70FB68084A82FB031292101A
:10210000DB17D31AFB60BB68013BBB60BB68002BCD
:10211000D8DA1037BD4680BDE80B002067666666DA
:1021200080B485B000AF78600023BB600023FB6003
:1021300016E0FB687A68134493F90030002B0CDB3F
:10214000BA6813469B0013445B001946FB687A6823
:10215000134493F900300B44BB60FB680133FB6010
:10216000054B9B7A1A46FB689342E2DDBB68184632
:102170001437BD4680BC7047E80B002080B584B0A2
:1021800000AF3B4683E803008B4BBB608B4BDB7897
:102190000133FB73894B00221A717B88202B00F2DC
:1021A000F48001A252F823F02D220008C322000877
:1021B0003F2200088B2300087D2200088B230008A3
:1021C0008B2300088B2300088B2300088B23000837
:1021D0008B2300088B2300088B2300088B23000827
:1021E0008B2300088B230008352300088B2300086D
:1021F0008B2300088B2300088B2300088B23000807
:102200008B2300088B2300088B2300088B230008F6
:102210008B2300088B2300088B2300088B230008E6
:102220008B2300088B2300082D220008634B9B782A
:10223000082B40F2AC80614B00229A70A7E05F4B04
:102240009B78082B03D15D4B00229A700BE05B4B0F
:102250009B780133FA7B93FBF2F101FB02F29B1AAC
:10226000DAB2564B9A70554B9A78544BDB789A42B7
:1022700040F08F80514B08229A708AE04F4B9B7838
:10228000082B06D14D4BDB78013BDAB24B4B9A70F1
:102290000DE04A4B9B785A1EFB7B1344FA7B93FB61
:1022A000F2F101FB02F29B1ADAB2444B9A70434BF3
:1022B0009A78424BDB789A426DD1404B08229A7053
:1022C00069E03E4B9A783E4B1B789A4206D03D4BD4
:1022D00000221A70394B9A78394B1A70374B9B7819
:1022E000082B0FD1374B1B78032B0BD0354B1B78AA
:1022F00010333B4413F8083C0133DBB21846FFF7B8
:102300009FFC08E02F4B1B7810333B4413F8083C2C
:102310001846FFF795FC2B4B1B780133DAB2294B9B
:102320001A70284B1B78032B02D9264B00221A70F7
:102330000E233DE0214B9B78082B03D10320FFF7B0
:102340007FFC02E00220FFF77BFC1C4B9B781E4ABF
:102350005B001344B3F807309AB2184B9A81174BBD
:102360000D221A71154B04229A72144B9B8917493E
:102370001846FFF78FFE114B1B7919460220FFF715
:102380003DFBFFF734FB022312E000BF04E000BF77
:1023900002E000BF00E000BF084B9B78082B03D091
:1023A0000020FFF74DFC02E00120FFF749FC0E235F
:1023B00018461037BD4680BD02040608E80B002011
:1023C00044010020800C0020340C0020ED0B002084
:1023D00080B58CB000AF3B4683E803003B7887F8BC
:1023E0002F30A64B1B79FB77A44B1B79093BBB779E
:1023F000002387F82E30A14B9B787B777B88013BAD
:102400000B2B00F2828101A252F823F0A1250008D3
:102410003D2400080B270008D12400080B270008E2
:102420000B2700080B270008632600080B2700086D
:10243000652500080B270008832500088F4B93F9BA
:102440000530052B05D1BB7F002B02D097F82F302C
:1024500085E1BB7F002B1ED1BB7F884A1A4492F9CD
:102460000520D2B20132D2B251B2844A13440A4694
:102470005A71BB7F814A134493F90530052B04DD63
:10248000BB7F7E4A134400225A71042200217C48FB
:1024900006F028FC18E0BB7F784A1A4492F9052020
:1024A000D2B20132D2B251B2744A13440A465A71BE
:1024B000BB7F724A134493F90530092B04DDBB7FBF
:1024C0006E4A134400225A71012387F82E301CE112
:1024D0006A4B93F90530052B05D1BB7F002B02D049
:1024E00097F82F303BE1BB7F002B1ED1BB7F634AA7
:1024F0001A4492F90520D2B2013AD2B251B25F4ADF
:1025000013440A465A71BB7F5C4A134493F9053061
:10251000002B04DABB7F594A134405225A71042266
:102520000021574806F0DEFB18E0BB7F534A1A44EF
:1025300092F90520D2B2013AD2B251B24F4A1344B5
:102540000A465A71BB7F4D4A134493F90530002B5C
:1025500004DABB7F494A134409225A71012387F8E0
:102560002E30D2E0454B1B79013BDAB2434B1A7156
:10257000424B1B79082B00F2C580404B0D221A718B
:10258000C0E03E4B1B790133DAB23C4B1A713B4B36
:102590001B790D2B40F2B880384B09221A71B3E039
:1025A0003B78022B19D13748FFF7BAFD02467B7FF3
:1025B00091B2354A5B0013440A46A3F80720B223C0
:1025C00087F82D307B7F304A5B001344B3F8073027
:1025D0009BB2BB622D4B7B621AE02A48FFF7A0FD3D
:1025E00002467B7F91B2284A0C335B0013440A46B3
:1025F000A3F80120B32387F82D307B7F224A0C33C8
:102600005B001344B3F801309BB2BB62204B7B628A
:102610007B7F082B12D100233B6209E03B6A5B0001
:102620007A6A1344BA6A92B21A803B6A01333B62F7
:10263000124BDB781A463B6A9342EFDB00F09CF8C2
:1026400003460E2B05D00F2387F82F3097F82F3035
:1026500085E0BB6A9AB2797F97F82D301846FFF76C
:10266000A9FA3B78022B3DD10A48FEF7D5FA7B7FC9
:10267000082B11D10520FFF7E3FA10E0E80B00204A
:10268000EE0B0020ED0B0020340C00203B0C002052
:102690004D0C0020EC9E00080420FFF7D1FA032324
:1026A00087F82F307B7F304A0C335B001344B3F83C
:1026B00001309AB22D4B9A812C4B0D221A712B4B63
:1026C00004229A72294B9B8929491846FFF7E2FC9C
:1026D000264B1B7919460220FFF790F9012387F852
:1026E0002E3012E07B7F082B03D10720FFF7A8FADA
:1026F00002E00620FFF7A4FA042387F82F30FFF743
:102700006FF902E000BF00E000BF97F82E30002B09
:1027100018D01748FFF704FD024607F108031549D2
:10272000184606F081FA01210220FFF767F907F148
:1027300008031846FFF736F90C4B1B79194602209F
:10274000FFF75CF9094B1B79FA7F9A4205D0074BDA
:102750001B7919460220FFF751F997F82F301846D8
:102760003037BD4680BD00BF340C0020E80B002090
:10277000ED0B0020089F000880B500AF094B1B68D7
:10278000094A184611464C231A4606F03DFBFDF750
:10279000F3FF0346002B01DA0F2300E00E23184657
:1027A00080BD00BF1C020020340C002080B500AFAB
:1027B000FDF76AFF044B5B781A460021C020FFF743
:1027C000F9F900BF80BD00BFE80B002080B586B0DE
:1027D00000AF3B4683E803003B78FB750023FB73A7
:1027E000FB7D042B08D1984B9B781A46974B1344DA
:1027F00093F82B30BB7502E0944B1B79BB757B883B
:102800001846FEF783FA034619469148FEF704FA84
:102810007B88102B00F2108101A252F823F000BF38
:1028200085290008F728000865280008392A0008CB
:1028300065280008392A0008392A0008392A0008C2
:102840000D2A0008392A0008392A0008392A000808
:10285000392A0008392A0008392A0008392A0008CC
:1028600085290008784B1B78002B01D1FB7DE7E020
:10287000BB7D83F00103BB75FB7D042B1BD1BB7DAE
:10288000002B01D1734B00E0734B1A467349744817
:1028900006F0CAF9BB7D002B14BF01230023D9B277
:1028A000694B9B781A46694B13440A4683F82B20E0
:1028B000B823FB7315E0BB7D002B01D1694B00E011
:1028C000694B1A466949664806F0AEF9BB7D002B94
:1028D00014BF01230023DBB21A465C4B1A71B123EB
:1028E000FB73594B1B7C01211846FFF787F85C48A6
:1028F000FFF758F8A3E0544B1B78002B3FD0524B06
:1029000000229A73504B00221A704F4B9B7B184643
:10291000FDF7C8FEFB7D042B1CD14B4B9B78082B8D
:1029200018D100233B610FE0474B9B781A46474B79
:10293000134493F82B10454A3B6913442B330A4642
:102940001A703B6901333B613F4BDB781A463B69A8
:102950009342E9DBFFF710FF0346FB75FB7D0E2B6F
:1029600001D00F236CE0384B9978BB7D9AB2FB7B8A
:102970001846FFF71FF90020FFF762F95FE0012317
:10298000FB755CE0FB7D052B15D17B88102B12D1EC
:10299000BB7D012B01D1344B00E0324B1A46334949
:1029A0002F4806F041F93249324806F03DF9092036
:1029B000FFF746F918E0FB7D042B12D17B88002B32
:1029C0000FD1BB7D012B01D1234B00E0214B1A46D7
:1029D0002249234806F028F92749264806F024F919
:1029E00002E02648FEF718F9174B0022DA73164B5F
:1029F00002221A74144B01229A73134B01221A708B
:102A0000114B9B7B1846FDF74DFE18E0FB7D042B18
:102A10000BD10D4B9B78082B03D10720FFF710F942
:102A20000CE00620FFF70CF908E0FB7D052B05D133
:102A30000820FFF705F901E000BF00E000BFFB7DC3
:102A400018461837BD4680BDE80B0020340C002026
:102A50001C9F0008609D0008589D0008689D0008A4
:102A6000F90B0020A89D0008A09D0008B09D00085B
:102A7000A89E00080D0C0020789D0008409F0008CB
:102A800080B584B000AF3B4683E803003B78FB731E
:102A9000484B5B79BB737B88013B0F2B75D801A238
:102AA00052F823F0152B0008E52A00088B2B0008AC
:102AB000FD2A00088B2B00088B2B00088B2B0008AD
:102AC0007B2B00088B2B00088B2B00088B2B00081E
:102AD0008B2B00088B2B00088B2B00088B2B0008FE
:102AE000572B0008334B5B795A1CD1B2314A5171D4
:102AF000092B4CD92F4B01225A7148E02D4B5B79A1
:102B00005A1ED1B22B4A5171012B42D8294B0A22AD
:102B10005A713EE0284B1B78002B14D0FEF760FF63
:102B2000254B00221A70FFF727FE0346FB73FB7B41
:102B30000F2B01D1FB7B38E01F4B5B781A4600213D
:102B4000C220FFF737F81C4B01225A700923FB7390
:102B5000FFF72CFE20E0184B01221A70164B0E22B4
:102B60001A710A20FFF76CF8134B1B7919460220E3
:102B7000FEF744FFFEF73BFF0EE00F4B1B78002BE8
:102B800009D10A20FFF75CF805E000BF04E000BFB0
:102B900002E000BF00E000BF064B5B79BA7B9A42BF
:102BA00002D00A20FFF74CF8FB7B18461037BD46D1
:102BB00080BD00BF340C0020E80B002080B584B03D
:102BC00000AF78600B46FB707868FFF7A9FA034600
:102BD000FB81174B93F846307B73FB89FF2B22D97F
:102BE0007B7B002B03D17B6800221A701BE0FB78F3
:102BF000002B05D07B7B7A68134400221A7012E008
:102C00007B7B012B0AD17B6802331B78052B05D90E
:102C10007B7B7A68134404221A7004E07B7B7A6819
:102C2000134405221A7000BF1037BD4680BD00BF97
:102C3000E80B0020F0B58FB002AF3B4683E80300FD
:102C40003B7887F82F30002387F82730AE4B1B796D
:102C500087F826307B88102B00F2D68101A252F82B
:102C600023F000BFF92F0008F72E0008A92C000858
:102C700009300008A92C00080930000809300008B4
:102C800009300008F92F000809300008FB2D000862
:102C900009300008792E00080930000809300008C2
:102CA000093000088B2F0008974B1B78002B02D1AE
:102CB00097F82F30BDE1944B93F845301A461346F0
:102CC0005B0013443833904A13445A1C07F1200325
:102CD0001188927819809A707B88022B23D18A4BB5
:102CE00093F8463030333B4413F8103C092B08D19D
:102CF000854B93F8463030333B44002203F8102CC8
:102D00000DE0814B93F8463003F130023A4412F85B
:102D1000102C0132D2B230333B4403F8102C012383
:102D200087F827301FE0784B93F8463030333B4428
:102D300013F8103C002B08D1734B93F84630303316
:102D40003B44092203F8102C0DE06F4B93F84630FA
:102D500003F130023A4412F8102C013AD2B2303367
:102D60003B4403F8102C97F8272007F12003114665
:102D70001846FFF723FF644B93F845301A46134675
:102D80005B0013443833604A134401331A4607F199
:102D9000200319889B78118093705C48FFF7C0F975
:102DA0000346DBB21D465A48FFF7BAF90346DBB2C9
:102DB0001E465848FFF7B4F90346DBB21C46564896
:102DC000FFF7AEF90346DBB207F10C000193009464
:102DD00033462A46514905F027FF01210220FEF71C
:102DE0000DFE07F10C031846FEF7DCFD464B1B7980
:102DF00019460220FEF702FE0DE1434B1B78002B23
:102E000002D197F82F3014E13F4B1B79013BDAB226
:102E10003D4B1A713C4B1B79002B0AD13A4B0F22C8
:102E20001A71394B032283F84520374B022283F86D
:102E30004620354B93F84630013BDAB2324B83F8EB
:102E40004620314B1B7903F00303DBB2002B40F02B
:102E5000DD802D4B1B79013BDAB22B4B1A712A4BCB
:102E600093F84530013BDAB2274B83F84520264BD7
:102E7000022283F84620C9E0234B1B78002B02D1A5
:102E800097F82F30D5E0204B1B790133DAB21E4B77
:102E90001A711D4B1B790E2B0AD91B4B01221A717B
:102EA000194B002283F84520174B002283F8462057
:102EB000154B93F846300133DAB2134B83F84620B2
:102EC000114B1B7903F00303DBB2002B40F0A08011
:102ED0000D4B1B790133DAB20B4B1A710A4B93F885
:102EE00045300133DAB2084B83F84520064B002207
:102EF00083F846208CE0044B1B78002B3CD0FEF777
:102F00006FFD0023BB6221E0E80B0020210C0020B4
:102F1000240C0020270C00202A0C0020109E000802
:102F2000BA6A13465B0013443833444A13440133EE
:102F30001846FFF7F5F80346D9B2414ABB6A134475
:102F400034330A461A70BB6A0133BB62BB6A032B77
:102F5000E6DDFFF711FC034687F82F30374B0022E0
:102F60001A7097F82F300F2B02D197F82F3060E0AE
:102F7000082387F82F304EE0304B02225A70092385
:102F800087F82F30FFF712FC45E02C4B02229A7293
:102F90000023BB6213E02A4ABB6A134434331B7814
:102FA0001846BA6A13465B0013443833234A134465
:102FB00001331946FFF76EF8BB6A0133BB62BB6A87
:102FC000032BE8DD1D4B0F221A711C4B032283F8E3
:102FD00045201A4B022283F84620184B01221A7012
:102FE000164B1B7919460220FEF708FDFEF7FFFC81
:102FF0000B20FEF725FE0EE0104B1B78002B09D1AD
:103000000B20FEF71DFE05E000BF04E000BF02E05C
:1030100000BF00E000BF094B1B7997F826209A42B9
:1030200005D0064B1B7919460220FEF7E7FC97F8FE
:103030002F3018463437BD46F0BD00BFE80B0020E6
:10304000340C002080B58CB000AF3B4683E8030011
:103050003B7887F82F30B64B1B7987F82330012354
:103060007B627B88102B00F2758101A252F823F05D
:1030700045330008AD320008B5300008553300086C
:10308000B5300008553300085533000855330008A3
:103090004533000855330008253200085533000831
:1030A00069320008553300085533000855330008CD
:1030B000F73200089E4B1B78002B02D197F82F3077
:1030C00056E19B4A07F11C034732106818601279D9
:1030D0001A717B88022B1BD1954B93F84630303305
:1030E0003B4413F9143C5A1C924B83FB0213991076
:1030F000D317C91A0B469B000B445B00D11A8C4BAB
:1031000093F846304AB230333B4403F8142C1EE0A7
:10311000874B93F8463030333B4413F9143C03F1AA
:103120000902844B83FB02139910D317C91A0B466B
:103130009B000B445B00D11A7D4B93F846304AB29A
:1031400030333B4403F8142C4FF0FF337B6207F11C
:103150001C031846FEF7E4FFB8623CE0744B93F89A
:10316000463030333B4413F9143CDAB27B6ADBB2AD
:103170001344DAB26E4B93F8463052B230333B44CC
:1031800003F8142C6A4B93F8463030333B4413F960
:10319000143C092B08DD664B93F8463030333B4432
:1031A000002203F8142C10E0614B93F846303033C2
:1031B0003B4413F9143C002B07DA5D4B93F846307F
:1031C00030333B44092203F8142C07F11C03184642
:1031D000FEF7A6FFB862BB6AB3F5806FBEDBBB6AC1
:1031E000B3F5803FBADC524B473307F11C0210683D
:1031F000186012791A7107F10803BA6A4E49184625
:1032000005F012FD01210220FEF7F8FB07F108038B
:103210001846FEF7C7FB464B1B7919460220FEF7FE
:10322000EDFB97E0424B1B78002B02D197F82F3033
:103230009EE03F4B1B79013BDAB23D4B1A713C4B90
:103240001B79072B07D83A4B0C221A71384B0422F2
:1032500083F846207EE0364B93F84630013BDAB2E5
:10326000334B83F8462075E0314B1B78002B02D19D
:1032700097F82F307CE02E4B1B790133DAB22C4BC0
:103280001A712B4B1B790C2B07D9294B08221A7169
:10329000274B002283F846205CE0254B93F846300C
:1032A0000133DAB2224B83F8462053E0204B1B78DF
:1032B000002B17D0FEF794FB2048FEF731FF0346A2
:1032C0009AB21F4B1A871A4B00221A70FFF754FA52
:1032D000034687F82F3097F82F300F2B02D197F83D
:1032E0002F3045E0124B02225A70092387F82F3005
:1032F000FFF75CFA2EE00E4B01221A700C4B0C22E9
:103300001A710B4B04229A72094B042283F846204F
:103310000B4B1B8F09491846FEF7BCFE044B1B796B
:1033200019460220FEF76AFBFEF761FB12E000BFC0
:10333000E80B002067666666289E00082F0C0020B8
:10334000340C00200C4B1B78002B02D10C20FEF714
:1033500077FC00BF084B1B7997F823209A4205D0D1
:10336000054B1B7919460220FEF748FB97F82F30D2
:1033700018463037BD4680BDE80B002080B584B0CC
:1033800000AF3B4683E803003B78FB737B88202B30
:1033900006D0202B10DC002B0AD0082B08D00BE025
:1033A00000220021BB20FEF705FC0123FB7303E094
:1033B0000D20FEF745FC00BFFB7B18461037BD46CD
:1033C00080BD000080B485B000AF0346FB710023D0
:1033D000FB600BE00A4AFB6813441B78FA799A42B7
:1033E00001D1FB6806E0FB680133FB60FB68402B02
:1033F000F0D9002318461437BD4680BC704700BF83
:1034000014A0000880B584B000AF78607B681B789A
:103410001846FFF7D7FFF860FB6801331946084BE1
:10342000A3FB01239A0913469B011344CA1A054BB7
:103430009A5C7B681A7000BF1037BD4680BD00BF24
:10344000FDC00FFC14A0000880B588B000AF3B465B
:1034500083E803003B78FB774E4B1B79BB777B8877
:10346000013B0B2B7BD801A252F823F01935000841
:103470009D340008353500089D3400085F3500088C
:103480005F3500085F3500085F3500085F350008CC
:10349000E13400085F350008FD3400083D4B1B791E
:1034A00038333D4A134402331846FFF7ABFF07F1A8
:1034B00008033A4A3A49184605F0B6FB01210120B3
:1034C000FEF79CFA07F108031846FEF76BFA314B3A
:1034D0001B790133DBB219460120FEF78FFA3EE07B
:1034E0002C4B1B790F335A4203F00F0302F00F02EB
:1034F00058BF5342DAB2274B1A7130E0254B1B7983
:1035000001335A4203F00F0302F00F0258BF534237
:10351000DAB2204B1A7122E0FEF762FA1D4B00224C
:103520001A70FFF729F90346FB77FB7F0F2B15D1A4
:10353000FB7F2AE0174B01221A70164B02221A71E8
:10354000144B1B790133DBB219460120FEF756FA02
:10355000FEF74DFA0E20FEF773FB00E000BF0D4BA7
:103560001B791946BB7F1A460E48FDF755FB094BE0
:103570001B79BA7F9A4207D0064B1B790133DBB225
:1035800019460120FEF73AFAFB7F18462037BD4660
:1035900080BD00BFE80B0020340C00206E0C002022
:1035A000609C0008549F000880B584B000AF3B4683
:1035B00083E803000E23FB737B88012B02D0092BC9
:1035C00019D01CE000220021B920FEF7F3FAFDF724
:1035D0009FF84C2200210C4805F084FB0B4B1B6824
:1035E0000B4A104619464C231A4605F00DFC0020E4
:1035F000FEF726FB03E00F20FEF722FB00BFFB7B5C
:1036000018461037BD4680BDE80B00201C02002084
:10361000340C002080B594B000AF0E4A3B461146F2
:103620005022184605F0F0FB0B490C4805F0FCFA57
:103630000B4B1B7919463A460B469B000B449B00EB
:1036400013441A460749084805F0EEFA00BF503700
:10365000BD4680BD789F0008949E0008F90B0020AD
:10366000E80B0020749F00080D0C002080B584B08A
:1036700000AF3B4683E803003B78FB730023BB733A
:103680007B88013B052B77D801A252F823F000BFBD
:10369000E9360008A936000879370008C93600085D
:1036A00079370008433700083A4B1B7903335A42F5
:1036B00003F0030302F0030258BF5342DAB2354B62
:1036C0001A710123BB735BE0324B1B7901335A4201
:1036D00003F0030302F0030258BF5342DAB22D4B4A
:1036E0001A710123BB734BE02A4B1B78002B22D0AD
:1036F000284B00229A73274B9B7B1846FCF7D2FF7E
:10370000244B1A79244B9A71234B9B790133DBB2FA
:103710005B00DAB21F4BDA701E4B00221A701D4B91
:1037200000229A70FFF728F80346FB73FB7B0F2BF0
:1037300001D1FB7B2AE00020FEF782FA0E23FB7307
:103740001EE0154B9A79134B1A71124B0022DA7353
:10375000104B01221A740F4B01229A730D4B012258
:103760001A700C4B9B7B1846FCF79CFF0123BB7324
:103770001020FEF765FA03E00848FDF74DFA00BF98
:10378000BB7B002B01D0FFF745FFFB7B18461037B2
:10379000BD4680BDE80B0020340C0020C89F000807
:1037A00080B584B000AF3B4683E803000E23FB7373
:1037B0007B88012B02D0052B04D007E00020FEF708
:1037C0003FFA03E00520FEF73BFA00BFFB7B1846FB
:1037D0001037BD4680BD0000FEF726F80B480C49A7
:1037E0000C4A002302E0D458C4500433C4188C425D
:1037F000F9D3094A094C002301E013600432A242C4
:10380000FBD305F0DBFAFDF73BFC7047000000201E
:10381000A4010020B0A00008A801002080380020EA
:10382000FEE7000080B500AF084B1B68074A43F075
:1038300010031360032000F0D1F80F20FDF712FFF2
:10384000FDF74CFE0023184680BD00BF002002405B
:1038500080B400AF054B1B781A46054B1B68134418
:10386000034A136000BFBD4680BC70474C01002076
:10387000840C002080B400AF024B1B681846BD4684
:1038800080BC7047840C002080B485B000AF7860A5
:103890007B6803F00703FB600C4BDB68BB60BA6816
:1038A0004FF6FF031340BB60FB681A02BB6813436B
:1038B00043F0BF6343F40033BB60044ABB68D3608A
:1038C00000BF1437BD4680BC704700BF00ED00E06C
:1038D00080B400AF044BDB681B0A03F007031846F3
:1038E000BD4680BC704700BF00ED00E080B483B0EF
:1038F00000AF0346FB7197F90730002B0BDBFB7918
:1039000003F01F02064997F907305B09012000FA0E
:1039100002F241F8232000BF0C37BD4680BC70473F
:1039200000E100E080B483B000AF03463960FB7172
:1039300097F90730002B0ADB3B68DAB20C4997F99C
:1039400007301201D2B20B4483F800230AE03B682F
:10395000DAB20849FB7903F00F03043B1201D2B23B
:103960000B441A7600BF0C37BD4680BC704700BFC1
:1039700000E100E000ED00E080B489B000AFF86045
:10398000B9607A60FB6803F00703FB61FB69C3F170
:103990000703042B28BF0423BB61FB690433062BF8
:1039A00002D9FB69033B00E000237B614FF0FF324B
:1039B000BB6902FA03F3DA43BB681A407B699A4099
:1039C0004FF0FF317B6901FA03F3D9437B680B4069
:1039D000134318462437BD4680BC704780B582B07B
:1039E00000AF78607868FFF74FFF00BF0837BD462B
:1039F00080BD80B586B000AF0346B9607A60FB73C6
:103A000000237B61FFF764FF78617A68B9687869A1
:103A1000FFF7B2FF024697F90F3011461846FFF73D
:103A200081FF00BF1837BD4680BD80B582B000AFB2
:103A30000346FB7197F907301846FFF757FF00BFA1
:103A40000837BD4680BD80B485B000AF78600023E4
:103A5000FB737B6893F82130DBB2022B08D07B68C4
:103A600004229A637B68002283F82020012320E04F
:103A70007B681B681A687B681B6822F00E021A605C
:103A80007B681B681A687B681B6822F001021A6059
:103A90007B681A6C7B68DB6B012101FA02F25A60C9
:103AA0007B68012283F821207B68002283F8202094
:103AB000FB7B18461437BD4680BC704780B584B088
:103AC00000AF78600023FB737B6893F82130DBB292
:103AD000022B05D07B6804229A630123FB7351E01B
:103AE0007B681B681A687B681B6822F00E021A60EC
:103AF0007B681B681A687B681B6822F001021A60E9
:103B00007B681B68224A934229D07B681B68214A44
:103B1000934222D07B681B681F4A93421AD07B686D
:103B20001B681E4A934212D07B681B681C4A934252
:103B30000AD07B681B681B4A934202D14FF4801362
:103B40000EE04FF080730BE04FF4803308E04FF449
:103B5000805305E04FF4807302E0102300E001235E
:103B6000114A53607B68012283F821207B68002280
:103B700083F820207B685B6B002B03D07B685B6B3A
:103B800078689847FB7B18461037BD4680BD00BF5C
:103B9000080002401C000240300002404400024085
:103BA000580002406C00024000000240F0B587B0AF
:103BB00000AFF860B960C7E900230123FB7500235B
:103BC000BB7500237B752F4B1B7E012B01D102237C
:103BD00054E02C4B01221A764CF2503000F0B2F82F
:103BE0000346FB75FB7D002B44D1FB68012B02D102
:103BF00001237B7507E0FB68022B02D102237B7552
:103C000001E004237B750023BB752DE0BB7D5A00CA
:103C1000BB6802EB030CBB7D1901D7E90023C1F19E
:103C20002006A1F1200022FA01F403FA06F634433B
:103C300023FA00F0044323FA01F5A3B219466046C3
:103C400000F064F84CF2503000F07CF80346FB754D
:103C50000D4B1B690C4A23F001031361FB7D002B04
:103C600007D1BB7D0133BB75BA7D7B7D9A42CDD335
:103C700000E000BF034B00221A76FB7D18461C377C
:103C8000BD46F0BD880C00200020024080B483B007
:103C900000AF0023FB710D4B1B6903F08003002B69
:103CA0000DD00A4B0A4A5A60084B0A4A5A60074B21
:103CB0001B6903F08003002B01D00123FB71FB790A
:103CC00018460C37BD4680BC704700BF002002403C
:103CD00023016745AB89EFCD80B400AF054B1B696D
:103CE000044A43F08003136100231846BD4680BC9C
:103CF000704700BF0020024080B400AF024BDB6978
:103D00001846BD4680BC7047880C002080B483B044
:103D100000AF78600B467B80084B0022DA61084BCD
:103D20001B69074A43F0010313617B687A881A8094
:103D300000BF0C37BD4680BC704700BF880C002018
:103D40000020024080B584B000AF7860FFF792FD9C
:103D5000F86010E07B68B3F1FF3F0CD07B68002B6C
:103D600007D0FFF787FD0246FB68D31A7A689A42AC
:103D700001D2032325E0154BDB6803F00103002B80
:103D8000E8D1124BDB6803F02003002B02D00F4B6D
:103D90002022DA600D4BDB6803F01003002B0BD1FF
:103DA0000A4BDB6903F00103002B05D1074BDB68ED
:103DB00003F00403002B03D000F00AF8012300E015
:103DC000002318461037BD4680BD00BF00200240CA
:103DD00080B483B000AF00237B60234BDB6803F02B
:103DE0001003002B09D0214BDB6943F002031F4A6B
:103DF000D3617B6843F010037B601B4BDB6803F0EF
:103E00000403002B09D0194BDB6943F00103174A67
:103E1000D3617B6843F004037B60134BDB6903F0E1
:103E20000103002B0BD0114BDB6943F004030F4A55
:103E3000D3610D4BDB690C4A23F00103D3617B682E
:103E400040F20112934206D1074BDB69064A23F088
:103E50000103D36102E0044A7B68D36000BF0C37E2
:103E6000BD4680BC704700BF00200240880C002087
:103E700080B584B000AF786039600123FB73002304
:103E8000BB602F4B1B7E012B01D1022353E02C4B37
:103E900001221A767B681B68022B16D14CF2503037
:103EA000FFF750FF0346002B41D1012000F04CF8F2
:103EB0004CF25030FFF746FF0346FB73214B1B6962
:103EC000204A23F00403136131E04CF25030FFF735
:103ED00039FF0346002B2AD13B684FF0FF321A60AE
:103EE0007B689B68BB6019E0B86800F049F84CF249
:103EF0005030FFF727FF0346FB73124B1B69114A33
:103F000023F002031361FB7B002B03D03B68BA68EC
:103F10001A600CE0BB6803F58063BB607B68DB68FC
:103F20009A027B689B681344BA689A42DCD3044BBC
:103F300000221A76FB7B18461037BD4680BD00BFB5
:103F4000880C00200020024080B483B000AF78606D
:103F5000094B0022DA61094B1B69084A43F004034C
:103F60001361064B1B69054A43F04003136100BF10
:103F70000C37BD4680BC7047880C002000200240F2
:103F800080B483B000AF78600B4B0022DA610B4B3A
:103F90001B690A4A43F002031361084A7B685361B4
:103FA000064B1B69054A43F04003136100BF0C3701
:103FB000BD4680BC704700BF880C00200020024036
:103FC00080B48BB000AF7860396000237B6200233F
:103FD0003B6269E101227B6A02FA03F3FB613B6801
:103FE0001B68FA691340BB61BA69FB699A4240F0E9
:103FF00058813B685B689A4A93425ED0984A9342E4
:1040000075D8984A934258D0964A93426FD8964AA8
:10401000934252D0944A934269D8944A93424CD0E6
:10402000924A934263D8924A934246D0904A93422E
:104030005DD8122B2AD8122B59D801A252F823F09E
:10404000BB40000895400008A7400008E940000870
:10405000EF400008EF400008EF400008EF40000884
:10406000EF400008EF400008EF400008EF40000874
:10407000EF400008EF400008EF400008EF40000864
:10408000EF4000089D400008B1400008794A934283
:1040900013D02CE03B68DB683B6229E03B68DB68BF
:1040A00004333B6224E03B68DB6808333B621FE07B
:1040B0003B68DB680C333B621AE03B689B68002B73
:1040C00002D104233B6213E03B689B68012B05D1BE
:1040D00008233B627B68FA691A6109E008233B62A6
:1040E0007B68FA695A6103E000233B6200E000BF8D
:1040F000BB69FF2B01D87B6801E07B6804337B61DF
:10410000BB69FF2B02D87B6A9B0002E07B6A083BFD
:104110009B003B617B691A680F213B6901FA03F33D
:10412000DB431A40396A3B6901FA03F31A437B699E
:104130001A603B685B6803F08053002B00F0B1808D
:104140004D4B9B694C4A43F0010393614A4B9B6979
:1041500003F00103BB60BB68484A7B6A9B080233DB
:1041600052F82330FB607B6A03F003039B000F22AD
:1041700002FA03F3DB43FA681340FB607B68404AB2
:10418000934213D07B683F4A93420DD07B683E4AEE
:10419000934207D07B683D4A934201D1032306E056
:1041A000042304E0022302E0012300E000237A6AF2
:1041B00002F0030292009340FA681343FB602F4918
:1041C0007B6A9B080233FA6841F823203B685B68EE
:1041D00003F48013002B06D02D4B9A682C49BB6941
:1041E00013438B6006E02A4B9A68BB69DB4328497E
:1041F00013408B603B685B6803F40013002B06D010
:10420000234BDA682249BB691343CB6006E0204B9D
:10421000DA68BB69DB431E491340CB603B685B68CF
:1042200003F40033002B06D0194B5A681849BB69B8
:1042300013434B6006E0164B5A68BB69DB431449D5
:1042400013404B603B685B6803F48033002B21D044
:104250000F4B1A680E49BB6913430B6021E000BF86
:104260000000321000003110000022100000211068
:104270000000121000001110001002400000014068
:1042800000080140000C01400010014000140140F2
:10429000000401400B4B1A68BB69DB43094913401A
:1042A0000B607B6A01337B623B681A687B6A22FA87
:1042B00003F3002B7FF48EAE00BF00BF2C37BD464A
:1042C00080BC70470004014080B485B000AF7860C6
:1042D0000B467B807B689A687B881340002B02D05A
:1042E0000123FB7301E00023FB73FB7B18461437AB
:1042F000BD4680BC704780B483B000AF78600B4689
:104300007B8013467B707B78002B03D07A887B6898
:104310001A6103E07B881A047B681A6100BF0C37BE
:10432000BD4680BC704780B485B000AF78600B4656
:104330007B807B68DB68FB607A88FB6813401A042B
:10434000FB68D9437B880B401A437B681A6100BF26
:104350001437BD4680BC704780B586B000AF78602A
:104360007B68002B01D1012372E27B681B6803F09C
:104370000103002B00F08780924B5B6803F00C0375
:10438000042B0CD08F4B5B6803F00C03082B12D16D
:104390008C4B5B6803F48033B3F5803F0BD1894BC2
:1043A0001B6803F40033002B6CD07B685B68002B28
:1043B00068D101234CE27B685B68B3F5803F06D18E
:1043C000804B1B687F4A43F4803313602EE07B6888
:1043D0005B68002B0CD17B4B1B687A4A23F480333B
:1043E0001360784B1B68774A23F4802313601DE029
:1043F0007B685B68B3F5A02F0CD1724B1B68714AC8
:1044000043F4802313606F4B1B686E4A43F4803380
:1044100013600BE06B4B1B686A4A23F48033136014
:10442000684B1B68674A23F4802313607B685B68D2
:10443000002B13D0FFF71EFA386108E0FFF71AFAD5
:1044400002463B69D31A642B01D9032300E25D4B7A
:104450001B6803F40033002BF0D014E0FFF70AFAD6
:10446000386108E0FFF706FA02463B69D31A642B6D
:1044700001D90323ECE1534B1B6803F40033002BF9
:10448000F0D100E000BF7B681B6803F00203002B43
:1044900063D04C4B5B6803F00C03002B0BD0494BF3
:1044A0005B6803F00C03082B1CD1464B5B6803F4DC
:1044B0008033002B16D1434B1B6803F00203002B03
:1044C00005D07B681B69012B01D00123C0E13D4B66
:1044D0001B6823F0F8027B685B69DB0039491343F2
:1044E0000B603AE07B681B69002B20D0364B012221
:1044F0001A60FFF7BFF9386108E0FFF7BBF9024621
:104500003B69D31A022B01D90323A1E12D4B1B6870
:1045100003F00203002BF0D02A4B1B6823F0F802B3
:104520007B685B69DB00274913430B6015E0264B72
:1045300000221A60FFF79EF9386108E0FFF79AF948
:1045400002463B69D31A022B01D9032380E11D4B9C
:104550001B6803F00203002BF0D17B681B6803F09B
:104560000803002B3AD07B689B69002B19D0174BAE
:1045700001221A60FFF77EF9386108E0FFF77AF947
:1045800002463B69D31A022B01D9032360E10D4B8C
:104590005B6A03F00203002BF0D0012000F0FEFA6A
:1045A0001CE00A4B00221A60FFF764F938610FE043
:1045B000FFF760F902463B69D31A022B08D903239F
:1045C00046E100BF00100240000042428004424227
:1045D000924B5B6A03F00203002BE9D17B681B68F6
:1045E00003F00403002B00F0A6800023FB758B4B27
:1045F000DB6903F08053002B0DD1884BDB69874AC0
:1046000043F08053D361854BDB6903F08053BB607B
:10461000BB680123FB75824B1B6803F48073002B7E
:1046200018D17F4B1B687E4A43F480731360FFF7F9
:1046300021F9386108E0FFF71DF902463B69D31AFA
:10464000642B01D9032303E1754B1B6803F48073CA
:10465000002BF0D07B68DB68012B06D16F4B1B6A07
:104660006E4A43F0010313622DE07B68DB68002B88
:104670000CD16A4B1B6A694A23F001031362674B32
:104680001B6A664A23F0040313621CE07B68DB6844
:10469000052B0CD1614B1B6A604A43F00403136283
:1046A0005E4B1B6A5D4A43F0010313620BE05B4BF8
:1046B0001B6A5A4A23F001031362584B1B6A574A7C
:1046C00023F0040313627B68DB68002B15D0FFF72F
:1046D000D1F838610AE0FFF7CDF802463B69D31AFA
:1046E00041F28832934201D90323B1E04B4B1B6A5C
:1046F00003F00203002BEED014E0FFF7BBF83861A3
:104700000AE0FFF7B7F802463B69D31A41F2883254
:10471000934201D903239BE0404B1B6A03F0020341
:10472000002BEED1FB7D012B05D13C4BDB693B4AD5
:1047300023F08053D3617B68DB69002B00F0878016
:10474000364B5B6803F00C03082B61D07B68DB6998
:10475000022B46D1334B00221A60FFF78BF83861E9
:1047600008E0FFF787F802463B69D31A022B01D90C
:1047700003236DE0294B1B6803F00073002BF0D17D
:104780007B681B6AB3F5803F08D1244B5B6823F438
:1047900000327B689B68214913434B601F4B5B6869
:1047A00023F474127B68196A7B685B6A0B431B49AC
:1047B00013434B601B4B01221A60FFF75BF8386113
:1047C00008E0FFF757F802463B69D31A022B01D9DC
:1047D00003233DE0114B1B6803F00073002BF0D066
:1047E00035E0104B00221A60FFF744F8386108E00A
:1047F000FFF740F802463B69D31A022B01D9032385
:1048000026E0064B1B6803F00073002BF0D11EE07E
:104810007B68DB69012B07D1012319E000100240FE
:1048200000700040600042420B4B5B68FB60FB681D
:1048300003F480327B681B6A9A4206D1FB6803F45A
:1048400070127B685B6A9A4201D0012300E000236A
:1048500018461837BD4680BD0010024080B584B0B0
:1048600000AF786039607B68002B01D10123D0E074
:104870006A4B1B6803F007033A689A4210D9674BEA
:104880001B6823F0070265493B6813430B60634BC9
:104890001B6803F007033A689A4201D00123B8E08D
:1048A0007B681B6803F00203002B20D07B681B6829
:1048B00003F00403002B05D0594B5B68584A43F4BE
:1048C000E06353607B681B6803F00803002B05D08E
:1048D000534B5B68524A43F460535360504B5B68E0
:1048E00023F0F0027B689B684D4913434B607B6863
:1048F0001B6803F00103002B40D07B685B68012B31
:1049000007D1474B1B6803F40033002B15D101235B
:104910007FE07B685B68022B07D1414B1B6803F08B
:104920000073002B09D1012373E03D4B1B6803F09A
:104930000203002B01D101236BE0394B5B6823F0AC
:1049400003027B685B68364913434B60FEF792FFB6
:10495000F8600AE0FEF78EFF0246FB68D31A41F2C8
:104960008832934201D9032353E02D4B5B6803F057
:104970000C027B685B689B009A42EBD1274B1B685B
:1049800003F007033A689A4210D2244B1B6823F0C5
:10499000070222493B6813430B60204B1B6803F05E
:1049A00007033A689A4201D0012332E07B681B6812
:1049B00003F00403002B08D0194B5B6823F4E0627A
:1049C0007B68DB68164913434B607B681B6803F008
:1049D0000803002B09D0124B5B6823F460527B68FC
:1049E0001B69DB000E4913434B6000F021F80246BF
:1049F0000B4B5B681B0903F00F030A49CB5C22FADF
:104A000003F3094A1360094B1B681846FCF72AFE9A
:104A1000002318461037BD4680BD00BF002002406D
:104A200000100240FC9F0008A80000204801002060
:104A300080B487B000AF0023FB600023BB6000237D
:104A40007B6100237B6000233B611E4B5B68FB6046
:104A5000FB6803F00C03042B02D0082B03D027E0E3
:104A6000194B3B6127E0FB689B0C03F00F03174ACF
:104A7000D35C7B60FB6803F48033002B10D0114BB8
:104A80005B685B0C03F00103114AD35CBB607B687D
:104A90000D4A03FB02F2BB68B2FBF3F37B6104E057
:104AA0007B680C4A02FB03F37B617B693B6102E09C
:104AB000054B3B6100BF3B6918461C37BD4680BCB7
:104AC000704700BF0010024000127A0058A0000892
:104AD00068A0000800093D0080B400AF024B1B68CD
:104AE0001846BD4680BC7047A800002080B500AFC6
:104AF000FFF7F2FF0246054B5B681B0A03F0070352
:104B00000349CB5C22FA03F3184680BD0010024033
:104B10000CA0000880B500AFFFF7DEFF0246054B92
:104B20005B68DB0A03F007030349CB5C22FA03F35B
:104B3000184680BD001002400CA0000880B483B06D
:104B400000AF786039607B680F221A60114B5B6898
:104B500003F003027B685A600E4B5B6803F0F002BF
:104B60007B689A600B4B5B6803F4E0627B68DA60F9
:104B7000084B5B68DB0803F4E0627B681A61064B54
:104B80001B6803F007023B681A6000BF0C37BD4684
:104B900080BC7047001002400020024080B485B005
:104BA00000AF78600A4B1B680A4AA2FB03235B0A2A
:104BB0007A6802FB03F3FB6000BFFB685A1EFA60D1
:104BC000002BF9D100BF00BF1437BD4680BC704731
:104BD000A8000020D34D621080B582B000AF78608D
:104BE0007B68002B01D1012341E07B6893F83D30C5
:104BF000DBB2002B06D17B68002283F83C2078686A
:104C000000F039F87B68022283F83D207B681A683F
:104C10007B6804331946104600F09CF97B6801223A
:104C200083F846207B68012283F83E207B680122BE
:104C300083F83F207B68012283F840207B680122B3
:104C400083F841207B68012283F842207B6801229F
:104C500083F843207B68012283F844207B6801228B
:104C600083F845207B68012283F83D200023184605
:104C70000837BD4680BD80B483B000AF786000BF08
:104C80000C37BD4680BC704780B485B000AF7860FB
:104C90007B6893F83D30DBB2012B01D001233AE071
:104CA0007B68022283F83D207B681B68DA687B689A
:104CB0001B6842F00102DA607B681B68184A934265
:104CC0000ED07B681B68B3F1804F09D07B681B68EE
:104CD000144A934204D07B681B68134A934211D153
:104CE0007B681B689B6803F00703FB60FB68062B6F
:104CF00010D07B681B681A687B681B6842F0010251
:104D00001A6007E07B681B681A687B681B6842F0C2
:104D100001021A60002318461437BD4680BC704754
:104D2000002C0140000400400008004080B584B021
:104D300000AF78607B681B68DB68FB607B681B6882
:104D40001B69BB60BB6803F00203002B20D0FB682B
:104D500003F00203002B1BD07B681B686FF002027C
:104D60001A617B6801221A777B681B689B6903F0D4
:104D70000303002B03D0786800F0D1F805E07868D1
:104D800000F0C4F8786800F0D3F87B6800221A7746
:104D9000BB6803F00403002B20D0FB6803F004037E
:104DA000002B1BD07B681B686FF004021A617B68C4
:104DB00002221A777B681B689B6903F44073002BFF
:104DC00003D0786800F0ABF805E0786800F09EF852
:104DD000786800F0ADF87B6800221A77BB6803F0B2
:104DE0000803002B20D0FB6803F00803002B1BD026
:104DF0007B681B686FF008021A617B6804221A77CF
:104E00007B681B68DB6903F00303002B03D0786821
:104E100000F085F805E0786800F078F8786800F030
:104E200087F87B6800221A77BB6803F01003002B19
:104E300020D0FB6803F01003002B1BD07B681B689D
:104E40006FF010021A617B6808221A777B681B6872
:104E5000DB6903F44073002B03D0786800F05FF83F
:104E600005E0786800F052F8786800F061F87B6837
:104E700000221A77BB6803F00103002B0CD0FB68FB
:104E800003F00103002B07D07B681B686FF0010261
:104E90001A617868FCF70AFBBB6803F08003002BFB
:104EA0000CD0FB6803F08003002B07D07B681B68E5
:104EB0006FF080021A61786800F0C3F8BB6803F0F5
:104EC0004003002B0CD0FB6803F04003002B07D0FD
:104ED0007B681B686FF040021A61786800F031F857
:104EE000BB6803F02003002B0CD0FB6803F0200309
:104EF000002B07D07B681B686FF020021A6178686E
:104F000000F096F800BF1037BD4680BD80B483B076
:104F100000AF786000BF0C37BD4680BC704780B4DE
:104F200083B000AF786000BF0C37BD4680BC7047CF
:104F300080B483B000AF786000BF0C37BD4680BC42
:104F4000704780B483B000AF786000BF0C37BD46B7
:104F500080BC704780B485B000AF786039607B68F2
:104F60001B68FB607B682F4A93420BD07B68B3F1D0
:104F7000804F07D07B682C4A934203D07B682B4A32
:104F8000934208D1FB6823F07003FB603B685B68C9
:104F9000FA681343FB607B68224A93420BD07B681C
:104FA000B3F1804F07D07B681F4A934203D07B68E0
:104FB0001E4A934208D1FB6823F44073FB603B68B0
:104FC000DB68FA681343FB60FB6823F080023B68F0
:104FD0005B691343FB607B68FA681A603B689A68F8
:104FE0007B68DA623B681A687B689A627B680D4A64
:104FF000934203D13B681A697B681A637B6801227C
:105000005A617B681B6903F00103002B05D07B68A4
:105010001B6923F001027B681A6100BF1437BD468B
:1050200080BC7047002C0140000400400008004094
:1050300080B483B000AF786000BF0C37BD4680BC41
:10504000704780B483B000AF786000BF0C37BD46B6
:1050500080BC704780B582B000AF78607B68002B61
:1050600001D1012342E07B6893F84130DBB2002B91
:1050700006D17B68002283F840207868FCF766FA46
:105080007B68242283F841207B681B68DA687B6890
:105090001B6822F40052DA60786800F0B7FD7B6884
:1050A0001B681A697B681B6822F490421A617B684E
:1050B0001B685A697B681B6822F02A025A617B6868
:1050C0001B68DA687B681B6842F40052DA607B6810
:1050D00000225A647B68202283F841207B682022CA
:1050E00083F842207B6800225A6300231846083761
:1050F000BD4680BD80B58AB002AFF860B9603B6044
:105100001346FB8000237B61FB6893F84130DBB2E0
:10511000202B75D1BB68002B02D0FB88002B01D15E
:1051200001236EE0FB6800225A64FB68212283F8A9
:105130004120FEF79FFB7861FB68FA889A84FB6840
:10514000FA88DA84FB689B68B3F5805F08D1FB6856
:105150001B69002B04D10023FB61BB68BB6103E02A
:10516000BB68FB610023BB612EE03B6800937B6959
:1051700000228021F86800F01CFB0346002B05D0BC
:10518000FB68202283F8412003233AE0FB69002BCF
:105190000BD1BB691B881A46FB681B68C2F3080267
:1051A0005A60BB690233BB6107E0FB691A78FB6890
:1051B0001B685A60FB690133FB61FB68DB8C9BB2A7
:1051C000013B9AB2FB68DA84FB68DB8C9BB2002B54
:1051D000CBD13B6800937B6900224021F86800F046
:1051E000E8FA0346002B05D0FB68202283F8412013
:1051F000032306E0FB68202283F84120002300E01F
:10520000022318462037BD4680BD80B584B000AF6C
:10521000F860B9601346FB80FB6893F84230DBB25C
:10522000202B12D1BB68002B02D0FB88002B01D1B0
:1052300001230BE0FB6800221A63FB881A46B96859
:10524000F86800F00FFB034600E002231846103711
:10525000BD4680BD80B5BAB000AF78607B681B6882
:105260001B68C7F8E4307B681B68DB68C7F8E03070
:105270007B681B685B69C7F8DC300023C7F8D8304F
:105280000023C7F8D430D7F8E43003F00F03C7F891
:10529000D830D7F8D830002B0FD1D7F8E43003F04E
:1052A0002003002B09D0D7F8E03003F02003002BB7
:1052B00003D0786800F0ECFB5BE2D7F8D830002B25
:1052C00000F0DE80D7F8DC3003F00103002B06D1BC
:1052D000D7F8E03003F49073002B00F0D180D7F8BA
:1052E000E43003F00103002B0BD0D7F8E03003F4D7
:1052F0008073002B05D07B685B6C43F001027B68F8
:105300005A64D7F8E43003F00403002B0BD0D7F82D
:10531000DC3003F00103002B05D07B685B6C43F0AD
:1053200002027B685A64D7F8E43003F00203002BD2
:105330000BD0D7F8DC3003F00103002B05D07B68DD
:105340005B6C43F004027B685A64D7F8E43003F0E6
:105350000803002B11D0D7F8E03003F02003002B16
:1053600005D1D7F8DC3003F00103002B05D07B68B2
:105370005B6C43F008027B685A647B685B6C002BB3
:1053800000F0F281D7F8E43003F02003002B08D0BE
:10539000D7F8E03003F02003002B02D0786800F04B
:1053A00077FB7B681B685B6903F04003002B14BF2D
:1053B00001230023DBB2C7F8D4307B685B6C03F0B9
:1053C0000803002B03D1D7F8D430002B4FD07868D6
:1053D00000F081FA7B681B685B6903F04003002BD7
:1053E00041D07B681B681433C7F89C30D7F89C30D9
:1053F00053E8003FC7F89830D7F8983023F04003BF
:10540000C7F8D0307B681B681433D7F8D020C7F8B2
:10541000A820C7F8A430D7F8A410D7F8A82041E8EE
:105420000023C7F8A030D7F8A030002BD9D17B6873
:10543000DB6B002B13D07B68DB6B7E4A5A637B6887
:10544000DB6B1846FEF73AFB0346002B16D07B6851
:10545000DB6B5B6B7A68D26B104698470EE078681E
:1054600000F093F90AE0786800F08FF906E07868B8
:1054700000F08BF97B6800225A6475E100BF73E18C
:105480007B681B6B012B40F04F81D7F8E43003F0B1
:105490001003002B00F04881D7F8E03003F0100330
:1054A000002B00F041810023BB607B681B681B68F8
:1054B000BB607B681B685B68BB60BB687B681B6804
:1054C0005B6903F04003002B00F0B6807B68DB6B68
:1054D0001B685B68A7F8BE30B7F8BE30002B00F041
:1054E00045817B689B8DB7F8BE209A4280F03E8153
:1054F0007B68B7F8BE20DA857B68DB6B9B69202B65
:1055000000F088807B681B680C33C7F88830D7F8B8
:10551000883053E8003FC7F88430D7F8843023F44C
:105520008073C7F8B8307B681B680C33D7F8B82095
:10553000C7F89420C7F89030D7F89010D7F8942087
:1055400041E80023C7F88C30D7F88C30002BD9D134
:105550007B681B6814337B677B6F53E8003F3B67B6
:105560003B6F23F00103C7F8B4307B681B6814332A
:10557000D7F8B420C7F88020FB67F96FD7F88020F0
:1055800041E80023BB67BB6F002BE1D17B681B6840
:1055900014333B663B6E53E8003FFB65FB6D23F025
:1055A0004003C7F8B0307B681B681433D7F8B020CD
:1055B000FA66BB66B96EFA6E41E800237B667B6EC5
:1055C000002BE3D17B68202283F842207B680022F5
:1055D0001A637B681B680C33FB64FB6C53E8003F69
:1055E000BB64BB6C23F01003C7F8AC307B681B684E
:1055F0000C33D7F8AC20BA657B65796DBA6D41E89C
:1056000000233B653B6D002BE3D17B68DB6B1846C9
:10561000FEF719FA7B6802225A637B689A8D7B68D1
:10562000DB8D9BB2D31A9BB21946786800F0B6F8AE
:105630009CE000BF9B5900087B689A8D7B68DB8DDE
:105640009BB2D31AA7F8CE307B68DB8D9BB2002BC0
:1056500000F08E80B7F8CE30002B00F089807B6898
:105660001B680C33BB63BB6B53E8003F7B637B6BF6
:1056700023F49073C7F8C8307B681B680C33D7F8E5
:10568000C8207A643B64396C7A6C41E80023FB6380
:10569000FB6B002BE3D17B681B6814337B627B6A56
:1056A00053E8003F3B623B6A23F00103C7F8C43074
:1056B0007B681B681433D7F8C4203A63FB62F96A2D
:1056C0003A6B41E80023BB62BB6A002BE3D17B68E5
:1056D000202283F842207B6800221A637B681B68C3
:1056E0000C333B613B6953E8003FFB60FB6823F0F0
:1056F0001003C7F8C0307B681B680C33D7F8C02094
:10570000FA61BB61B969FA6941E800237B617B6991
:10571000002BE3D17B6802225A63B7F8CE301946DA
:10572000786800F03BF823E0D7F8E43003F080031A
:10573000002B09D0D7F8E03003F08003002B03D012
:10574000786800F03EF914E0D7F8E43003F0400345
:10575000002B0ED0D7F8E03003F04003002B08D028
:10576000786800F07DF904E000BF02E000BF00E0CF
:1057700000BFE837BD4680BD80B483B000AF78601D
:1057800000BF0C37BD4680BC704780B483B000AF0B
:10579000786000BF0C37BD4680BC704780B483B0D2
:1057A00000AF78600B467B8000BF0C37BD4680BCE5
:1057B000704780B586B000AFF860B9603B601346B3
:1057C000FB713BE03B6AB3F1FF3F37D0FEF752F885
:1057D00002463B68D31A3A6A9A4202D33B6A002BCC
:1057E00001D103233AE0FB681B68DB6803F0040384
:1057F000002B23D0BB68802B20D0BB68402B1DD052
:10580000FB681B681B6803F00803082B16D10023F4
:105810007B61FB681B681B687B61FB681B685B68BE
:105820007B617B69F86800F056F8FB6808225A64CF
:10583000FB68002283F8402001230FE0FB681B680F
:105840001A68BB681340BA689A420CBF0123002350
:10585000DBB21A46FB799A42B4D0002318461837B7
:10586000BD4680BD80B485B000AFF860B960134616
:10587000FB80FB68BA689A62FB68FA889A85FB68C5
:10588000FA88DA85FB6800225A64FB68222283F8D2
:105890004220FB681B69002B07D0FB681B68DA6895
:1058A000FB681B6842F48072DA60FB681B685A6907
:1058B000FB681B6842F001025A61FB681B68DA68EA
:1058C000FB681B6842F02002DA6000231846143798
:1058D000BD4680BC704780B495B000AF78607B68EF
:1058E0001B680C337B637B6B53E8003F3B633B6B74
:1058F00023F49073FB647B681B680C33FA6C3A6486
:10590000FB63F96B3A6C41E80023BB63BB6B002B74
:10591000E5D17B681B6814333B623B6A53E8003F68
:10592000FB61FB6923F00103BB647B681B681433D4
:10593000BA6CFA62BB62B96AFA6A41E800237B6218
:105940007B6A002BE5D17B681B6B012B19D17B682F
:105950001B680C33FB60FB6853E8003FBB60BB680F
:1059600023F010037B647B681B680C337A6CBA618C
:105970007B617969BA6941E800233B613B69002B8F
:10598000E5D17B68202283F842207B6800221A63DD
:1059900000BF5437BD4680BC704780B584B000AFAF
:1059A00078607B685B6AFB60FB680022DA85FB68D5
:1059B0000022DA84F868FFF7E8FE00BF1037BD4622
:1059C00080BD80B485B000AF78607B6893F84130CB
:1059D000DBB2212B3ED17B689B68B3F5805F14D18D
:1059E0007B681B69002B10D17B681B6AFB60FB681E
:1059F0001B881A467B681B68C2F308025A607B68E2
:105A00001B6A9A1C7B681A6208E07B681B6A591C37
:105A10007A6811621A787B681B685A607B68DB8C35
:105A20009BB2013B9BB27A681946D184002B0FD1FF
:105A30007B681B68DA687B681B6822F08002DA608A
:105A40007B681B68DA687B681B6842F04002DA609A
:105A5000002300E0022318461437BD4680BC70477F
:105A600080B582B000AF78607B681B68DA687B68BD
:105A70001B6822F04002DA607B68202283F8412014
:105A80007868FFF779FE002318460837BD4680BDC9
:105A900080B58CB000AF78607B6893F84230DBB2A1
:105AA000222B40F0AE807B689B68B3F5805F17D1F6
:105AB0007B681B69002B13D10023FB627B689B6A08
:105AC000BB627B681B685B689BB2C3F308039AB236
:105AD000BB6A1A807B689B6A9A1C7B689A6226E084
