:020000040800F2
:1000000000500020F13300081D15000825150008D8
:100010002D150008351500083D15000800000000EA
:10002000000000000000000000000000A17D0008AA
:100030004515000800000000817F0008C97F000806
:1000400039340008393400083934000839340008DC
:1000500039340008393400083934000839340008CC
:1000600039340008393400083934000839340008BC
:1000700039340008393400083934000839340008AC
:10008000393400083934000839340008393400089C
:10009000393400083934000839340008393400088C
:1000A000393400083934000839340008393400087C
:1000B0003934000839340008511500083934000873
:1000C000393400083934000839340008393400085C
:1000D000393400086515000839340008393400083F
:1000E00039340008393400083934000800000000B1
:1000F0000000000000000000000000000000000000
:0C01000000000000000000005FF808F1A3
:1001100010B5054C237833B9044B13B10448AFF341
:1001200000800123237010BDA80100200000000002
:100130003C8F000808B5034B1BB103490348AFF3DC
:10014000008008BD00000000AC0100203C8F0008CA
:10015000034613F8012B002AFBD1181A0138704707
:1001600080B582B000AF0023FB710121174803F076
:10017000B7FE0346002B03D1FB7943F00103FB716B
:100180008021134803F0ACFE0346002B03D1FB791A
:1001900043F00203FB7140210D4803F0A1FE03462A
:1001A000002B03D1FB7943F00403FB7102210748C4
:1001B00003F096FE0346002B03D1FB7943F00803BE
:1001C000FB71FB7918460837BD4680BD000C014025
:1001D0000008014080B483B000AF78600B4B9B787F
:1001E000002B04D1094B9B680133084A9360074BED
:1001F0001B7B002B05D0054BDB8901339AB2034BE7
:10020000DA8100BF0C37BD4680BC7047000000207B
:1002100080B500AF064B00229A60054B01229A7010
:10022000034B01225A71034800F0B0FC00BF80BDAF
:1002300000000020548F000880B582B000AF00237A
:10024000FB71FFF78DFF0346BB71BB7903F00F0312
:10025000002B7FD0594B5B79002B01D0FB79A9E0B3
:10026000564B00229A70BB79033B092B8CBF0122AD
:100270000022D2B2002A10D140F2CD2222FA03F39A
:1002800003F00103002B14BF01230023DBB2002B7A
:1002900003D04B4ABB79137003E04A4ABB79137011
:1002A00000BF494B1B78BA799A4202D0464ABB79C3
:1002B0001370444B1B78082B3AD1404BDB78002B52
:1002C00014D03E4B9B68322B10D93D4B1B78002B32
:1002D00002D03A4B01221A71394B1B78FB71384B13
:1002E00000221A70354B00229A601FE0334B9B6846
:1002F000C72B19D9314BDB78002B0CD12F4B1B7C32
:10030000002B08D11023FB712C4B0122DA702B4BF0
:100310000022DA8105E0294B1B7C002B01D0202331
:10032000FB71FFF775FF01E0002343E0FB7941E03B
:10033000234B1B78002B3CD0204B9B68B3F5FA7FF6
:1003400037D91F4B1B78FB711D4B00221A70FFF72A
:100350005FFF2EE01B4B1B78002B09D01B4B1A783C
:10036000184B1B789A4203D0164B1A78174B1A7009
:10037000124B01229A70114B9B68142B0DD90F4B15
:100380009B68312B09D80D4B1B79002B05D10D4BE8
:100390001B78FB710B4B00221A700B4B00221A705A
:1003A000064B00225A71054B00229A60034B002233
:1003B0001A71FB7918460837BD4680BD0000002041
:1003C000C9010020CA010020CB010020CC0100207F
:1003D00080B584B000AF0346FB710F23FB73574B0E
:1003E000DB78002B70D1FB79013B1F2B6BD801A26E
:1003F00052F823F0C7040008C7040008AF0400083F
:10040000C7040008B70400089F040008C7040008D8
:1004100075040008A7040008C7040008C704000802
:10042000C7040008C7040008C7040008C704000880
:10043000C7040008C7040008C7040008C704000870
:10044000C7040008C7040008C7040008C704000860
:10045000C7040008C7040008C7040008C704000850
:10046000C7040008C7040008C7040008C704000840
:10047000BF040008314B5B780133DAB22F4B5A705E
:100480002E4B5B78052B02D92C4B00225A702B4B3C
:100490005B781A462A4B9A5C284B1A7014E0274B5B
:1004A0000D221A7010E0254B0C221A700CE0234B21
:1004B0000B221A7008E0214B0E221A7004E01F4B29
:1004C00001221A7000E000BF1C4B1B78FA7911461C
:1004D000184601F04DFA0346FB73FB7B0E2B12D836
:1004E000164B1B78FA7B9A420DD0144AFB7B137093
:1004F000124B1B780021184601F03AFA0346FB73B1
:100500000E4B0022DA70FB7B0F2B13D10B4BDB78E9
:10051000002B03D1094B1B7C002B0BD0074B002277
:10052000DA70064B00221A74044B01221A70034B36
:1005300000225A7000BF1037BD4680BD0000002069
:100540001400002080B582B000AF294B1B680A213F
:10055000184605F0B9FA274B00229A70254B9B6884
:10056000B3F5967F0FD3234B01221A70214B1B78D2
:100570000021184601F0FCF91E4B01229A701D4B18
:1005800000229A6003E00A2005F055FAE6E7FFF73B
:1005900053FE0346FB71FB79002B0ED0154B1B7CE1
:1005A000002B06D0FB79202B03D0052005F043FA61
:1005B0001DE0FB791846FFF70BFF0E4B1B7B002B52
:1005C00012D00C4BDB89312B0ED90B4B1B78002B37
:1005D0000AD1094B01221A7001F090F9054B002253
:1005E000DA81054B00221A70052005F024FACEE7C7
:1005F000C401002000000020C801002080B500AF29
:10060000034800F0C3FA034B01221A7400BF80BDF7
:10061000688F00080000002080B483B000AF03465C
:10062000FB71044AFB79137300BF0C37BD4680BCD5
:10063000704700BF0000002080B582B000AF0E4BB5
:100640003B6000237B603B4600220121184605F0F9
:1006500007FA0346094A1360084B1B68002B05D1B3
:10066000074800F093FA4FF0FF3300E000231846EC
:100670000837BD4680BD00BFD5010008C401002079
:10068000808F000880B500AF084800F07FFA084A64
:10069000084B1046194647231A4607F0F5FF472135
:1006A000034800F099F800BF80BD00BFA48F000888
:1006B000D00100201C00002080B500AF084800F0E9
:1006C00021F80346002B01D0FFF7DCFF054B044A5D
:1006D0001A60054A4721024800F0AAFA00BF80BD0F
:1006E000D001002018020020C88F000880B500AF9C
:1006F0004721034800F070F80346184680BD00BF4C
:10070000D001002080B582B000AF786047217868C2
:1007100000F04EF87B681B68102B04D0044800F0F2
:1007200035FA012300E0002318460837BD4680BD96
:10073000D48F000890B587B000AF03F0B3F8002362
:100740003B60174BBB600123FB6007F110023B4687
:100750001146184603F098F903467B617B69002B2C
:1007600017D03C6903F0D4F803461A4621460D48D9
:1007700000F00CFA03F0BCF87B69002B09D00A48A2
:1007800000F004FA7A692221084800F0FFF97B6939
:1007900002E003F0ADF8002318461C37BD4690BDBB
:1007A00000F80008FC8F000824900008489000081A
:1007B00080B584B000AF78603960064BFB60FB68A1
:1007C0003A681946786807F05FFF00BF1037BD46EA
:1007D00080BD00BF00F80008B0B586B000AF7860FB
:1007E000396000237B61204B3B617B68FB60FFF736
:1007F000A1FF0346002B02D04FF0FF332FE003F0A0
:1008000051F825E0FB681B88BB60BB6800221C46D2
:10081000154622462B463969012002F0D3FF0346D4
:10082000002B0CD003F074F801467B693A680F483E
:1008300000F0ACF903F05CF84FF0FF330FE0FB6819
:100840000233FB607B6902337B613B6902333B61AE
:100850003B687A699A42D5D303F04AF800231846D8
:100860001837BD46B0BD00BF00F800087C900008F6
:1008700080B584B000AF0346FB71FB79002B16D125
:100880000023FB600FE01A4AFB6852F83300184A55
:10089000FB68DB0013449B880122194603F037FBF9
:1008A000FB680133FB60FB68072BECDD1DE00023D8
:1008B000FB6017E0FA79FB6842FA03F303F00103E7
:1008C000002B0CD00A4AFB6852F83300084AFB6838
:1008D000DB0013449B880022194603F018FBFB68D9
:1008E0000133FB60FB68072BE4DD1037BD4680BD9C
:1008F0006400002080B485B000AF0346FB71114B4B
:100900001B8801335A4203F07F0302F07F0258BF75
:100910005342FB600B4B5B881A46FB6893420BD03B
:10092000084B1B881A46074B1344FA791A71FB6867
:100930009AB2044B1A8000E000BF1437BD4680BC59
:10094000704700BF2002002080B483B000AF786001
:10095000114B1A88104B5B889A4201D1002315E095
:100960000D4B5B881A460C4B13441A797B681A703E
:10097000094B5B8801335A4203F07F0302F07F0288
:1009800058BF53429AB2044B5A80012318460C3781
:10099000BD4680BC704700BF2002002080B582B0F9
:1009A00000AF0023BB710023FB712CE01C4B5B8963
:1009B000002B02D1BB79DF2B24D1194B5B89092B8A
:1009C00009D8174B5B895A1C91B2154A51811A46B6
:1009D000B979134B9954124BDB681B02BA79134354
:1009E0000F4AD3600E4BDB684FF6FF6293420AD189
:1009F0000B4B5B89FB710A4B0022DA60084B00222B
:100A00005A8100E000BFBB1D1846FFF79DFF03465B
:100A1000002BCBD1FB7918460837BD4680BD00BFFF
:100A2000A402002080B582B000AFFFF7B7FF0346F5
:100A3000FB80FB88002B08D0064B5B78332B04D15E
:100A4000044B9B781846FFF713FF0A2004F0F3FFCE
:100A5000EBE700BFA402002080B582B000AF786051
:100A60007B681B68084A934209D1084B1B781846DB
:100A7000FFF740FF01220549054804F0D2F900BF05
:100A80000837BD4680BD00BF003801401C02002071
:100A9000F40A002080B586B000AF03463A60FB71CF
:100AA0000B46BB71164A07F1080307CA03C31A8035
:100AB000FB79BB72BB79FB7200233B7300237B7312
:100AC0003B681B0ADBB2BB733B68DBB2FB7307F10D
:100AD00008014FF47A730A220A4804F017F9034612
:100AE0007B617B69002B05D0074800F04FF86FF061
:100AF000040300E0002318461837BD4680BD00BF40
:100B0000D4900008F40A0020B890000880B500AF27
:100B100001220349034804F084F90023184680BDEC
:100B20001C020020F40A002080B485B000AFF860F9
:100B3000B9607A60FB68064A1A60BB68054A1A60A9
:100B40007B6880221A6000BF1437BD4680BC7047A6
:100B5000B40200205403002080B485B000AFF860D8
:100B6000B9607A60FB68074A1A60BB68064A1A6077
:100B70007B684FF480721A6000BF1437BD4680BC9A
:100B8000704700BF54050020F40500200FB480B565
:100B900082B000AF00237B6007F114037B607B68A9
:100BA0003A69FF210A4807F0CFFC0948FFF7D0FA5D
:100BB00003469AB26FF07F430549064804F0A6F851
:100BC00000BF0837BD46BDE8804004B0704700BF95
:100BD000F40900203C0B002080B584B000AF7860A1
:100BE00039600023FB6012E0FA683B689A4208DA39
:100BF000FB687A6813441B7819460A48FFF7C6FF5A
:100C000002E00948FFF7C2FFFB680133FB60FB68A5
:100C1000072BE9D90548FFF7B9FF00BF1037BD46DC
:100C200080BD00BFE0900008E8900008EC9000084C
:100C300080B586B000AFF860B9607A60FB687B6110
:100C40007868FFF7A3FF0D48FFF7A0FF0CE0B96835
:100C50007869FFF7C1FFBB68072B09D9BB68083B60
:100C6000BB607B6908337B61BB68002BEFDC00E075
:100C700000BF00BF1837BD4680BD00BFEC90000824
:100C800080B400AF024B1846BD4680BC704700BF21
:100C9000A4920008F0B585B004AF7748FFF776FF5F
:100CA0007648FFF773FF4D233F2B17D03223303B9D
:100CB0004FF47A7203FB02F23023303B642101FBD4
:100CC00003F3D1183223A3F1300213469B001344DF
:100CD0005B00CA183523303BD41800E063244D2351
:100CE0003F2B67D04D234A2B05D16123612B02D1C5
:100CF00072236E2B5CD04D23462B56D04D234D2BAB
:100D000005D16123612B02D17223722B4BD04D236D
:100D1000412B02D16123702B42D04D234D2B05D1A5
:100D20006123612B02D17223792B36D04D234A2BBC
:100D300005D16123752B02D172236E2B2AD04D234E
:100D40004A2B05D16123752B02D172236C2B1ED047
:100D50004D23412B02D16123752B15D04D23532BED
:100D600010D04D234F2B0BD04D234E2B06D04D23AF
:100D7000442B01D10C2209E0632207E00B2205E09D
:100D80000A2203E0092201E0082202E001E0072232
:100D900002E001E0062202E001E0052202E001E0BB
:100DA000042204E003E0032205E0022203E002E063
:100DB000012200E063224D233F2B10D032232F2B42
:100DC00008D93223A3F130010B469B000B445B0092
:100DD000194600E000213023303BCD1800E06325A8
:100DE00030233F2B0CD03023A3F130010B469B0066
:100DF0000B445B00194639230B44A3F1300100E09A
:100E0000632130233F2B0CD03323A3F13000034662
:100E10009B0003445B00184634230344A3F13000D5
:100E200000E0632030233F2B0BD03123A3F13006A9
:100E300033469B0033445B001E4637233344303B2C
:100E400000E063230293019000912B4621460C4859
:100E5000FFF79CFEFFF714FF034619460948FFF70A
:100E600095FE09490948FFF791FE0348FFF78EFEFA
:100E700000BF0437BD46F0BDB8920008F8920008E4
:100E80001C93000850930008649300086C930008BA
:100E900080B500AFFFF73AFE0346002B02D04FF0BB
:100EA000FF330AE0FFF708FCFFF7C6FB0346002B01
:100EB00002D04FF0FF3300E00023184680BD000051
:100EC000B0B590B000AF02F0B9FA00F05FF800F0F2
:100ED000F9F800F0A3F800F0CBF8FFF7DBFEFFF71E
:100EE000D7FF224BBB630023FB6307F138030022CB
:100EF0000121184604F0B4FD03461D4A13601D4B42
:100F000007F11C041D460FCD0FC495E8070084E8C7
:100F1000070007F11C030021184604F040FD0346BA
:100F2000154A1360154B3C461D460FCD0FC495E87E
:100F3000070084E807003B460021184604F02FFD17
:100F400003460F4A13600C4B1B68002B02D10D485F
:100F5000FFF71CFE0A4B1B68002B02D10A48FFF763
:100F600015FE04F015FD00BFFDE700BF49120008A3
:100F70008C0B0020D8930008840B002000940008FC
:100F8000880B002084930008A893000880B590B0D7
:100F900000AF07F1180328220021184607F0E2FAF3
:100FA0003B1D00221A605A609A60DA601A610923B8
:100FB000BB614FF48033FB6100233B620123BB62C2
:100FC00001233B6302237B634FF48033BB634FF405
:100FD000E013FB6307F11803184602F0C9FF03464C
:100FE000002B01D000F052F90F237B600223BB607D
:100FF0000023FB604FF480633B6100237B613B1D5A
:101000000221184603F036FA0346002B01D000F007
:101010003DF900BF4037BD4680BD000080B500AF40
:10102000114B124A1A60104B4FF4E1325A600E4BCA
:1010300000229A600C4B0022DA600B4B00221A61EE
:10104000094B0C225A61084B00229A61064B002280
:10105000DA61054803F00AFE0346002B01D000F0D8
:1010600015F900BF80BD00BFF40A00200038014020
:1010700080B500AF114B124A1A60104B4FF4E132A9
:101080005A600E4B00229A600C4B0022DA600B4B28
:1010900000221A61094B0C225A61084B00229A6106
:1010A000064B0022DA61054803F0E0FD0346002B01
:1010B00001D000F0EBF800BF80BD00BF3C0B00206A
:1010C0000044004080B588B000AF07F11003002253
:1010D0001A605A609A60DA60454B9B69444A43F053
:1010E00010039361424B9B6903F01003FB60FB68A4
:1010F0003F4B9B693E4A43F0200393613C4B9B6905
:1011000003F02003BB60BB68394B9B69384A43F04E
:1011100004039361364B9B6903F004037B607B6897
:10112000334B9B69324A43F008039361304B9B6910
:1011300003F008033B603B6800224FF400512D4848
:1011400002F0E5FE00224FF2F8312B4802F0DFFEFC
:1011500000224FF41941294802F0D9FE4FF4005300
:101160003B6101237B610023BB610223FB6107F12B
:10117000100319461F4802F02FFDC0233B610023D6
:101180007B610023BB6107F1100319461B4802F085
:1011900023FD03233B6100237B610023BB6107F137
:1011A00010031946144802F017FD4FF2F8333B6163
:1011B00001237B610023BB610223FB6107F1100364
:1011C00019460D4802F008FD4FF419433B61012315
:1011D0007B610023BB610223FB6107F11003194609
:1011E000064802F0F9FC00BF2037BD4680BD00BFB5
:1011F0000010024000100140000C014000080140B6
:1012000080B582B000AF78600948FFF7BFFC00F0FE
:10121000FBFA00F035FB074B1B684FF4FA711846D8
:1012200004F052FCFFF78EF900BF0837BD4680BDC1
:101230001C9400088C0B002080B582B000AF786051
:10124000FFF7F0FBFCE7000080B582B000AF7860EC
:101250004FF40051034802F072FE00BF0837BD464C
:1012600080BD00BF0010014080B582B000AF786043
:101270007B681B68044A934201D102F0F5F800BF75
:101280000837BD4680BD00BF0008004080B400AFF5
:1012900072B600BF00BFFDE780B584B000AF184B49
:1012A0009B69174A43F001039361154B9B6903F057
:1012B0000103BB60BB68124BDB69114A43F08053EA
:1012C000D3610F4BDB6903F080537B607B680022A6
:1012D0000F216FF0010002F098F90A4B5B68FB6088
:1012E000FB6823F0E063FB60FB6843F00073FB6086
:1012F000044AFB68536000BF1037BD4680BD00BF85
:10130000001002400000014080B58AB000AF786054
:1013100007F1180300221A605A609A60DA607B684D
:101320001B683B4A93423AD13A4B9B69394A43F492
:1013300080439361374B9B6903F480437B617B69F6
:10134000344B9B69334A43F004039361314B9B69EF
:1013500003F004033B613B694FF40073BB6102235C
:10136000FB6103237B6207F1180319462A4802F048
:1013700033FC4FF48063BB610023FB6100233B62BD
:1013800007F118031946244802F026FC0022052123
:10139000252002F03AF9252002F053F934E07B6869
:1013A0001B681E4A93422FD11A4BDB69194A43F43A
:1013B0000033D361174BDB6903F40033FB60FB6838
:1013C000144B9B69134A43F004039361114B9B69CF
:1013D00003F00403BB60BB680423BB610223FB6111
:1013E00003237B6207F1180319460B4802F0F4FB54
:1013F0000823BB610023FB6100233B6207F1180354
:101400001946054802F0E8FB00BF2837BD4680BDFD
:101410000038014000100240000801400044004034
:1014200080B58EB000AF78600023FB620023BB6202
:10143000002387F83330344BDB69334A43F004032D
:10144000D361314BDB6903F00403FB60FB6807F1F8
:10145000100207F114031146184603F07BF93B6AAA
:10146000FB62FB6A002B03D103F04CF9786304E0C4
:1014700003F048F903465B007B637B6B234AA2FBC6
:1014800003239B0C013BBB62214B224A1A60204B79
:1014900040F2E732DA601E4ABB6A53601C4B0022FE
:1014A0001A611B4B00229A60194B00229A6118485E
:1014B00003F09EF9034687F8333097F83330002B5A
:1014C0001BD1134803F0ECF9034687F8333097F843
:1014D0003330002B11D11E2002F0B3F87B680F2BA4
:1014E00008D8002279681E2002F08FF80A4A7B682B
:1014F000136002E0012387F8333097F83330184641
:101500003837BD4680BD00BF0010024083DE1B435C
:10151000900B0020000800404C01002080B400AF78
:1015200000BFFDE780B400AF00BFFDE780B400AFAF
:1015300000BFFDE780B400AF00BFFDE780B400AF9F
:1015400000BFFDE780B400AF00BFBD4680BC704760
:1015500080B500AF024803F0F5F900BF80BD00BFC1
:10156000900B002080B500AF024803F07FFC00BF65
:1015700080BD00BFF40A002080B586B000AF78605F
:10158000144A154BD31A7B617B693B61134B1B6873
:10159000002B02D1114B124A1A60104B1A687B685B
:1015A00013443A699A4207D207F042F803460C22E4
:1015B0001A604FF0FF3309E0084B1B68FB60074BD4
:1015C0001A687B681344054A1360FB68184618378D
:1015D000BD4680BD0050002000040000D80B002054
:1015E0007020002080B400AF00BFBD4680BC7047B3
:1015F00080B584B000AF78600B46FB70FB78DB00F1
:10160000FB700023FB730CE0FB7B7A6813441B78B0
:10161000184600F083F8012004F00DFAFB7B01333B
:10162000FB73FA7BFB789A42EED300BF00BF103702
:10163000BD4680BD80B500AF01224FF480710748E0
:1016400002F065FC022004F0F6F900224FF48071EC
:10165000024802F05CFC00BF80BD00BF00080140F2
:1016600080B582B000AF0346FB71FB7903F0010344
:10167000DBB21A464FF40041164802F048FCFB79F1
:101680005B10DBB203F00103DBB21A464FF480417A
:10169000104802F03CFCFB799B10DBB203F0010325
:1016A000DBB21A464FF400510A4802F030FCFB79D5
:1016B000DB10DBB203F00103DBB21A464FF48051BA
:1016C000044802F024FCFFF7B5FF00BF0837BD4611
:1016D00080BD00BF000C014080B582B000AF034662
:1016E000FB7100224FF480510B4802F010FCFB7993
:1016F0001B09DBB21846FFF7B3FFFB7903F00F03BA
:10170000DBB21846FFF7ACFF022004F094F900BFEB
:101710000837BD4680BD00BF0008014080B582B0DB
:1017200000AF0346FB7101224FF480510B4802F0D9
:10173000EEFBFB791B09DBB21846FFF791FFFB7943
:1017400003F00F03DBB21846FFF78AFF022004F014
:1017500072F900BF0837BD4680BD00BF00080140D8
:1017600080B582B000AF78607B685A1C7A601B78C5
:101770001846FFF7D3FF7B681B780A2BF4D100BF14
:1017800000BF0837BD4680BD80B500AF0120FFF720
:10179000A3FF022004F04FF900BF80BD80B500AF69
:1017A0000C20FFF799FF00BF80BD80B500AF0E2071
:1017B000FFF792FF00BF80BD80B582B000AF034647
:1017C0000A46FB711346BB71BB79013BBB71FB79C8
:1017D000012B02D0022B09D011E0BB7963F07F030B
:1017E000BB71BB791846FFF777FF08E0BB7963F060
:1017F0003F03BB71BB791846FFF76EFF00BF00BF08
:101800000837BD4680BD000080B500AF01224FF40F
:101810008071194802F07BFB00224FF4805116487A
:1018200002F075FB00224FF40061134802F06FFBD9
:101830003320FFF751FF042004F0FDF83220FFF7BA
:101840004BFF042004F0F7F82820FFF745FF0C2099
:10185000FFF742FF0620FFF73FFFFFF795FFC82085
:1018600004F0E9F84020FFF737FF06210348FFF7AF
:10187000BFFE00BF80BD00BF00080140A8000020DF
:1018800080B586B000AF4A220021154806F06AFEF6
:10189000144B1B68144A1046194647231A4606F093
:1018A000F3FE3B1D114A1249184606F0FDFD3B1D93
:1018B00019461048FFF76AF902210120FFF77CFF63
:1018C0003B1D1846FFF74CFF01210220FFF774FF74
:1018D0000948FFF745FF00BF1837BD4680BD00BF70
:1018E000DC0B002018020020280C00205D0C0020DA
:1018F00034940008389400084C94000880B500AF78
:10190000104B1B7B002B1AD00E4B9B7B01211846E2
:10191000FFF752FF0B4B5B7B83F00103DAB2094BFD
:101920005A73084B5B7B1A4613469B0013449B007B
:101930000833044A134407331846FFF711FF00BF6A
:1019400080BD00BFDC0B002080B582B000AF034635
:10195000FB710B46BB711346BB80BA88B979FB7922
:101960001846FFF797F800BF0837BD4680BD000056
:1019700080B586B000AF03460A46FB711346BB71C3
:101980000D233B61FB793B72BB799BB27B810023CA
:101990007B6115E00E4A7B6912F83330FA799A427E
:1019A0000BD10B4A7B69DB0013445B6807F108022B
:1019B00092E803009847034606E07B6901337B61A8
:1019C0003B69002BE6D10F2318461837BD4680BD72
:1019D000D800002090B591B002AF0346FB7107F12B
:1019E000200300221A605A609A60DA601A6107F1D7
:1019F0000C0300221A605A609A60DA601A61A94BDF
:101A00009B7887F83730A74B9B78013387F83630BF
:101A1000FB790E2B00F2C58101A252F823F000BF22
:101A20005D1A00088D1A0008BD1A0008EF1A000898
:101A3000391B0008611B0008891B0008A91B00084E
:101A4000E71B00083B1C00080B1C0008551C000885
:101A5000711C00088B1C0008311D000897F8362007
:101A600007F120039049184606F01EFD97F837301D
:101A70008E4A5B001344B3F807309BB21A4607F155
:101A80000C038B49184606F00FFD8AE197F83620C3
:101A900007F120038749184606F006FD97F837300E
:101AA000824A5B001344B3F807309BB21A4607F131
:101AB0000C038149184606F0F7FC72E197F83620CE
:101AC00007F120037D49184606F0EEFC97F8373001
:101AD000764A08335B001344B3F807309BB21A46CA
:101AE00007F10C037449184606F0DEFC59E197F83B
:101AF000362007F120037249184606F0D5FC97F806
:101B000037306A4A134493F82730002B01D06D4ACE
:101B100000E06D4A07F10C036C49184606F0C4FC5E
:101B200007F10C0311221946694806F0ADFD694919
:101B3000694806F0B9FC34E107F12003674918460B
:101B400006F0B2FC594B1B79002B01D0644A00E02F
:101B5000644A07F10C036449184606F0A5FC20E12D
:101B600007F120036149184606F09EFC4F4B1B7994
:101B7000002B01D05A4A00E05A4A07F10C035A4997
:101B8000184606F091FC0CE107F12003584918466D
:101B900006F08AFC454B5B791A4607F10C03554960
:101BA000184606F081FCFCE007F120035249184674
:101BB00006F07AFC3D4B93F82F3019463B4B93F8D7
:101BC00030301C46394B93F831301A46374B93F876
:101BD000323007F10C000193009223460A46474930
:101BE00006F062FCDDE007F120034349184606F0E9
:101BF0005BFC2E4BB3F833309BB21A4607F10C0353
:101C00003F49184606F050FCCBE007F120033A4963
:101C1000184606F049FC234B5B78012B06D107F1EF
:101C20000C033849184606F03FFCBAE007F10C03F4
:101C30003549184606F038FCB3E007F12003334974
:101C4000184606F031FC07F10C033149184606F03E
:101C50002BFCA6E007F120032E4A2F49184606F078
:101C600023FC07F10C032D49184606F01DFC98E0F3
:101C700007F120032A49184606F016FC07F10C0369
:101C80002849184606F010FC8BE007F1200326498E
:101C9000184606F009FC07F10C032449184606F023
:101CA00003FC7EE0DC0B002060940008280C002080
:101CB000749400088494000898940008A89400087C
:101CC000BC940008D0940008D8940008E094000860
:101CD000EB0B0020F0940008FF0B00200495000897
:101CE00018950008209500082895000838950008E8
:101CF0004C950008609500087495000888950008C8
:101D0000A0950008B4950008C8950008DC95000867
:101D1000F09500085D0C0020049600084C94000823
:101D20000C96000820960008349600084896000893
:101D3000274B93F84530274AA2FB0323DB08DBB28D
:101D40001C46234B93F84520224BA3FB0213D908D2
:101D50000B469B000B445B00D31ADBB207F120005B
:101D600022461D4906F0A0FB194B93F84630194A4C
:101D7000A2FB0323DB08DBB21C46154B93F846207D
:101D8000144BA3FB0213D9080B469B000B445B00CA
:101D9000D31ADBB207F10C002246104906F084FB8F
:101DA00000BF01210120FFF707FD07F120031846BE
:101DB000FFF7D6FC01210220FFF7FEFC07F10C0320
:101DC0001846FFF7CDFC00BF3C37BD4690BD00BFB5
:101DD000280C0020CDCCCCCC5C9600087496000872
:101DE00080B584B000AF03463960FB80FB88FB60A0
:101DF000FB88002B08D11B4B5B7A01331A4600216C
:101E0000386806F0AFFB2AE0164B5B7ABB6023E034
:101E1000BB683A681344FF221A70FB68002B18D085
:101E2000FA68114B83FB02139910D317C91A0B469A
:101E30009B000B445B00D11ABB683A6813444AB25A
:101E40001A70FB68084A82FB03129210DB17D31A40
:101E5000FB60BB68013BBB60BB68002BD8DA103766
:101E6000BD4680BDDC0B00206766666680B485B029
:101E700000AF78600023BB600023FB6016E0FB68C6
:101E80007A68134493F90030002B0CDBBA681346D0
:101E90009B0013445B001946FB687A68134493F96E
:101EA00000300B44BB60FB680133FB60054B5B7A81
:101EB0001A46FB689342E2DDBB6818461437BD46FC
:101EC00080BC7047DC0B002080B584B000AF3B467F
:101ED00083E80300624BFB60624B0022DA707B8870
:101EE000202B00F2B18001A252F823F0711F0008EC
:101EF000B91F0008811F0008492000089D1F000825
:101F0000492000084920000849200008492000080D
:101F100049200008492000084920000849200008FD
:101F20004920000849200008492000080320000833
:101F300049200008492000084920000849200008DD
:101F400049200008492000084920000849200008CD
:101F500049200008492000084920000849200008BD
:101F6000492000084920000849200008711F000886
:101F70003C4B9B78072B69D93A4B00229A7065E05D
:101F8000384B9B7801335A4203F0070302F00702F3
:101F900058BF5342DAB2334B9A7058E0314B9B78BA
:101FA00007335A4203F0070302F0070258BF5342B7
:101FB000DAB22C4B9A704AE02A4B9A782A4B1B785B
:101FC0009A4206D0294B00221A70264B9A78264B4B
:101FD0001A70264B1B7810333B4413F8043C184608
:101FE000FFF7F8FC214B1B780133DAB21F4B1A7054
:101FF0001E4B1B78032B02D91C4B00221A700F2397
:1020000029E00120FFF7E6FC164B9B78184A5B009D
:102010001344B3F807309AB2124B5A81114B0D2278
:10202000DA70104B04225A720E4B5B891149184624
:10203000FFF7D6FE0B4BDB7819460220FFF7BCFBFF
:10204000FFF7B3FB022306E000BF00E000BF002063
:10205000FFF7C0FC0F2318461037BD4680BD00BFF8
:1020600001020304DC0B0020480100206F0C00205B
:10207000280C0020E00B002080B590B000AF3B465C
:1020800083E803003B7887F83F30BA4BDB7887F86A
:102090003730B84BDB78093B87F83630002387F8B8
:1020A0003E30B44B9B7887F835307B88013B0B2B57
:1020B00000F2698101A252F823F000BF71220008EA
:1020C000ED200008872300089121000887230008DD
:1020D00087230008872300080923000887230008B6
:1020E000352200088723000853220008A14B93F9EA
:1020F0000430052B06D197F83630002B02D097F824
:102100003F3081E197F83630002B21D197F83630F7
:10211000984A1A4492F90420D2B20132D2B251B292
:10212000944A13440A461A7197F83630914A134478
:1021300093F90430052B05DD97F836308D4A1344AA
:1021400000221A71042200218B4806F00BFA1BE0D2
:1021500097F83630874A1A4492F90420D2B20132F5
:10216000D2B251B2834A13440A461A7197F83630F4
:10217000804A134493F90430092B05DD97F8363073
:102180007C4A134400221A71012387F83E30FAE09A
:10219000784B93F90430052B06D197F83630002B95
:1021A00002D097F83F302FE197F83630002B21D13D
:1021B00097F836306F4A1A4492F90420D2B2013AA5
:1021C000D2B251B26B4A13440A461A7197F83630AC
:1021D000684A134493F90430002B05DA97F8363037
:1021E000644A134405221A7104220021624806F051
:1021F000B9F91BE097F836305E4A1A4492F9042088
:10220000D2B2013AD2B251B25A4A13440A461A71B2
:1022100097F83630574A134493F90430002B05DA07
:1022200097F83630534A134409221A71012387F86C
:102230003E30A8E04F4BDB78013BDAB24D4BDA7011
:102240004C4BDB78082B00F292804A4B0D22DA705F
:102250008DE0484BDB780133DAB2464BDA70454B00
:10226000DB780D2B40F28E80424B0922DA7089E038
:102270003B78022B19D14148FFF7F8FD024697F849
:10228000353091B23E4A5B0013440A46A3F807205A
:10229000B22387F83D3097F83530394A5B00134454
:1022A000B3F807309BB2BB631AE03448FFF7DEFD9A
:1022B000024697F8353091B2314A08335B00134437
:1022C0000A46A3F80720B32387F83D3097F8353046
:1022D0002B4A08335B001344B3F807309BB2BB634F
:1022E00000F0A0F803460F2B05D0102387F83F30ED
:1022F00097F83F3088E0BB6B9AB297F8351097F8A3
:102300003D301846FFF720FB3B78022B26D10220F8
:10231000FFF760FB032387F83F3097F83530184A02
:1023200008335B001344B3F807309AB2114B5A815B
:10233000104B0D22DA700F4B04225A720D4B5B8941
:102340000E491846FFF74CFD0A4BDB781946022070
:10235000FFF732FA012387F83E3014E00320FFF73D
:1023600039FB042387F83F30FFF718FA0BE000BF72
:1023700009E000BFDC0B0020E10B0020E00B002097
:10238000280C002000BF97F83E30002B2ED03B7861
:10239000022B09D197F835305A1C07F120031C494C
:1023A000184606F081F808E097F835305A1C07F116
:1023B00020031849184606F077F81748FFF756FD2E
:1023C000024607F10C031549184606F06DF8012185
:1023D0000220FFF7F1F907F10C031846FFF7C0F9E7
:1023E0000F4BDB7819460220FFF7E6F90C4BDB7840
:1023F00097F837209A4205D0094BDB78194602201E
:10240000FFF7DAF997F83F3018464037BD4680BDF0
:1024100084940008A8940008E00B00208C96000823
:10242000DC0B002080B500AF094B1B68094A184639
:10243000114647231A4606F027F9FEF757F90346D7
:10244000002B01DA102300E00F23184680BD00BFE7
:1024500018020020280C002080B500AFFEF7CEF84F
:10246000044B5B781A460021C020FFF76DFA00BFCD
:1024700080BD00BFDC0B002080B584B000AF3B46C0
:1024800083E803003B78FB7300237B73FB7B042B07
:1024900008D1794B9B781A46784B134493F8273030
:1024A000BB7302E0754B1B79BB737B88013B0F2B21
:1024B00000F2D98001A252F823F000BF8F25000856
:1024C000FD24000867260008FD2400086726000890
:1024D00067260008672600084B26000867260008C4
:1024E0006726000867260008672600086726000898
:1024F0006726000867260008DD2500085E4B1B786C
:10250000002B01D1FB7BB2E0BB7B83F00103BB73EB
:10251000FB7B042B1BD1BB7B002B01D1584B00E074
:10252000584B1A465849594805F0BEFFBB7B002B53
:1025300014BF01230023D9B24F4B9B781A464F4B4F
:1025400013440A4683F82720B8237B7315E0BB7B2E
:10255000002B01D14E4B00E04E4B1A464E494B48E2
:1025600005F0A2FFBB7B002B14BF01230023DBB2CD
:102570001A46424B1A71B1237B733F4B9B7B01215F
:102580001846FFF719F94148FFF7EAF86EE03A4BB1
:102590001B78002B1FD0384B00221A73364B0022B9
:1025A0001A70354B1B7B1846FEF736F8FFF73AFFDB
:1025B0000346FB73FB7B0F2B01D0102357E02E4B00
:1025C0009978BB7B9AB27B7B1846FFF7BDF9002058
:1025D000FFF700FA4AE00123FB7347E0FB7B042B83
:1025E0000FD1BB7B012B01D1264B00E0244B1A46B7
:1025F0002549264805F058FF2849294805F054FF89
:1026000011E0BB7B012B01D1224B00E0204B1A468D
:1026100021491E4805F048FF2249214805F044FFA2
:102620000520FFF7D7F9144B00225A73124B0222F0
:102630009A73114B01221A730F4B01221A700E4B21
:102640001B7B1846FDF7E8FF10E0FB7B042B03D152
:102650000320FFF7BFF908E0FB7B052B05D1042021
:10266000FFF7B8F901E000BF00E000BFFB7B1846B0
:102670001037BD4680BD00BFDC0B0020280C0020B9
:10268000D8940008D0940008E0940008EB0B0020D8
:10269000209500081895000828950008F094000877
:1026A000FF0B0020A096000880B584B000AF3B4629
:1026B00083E803003B78FB73494B5B79BB737B88F2
:1026C000013B0F2B78D801A252F823F03D270008D8
:1026D0000D270008B927000825270008B92700089A
:1026E000B9270008B9270008A9270008B92700085A
:1026F000B9270008B9270008B9270008B92700083A
:10270000B9270008B927000885270008344B5B79F2
:102710005A1CD1B2324A5171092B4FD9304B012288
:102720005A714BE02E4B5B795A1ED1B22C4A517133
:10273000012B45D82A4B0A225A7141E0294B1B78BC
:10274000002B17D0FFF72AF8FFF76CFE0346FB7348
:10275000FB7B102B01D1FB7B3EE0224B5B781A46C2
:102760000021C220FFF7F0F80723FB731D4B002266
:102770001A7028E01B4B01225A700A23FB73FFF7E3
:102780006BFE20E0174B01221A70164B0E22DA70F6
:102790000620FFF71FF9134BDB7819460220FFF7DD
:1027A0000BF8FFF702F80EE00E4B1B78002B09D157
:1027B0000620FFF70FF905E000BF04E000BF02E0CC
:1027C00000BF00E000BF064B5B79BA7B9A4202D0A3
:1027D0000620FFF7FFF8FB7B18461037BD4680BD8B
:1027E000280C0020DC0B002080B584B000AF78609E
:1027F0000B46FB707868FFF739FB0346FB81174BEC
:1028000093F844307B73FB89FF2B22D97B7B002B11
:1028100003D17B6800221A701BE0FB78002B05D0E7
:102820007B7B7A68134400221A7012E07B7B012BB9
:102830000AD17B6802331B78052B05D97B7B7A682C
:10284000134404221A7004E07B7B7A681344052247
:102850001A7000BF1037BD4680BD00BFDC0B0020E2
:10286000F0B58FB002AF3B4683E803003B7887F8B2
:102870002F30002387F82730AD4BDB7887F82630E0
:102880007B88013B0F2B00F2D38101A252F823F089
:102890001F2B0008D1280008312C0008D12800087F
:1028A000312C0008312C0008312C0008212C0008A4
:1028B000312C0008232A0008312C0008A12A000826
:1028C000312C0008312C0008312C0008B32B0008F3
:1028D000974B1B78002B02D197F82F30BDE1944B1A
:1028E00093F843301A4613465B0013443033904A42
:1028F0001344DA1D07F120031188927819809A7029
:102900007B88022B23D18A4B93F8443030333B44ED
:1029100013F8103C092B08D1854B93F84430303321
:102920003B44002203F8102C0DE0814B93F8443017
:1029300003F130023A4412F8102C0132D2B2303393
:102940003B4403F8102C012387F827301FE0784B15
:1029500093F8443030333B4413F8103C002B08D13B
:10296000734B93F8443030333B44092203F8102C66
:102970000DE06F4B93F8443003F130023A4412F803
:10298000102C013AD2B230333B4403F8102C97F8A4
:10299000272007F1200311461846FFF725FF644B57
:1029A00093F843301A4613465B0013443033604AB1
:1029B000134407331A4607F1200319889B781180C6
:1029C00093705C48FFF752FA0346DBB21D465A4843
:1029D000FFF74CFA0346DBB21E465848FFF746FAAB
:1029E0000346DBB21C465648FFF740FA0346DBB20B
:1029F00007F10C000193009433462A46514905F033
:102A000053FD01210220FEF7D7FE07F10C03184603
:102A1000FEF7A6FE464BDB7819460220FEF7CCFEF9
:102A20000DE1434B1B78002B02D197F82F3014E1B6
:102A30003F4BDB78013BDAB23D4BDA703C4BDB7845
:102A4000002B0AD13A4B0F22DA70394B032283F85C
:102A50004320374B022283F84420354B93F844300F
:102A6000013BDAB2324B83F84420314BDB7803F080
:102A70000303DBB2002B40F0DD802D4BDB78013B04
:102A8000DAB22B4BDA702A4B93F84330013BDAB2BF
:102A9000274B83F84320264B022283F84420C9E0C9
:102AA000234B1B78002B02D197F82F30D5E0204B19
:102AB000DB780133DAB21E4BDA701D4BDB780E2B5C
:102AC0000AD91B4B0122DA70194B002283F84320EC
:102AD000174B002283F84420154B93F84430013300
:102AE000DAB2134B83F84420114BDB7803F0030375
:102AF000DBB2002B40F0A0800D4BDB780133DAB263
:102B00000B4BDA700A4B93F843300133DAB2084BBF
:102B100083F84320064B002283F844208CE0044BCA
:102B20001B78002B3CD0FEF739FE0023BB6221E06E
:102B3000DC0B0020130C0020160C0020190C0020C8
:102B40001C0C002088950008BA6A13465B001344E9
:102B50003033444A134407331846FFF787F90346D6
:102B6000D9B2414ABB6A13442F330A461A70BB6A72
:102B70000133BB62BB6A032BE6DDFFF753FC034660
:102B800087F82F30374B00221A7097F82F30102B10
:102B900002D197F82F3060E0082387F82F304EE0FD
:102BA000304B02225A700A2387F82F30FFF754FC6B
:102BB00045E02C4B02225A720023BB6213E02A4AE2
:102BC000BB6A13442F331B781846BA6A13465B005E
:102BD00013443033234A134407331946FFF700F9EF
:102BE000BB6A0133BB62BB6A032BE8DD1D4B0F22BE
:102BF000DA701C4B032283F843201A4B022283F81D
:102C00004420184B01221A70164BDB78194602201B
:102C1000FEF7D2FDFEF7C9FD0720FEF7DBFE0EE052
:102C2000104B1B78002B09D10720FEF7D3FE05E0DF
:102C300000BF04E000BF02E000BF00E000BF094B9E
:102C4000DB7897F826209A4205D0064BDB781946A8
:102C50000220FEF7B1FD97F82F3018463437BD46F5
:102C6000F0BD00BFDC0B0020280C002080B58CB02C
:102C700000AF3B4683E803003B7887F82F30B74B23
:102C8000DB7887F8233001237B627B88102B00F2EE
:102C9000778101A252F823F0712F0008D52E000889
:102CA000DD2C0008812F0008DD2C0008812F000892
:102CB000812F0008812F0008712F0008812F000844
:102CC0004D2E0008812F0008912E0008812F00084A
:102CD000812F0008812F0008212F00089F4B1B78AF
:102CE000002B02D197F82F3058E19C4A07F11C03C2
:102CF00045321068186012791A717B88022B1BD13B
:102D0000964B93F8443030333B4413F9143C5A1C2F
:102D1000934B83FB02139910D317C91A0B469B00E0
:102D20000B445B00D11A8D4B93F844304AB23033D8
:102D30003B4403F8142C1EE0884B93F844303033A6
:102D40003B4413F9143C03F10902854B83FB021346
:102D50009910D317C91A0B469B000B445B00D11A7C
:102D60007E4B93F844304AB230333B4403F8142C82
:102D70004FF0FF337B6207F11C031846FFF776F82C
:102D8000B8623CE0754B93F8443030333B4413F960
:102D9000143CDAB27B6ADBB21344DAB26F4B93F8BD
:102DA000443052B230333B4403F8142C6B4B93F84D
:102DB000443030333B4413F9143C092B08DD674B96
:102DC00093F8443030333B44002203F8142C10E0D5
:102DD000624B93F8443030333B4413F9143C002BDE
:102DE00007DA5E4B93F8443030333B44092203F852
:102DF000142C07F11C031846FFF738F8B862BB6AB9
:102E0000B3F5806FBEDBBB6AB3F5803FBADC534BD2
:102E1000453307F11C021068186012791A7107F126
:102E20000803BA6A4F49184605F03EFB012102200B
:102E3000FEF7C2FC07F108031846FEF791FC474B6A
:102E4000DB7819460220FEF7B7FC99E0434B1B786C
:102E5000002B02D197F82F30A0E0404BDB78013BEC
:102E6000DAB23E4BDA703D4BDB78072B07D83B4B91
:102E70000C22DA70394B042283F8442080E0374B6F
:102E800093F84430013BDAB2344B83F8442077E0C6
:102E9000324B1B78002B02D197F82F307EE02F4B5E
:102EA000DB780133DAB22D4BDA702C4BDB780C2B4C
:102EB00007D92A4B0822DA70284B002283F84420D5
:102EC0005EE0264B93F844300133DAB2234B83F8AB
:102ED000442055E0214B1B78002B18D0FEF75EFCF8
:102EE0002148FEF7C3FF03469AB2204BA3F83320D4
:102EF000FFF798FA034687F82F3097F82F30102BFA
:102F000002D197F82F3049E0144B00221A70134B6E
:102F100002225A700A2387F82F30FFF79DFA2FE01C
:102F20000E4B01221A700D4B0C22DA700B4B04224F
:102F30005A720A4B042283F844200C4BB3F8333006
:102F40009BB209491846FEF74BFF044BDB78194644
:102F50000220FEF731FCFEF728FC11E0DC0B00201C
:102F600067666666A0950008210C0020280C0020EA
:102F70000C4B1B78002B02D10820FEF72BFD00BF65
:102F8000084BDB7897F823209A4205D0054BDB7875
:102F900019460220FEF710FC97F82F3018463037FC
:102FA000BD4680BDDC0B002080B584B000AF3B4641
:102FB00083E803000F23FB737B88012B05D0082BCC
:102FC00009D10920FEF706FD05E000220021C120FD
:102FD000FEF7BAFC00BFFB7B18461037BD4680BD2C
:102FE00080B584B000AF3B4683E803003B78FB73B9
:102FF0007B88202B06D0202B10DC002B0AD0082B3E
:1030000008D00BE000220021BB20FEF79DFC01232D
:10301000FB7303E00A20FEF7DDFC00BFFB7B1846D4
:103020001037BD4680BD000080B485B000AF0346B8
:10303000FB710023FB600BE00A4AFB6813441B781A
:10304000FA799A4201D1FB6806E0FB680133FB6024
:10305000FB68402BF0D9002318461437BD4680BCCE
:10306000704700BF3C97000880B584B000AF78601F
:103070007B681B781846FFF7D7FFF860FB680133C1
:103080001946084BA3FB01239A0913469B011344DD
:10309000CA1A054B9A5C7B681A7000BF1037BD4690
:1030A00080BD00BFFDC00FFC3C97000880B588B014
:1030B00000AF3B4683E803000F23FB77444BDB78EC
:1030C000BB777B88013B0B2B72D801A252F823F00F
:1030D00079310008013100088D3100080131000804
:1030E000B1310008B1310008B1310008B131000838
:1030F000B131000841310008B13100085D310008EC
:10310000334BDB783033334A134405331846FFF72B
:10311000ABFF07F10803304A3049184605F0C4F9FF
:1031200001210120FEF748FB07F108031846FEF7CE
:1031300017FB274BDB7819460120FEF73DFB37E0F4
:10314000234BDB780F335A4203F00F0302F00F02D8
:1031500058BF5342DAB21E4BDA7029E01C4BDB78C1
:1031600001335A4203F00F0302F00F0258BF5342DB
:10317000DAB2174BDA701BE0FEF710FBFFF752F9DB
:103180000346FB77124B00221A7011E0104B01220C
:103190001A700F4B0222DA700D4BDB7819460120B2
:1031A000FEF70AFBFEF701FB0B20FEF713FC00BF46
:1031B000074BDB78BA7F9A4205D0054BDB7819467E
:1031C0000120FEF7F9FAFB7F18462037BD4680BD87
:1031D000DC0B0020280C00205D0C0020349400083B
:1031E00080B584B000AF3B4683E803000F23FB7338
:1031F0007B88012B02D0092B19D01CE00022002172
:10320000B920FEF7A1FBFDF73DFA4A2200210C4848
:1032100005F0A8F90B4B1B680B4A104619464723CB
:103220001A4605F031FA0020FEF7D4FB03E00C202B
:10323000FEF7D0FB00BFFB7B18461037BD4680BDB4
:10324000DC0B002018020020280C002080B594B070
:1032500000AF184A3B4611465022184605F014FAB2
:10326000154BDB78042B0BD11449154805F01CF9DC
:103270001449154805F018F90F4B02229A7314E00F
:1032800012490F4805F010F90B4BDB7819463A4606
:103290000B469B000B449B0013441A460C490A48FA
:1032A00005F002F9044B01229A7300BF5037BD4666
:1032B00080BD00BFB8960008DC0B002048960008CF
:1032C000EB0B0020A0960008FF0B002034960008AE
:1032D000B496000880B584B000AF3B4683E8030095
:1032E0000F23FB737B88013B052B5AD801A252F8B0
:1032F00023F000BF513300080D330008A33300084A
:103300002F330008A333000879330008274BDB78FC
:103310001A1D274B83FB02135910D317C91A0B46EA
:103320009B000B44D11ACAB2204BDA7039E01F4B14
:10333000DB785A1C1E4B83FB02135910D317C91A92
:103340000B469B000B44D11ACAB2184BDA7028E026
:10335000164B00221A73154B1B7B1846FDF75CF9C0
:10336000124BDA78134B9A71FFF75CF80346FB7344
:103370000E4B00221A7014E00E4B9A790B4BDA7048
:103380000A4B00225A73094B01221A73074B1B7B0D
:103390001846FDF741F9FFF759FF0D20FEF71AFB1C
:1033A00000BFFB7B18461037BD4680BDDC0B0020FC
:1033B00067666666280C002080B584B000AF3B4687
:1033C00083E803000F23FB737B88012B02D0052BBE
:1033D00004D007E00020FEF7FDFA03E00520FEF729
:1033E000F9FA00BFFB7B18461037BD4680BD0000D0
:1033F000FEF7F8F80B480C490C4A002302E0D458B9
:10340000C4500433C4188C42F9D3094A094C002330
:1034100001E013600432A242FBD305F00FF9FDF77F
:103420004FFD704700000020A8010020D897000839
:10343000A801002070200020FEE7000080B500AF4A
:10344000084B1B68074A43F010031360032000F089
:10345000D1F80F20FDF7E4FFFDF71EFF002318460B
:1034600080BD00BF0020024080B400AF054B1B7838
:103470001A46054B1B681344034A136000BFBD4640
:1034800080BC704750010020700C002080B400AF59
:10349000024B1B681846BD4680BC7047700C00206C
:1034A00080B485B000AF78607B6803F00703FB60F1
:1034B0000C4BDB68BB60BA684FF6FF031340BB6080
:1034C000FB681A02BB68134343F0BF6343F4003345
:1034D000BB60044ABB68D36000BF1437BD4680BCE4
:1034E000704700BF00ED00E080B400AF044BDB6824
:1034F0001B0A03F007031846BD4680BC704700BF97
:1035000000ED00E080B483B000AF0346FB7197F993
:103510000730002B0BDBFB7903F01F02064997F9FC
:1035200007305B09012000FA02F241F8232000BFB6
:103530000C37BD4680BC704700E100E080B483B02A
:1035400000AF03463960FB7197F90730002B0ADBA7
:103550003B68DAB20C4997F907301201D2B20B443A
:1035600083F800230AE03B68DAB20849FB7903F0EC
:103570000F03043B1201D2B20B441A7600BF0C3782
:10358000BD4680BC704700BF00E100E000ED00E0F8
:1035900080B489B000AFF860B9607A60FB6803F06E
:1035A0000703FB61FB69C3F10703042B28BF042356
:1035B000BB61FB690433062B02D9FB69033B00E0C6
:1035C00000237B614FF0FF32BB6902FA03F3DA4359
:1035D000BB681A407B699A404FF0FF317B6901FA62
:1035E00003F3D9437B680B40134318462437BD4689
:1035F00080BC704780B582B000AF78607868FFF714
:103600004FFF00BF0837BD4680BD80B586B000AF14
:103610000346B9607A60FB7300237B61FFF764FFA8
:1036200078617A68B9687869FFF7B2FF024697F95E
:103630000F3011461846FFF781FF00BF1837BD460F
:1036400080BD80B582B000AF0346FB7197F90730AB
:103650001846FFF757FF00BF0837BD4680BD80B44E
:1036600085B000AF78600023FB737B6893F821304E
:10367000DBB2022B08D07B6804229A637B680022AD
:1036800083F82020012320E07B681B681A687B6890
:103690001B6822F00E021A607B681B681A687B6840
:1036A0001B6822F001021A607B681A6C7B68DB6B76
:1036B000012101FA02F25A607B68012283F821207D
:1036C0007B68002283F82020FB7B18461437BD4618
:1036D00080BC704780B584B000AF78600023FB7376
:1036E0007B6893F82130DBB2022B05D07B68042283
:1036F0009A630123FB7351E07B681B681A687B683F
:103700001B6822F00E021A607B681B681A687B68CF
:103710001B6822F001021A607B681B68224A9342F0
:1037200029D07B681B68214A934222D07B681B68A2
:103730001F4A93421AD07B681B681E4A934212D0DC
:103740007B681B681C4A93420AD07B681B681B4A33
:10375000934202D14FF480130EE04FF080730BE0E0
:103760004FF4803308E04FF4805305E04FF480734A
:1037700002E0102300E00123114A53607B6801221C
:1037800083F821207B68002283F820207B685B6B14
:10379000002B03D07B685B6B78689847FB7B1846EF
:1037A0001037BD4680BD00BF080002401C0002402B
:1037B0003000024044000240580002406C000240C9
:1037C00000000240F0B587B000AFF860B960C7E90B
:1037D00000230123FB750023BB7500237B752F4B52
:1037E0001B7E012B01D1022354E02C4B01221A76BF
:1037F0004CF2503000F0B2F80346FB75FB7D002B15
:1038000044D1FB68012B02D101237B7507E0FB68E3
:10381000022B02D102237B7501E004237B75002378
:10382000BB752DE0BB7D5A00BB6802EB030CBB7D72
:103830001901D7E90023C1F12006A1F1200022FAE5
:1038400001F403FA06F6344323FA00F0044323FAA2
:1038500001F5A3B21946604600F064F84CF250300E
:1038600000F07CF80346FB750D4B1B690C4A23F0F6
:1038700001031361FB7D002B07D1BB7D0133BB75B9
:10388000BA7D7B7D9A42CDD300E000BF034B00227E
:103890001A76FB7D18461C37BD46F0BD780C00201B
:1038A0000020024080B483B000AF0023FB710D4BB9
:1038B0001B6903F08003002B0DD00A4B0A4A5A60A3
:1038C000084B0A4A5A60074B1B6903F08003002B20
:1038D00001D00123FB71FB7918460C37BD4680BC33
:1038E000704700BF0020024023016745AB89EFCD40
:1038F00080B400AF054B1B69044A43F08003136199
:1039000000231846BD4680BC704700BF002002401F
:1039100080B400AF024BDB691846BD4680BC7047DF
:10392000780C002080B483B000AF78600B467B80B9
:10393000084B0022DA61084B1B69074A43F0010378
:1039400013617B687A881A8000BF0C37BD4680BC43
:10395000704700BF780C00200020024080B584B082
:1039600000AF7860FFF792FDF86010E07B68B3F17C
:10397000FF3F0CD07B68002B07D0FFF787FD024686
:10398000FB68D31A7A689A4201D2032325E0154BCB
:10399000DB6803F00103002BE8D1124BDB6803F076
:1039A0002003002B02D00F4B2022DA600D4BDB6886
:1039B00003F01003002B0BD10A4BDB6903F001036A
:1039C000002B05D1074BDB6803F00403002B03D069
:1039D00000F00AF8012300E0002318461037BD4626
:1039E00080BD00BF0020024080B483B000AF002340
:1039F0007B60234BDB6803F01003002B09D0214BC5
:103A0000DB6943F002031F4AD3617B6843F0100374
:103A10007B601B4BDB6803F00403002B09D0194BC0
:103A2000DB6943F00103174AD3617B6843F0040369
:103A30007B60134BDB6903F00103002B0BD0114BB0
:103A4000DB6943F004030F4AD3610D4BDB690C4A79
:103A500023F00103D3617B6840F20112934206D147
:103A6000074BDB69064A23F00103D36102E0044AF5
:103A70007B68D36000BF0C37BD4680BC704700BF79
:103A800000200240780C002080B584B000AF786040
:103A900039600123FB730023BB602F4B1B7E012B7E
:103AA00001D1022353E02C4B01221A767B681B685C
:103AB000022B16D14CF25030FFF750FF0346002B7B
:103AC00041D1012000F04CF84CF25030FFF746FF96
:103AD0000346FB73214B1B69204A23F00403136147
:103AE00031E04CF25030FFF739FF0346002B2AD16A
:103AF0003B684FF0FF321A607B689B68BB6019E03F
:103B0000B86800F049F84CF25030FFF727FF034641
:103B1000FB73124B1B69114A23F002031361FB7BF9
:103B2000002B03D03B68BA681A600CE0BB6803F551
:103B30008063BB607B68DB689A027B689B68134488
:103B4000BA689A42DCD3044B00221A76FB7B1846F3
:103B50001037BD4680BD00BF780C00200020024019
:103B600080B483B000AF7860094B0022DA61094B62
:103B70001B69084A43F004031361064B1B69054A9D
:103B800043F04003136100BF0C37BD4680BC704753
:103B9000780C00200020024080B483B000AF786031
:103BA0000B4B0022DA610B4B1B690A4A43F00203FC
:103BB0001361084A7B685361064B1B69054A43F051
:103BC0004003136100BF0C37BD4680BC704700BF87
:103BD000780C00200020024080B48BB000AF7860E9
:103BE000396000237B6200233B6269E101227B6A2A
:103BF00002FA03F3FB613B681B68FA691340BB617F
:103C0000BA69FB699A4240F058813B685B689A4AFE
:103C100093425ED0984A934275D8984A934258D0BE
:103C2000964A93426FD8964A934252D0944A93420E
:103C300069D8944A93424CD0924A934263D8924AAC
:103C4000934246D0904A93425DD8122B2AD8122B29
:103C500059D801A252F823F0D33C0008AD3C00082B
:103C6000BF3C0008013D0008073D0008073D000873
:103C7000073D0008073D0008073D0008073D000814
:103C8000073D0008073D0008073D0008073D000804
:103C9000073D0008073D0008073D0008B53C000847
:103CA000C93C0008794A934213D02CE03B68DB689A
:103CB0003B6229E03B68DB6804333B6224E03B68FD
:103CC000DB6808333B621FE03B68DB680C333B6218
:103CD0001AE03B689B68002B02D104233B6213E08F
:103CE0003B689B68012B05D108233B627B68FA691E
:103CF0001A6109E008233B627B68FA695A6103E0B4
:103D000000233B6200E000BFBB69FF2B01D87B684A
:103D100001E07B6804337B61BB69FF2B02D87B6ABF
:103D20009B0002E07B6A083B9B003B617B691A6851
:103D30000F213B6901FA03F3DB431A40396A3B69FF
:103D400001FA03F31A437B691A603B685B6803F06E
:103D50008053002B00F0B1804D4B9B694C4A43F0DF
:103D6000010393614A4B9B6903F00103BB60BB688D
:103D7000484A7B6A9B08023352F82330FB607B6A17
:103D800003F003039B000F2202FA03F3DB43FA68FC
:103D90001340FB607B68404A934213D07B683F4AE4
:103DA00093420DD07B683E4A934207D07B683D4AE0
:103DB000934201D1032306E0042304E0022302E03E
:103DC000012300E000237A6A02F00302920093408C
:103DD000FA681343FB602F497B6A9B080233FA6839
:103DE00041F823203B685B6803F48013002B06D066
:103DF0002D4B9A682C49BB6913438B6006E02A4B14
:103E00009A68BB69DB43284913408B603B685B6859
:103E100003F40013002B06D0234BDA682249BB6958
:103E20001343CB6006E0204BDA68BB69DB431E49D5
:103E30001340CB603B685B6803F40033002B06D073
:103E4000194B5A681849BB6913434B6006E0164B7F
:103E50005A68BB69DB43144913404B603B685B689D
:103E600003F48033002B21D00F4B1A680E49BB6935
:103E700013430B6021E000BF00003210000031103E
:103E8000000022100000211000001210000011108C
:103E9000001002400000014000080140000C0140F9
:103EA0000010014000140140000401400B4B1A684F
:103EB000BB69DB43094913400B607B6A01337B62BA
:103EC0003B681A687B6A22FA03F3002B7FF48EAEFC
:103ED00000BF00BF2C37BD4680BC704700040140C6
:103EE00080B485B000AF78600B467B807B689A68B1
:103EF0007B881340002B02D00123FB7301E00023D9
:103F0000FB73FB7B18461437BD4680BC704780B4FA
:103F100083B000AF78600B467B8013467B707B7864
:103F2000002B03D07A887B681A6103E07B881A042F
:103F30007B681A6100BF0C37BD4680BC704780B4F7
:103F400085B000AF78600B467B807B68DB68FB60E8
:103F50007A88FB6813401A04FB68D9437B880B40BE
:103F60001A437B681A6100BF1437BD4680BC704796
:103F700080B586B000AF78607B68002B01D101234B
:103F800072E27B681B6803F00103002B00F087805E
:103F9000924B5B6803F00C03042B0CD08F4B5B68D7
:103FA00003F00C03082B12D18C4B5B6803F48033B5
:103FB000B3F5803F0BD1894B1B6803F40033002B12
:103FC0006CD07B685B68002B68D101234CE27B6876
:103FD0005B68B3F5803F06D1804B1B687F4A43F492
:103FE000803313602EE07B685B68002B0CD17B4B29
:103FF0001B687A4A23F480331360784B1B68774A36
:1040000023F4802313601DE07B685B68B3F5A02F69
:104010000CD1724B1B68714A43F4802313606F4BC1
:104020001B686E4A43F4803313600BE06B4B1B68D4
:104030006A4A23F480331360684B1B68674A23F491
:10404000802313607B685B68002B13D0FFF71EFA98
:10405000386108E0FFF71AFA02463B69D31A642B6D
:1040600001D9032300E25D4B1B6803F40033002BEE
:10407000F0D014E0FFF70AFA386108E0FFF706FA1B
:1040800002463B69D31A642B01D90323ECE1534B5D
:104090001B6803F40033002BF0D100E000BF7B6805
:1040A0001B6803F00203002B63D04C4B5B6803F0EA
:1040B0000C03002B0BD0494B5B6803F00C03082B5F
:1040C0001CD1464B5B6803F48033002B16D1434B65
:1040D0001B6803F00203002B05D07B681B69012BD2
:1040E00001D00123C0E13D4B1B6823F0F8027B683F
:1040F0005B69DB00394913430B603AE07B681B695D
:10410000002B20D0364B01221A60FFF7BFF938612F
:1041100008E0FFF7BBF902463B69D31A022B01D92D
:104120000323A1E12D4B1B6803F00203002BF0D009
:104130002A4B1B6823F0F8027B685B69DB00274988
:1041400013430B6015E0264B00221A60FFF79EF91F
:10415000386108E0FFF79AF902463B69D31A022B4F
:1041600001D9032380E11D4B1B6803F00203002BE0
:10417000F0D17B681B6803F00803002B3AD07B6802
:104180009B69002B19D0174B01221A60FFF77EF9AB
:10419000386108E0FFF77AF902463B69D31A022B2F
:1041A00001D9032360E10D4B5B6A03F00203002B8E
:1041B000F0D0012000F0FEFA1CE00A4B00221A6049
:1041C000FFF764F938610FE0FFF760F902463B69D9
:1041D000D31A022B08D9032346E100BF0010024086
:1041E0000000424280044242924B5B6A03F00203A9
:1041F000002BE9D17B681B6803F00403002B00F05F
:10420000A6800023FB758B4BDB6903F08053002BEA
:104210000DD1884BDB69874A43F08053D361854BCE
:10422000DB6903F08053BB60BB680123FB75824BE5
:104230001B6803F48073002B18D17F4B1B687E4AE8
:1042400043F480731360FFF721F9386108E0FFF74A
:104250001DF902463B69D31A642B01D9032303E1FC
:10426000754B1B6803F48073002BF0D07B68DB6810
:10427000012B06D16F4B1B6A6E4A43F00103136298
:104280002DE07B68DB68002B0CD16A4B1B6A694A06
:1042900023F001031362674B1B6A664A23F0040391
:1042A00013621CE07B68DB68052B0CD1614B1B6A39
:1042B000604A43F0040313625E4B1B6A5D4A43F09D
:1042C000010313620BE05B4B1B6A5A4A23F00103A4
:1042D0001362584B1B6A574A23F0040313627B682E
:1042E000DB68002B15D0FFF7D1F838610AE0FFF743
:1042F000CDF802463B69D31A41F28832934201D984
:104300000323B1E04B4B1B6A03F00203002BEED0FA
:1043100014E0FFF7BBF838610AE0FFF7B7F8024690
:104320003B69D31A41F28832934201D903239BE0BF
:10433000404B1B6A03F00203002BEED1FB7D012BE7
:1043400005D13C4BDB693B4A23F08053D3617B684A
:10435000DB69002B00F08780364B5B6803F00C03B1
:10436000082B61D07B68DB69022B46D1334B0022DE
:104370001A60FFF78BF8386108E0FFF787F802460C
:104380003B69D31A022B01D903236DE0294B1B682B
:1043900003F00073002BF0D17B681B6AB3F5803FFC
:1043A00008D1244B5B6823F400327B689B68214969
:1043B00013434B601F4B5B6823F474127B68196ACC
:1043C0007B685B6A0B431B4913434B601B4B012209
:1043D0001A60FFF75BF8386108E0FFF757F802460C
:1043E0003B69D31A022B01D903233DE0114B1B6813
:1043F00003F00073002BF0D035E0104B00221A6060
:10440000FFF744F8386108E0FFF740F802463B69DF
:10441000D31A022B01D9032326E0064B1B6803F0B5
:104420000073002BF0D11EE07B68DB69012B07D104
:10443000012319E000100240007000406000424279
:104440000B4B5B68FB60FB6803F480327B681B6A84
:104450009A4206D1FB6803F470127B685B6A9A4249
:1044600001D0012300E0002318461837BD4680BD67
:104470000010024080B584B000AF786039607B687E
:10448000002B01D10123D0E06A4B1B6803F0070326
:104490003A689A4210D9674B1B6823F007026549B6
:1044A0003B6813430B60634B1B6803F007033A68D8
:1044B0009A4201D00123B8E07B681B6803F0020335
:1044C000002B20D07B681B6803F00403002B05D071
:1044D000594B5B68584A43F4E06353607B681B6840
:1044E00003F00803002B05D0534B5B68524A43F49A
:1044F00060535360504B5B6823F0F0027B689B680D
:104500004D4913434B607B681B6803F00103002B8C
:1045100040D07B685B68012B07D1474B1B6803F4D5
:104520000033002B15D101237FE07B685B68022BF1
:1045300007D1414B1B6803F00073002B09D1012305
:1045400073E03D4B1B6803F00203002B01D10123F4
:104550006BE0394B5B6823F003027B685B6836498C
:1045600013434B60FEF792FFF8600AE0FEF78EFF00
:104570000246FB68D31A41F28832934201D90323E1
:1045800053E02D4B5B6803F00C027B685B689B007B
:104590009A42EBD1274B1B6803F007033A689A4213
:1045A00010D2244B1B6823F0070222493B681343B7
:1045B0000B60204B1B6803F007033A689A4201D056
:1045C000012332E07B681B6803F00403002B08D052
:1045D000194B5B6823F4E0627B68DB681649134380
:1045E0004B607B681B6803F00803002B09D0124B5B
:1045F0005B6823F460527B681B69DB000E49134340
:104600004B6000F021F802460B4B5B681B0903F07E
:104610000F030A49CB5C22FA03F3094A1360094BE2
:104620001B681846FCF7FCFE002318461037BD46F1
:1046300080BD00BF00200240001002402497000807
:10464000A40000204C01002080B487B000AF0023FC
:10465000FB600023BB6000237B6100237B600023A1
:104660003B611E4B5B68FB60FB6803F00C03042B93
:1046700002D0082B03D027E0194B3B6127E0FB68F1
:104680009B0C03F00F03174AD35C7B60FB6803F4B9
:104690008033002B10D0114B5B685B0C03F00103DF
:1046A000114AD35CBB607B680D4A03FB02F2BB6816
:1046B000B2FBF3F37B6104E07B680C4A02FB03F37B
:1046C0007B617B693B6102E0054B3B6100BF3B695D
:1046D00018461C37BD4680BC704700BF0010024022
:1046E00000127A00809700089097000800093D00AA
:1046F00080B400AF024B1B681846BD4680BC7047B3
:10470000A400002080B500AFFFF7F2FF0246054B82
:104710005B681B0A03F007030349CB5C22FA03F32F
:10472000184680BD001002403497000880B500AFE5
:10473000FFF7DEFF0246054B5B68DB0A03F0070369
:104740000349CB5C22FA03F3184680BD00100240F7
:104750003497000880B483B000AF786039607B681C
:104760000F221A60114B5B6803F003027B685A60EA
:104770000E4B5B6803F0F0027B689A600B4B5B6842
:1047800003F4E0627B68DA60084B5B68DB0803F4E3
:10479000E0627B681A61064B1B6803F007023B6806
:1047A0001A6000BF0C37BD4680BC70470010024045
:1047B0000020024080B485B000AF78600A4B1B68CF
:1047C0000A4AA2FB03235B0A7A6802FB03F3FB603D
:1047D00000BFFB685A1EFA60002BF9D100BF00BF72
:1047E0001437BD4680BC7047A4000020D34D621032
:1047F00080B582B000AF78607B68002B01D10123C7
:1048000041E07B6893F83D30DBB2002B06D17B683A
:10481000002283F83C20786800F039F87B68022297
:1048200083F83D207B681A687B680433194610467C
:1048300000F09CF97B68012283F846207B68012206
:1048400083F83E207B68012283F83F207B680122A9
:1048500083F840207B68012283F841207B68012295
:1048600083F842207B68012283F843207B68012281
:1048700083F844207B68012283F845207B6801226D
:1048800083F83D20002318460837BD4680BD80B41C
:1048900083B000AF786000BF0C37BD4680BC704766
:1048A00080B485B000AF78607B6893F83D30DBB2B0
:1048B000012B01D001233AE07B68022283F83D20DE
:1048C0007B681B68DA687B681B6842F00102DA606B
:1048D0007B681B68184A93420ED07B681B68B3F153
:1048E000804F09D07B681B68144A934204D07B68D0
:1048F0001B68134A934211D17B681B689B6803F0C5
:104900000703FB60FB68062B10D07B681B681A68E6
:104910007B681B6842F001021A6007E07B681B6835
:104920001A687B681B6842F001021A60002318466F
:104930001437BD4680BC7047002C01400004004085
:104940000008004080B584B000AF78607B681B68C9
:10495000DB68FB607B681B681B69BB60BB6803F09E
:104960000203002B20D0FB6803F00203002B1BD0B6
:104970007B681B686FF002021A617B6801221A775C
:104980007B681B689B6903F00303002B03D07868E6
:1049900000F0D1F805E0786800F0C4F8786800F01D
:1049A000D3F87B6800221A77BB6803F00403002B5E
:1049B00020D0FB6803F00403002B1BD07B681B682E
:1049C0006FF004021A617B6802221A777B681B6809
:1049D0009B6903F44073002B03D0786800F0ABF8B8
:1049E00005E0786800F09EF8786800F0ADF87B6824
:1049F00000221A77BB6803F00803002B20D0FB6865
:104A000003F00803002B1BD07B681B686FF00802C3
:104A10001A617B6804221A777B681B68DB6903F0E4
:104A20000303002B03D0786800F085F805E0786870
:104A300000F078F8786800F087F87B6800221A7731
:104A4000BB6803F01003002B20D0FB6803F01003B9
:104A5000002B1BD07B681B686FF010021A617B680B
:104A600008221A777B681B68DB6903F44073002B0C
:104A700003D0786800F05FF805E0786800F052F83D
:104A8000786800F061F87B6800221A77BB6803F051
:104A90000103002B0CD0FB6803F00103002B07D0AF
:104AA0007B681B686FF001021A617868FCF7DCFB19
:104AB000BB6803F08003002B0CD0FB6803F080037D
:104AC000002B07D07B681B686FF080021A61786842
:104AD00000F0C3F8BB6803F04003002B0CD0FB6868
:104AE00003F04003002B07D07B681B686FF0400287
:104AF0001A61786800F031F8BB6803F02003002BDE
:104B00000CD0FB6803F02003002B07D07B681B68E8
:104B10006FF020021A61786800F096F800BF103735
:104B2000BD4680BD80B483B000AF786000BF0C3755
:104B3000BD4680BC704780B483B000AF786000BFD2
:104B40000C37BD4680BC704780B483B000AF78603E
:104B500000BF0C37BD4680BC704780B483B000AF47
:104B6000786000BF0C37BD4680BC704780B485B00C
:104B700000AF786039607B681B68FB607B682F4AF8
:104B800093420BD07B68B3F1804F07D07B682C4AEF
:104B9000934203D07B682B4A934208D1FB6823F0F1
:104BA0007003FB603B685B68FA681343FB607B68DB
:104BB000224A93420BD07B68B3F1804F07D07B68C9
:104BC0001F4A934203D07B681E4A934208D1FB6878
:104BD00023F44073FB603B68DB68FA681343FB60B7
:104BE000FB6823F080023B685B691343FB607B68D2
:104BF000FA681A603B689A687B68DA623B681A68F0
:104C00007B689A627B680D4A934203D13B681A69BC
:104C10007B681A637B6801225A617B681B6903F019
:104C20000103002B05D07B681B6923F001027B6820
:104C30001A6100BF1437BD4680BC7047002C01408C
:104C4000000400400008004080B483B000AF7860EA
:104C500000BF0C37BD4680BC704780B483B000AF46
:104C6000786000BF0C37BD4680BC704780B582B00D
:104C700000AF78607B68002B01D1012342E07B68A4
:104C800093F84130DBB2002B06D17B68002283F819
:104C900040207868FCF738FB7B68242283F84120A9
:104CA0007B681B68DA687B681B6822F40052DA6054
:104CB000786800F0B7FD7B681B681A697B681B6821
:104CC00022F490421A617B681B685A697B681B68F2
:104CD00022F02A025A617B681B68DA687B681B68CD
:104CE00042F40052DA607B6800225A647B6820221A
:104CF00083F841207B68202283F842207B680022D1
:104D00005A63002318460837BD4680BD80B58AB077
:104D100002AFF860B9603B601346FB8000237B6103
:104D2000FB6893F84130DBB2202B75D1BB68002BB8
:104D300002D0FB88002B01D101236EE0FB6800222A
:104D40005A64FB68212283F84120FEF79FFB7861BB
:104D5000FB68FA889A84FB68FA88DA84FB689B68A7
:104D6000B3F5805F08D1FB681B69002B04D10023D9
:104D7000FB61BB68BB6103E0BB68FB610023BB61F7
:104D80002EE03B6800937B6900228021F86800F0E8
:104D90001CFB0346002B05D0FB68202283F8412032
:104DA00003233AE0FB69002B0BD1BB691B881A4631
:104DB000FB681B68C2F308025A60BB690233BB611F
:104DC00007E0FB691A78FB681B685A60FB690133CE
:104DD000FB61FB68DB8C9BB2013B9AB2FB68DA8417
:104DE000FB68DB8C9BB2002BCBD13B6800937B69CB
:104DF00000224021F86800F0E8FA0346002B05D0B5
:104E0000FB68202283F84120032306E0FB68202270
:104E100083F84120002300E0022318462037BD46D6
:104E200080BD80B584B000AFF860B9601346FB80E8
:104E3000FB6893F84230DBB2202B12D1BB68002B09
:104E400002D0FB88002B01D101230BE0FB6800227C
:104E50001A63FB881A46B968F86800F00FFB03462E
:104E600000E0022318461037BD4680BD80B5BAB0B9
:104E700000AF78607B681B681B68C7F8E4307B680C
:104E80001B68DB68C7F8E0307B681B685B69C7F8A4
:104E9000DC300023C7F8D8300023C7F8D430D7F867
:104EA000E43003F00F03C7F8D830D7F8D830002B20
:104EB0000FD1D7F8E43003F02003002B09D0D7F846
:104EC000E03003F02003002B03D0786800F0ECFB07
:104ED0005BE2D7F8D830002B00F0DE80D7F8DC306A
:104EE00003F00103002B06D1D7F8E03003F49073F0
:104EF000002B00F0D180D7F8E43003F00103002B41
:104F00000BD0D7F8E03003F48073002B05D07B681A
:104F10005B6C43F001027B685A64D7F8E43003F01D
:104F20000403002B0BD0D7F8DC3003F00103002B77
:104F300005D07B685B6C43F002027B685A64D7F84B
:104F4000E43003F00203002B0BD0D7F8DC3003F081
:104F50000103002B05D07B685B6C43F004027B6887
:104F60005A64D7F8E43003F00803002B11D0D7F8C7
:104F7000E03003F02003002B05D1D7F8DC3003F03C
:104F80000103002B05D07B685B6C43F008027B6853
:104F90005A647B685B6C002B00F0F281D7F8E43038
:104FA00003F02003002B08D0D7F8E03003F02003F3
:104FB000002B02D0786800F077FB7B681B685B6988
:104FC00003F04003002B14BF01230023DBB2C7F81A
:104FD000D4307B685B6C03F00803002B03D1D7F857
:104FE000D430002B4FD0786800F081FA7B681B68C2
:104FF0005B6903F04003002B41D07B681B681433CE
:10500000C7F89C30D7F89C3053E8003FC7F8983079
:10501000D7F8983023F04003C7F8D0307B681B687E
:105020001433D7F8D020C7F8A820C7F8A430D7F891
:10503000A410D7F8A82041E80023C7F8A030D7F87B
:10504000A030002BD9D17B68DB6B002B13D07B68A1
:10505000DB6B7E4A5A637B68DB6B1846FEF73AFBD4
:105060000346002B16D07B68DB6B5B6B7A68D26BD8
:10507000104698470EE0786800F093F90AE07868E7
:1050800000F08FF906E0786800F08BF97B68002269
:105090005A6475E100BF73E17B681B6B012B40F024
:1050A0004F81D7F8E43003F01003002B00F0488163
:1050B000D7F8E03003F01003002B00F0418100230B
:1050C000BB607B681B681B68BB607B681B685B6898
:1050D000BB60BB687B681B685B6903F04003002B07
:1050E00000F0B6807B68DB6B1B685B68A7F8BE309E
:1050F000B7F8BE30002B00F045817B689B8DB7F878
:10510000BE209A4280F03E817B68B7F8BE20DA85E7
:105110007B68DB6B9B69202B00F088807B681B68B9
:105120000C33C7F88830D7F8883053E8003FC7F809
:105130008430D7F8843023F48073C7F8B8307B68A4
:105140001B680C33D7F8B820C7F89420C7F8903004
:10515000D7F89010D7F8942041E80023C7F88C3096
:10516000D7F88C30002BD9D17B681B6814337B6750
:105170007B6F53E8003F3B673B6F23F00103C7F8A9
:10518000B4307B681B681433D7F8B420C7F880208C
:10519000FB67F96FD7F8802041E80023BB67BB6F3E
:1051A000002BE1D17B681B6814333B663B6E53E8F0
:1051B000003FFB65FB6D23F04003C7F8B0307B6810
:1051C0001B681433D7F8B020FA66BB66B96EFA6E66
:1051D00041E800237B667B6E002BE3D17B682022B5
:1051E00083F842207B6800221A637B681B680C33BB
:1051F000FB64FB6C53E8003FBB64BB6C23F0100303
:10520000C7F8AC307B681B680C33D7F8AC20BA65A4
:105210007B65796DBA6D41E800233B653B6D002BE2
:10522000E3D17B68DB6B1846FEF719FA7B68022234
:105230005A637B689A8D7B68DB8D9BB2D31A9BB2D5
:105240001946786800F0B6F89CE000BFB355000836
:105250007B689A8D7B68DB8D9BB2D31AA7F8CE3022
:105260007B68DB8D9BB2002B00F08E80B7F8CE30D0
:10527000002B00F089807B681B680C33BB63BB6B21
:1052800053E8003F7B637B6B23F49073C7F8C8300F
:105290007B681B680C33D7F8C8207A643B64396C90
:1052A0007A6C41E80023FB63FB6B002BE3D17B6846
:1052B0001B6814337B627B6A53E8003F3B623B6AA6
:1052C00023F00103C7F8C4307B681B681433D7F898
:1052D000C4203A63FB62F96A3A6B41E80023BB627F
:1052E000BB6A002BE3D17B68202283F842207B68D5
:1052F00000221A637B681B680C333B613B6953E8EF
:10530000003FFB60FB6823F01003C7F8C0307B68E8
:105310001B680C33D7F8C020FA61BB61B969FA6920
:1053200041E800237B617B69002BE3D17B6802228B
:105330005A63B7F8CE301946786800F03BF823E09E
:10534000D7F8E43003F08003002B09D0D7F8E03021
:1053500003F08003002B03D0786800F03EF914E0DE
:10536000D7F8E43003F04003002B0ED0D7F8E0303C
:1053700003F04003002B08D0786800F07DF904E0CA
:1053800000BF02E000BF00E000BFE837BD4680BDBF
:1053900080B483B000AF786000BF0C37BD4680BCDE
:1053A000704780B483B000AF786000BF0C37BD4653
:1053B00080BC704780B483B000AF78600B467B80C0
:1053C00000BF0C37BD4680BC704780B586B000AFCB
:1053D000F860B9603B601346FB713BE03B6AB3F198
:1053E000FF3F37D0FEF752F802463B68D31A3A6ABD
:1053F0009A4202D33B6A002B01D103233AE0FB68B7
:105400001B68DB6803F00403002B23D0BB68802BF0
:1054100020D0BB68402B1DD0FB681B681B6803F0C5
:105420000803082B16D100237B61FB681B681B68EF
:105430007B61FB681B685B687B617B69F86800F0D7
:1054400056F8FB6808225A64FB68002283F8402063
:1054500001230FE0FB681B681A68BB681340BA6839
:105460009A420CBF01230023DBB21A46FB799A4211
:10547000B4D0002318461837BD4680BD80B485B02F
:1054800000AFF860B9601346FB80FB68BA689A62A7
:10549000FB68FA889A85FB68FA88DA85FB6800223F
:1054A0005A64FB68222283F84220FB681B69002BA8
:1054B00007D0FB681B68DA68FB681B6842F48072DF
:1054C000DA60FB681B685A69FB681B6842F00102DE
:1054D0005A61FB681B68DA68FB681B6842F02002AF
:1054E000DA60002318461437BD4680BC704780B48C
:1054F00095B000AF78607B681B680C337B637B6B77
:1055000053E8003F3B633B6B23F49073FB647B6881
:105510001B680C33FA6C3A64FB63F96B3A6C41E834
:105520000023BB63BB6B002BE5D17B681B68143386
:105530003B623B6A53E8003FFB61FB6923F00103D8
:10554000BB647B681B681433BA6CFA62BB62B96ACD
:10555000FA6A41E800237B627B6A002BE5D17B6815
:105560001B6B012B19D17B681B680C33FB60FB683C
:1055700053E8003FBB60BB6823F010037B647B688B
:105580001B680C337A6CBA617B617969BA6941E84E
:1055900000233B613B69002BE5D17B68202283F827
:1055A00042207B6800221A6300BF5437BD4680BC8E
:1055B000704780B584B000AF78607B685B6AFB6041
:1055C000FB680022DA85FB680022DA84F868FFF7BE
:1055D000E8FE00BF1037BD4680BD80B485B000AF87
:1055E00078607B6893F84130DBB2212B3ED17B6839
:1055F0009B68B3F5805F14D17B681B69002B10D1C9
:105600007B681B6AFB60FB681B881A467B681B680B
:10561000C2F308025A607B681B6A9A1C7B681A6294
:1056200008E07B681B6A591C7A6811621A787B68EB
:105630001B685A607B68DB8C9BB2013B9BB27A682B
:105640001946D184002B0FD17B681B68DA687B6810
:105650001B6822F08002DA607B681B68DA687B686E
:105660001B6842F04002DA60002300E00223184683
:105670001437BD4680BC704780B582B000AF7860FB
:105680007B681B68DA687B681B6822F04002DA607E
:105690007B68202283F841207868FFF779FE002399
:1056A00018460837BD4680BD80B58CB000AF786025
:1056B0007B6893F84230DBB2222B40F0AE807B68EF
:1056C0009B68B3F5805F17D17B681B69002B13D1F2
:1056D0000023FB627B689B6ABB627B681B685B681C
:1056E0009BB2C3F308039AB2BB6A1A807B689B6AB9
:1056F0009A1C7B689A6226E07B689B6AFB620023A7
:10570000BB627B689B68B3F5805F07D07B689B6852
:10571000002B0AD17B681B69002B06D17B681B68B4
:105720005B68DAB2FB6A1A7008E07B681B685B682A
:10573000DBB203F07F03DAB2FB6A1A707B689B6A04
:105740005A1C7B689A627B68DB8D9BB2013B9BB2E3
:105750007A681946D185002B5DD17B681B68DA68B1
:105760007B681B6822F02002DA607B681B68DA68BD
:105770007B681B6822F48072DA607B681B685A6958
:105780007B681B6822F001025A617B68202283F843
:1057900042207B6800225A637B681B6B012B35D14A
:1057A0007B6800221A637B681B680C337B617B6912
:1057B00053E8003F3B613B6923F010037B627B6849
:1057C0001B680C337A6A3A62FB61F9693A6A41E80C
:1057D0000023BB61BB69002BE5D17B681B681B689C
:1057E00003F01003102B0AD10023FB607B681B68B9
:1057F0001B68FB607B681B685B68FB60FB687B6801
:105800009B8D19467868FFF7D5FD02E07868FBF7B5
:1058100023F9002302E0002300E00223184630377A
:10582000BD4680BD80B584B000AF78607B681B68E2
:105830001B6923F440517B68DA687B681B680A4364
:105840001A617B689A687B681B691A437B685B698D
:105850001343BB607B681B68DB6823F4B05323F001
:105860000C037A681268B9680B43D3607B681B68C5
:105870005B6923F440717B689A697B681B680A4303
:105880005A617B681B682C4A934203D1FEF74EFF96
:10589000F86002E0FEF736FFF860FA6813469B00F6
:1058A00013449A001A447B685B689B00B2FBF3F3D5
:1058B000224AA2FB03235B091901FA6813469B00E5
:1058C00013449A001A447B685B689B00B2FBF3F2B6
:1058D0001A4BA3FB02035B09642000FB03F3D31AFA
:1058E0001B013233154AA2FB03235B0903F0F003CB
:1058F0001944FA6813469B0013449A001A447B68C3
:105900005B689B00B2FBF3F20C4BA3FB02035B0949
:10591000642000FB03F3D31A1B013233074AA2FBB6
:1059200003235B0903F00F027B681B680A449A603B
:1059300000BF1037BD4680BD003801401F85EB51C8
:1059400080B485B000AF0346FB800023FB60B7F94D
:105950000630842B05D0B7F90620FB6813440333C7
:10596000FB60FB6818461437BD4680BC704780B4A6
:1059700083B000AFEFF305837B607B68002B14BF1F
:1059800001230023DBB218460C37BD4680BC7047AC
:1059900080B500AF01F066F80023184680BDF0B571
:1059A00089B004AF786039607B685B69002B20D0D8
:1059B0007B689B69002B1CD07B685C687B681D68DA
:1059C0007B681E697B68B3F908301846FFF7B8FF9B
:1059D00001467B685B697A68926902920193009143
:1059E0003B6832462946204600F056FE0346FB60DF
:1059F0001CE07B685C687B681D687B681B699EB2E5
:105A00007B68B3F908301846FFF79AFF024607F1A2
:105A10000C03019300923B6832462946204600F071
:105A20009BFE0346012B01D0002300E0FB681846D3
:105A30001437BD46F0BD80B584B000AF78607B6898
:105A4000FB60FB68002B01D0FB6800E001231846D7
:105A500000F0D2FF002318461037BD4680BD00007D
:105A600080B586B002AFF8600B467A60FB72FB68C7
:105A70005B68002B13D0FB7A012B01D1012100E0E0
:105A80000021FB681B68FA685268019200937B68EA
:105A90000A4601210B4801F0BAFD03460EE0FB7AED
:105AA000012B01D1012200E00022FB681B6800935A
:105AB0007B680121034801F089FD03461846103731
:105AC000BD4680BD0897000880B588B002AF7860F9
:105AD000396000237B610023FB603B683B613B69CD
