:020000040800F2
:1000000000500020594A00089D1A0008A51A00084F
:10001000AD1A0008B51A0008BD1A0008000000005B
:10002000000000000000000000000000D197000860
:10003000C51A000800000000B1990008F9990008ED
:10004000A14A0008A14A0008A14A0008A14A0008E4
:10005000A14A0008A14A0008A14A0008A14A0008D4
:10006000A14A0008A14A0008A14A0008A14A0008C4
:10007000A14A0008A14A0008A14A0008A14A0008B4
:10008000A14A0008A14A0008A14A0008A14A0008A4
:10009000A14A0008A14A0008A14A0008A14A000894
:1000A000A14A0008A14A0008A14A0008A14A000884
:1000B000A14A0008A14A0008D11A0008A14A000874
:1000C000A14A0008A14A0008A14A0008A14A000864
:1000D000A14A0008E51A0008A14A0008A14A000840
:1000E000A14A0008A14A0008A14A00080000000037
:1000F0000000000000000000000000000000000000
:0C01000000000000000000005FF808F1A3
:1001100010B5054C237833B9044B13B10448AFF341
:1001200000800123237010BDB801002000000000F2
:100130006CA9000808B5034B1BB103490348AFF392
:10014000008008BD00000000BC0100206CA9000870
:10015000034613F8012B002AFBD1181A0138704707
:1001600080B582B000AF0023FB710121174805F074
:10017000EBF90346002B03D1FB7943F00103FB713C
:100180008021134805F0E0F90346002B03D1FB79E9
:1001900043F00203FB7140210D4805F0D5F90346F9
:1001A000002B03D1FB7943F00403FB7102210748C4
:1001B00005F0CAF90346002B03D1FB7943F008038D
:1001C000FB71FB7918460837BD4680BD000C014025
:1001D0000008014080B483B000AF78600B4B9B787F
:1001E000002B04D1094B9B680133084A9360074BED
:1001F0001B7B002B05D0054BDB8901339AB2034BE7
:10020000DA8100BF0C37BD4680BC7047000000207B
:1002100080B400AF064B00229A60054B01229A7011
:10022000034B01225A7100BFBD4680BC704700BF1E
:100230000000002080B582B000AF0023FB71FFF703
:100240008FFF0346BB71BB7903F00F03002B00F057
:100250008980624B5B79002B01D0FB79B9E05F4B61
:1002600000229A70BB79033B092B8CBF012200222C
:10027000D2B2002A10D140F28D2222FA03F303F009
:100280000103002B14BF01230023DBB2002B03D09A
:10029000534ABB79137003E0524ABB79137000BF15
:1002A000514B1B78BA799A4202D04F4ABB791370EE
:1002B0004C4B1B78082B3AD1484BDB78002B14D0E1
:1002C000464B9B68322B10D9454B1B78002B02D034
:1002D000424B01221A71424B1B78FB71404B0022AA
:1002E0001A703E4B00229A601FE03C4B9B68C72B64
:1002F00019D93A4BDB78002B0CD1384B1B7C002BE7
:1003000008D11023FB71354B0122DA70334B0022E8
:10031000DA8105E0314B1B7C002B01D02023FB71DF
:10032000FFF776FF01E0002353E0FB7951E02C4B0F
:100330001B78002B4CD0294B9B68B3F5FA7F47D92B
:10034000274B1B78FB71FB79062B02D0FB79032B23
:1003500002D1224B0022DA81214B00221A70FFF7D2
:1003600057FF35E01F4B1B78002B09D01F4B1A7825
:100370001C4B1B789A4203D01A4B1A781B4B1A70ED
:10038000164B01229A70154B9B680A2B0DD9134B03
:100390009B68312B09D8114B1B79002B05D1114BD0
:1003A0001B78FB710F4B00221A700C4B5B79002BF2
:1003B00002D00F4800F0AAFD0B4B00221A70074B29
:1003C00000225A71054B00229A60044B00221A71D8
:1003D000FB7918460837BD4680BD00BF00000020ED
:1003E000D9010020DA010020DB010020DC0100201F
:1003F00084A9000880B584B000AF0346FB711023C8
:10040000FB73624BDB78002B75D1604B5B7C002B60
:1004100071D1FB79013B1F2B6CD801A252F823F05C
:10042000F5040008F5040008E7040008F5040008D6
:10043000D9040008CB040008F5040008A104000852
:10044000F5040008F5040008F5040008F5040008A8
:10045000F5040008F5040008F5040008F504000898
:10046000F5040008F5040008F5040008F504000888
:10047000F5040008F5040008F5040008F504000878
:10048000F5040008F5040008F5040008F504000868
:10049000F5040008F5040008F5040008F504000858
:1004A0003A4B5B780133DAB2384B5A70374B5B7892
:1004B000052B02D9354B00225A70344B5B781A4613
:1004C000334B9A5C314B1A7015E0304B0E221A7088
:1004D0002E4B01225A740EE02C4B0D221A702B4B1E
:1004E00001225A7407E0294B0C221A70274B012273
:1004F0005A7400E000BF254B1B78FA791146184664
:1005000001F0ACFF0346FB73FB7B0F2B1BD81F4B8B
:100510001B78FA7B9A4216D01C4AFB7B13701B4B4C
:100520001B780021184601F099FF0346FB73FB7B03
:10053000102B05D0FB7B012B02D0FB7B0B2B02D1B8
:10054000124B0022DA70FB7B102B1AD10F4BDB7899
:10055000002B07D10D4B1B7C002B03D10B4B5B7C7D
:10056000002B0ED0094B0022DA70084B00221A74BF
:10057000064B01221A70054B00225A70034B0022D1
:100580005A7400BF1037BD4680BD00BF0000002078
:100590001400002080B582B000AF0E4B1B78012BF9
:1005A00000D103E0642006F098FDF6E7FFF742FE75
:1005B0000346FB71FB79002B07D0074B1B68F979C9
:1005C0004FF0FF32184606F03DFE0A2006F085FD8A
:1005D000ECE700BFDD010020C40B002080B584B033
:1005E00000AF384B1B680A21184606F0BFFD364B9A
:1005F00000229A70354B1B681B791946344800F06D
:1006000085FC324B1B681B79002B01D101F000FEE9
:100610002D4B9B68B3F5967F1FD32C4B1B681B7922
:10062000002B03D1284B01221A7005E0264B0B2228
:100630001A70254B01221A74234B1B78002118468F
:1006400001F00CFF204B01229A701F4B00229A6090
:1006500000BF204B01221A7003E00A2006F03DFD86
:10066000D6E71D4B19683B460A22184606F02AFEBB
:100670003B68102B0CD17B68FB73134B1B7C002B4E
:1006800002D0FB7B202B1BD1FB7B1846FFF7B2FE71
:100690000D4B1B7B002BE4D00B4BDB89312BE0D9BE
:1006A0000E4B1B78002BDCD10C4B01221A7001F091
:1006B000AFFE054B0022DA81084B00221A70D0E70A
:1006C00000BFCEE7D401002000000020340200204B
:1006D000A0A90008DD010020C40B0020D8010020E3
:1006E00080B500AF034800F011FC034B01221A74DF
:1006F00000BF80BDC4A900080000002080B582B002
:1007000000AF0346FB71FB79002B01D0064B00E0E4
:10071000064B1946064800F0F9FB064AFB791373AD
:1007200000BF0837BD4680BDDCA90008E4A9000869
:10073000ECA900080000002080B582B000AF0E4B8D
:100740003B6000237B603B4600220121184606F0F7
:10075000D9FC0346094A1360084B1B68002B05D1DE
:10076000074800F0D3FB4FF0FF3300E000231846AA
:100770000837BD4680BD00BFD5010008D401002068
:10078000FCA9000880B582B000AF0346FB710B489E
:1007900000F0BCFB0A4A0B4B1046194651231A467F
:1007A00009F08AFC064AFB7913725121044800F0D3
:1007B000ADF800BF0837BD4680BD00BF20AA0008C5
:1007C000E00100201C00002080B500AF0C4800F0C4
:1007D00033F80346002B02D00320FFF7D3FF084B6A
:1007E0001B791946074800F091FB054B9B79194688
:1007F000054800F08BFB054B014A1A6000BF80BD25
:10080000E001002044AA000860AA00083402002089
:1008100080B500AF064B9B791946064800F076FB81
:100820005121034800F072F80346184680BD00BF0E
:10083000E001002078AA000880B582B000AF78609F
:100840005121786800F04EF87B681B68162B04D0A5
:10085000044800F05BFB012300E000231846083742
:10086000BD4680BD98AA000890B587B000AF04F0DF
:100870004DFB00233B60174BBB600123FB6007F17E
:1008800010023B461146184604F032FC03467B61D9
:100890007B69002B17D03C6904F06EFB03461A46B7
:1008A00021460D4800F032FB04F056FB7B69002B1B
:1008B00009D00A4800F02AFB7A692221084800F092
:1008C00025FB7B6902E004F047FB002318461C3738
:1008D000BD4690BD00F80008C0AA0008E8AA0008BC
:1008E0000CAB000880B584B000AF78603960064B6F
:1008F000FB60FB683A681946786809F0DDFB00BFC9
:100900001037BD4680BD00BF00F80008B0B586B006
:1009100000AF7860396000237B61204B3B617B68CE
:10092000FB60FFF7A1FF0346002B02D04FF0FF331F
:100930002FE004F0EBFA25E0FB681B88BB60BB6886
:1009400000221C46154622462B463969012004F038
:100950006DFA0346002B0CD004F00EFB01467B69B8
:100960003A680F4800F0D2FA04F0F6FA4FF0FF337D
:100970000FE0FB680233FB607B6902337B613B69FC
:1009800002333B613B687A699A42D5D304F0E4FABA
:10099000002318461837BD46B0BD00BF00F8000858
:1009A00040AB000880B584B000AF1C4B7B600023D7
:1009B000BB603B1D00220121184606F0A3FB034645
:1009C000174A1360164B1B68002B03D1154800F023
:1009D0009DFA1FE00023FB600FE0134AFB6852F80A
:1009E0003300114AFB68DB0013449B88012219463F
:1009F00004F0C1FDFB680133FB600C4B1B781A4609
:100A0000FB689342E9DB064B1B684FF47A7118468A
:100A100006F0ACFB1037BD4680BD00BF310A0008B0
:100A2000380200207CAB0008700000204C0200203F
:100A300080B584B000AF78600023FB602CE01C4AD6
:100A4000FB6813441B78002B23D01A4AFB6813441D
:100A50001B785A1CD0B21749FA680A440146117033
:100A6000012B16D9134AFB68134400221A70124A4C
:100A7000FB6852F83300104AFB68DB0013449B8884
:100A80000122194604F077FD094AFB68134400224D
:100A90001A70FB680133FB60084B1B781A46FB6831
:100AA0009342CCDB00BF00BF1037BD4680BD00BF06
:100AB000440200203C020020700000204C02002074
:100AC00080B584B000AF0346FB71FB79194612482C
:100AD00000F01CFA0023FB7313E0FB7B0F4A52F873
:100AE0003300FB7B0D4ADB0013449B88012219462F
:100AF00004F041FDFB7B0A4A0021D154FB7B01330A
:100B0000FB73FB7B072BE8D9064AFB79137000BF08
:100B10001037BD4680BD00BFA0AB000870000020AC
:100B2000440200204C02002080B584B000AF034690
:100B3000FB71FB792D4A127819462D4800F0E6F931
:100B4000FB79002B1ED10023FB6014E0294AFB68CF
:100B500052F83300274AFB68DB0013449B880122CC
:100B6000194604F008FD244AFB68134400221A7059
:100B7000FB680133FB601D4B1B781A46FB689342F0
:100B8000E4DB30E00023FB6027E0FA79FB6842FAFF
:100B900003F303F00103002B1CD0174AFB68134436
:100BA0001B78002B11D1134AFB6852F83300114A0D
:100BB000FB68DB0013449B880022194604F0DBFC31
:100BC0000D4AFB68134401221A700C4AFB68134457
:100BD00000221A70FB680133FB60044B1B781A4635
:100BE000FB689342D1DB1037BD4680BD4C0200202C
:100BF000C4AB000870000020440200203C0200202A
:100C000080B485B000AF0346FB71114B1B880133E4
:100C10005A4203F07F0302F07F0258BF5342FB6049
:100C20000B4B5B881A46FB6893420BD0084B1B8822
:100C30001A46074B1344FA791A71FB689AB2044BAF
:100C40001A8000E000BF1437BD4680BC704700BF6B
:100C50005402002080B483B000AF7860114B1A8832
:100C6000104B5B889A4201D1002315E00D4B5B8845
:100C70001A460C4B13441A797B681A70094B5B882F
:100C800001335A4203F07F0302F07F0258BF534200
:100C90009AB2044B5A80012318460C37BD4680BCDB
:100CA000704700BF5402002080B582B000AF00231F
:100CB000BB710023FB712DE01C4B5B89002B02D123
:100CC000BB79DF2B25D1194B5B89072B09D8174B33
:100CD0005B895A1C91B2154A51811A46B979134B56
:100CE0009954124BDB681B02BA7913430F4AD36045
:100CF0000E4BDB684FF6FF6293420BD10B4B5B89C7
:100D0000FB710A4B0022DA60084B00225A81FB7902
:100D100008E000BFBB1D1846FFF79CFF0346002BF1
:100D2000CAD1002318460837BD4680BDD80200202E
:100D300080B582B000AF144800F0E8F8FFF7B4FFC8
:100D40000346FB80FB88002B19D0104B5B78332BBC
:100D500005D10E4B9B781846FFF7E6FE0FE00B4BD4
:100D60005B78D12B0BD0094B5B78112B07D1074B4C
:100D70009B78064AD2781146184601F029FA0A20D3
:100D800006F0ABF9DAE700BFE4AB0008D8020020B8
:100D900080B582B000AF78607B681B68084A9342D8
:100DA00009D1084B1B781846FFF72AFF0122054995
:100DB000054805F06AFB00BF0837BD4680BD00BF8F
:100DC0000038014050020020280B002080B588B078
:100DD00000AF03463A60FB710B46BB71254A07F131
:100DE000080307CA03C31A80FB79BB72BB79FB7285
:100DF0000023BB610CE0BB693A681A44BB69043349
:100E0000127820333B4403F8182CBB690133BB61D3
:100E1000BB69032BEFDD08E097F91F30DBB201332C
:100E2000DBB2FB770A2006F058F9134805F001FE03
:100E30000346212BF0D0104805F0FBFD0346232B81
:100E4000EAD007F108014FF47A730A220A4805F044
:100E500091FA03467B617B69002B05D0074800F0BF
:100E600055F86FF0040300E0002318462037BD4614
:100E700080BD00BF18AC0008280B0020FCAB0008A8
:100E800080B500AF054800F041F80122044905484B
:100E900005F0FBFA0023184680BD00BF24AC000813
:100EA00050020020280B002080B485B000AFF8600D
:100EB000B9607A60FB68064A1A60BB68054A1A6026
:100EC0007B6880221A6000BF1437BD4680BC704723
:100ED000E80200208803002080B485B000AFF860ED
:100EE000B9607A60FB68074A1A60BB68064A1A60F4
:100EF0007B684FF480721A6000BF1437BD4680BC17
:100F0000704700BF88050020280600200FB480B578
:100F100082B000AF00237B6007F114037B607B6825
:100F20003A69FF210A4809F027F80948FFF710F944
:100F300003469AB26FF07F430549064805F01AFA56
:100F400000BF0837BD46BDE8804004B0704700BF11
:100F5000280A0020700B002080B483B000AF7860B6
:100F60007B68102B46D801A252F823F0B10F00087D
:100F7000B50F0008B90F0008BD0F0008C10F000829
:100F8000C50F0008C90F0008CD0F0008D10F0008D9
:100F9000D50F0008D90F0008DD0F0008E10F000889
:100FA000E50F0008E90F0008ED0F0008F10F000839
:100FB000144B21E0144B1FE0144B1DE0144B1BE0BD
:100FC000144B19E0144B17E0144B15E0144B13E0CD
:100FD000144B11E0144B0FE0144B0DE0144B0BE0DD
:100FE000144B09E0144B07E0144B05E0144B03E0ED
:100FF000144B01E000BF144B18460C37BD4680BCB3
:10100000704700BF50AC00085CAC000868AC00083A
:1010100078AC00088CAC00089CAC0008ACAC0008B4
:10102000B8AC0008C4AC0008D4AC0008E0AC0008C0
:10103000F0AC0008FCAC00080CAD000818AD0008CE
:1010400028AD000834AD000844AD000880B483B07A
:1010500000AF78607B68202B5CD801A252F823F0A7
:10106000E5100008E9100008ED100008F110000874
:10107000F510000801110008F9100008151100080A
:10108000FD100008151100080511000815110008D1
:1010900009110008151100081511000815110008A4
:1010A0000D11000815110008151100081511000890
:1010B0001511000815110008151100081511000878
:1010C0001511000815110008151100081511000868
:1010D0001511000815110008151100081511000858
:1010E000111100080F4B17E00F4B15E00F4B13E0E9
:1010F0000F4B11E00F4B0FE00F4B0DE00F4B0BE0D0
:101100000F4B09E00F4B07E00F4B05E00F4B03E0DF
:101110000F4B01E000BF0F4B18460C37BD4680BC9B
:10112000704700BF54AD000860AD00086CAD00080A
:1011300074AD000880AD00088CAD000898AD0008C3
:10114000A4AD0008B4AD0008C4AD0008D4AD0008DB
:10115000E4AD0008F4AD000880B400AF024B1846BF
:10116000BD4680BC704700BF00AE0008F0B585B03A
:1011700004AF7748FFF7CAFE7648FFF7C7FE532350
:101180003F2B17D03223303B4FF47A7203FB02F22D
:101190003023303B642101FB03F3D1183223A3F148
:1011A000300213469B0013445B00CA183523303BC2
:1011B000D41800E0632453233F2B67D053234A2BDA
:1011C00005D16523612B02D170236E2B5CD0532394
:1011D000462B56D053234D2B05D16523612B02D1CD
:1011E0007023722B4BD05323412B02D16523702BDC
:1011F00042D053234D2B05D16523612B02D170239F
:10120000792B36D053234A2B05D16523752B02D178
:1012100070236E2B2AD053234A2B05D16523752BBF
:1012200002D170236C2B1ED05323412B02D1652396
:10123000752B15D05323532B10D053234F2B0BD08A
:1012400053234E2B06D05323442B01D10C2209E00B
:10125000632207E00B2205E00A2203E0092201E0F5
:10126000082202E001E0072202E001E0062202E09B
:1012700001E0052202E001E0042204E003E0032291
:1012800005E0022203E002E0012200E06322532392
:101290003F2B10D031232F2B08D93123A3F130015C
:1012A0000B469B000B445B00194600E000213623EF
:1012B000303BCD1800E0632531233F2B0CD0312388
:1012C000A3F130010B469B000B445B00194634230D
:1012D0000B44A3F1300100E0632131233F2B0CD0FC
:1012E0003123A3F1300003469B0003445B00184602
:1012F00034230344A3F1300000E0632031233F2B6B
:101300000BD03223A3F1300633469B0033445B00FD
:101310001E4630233344303B00E0632302930190A8
:1013200000912B4621460C48FFF7F0FDFFF714FF14
:10133000034619460948FFF7E9FD09490948FFF73F
:10134000E5FD0348FFF7E2FD00BF0437BD46F0BDF1
:1013500014AE000854AE000878AE0008ACAE000829
:10136000C0AE0008C8AE000880B500AFFFF788FD2A
:101370000346002B02D04FF0FF330CE0FFF724FAB6
:10138000FFF7DAF90346002B02D04FF0FF3302E0FB
:10139000FFF708FB0023184680BD000080B582B02F
:1013A00000AF7860396039680348FFF7AFFD00BFD0
:1013B0000837BD4680BD00BFE0AE0008B0B59CB0A8
:1013C00000AF03F06FFB00F091F800F02BF900F094
:1013D000D5F800F0FDF8FFF7C9FEFFF7C5FF364B63
:1013E000BB660023FB6607F1680300220121184653
:1013F00005F088FE0346314A1360314B07F158046B
:101400000FCB84E80F0007F158030021184605F0C0
:10141000F1FE03462B4A13602B4B07F13C041D469B
:101420000FCD0FC495E8070084E8070007F13C03DF
:101430000021184605F005FE0346244A1360244B9C
:1014400007F120041D460FCD0FC495E8070084E87E
:10145000070007F120030021184605F0F2FD0346BE
:101460001C4A13601C4B3C1D1D460FCD0FC495E854
:10147000070084E807003B1D0021184605F0E1FD48
:101480000346164A1360114B1B68002B02D1144807
:10149000FFF73CFD0F4B1B68002B02D11148FFF7F3
:1014A00035FD0E4B1B68002B02D10F48FFF72EFDB8
:1014B00005F0C0FD00BFFDE7C9170008C80B0020FC
:1014C0006CAF0008C40B00208CAF0008B80B0020E4
:1014D000B4AF0008BC0B0020D8AF0008C00B002040
:1014E00004AF000828AF00084CAF000880B590B0EA
:1014F00000AF07F1180328220021184608F04AFD22
:101500003B1D00221A605A609A60DA601A61092352
:10151000BB614FF48033FB6100233B620123BB625C
:1015200001233B6302237B634FF48033BB634FF49F
:10153000E013FB6307F11803184604F04DF8034667
:10154000002B01D000F062F90F237B600223BB6007
:101550000023FB604FF480633B6100237B613B1DF4
:101560000221184604F0BAFA0346002B01D000F01D
:101570004DF900BF4037BD4680BD000080B500AFCB
:10158000114B124A1A60104B4FF4E1325A600E4B65
:1015900000229A600C4B0022DA600B4B00221A6189
:1015A000094B0C225A61084B00229A61064B00221B
:1015B000DA61054804F08EFE0346002B01D000F0EE
:1015C00025F900BF80BD00BF280B00200038014076
:1015D00080B500AF114B124A1A60104B4FF4E13244
:1015E0005A600E4B00229A600C4B0022DA600B4BC3
:1015F00000221A61094B0C225A61084B00229A61A1
:10160000064B0022DA61054804F064FE0346002B15
:1016100001D000F0FBF800BF80BD00BF700B0020C0
:101620000044004080B588B000AF07F110030022ED
:101630001A605A609A60DA60454B9B69444A43F0ED
:1016400010039361424B9B6903F01003FB60FB683E
:101650003F4B9B693E4A43F0200393613C4B9B699F
:1016600003F02003BB60BB68394B9B69384A43F0E9
:1016700004039361364B9B6903F004037B607B6832
:10168000334B9B69324A43F008039361304B9B69AB
:1016900003F008033B603B6800224FF400512D48E3
:1016A00003F069FF00224FF2F8312B4803F063FF8B
:1016B00000224FF41941294803F05DFF4FF4005315
:1016C0003B6101237B610023BB610223FB6107F1C6
:1016D000100319461F4803F0B3FDC0233B610023EC
:1016E0007B610023BB6107F1100319461B4803F01F
:1016F000A7FD03233B6100237B610023BB6107F14E
:1017000010031946144803F09BFD4FF2F8333B6178
:1017100001237B610023BB610223FB6107F11003FE
:1017200019460D4803F08CFD4FF419433B6101232A
:101730007B610023BB610223FB6107F110031946A3
:10174000064803F07DFD00BF2037BD4680BD00BFC9
:101750000010024000100140000C01400008014050
:1017600080B582B000AF78600948FFF7CFFB00F08A
:1017700063FB00F079FC074B1B684FF4FA711846C5
:1017800005F0F4FCFEF72AFF00BF0837BD4680BD18
:10179000F4AF0008C80B002080B582B000AF7860BD
:1017A0000248FFF7B3FBFFF7C3FAFCE70CB00008F1
:1017B00080B582B000AF78600248FFF7A7FBFEF764
:1017C000E9FEFCE724B0000880B582B000AF786085
:1017D0004FF40051034803F0E6FE00BF0837BD4652
:1017E00080BD00BF0010014080B582B000AF7860BE
:1017F0007B681B68044A934201D103F069F900BF7A
:101800000837BD4680BD00BF0008004080B400AF6F
:1018100072B600BF00BFFDE780B584B000AF184BC3
:101820009B69174A43F001039361154B9B6903F0D1
:101830000103BB60BB68124BDB69114A43F0805364
:10184000D3610F4BDB6903F080537B607B68002220
:101850000F216FF0010003F00CFA0A4B5B68FB608C
:10186000FB6823F0E063FB60FB6843F00073FB6000
:10187000044AFB68536000BF1037BD4680BD00BFFF
:10188000001002400000014080B58AB000AF7860CF
:1018900007F1180300221A605A609A60DA607B68C8
:1018A0001B683B4A93423AD13A4B9B69394A43F40D
:1018B00080439361374B9B6903F480437B617B6971
:1018C000344B9B69334A43F004039361314B9B696A
:1018D00003F004033B613B694FF40073BB610223D7
:1018E000FB6103237B6207F1180319462A4803F0C2
:1018F000A7FC4FF48063BB610023FB6100233B62C4
:1019000007F118031946244803F09AFC0022052128
:10191000252003F0AEF9252003F0C7F934E07B68F9
:101920001B681E4A93422FD11A4BDB69194A43F4B4
:101930000033D361174BDB6903F40033FB60FB68B2
:10194000144B9B69134A43F004039361114B9B6949
:1019500003F00403BB60BB680423BB610223FB618B
:1019600003237B6207F1180319460B4803F068FC58
:101970000823BB610023FB6100233B6207F11803CE
:101980001946054803F05CFC00BF2837BD4680BD02
:1019900000380140001002400008014000440040AF
:1019A00080B58EB000AF78600023FB620023BB627D
:1019B000002387F83330344BDB69334A43F00403A8
:1019C000D361314BDB6903F00403FB60FB6807F173
:1019D000100207F114031146184604F0EFF93B6AB0
:1019E000FB62FB6A002B03D104F0C0F9786304E0CA
:1019F00004F0BCF903465B007B637B6B234AA2FBCC
:101A000003239B0C013BBB62214B224A1A60204BF3
:101A100040F2E732DA601E4ABB6A53601C4B002278
:101A20001A611B4B00229A60194B00229A611848D8
:101A300004F012FA034687F8333097F83330002B5E
:101A40001BD1134804F060FA034687F8333097F847
:101A50003330002B11D11E2003F027F97B680F2BA8
:101A600008D8002279681E2003F003F90A4A7B682F
:101A7000136002E0012387F8333097F833301846BB
:101A80003837BD4680BD00BF0010024083DE1B43D7
:101A9000CC0B0020000800405801002080B400AFAB
:101AA00000BFFDE780B400AF00BFFDE780B400AF2A
:101AB00000BFFDE780B400AF00BFFDE780B400AF1A
:101AC00000BFFDE780B400AF00BFBD4680BC7047DB
:101AD00080B500AF024804F069FA00BF80BD00BFC6
:101AE000CC0B002080B500AF024804F0F3FC00BF2F
:101AF00080BD00BF280B002080B586B000AF7860A5
:101B0000144A154BD31A7B617B693B61134B1B68ED
:101B1000002B02D1114B124A1A60104B1A687B68D5
:101B200013443A699A4207D208F09AFA03460C2203
:101B30001A604FF0FF3309E0084B1B68FB60074B4E
:101B40001A687B681344054A1360FB681846183707
:101B5000BD4680BD0050002000040000140C002091
:101B6000B838002080B400AF00BFBD4680BC7047CD
:101B700080B400AF094BDB68084A43F08073D36040
:101B8000074B00225A60064B1B68054A43F00103CD
:101B9000136000BFBD4680BC704700BFF0ED00E0A1
:101BA000001000E080B487B000AF78600E4B1B6877
:101BB0000E4AA2FB03239B0C7B610D4B5B683B61D0
:101BC0007B687A6902FB03F3FB6000BF084B5A682D
:101BD0003B69D31AFA689A42F8D800BF00BF1C3795
:101BE000BD4680BC704700BFB000002083DE1B43B1
:101BF000001000E080B584B000AF78600B46FB7049
:101C0000FB78DB00FB700023FB730CE0FB7B7A6846
:101C100013441B78184600F085F8012005F05DFAA2
:101C2000FB7B0133FB73FA7BFB789A42EED300BF58
:101C300000BF1037BD4680BD80B500AF01224FF414
:101C40008071084803F097FC0120FFF7ABFF0022EA
:101C50004FF48071034803F08EFC6420FFF7A2FF6D
:101C600000BF80BD0008014080B582B000AF0346D0
:101C7000FB71FB7903F00103DBB21A464FF400411C
:101C8000164803F078FCFB795B10DBB203F001032C
:101C9000DBB21A464FF48041104803F06CFCFB792C
:101CA0009B10DBB203F00103DBB21A464FF4005184
:101CB0000A4803F060FCFB79DB10DBB203F00103A0
:101CC000DBB21A464FF48051044803F054FCFFF78E
:101CD000B3FF00BF0837BD4680BD00BF000C014008
:101CE00080B582B000AF0346FB7100224FF48051F3
:101CF0000B4803F040FCFB791B09DBB21846FFF7E9
:101D0000B3FFFB7903F00F03DBB21846FFF7ACFF1C
:101D10003220FFF747FF00BF0837BD4680BD00BF38
:101D20000008014080B582B000AF0346FB7101227C
:101D30004FF480510B4803F01EFCFB791B09DBB20A
:101D40001846FFF791FFFB7903F00F03DBB218464B
:101D5000FFF78AFF3220FFF725FF00BF0837BD4697
:101D600080BD00BF0008014080B582B000AF786040
:101D70007B685A1C7A601B781846FFF7D3FF7B6894
:101D80001B780A2BF4D100BF00BF0837BD4680BDC9
:101D900080B500AF0120FFF7A3FF022005F09DF9F9
:101DA00000BF80BD80B500AF0348FFF7AFF80C203F
:101DB000FFF796FF00BF80BD38B0000880B500AFC8
:101DC0000348FFF7A3F80E20FFF78AFF00BF80BD8E
:101DD00054B0000880B582B000AF03460A46FB71DC
:101DE0001346BB71BB79002B04D11248FFF78EF864
:101DF0000123BB71BB79013BBB71FB79012B02D085
:101E0000022B09D011E0BB7963F07F03BB71BB7972
:101E10001846FFF765FF08E0BB7963F03F03BB712D
:101E2000BB791846FFF75CFF00BF00BF0837BD460F
:101E300080BD00BF70B0000880B500AFFFF798FE0E
:101E400001224FF48071194803F095FB00224FF4F2
:101E50008051164803F08FFB00224FF400611348B5
:101E600003F089FB3320FFF73BFF042005F035F931
:101E70003220FFF735FF042005F02FF92820FFF767
:101E80002FFF0C20FFF72CFF0620FFF729FFFFF79D
:101E90007FFFC82005F021F94020FFF721FF062130
:101EA0000348FFF7A7FE00BF80BD00BF0008014048
:101EB000B400002080B483B000AF0346FB71FB790F
:101EC000102B77D0102BC0F29D80E42B00F39A806A
:101ED000B12BC0F29780B13B332B00F2938001A26B
:101EE00052F823F0B91F0008BD1F0008C11F0008E9
:101EF000C51F0008C91F0008CD1F0008D11F00081A
:101F0000D51F0008D91F0008DD1F0008E11F0008C9
:101F1000E51F0008E91F0008ED1F00080520000864
:101F200005200008052000080520000805200008FD
:101F300005200008052000080520000805200008ED
:101F400005200008052000080520000805200008DD
:101F500005200008052000080520000805200008CD
:101F600005200008052000080520000805200008BD
:101F700005200008052000080520000805200008AD
:101F8000052000080520000805200008052000089D
:101F9000052000080520000805200008052000088D
:101FA000F11F0008F51F0008F91F0008FD1F0008B9
:101FB00001200008174B27E0174B25E0174B23E0C3
:101FC000174B21E0174B1FE0174B1DE0174B1BE091
:101FD000174B19E0174B17E0174B15E0174B13E0A1
:101FE000174B11E0174B0FE0174B0DE0174B0BE0B1
:101FF000174B09E0174B07E0174B05E0174B03E0C1
:10200000174B01E000BF174B18460C37BD4680BC8C
:10201000704700BF98B00008ACB00008BCB0000822
:10202000C8B00008D8B00008E8B00008F4B0000854
:1020300004B1000814B1000824B1000834B100084C
:1020400040B1000854B1000864B1000874B1000840
:1020500084B1000898B10008ACB10008C0B1000814
:10206000D0B10008E0B10008F0B589B002AF4C2251
:1020700000213F4807F08EFF3E4B1B683E4A10464A
:10208000194651231A4608F017F83B4B1B7A0133C7
:10209000DBB25B00DAB2364B1A71354B1B7918464E
:1020A000FEF70EFD344B1A79314B9A703B1D334AC3
:1020B0003349184607F010FF2D4B1B791A463B1D7C
:1020C00019463048FEF722FF02210120FFF782FE69
:1020D0003B1D1846FFF748FE01210220FFF77AFE5C
:1020E000254B93F84F301946234B93F850301A463E
:1020F0002548FEF70BFF204B93F84F30234AA2FBF5
:102100000323DB08DBB21D461B4B93F84F201F4B0C
:10211000A3FB0213D9080B469B000B445B00D31AA8
:10212000DBB21E46144B93F85030184AA2FB03232F
:10213000DB08DBB21C46104B93F85020134BA3FB7B
:102140000213D9080B469B000B445B00D31ADBB289
:10215000381D0193009433462A460D4907F0BCFE12
:102160003B1D1846FFF700FE00BF1C37BD46F0BD03
:10217000180C002034020020640C0020A30C002066
:10218000F0B10008F4B1000814B20008CDCCCCCCFA
:102190002CB2000880B582B000AF03463A60FB71F4
:1021A0000B46BB71FB791846FFF784FE03461946C0
:1021B0000648FEF7ABFEB979FB793A681846FEF798
:1021C00005FE00BF0837BD4680BD00BF48B200080D
:1021D00080B582B000AF03460A46FB711346BB715F
:1021E000FB79BA7919460748FEF790FE064AFB7953
:1021F00082F85030054B01221A7000BF0837BD46E7
:1022000080BD00BF5CB20008640C0020180C0020E8
:1022100080B584B000AF0023FB600023FB72002375
:102220007B60002200211020FFF7B4FF734B1B7866
:10223000002B03D1642004F050FFF2E700BF704B85
:1022400093F82D303B71FB68DBB23A1D1946B8207C
:10225000FFF7A0FF6A4B9B79002B01D1694B00E08F
:10226000694B19466948FEF751FE654B9B793B71F6
:10227000624B1B793A1D1946BC20FFF78BFF604B60
:10228000B3F837309BB23B817B7A3B713B7A7B71F1
:102290003B1D1A460021BE20FFF77CFF584B9B795F
:1022A000012B22D10023FB6019E0554AFB6813443F
:1022B0002E331B783B71FB68DBB23A1D1946BD20FB
:1022C000FFF768FF0122FB6802FA03F35AB297F99D
:1022D0000B3013435BB2FB72FB680133FB60474B6F
:1022E0001B791A46FB689342DFDB0023FB6034E076
:1022F000434AFB6804335B001344B3F801309BB2DC
:102300003B817B7A3B713B7A7B71FB68DBB23A1D88
:102310001946B220FFF73EFF394AFB680C335B00D9
:102320001344B3F803309BB23B817B7A3B713B7A19
:102330007B71FB68DBB23A1D1946B320FFF72AFF19
:102340000122FB6802FA03F35AB297F90B301343E8
:102350005BB2FB72FB680133FB60284B1B791A46AA
:10236000FB689342C4DB3B1D04220021184607F0A2
:1023700011FE234B5B79002B02D1FF23FB7101E09F
:102380000123FB713B1D1A460021B420FFF702FF19
:102390003B1D04220021184607F0FCFDFB7AFB716F
:1023A000164B1B793A1D1946B520FFF7F3FE144B67
:1023B0005B793B7101237B71FB68DBB23A1D1946E7
:1023C000B120FFF7E7FE0E4BD3F839307B603B1DA1
:1023D0001A460021E320FFF7DDFE094BB3F83D303C
:1023E0009BB23B803B88BB803B1D1A460021E4200A
:1023F000FFF7D0FE00BF1037BD4680BD180C00208F
:10240000640C002084B200088CB2000894B200086A
:1024100080B500AF104B9B7B002B1AD00E4B1B7C62
:1024200001211846FFF7D6FC0B4BDB7B83F0010341
:10243000DAB2094BDA73084BDB7B1A4613469B0072
:1024400013449B001033044A134401331846FFF72A
:102450008BFC00BF80BD00BF180C002090B587B07A
:1024600000AF03460A46FB711346BB710D233B6167
:10247000FB791846FEF770FD0446BB791846FEF757
:10248000E5FD0246154B5B7821461548FEF73EFDFB
:10249000FB793B72BB799BB27B8100237B6115E0AA
:1024A000104A7B6912F83330FA799A420BD10D4AFF
:1024B0007B69DB0013445B6807F1080292E80300C4
:1024C0009847034606E07B6901337B613B69002B3B
:1024D000E6D1102318461C37BD4690BD180C0020CD
:1024E000B0B20008E400002090B591B002AF0346FE
:1024F000FB7107F1200300221A605A609A60DA60CB
:102500001A6107F10C0300221A605A609A60DA60BF
:102510001A61BF4BDB7887F83730BD4BDB7801336E
:1025200087F83630FB7997F837201946B948FEF717
:10253000EDFCFB79142B00F2188201A252F823F073
:102540009525000895250008DB250008DB250008F7
:1025500021260008212600086726000867260008B3
:10256000BF260008E72600080F27000837270008C5
:102570006B2900085F2700087F270008BD27000897
:10258000E1270008A9280008C5280008DF2800085E
:10259000F9280008FB79002B08D197F8362007F1BD
:1025A00020039D49184607F097FC05E007F120033A
:1025B0009A49184607F090FC97F83730984A043348
:1025C0005B001344B3F801309BB21A4607F10C03C9
:1025D0009449184607F080FCCEE1FB79022B08D124
:1025E00097F8362007F120038F49184607F074FC4E
:1025F00005E007F120038D49184607F06DFC97F8B8
:102600003730874A04335B001344B3F801309BB280
:102610001A4607F10C038649184607F05DFCABE14A
:10262000FB79042B08D197F8362007F12003814964
:10263000184607F051FC05E007F120037E491846D3
:1026400007F04AFC97F83730754A0C335B001344A7
:10265000B3F803309BB21A4607F10C0374491846CD
:1026600007F03AFC88E1FB79062B08D197F8362071
:1026700007F120037149184607F02EFC05E007F129
:1026800020036F49184607F027FC654B93F82D305F
:10269000002B01D06B4A00E06B4A07F10C036B4939
:1026A000184607F019FC07F10C0311221946684877
:1026B00007F002FD6749684807F00EFC5CE107F18E
:1026C00020036649184607F007FC554B5B79002B41
:1026D00001D0634A00E0634A07F10C0362491846DF
:1026E00007F0FAFB48E107F120036049184607F0BC
:1026F000F3FB4B4B5B79002B01D0594A00E0594A60
:1027000007F10C035849184607F0E6FB34E107F1DE
:1027100020035749184607F0DFFB414B9B79002BFC
:1027200001D0544A00E0544A07F10C0353491846BB
:1027300007F0D2FB20E107F120035149184607F0CA
:10274000CBFB97F83730364A134493F82E301A46AD
:1027500007F10C034B49184607F0BEFB0CE107F1EB
:1027600020034949184607F0B7FB2D4BDB791A4681
:1027700007F10C034549184607F0AEFBFCE007F1F2
:1027800020034349184607F0A7FB254B93F839303F
:102790001946234B93F83A301C46214B93F83B30B3
:1027A0001A461F4B93F83C3007F10C00019300923E
:1027B00023460A46374907F08FFBDDE007F1200387
:1027C0003349184607F088FB154BB3F83D309BB2F0
:1027D0001A4607F10C033049184607F07DFBCBE0A1
:1027E00007F120032D49184607F076FB084B9B782C
:1027F000012B06D107F10C032949184607F06CFBA1
:10280000BAE007F10C032749184607F065FBB3E06F
:10281000180C0020D4B20008FCB2000810B3000865
:10282000640C002024B3000834B3000848B3000847
:102830005CB300086CB3000880B3000894B30008D0
:10284000A8B30008BCB30008C4B30008CCB30008A8
:10285000290C0020DCB300083D0C0020F0B3000878
:1028600004B400080CB4000814B4000824B4000830
:1028700038B400084CB4000850B4000854B4000840
:1028800068B400087CB4000890B40008A4B4000840
:10289000B8B40008CCB40008E4B40008F8B40008E8
:1028A0000CB5000820B5000807F12003444A45494B
:1028B000184607F011FB07F10C034349184607F0CF
:1028C0000BFB59E007F120034049184607F004FBD1
:1028D00007F10C033E49184607F0FEFA4CE007F1F9
:1028E00020033C49184607F0F7FA07F10C033A4970
:1028F000184607F0F1FA3FE0384B93F84F30384A6A
:10290000A2FB0323DB08DBB21C46344B93F84F20B9
:10291000334BA3FB0213D9080B469B000B445B000F
:10292000D31ADBB207F1200022462E4907F0D4FA71
:102930002A4B93F850302A4AA2FB0323DB08DBB270
:102940001C46264B93F85020254BA3FB0213D908B5
:102950000B469B000B445B00D31ADBB207F10C0063
:102960002246214907F0B8FA06E0FB7919461F48CC
:10297000FEF7CCFA01231EE007F1200319461C489C
:10298000FEF7C4FA07F10C0319461A48FEF7BEFA1F
:1029900001210120FFF71EFA07F120031846FFF777
:1029A000E3F901210220FFF715FA07F10C0318469D
:1029B000FFF7DAF9002318463C37BD4690BD00BF4B
:1029C000A30C002034B500083CB5000850B5000841
:1029D00064B5000878B500088CB50008640C0020C8
:1029E000CDCCCCCCA0B50008B8B50008D0B5000857
:1029F000ECB5000800B6000880B584B000AF03460F
:102A00003960FB80FB88FB60FB88002B08D11B4BE7
:102A1000DB7A01331A460021386807F0BBFA2AE056
:102A2000164BDB7ABB6023E0BB683A681344FF2295
:102A30001A70FB68002B18D0FA68114B83FB021345
:102A40009910D317C91A0B469B000B445B00D11A8F
:102A5000BB683A6813444AB21A70FB68084A82FBA2
:102A600003129210DB17D31AFB60BB68013BBB60FB
:102A7000BB68002BD8DA1037BD4680BD180C00208B
:102A80006766666680B485B000AF78600023BB607F
:102A90000023FB6016E0FB687A68134493F900306A
:102AA000002B0CDBBA6813469B0013445B001946ED
:102AB000FB687A68134493F900300B44BB60FB68F1
:102AC0000133FB60054BDB7A1A46FB689342E2DD7B
:102AD000BB6818461437BD4680BC7047180C0020F0
:102AE00080B58AB002AF3B4683E803000323FB773F
:102AF000984BFB60984A07F1080312681146198049
:102B00000233120C1A7007F10803BB61934B1B7957
:102B10000133FB74924B9B79012B04D107F10C0319
:102B2000BB610423FB778D4B00225A717B88202BDD
:102B300000F2508101A252F823F000BFC12B00081F
:102B4000592C0008D32B0008D52D0008112C0008A3
:102B5000D52D0008D52D0008D52D0008D52D00084D
:102B6000D52D0008D52D0008D52D0008D52D00083D
:102B7000D52D0008D52D0008D52D0008412D0008C1
:102B8000D52D0008D52D0008D52D0008D52D00081D
:102B9000D52D0008D52D0008D52D0008D52D00080D
:102BA000D52D0008D52D0008D52D0008D52D0008FD
:102BB000D52D0008D52D0008D52D0008C12B000803
:102BC000664BDB78082B40F20781644B0022DA70F9
:102BD00002E1624BDB78082B03D1604B0022DA70F4
:102BE0000BE05E4BDB780133FA7C93FBF2F101FBE7
:102BF00002F29B1ADAB2594BDA70584BDA78574B1B
:102C00001B799A4240F0EA80544B0822DA70E5E0E2
:102C1000524BDB78082B06D1504B1B79013BDAB2C3
:102C20004E4BDA700DE04D4BDB785A1EFB7C1344A3
:102C3000FA7C93FBF2F101FB02F29B1ADAB2474BEA
:102C4000DA70464BDA78454B1B799A4240F0C880DF
:102C5000424B0822DA70C3E0404BDA78414B1B78D4
:102C60009A4206D0404B00221A703C4BDA783D4B1A
:102C70001A703A4BDB78082B35D1394B9B79012BF5
:102C80001FD1394B1B781A46BB6913441B780B2B99
:102C90000CD0354B1B781A46BB6913441B780133A3
:102CA000DBB21846FFF720FC786126E02E4B1B783C
:102CB0001A46BB6913441B781846FFF715FC786168
:102CC0001BE0294B1B78FA7F9A4216D9264B1B78BA
:102CD0001A46BB6913441B780133DBB21846FFF771
:102CE00003FC786109E0204B1B781A46BB6913444A
:102CF0001B781846FFF7F8FB78617B69002B0FD033
:102D0000164BDB781946184B1B781A46FB7F01934C
:102D100000920B464FF4107214491548FEF7F6F86E
:102D2000114B1B780133DAB20F4B1A700E4B1B7824
:102D3000FA7F9A4202D80C4B00221A70102367E0E7
:102D4000064BDB78082B15D10320FFF7CDFB78610C
:102D500014E000BF0204060B80B60008180C002027
:102D6000640C002054010020B50C0020A0B900081C
:102D700014B600080220FFF7B7FB78617B69002BCF
:102D800005D040F24E2224492448FEF7BFF8244BD8
:102D9000DB78244A04335B001344B3F801309AB261
:102DA0001F4B9A811E4B0D225A711D4B0422DA7261
:102DB0001B4B9B891C491846FFF71EFE184B93F9C5
:102DC0000530DBB219460220FFF704F8FEF7F6FFE4
:102DD00002231DE000BF04E000BF02E000BF00E0EE
:102DE00000BF0F4BDB78082B04D00020FFF77CFBE3
:102DF000786103E00120FFF777FB78617B69002BA6
:102E000005D040F2652204490448FEF77FF81023FC
:102E100018462037BD4680BDA0B900085CB6000842
:102E2000180C0020640C00201E0C0020B0B58EB0E1
:102E300000AF3B4683E803003B7887F83730BA4B56
:102E400093F9053087F82B30B74B93F90530DBB297
:102E5000093B87F82A30002387F83630B24BDB78FD
:102E600087F829300023FB60AF4B93F905301D46EE
:102E700097F82A407B881846FEF7E8F80346224672
:102E80002946AA48FEF742F87B88013B0B2B00F24B
:102E9000ED8101A252F823F05D300008C92E000830
:102EA0006D3200086D2F00086D3200086D32000889
:102EB0006D320008A13100086D32000811300008A1
:102EC0006D32000837300008974B93F90630052B18
:102ED00006D197F82A30002B02D097F83730F6E168
:102EE00097F82A30002B21D197F82A308E4A1A44BD
:102EF00092F90620D2B20132D2B251B28A4A1344B8
:102F00000A469A7197F82A30874A134493F9063093
:102F1000052B05DD97F82A30834A134400229A7165
:102F200004220021824807F035F81BE097F82A3088
:102F30007D4A1A4492F90620D2B20132D2B251B27D
:102F4000794A13440A469A7197F82A30764A13440C
:102F500093F90630092B05DD97F82A30724A13449D
:102F600000229A71012387F836307FE16E4B93F986
:102F70000630052B06D197F82A30002B02D097F89F
:102F80003730A4E197F82A30002B21D197F82A3066
:102F9000654A1A4492F90620D2B2013AD2B251B22D
:102FA000614A13440A469A7197F82A305E4A1344DC
:102FB00093F90630002B05DA97F82A305A4A134461
:102FC00005229A7104220021594806F0E3FF1BE014
:102FD00097F82A30544A1A4492F90620D2B2013A9C
:102FE000D2B251B2504A13440A469A7197F82A3025
:102FF0004D4A134493F90630002B05DA97F82A302E
:10300000494A134409229A71012387F836302DE189
:10301000454B93F90530DBB2013BDBB25AB2424B70
:103020005A71414B93F90530082B00F31A813E4B3E
:103030000D225A7115E13C4B93F90530DBB2013397
:10304000DBB25AB2384B5A71374B93F905300D2B1E
:1030500040F30981344B09225A7104E13B78022B79
:103060001BD13448FFF70EFD024697F8293091B284
:10307000314A04335B0013440A46A3F80120B2230B
:1030800087F8353097F829302B4A04335B00134416
:10309000B3F801309BB23B821AE02648FFF7F2FCFE
:1030A000024697F8293091B2234A0C335B0013444F
:1030B0000A46A3F80320B32387F8353097F8293060
:1030C0001D4A0C335B001344B3F803309BB23B82C0
:1030D00097F82930082B0DD07B7C3B733B7C7B73AE
:1030E00007F10C0297F8291097F835301846FFF7CA
:1030F00051F84AE00023FB6241E097F83530B22BEB
:103100001CD197F829300C4A04335B001344B3F800
:10311000013099B2084AFB6A04335B0013440A4643
:10312000A3F801201BE000BF180C002084B60008A3
:103130001F0C00201E0C0020640C002097F8293082
:10314000654A0C335B001344B3F8033099B2624A0A
:10315000FB6A0C335B0013440A46A3F803207B7C14
:103160003B733B7C7B73FB6AD9B207F10C0297F887
:1031700035301846FFF70EF8FB6A0133FB62574BF8
:103180001B791A46FB6A9342B7DB00F0B3F803469B
:10319000102B05D0112387F8373097F8373096E099
:1031A0003B78022B3ED14E48FDF7B0FE97F8293010
:1031B000082B04D10520FFF797F9386303E00420BA
:1031C000FFF792F938633B6B002B05D040F2D32216
:1031D00044494548FDF79AFE032387F8373097F8AE
:1031E00029303D4A0C335B001344B3F803309AB2E4
:1031F0003A4B9A81394B0D225A71384B0422DA72BC
:10320000364B9B8939491846FFF7F6FB334B93F948
:103210000530DBB219460220FEF7DCFD012387F8FA
:10322000363014E03B78032B11D197F82930082B66
:1032300004D10720FFF758F9386303E00620FFF7B1
:1032400053F93863042387F83730FEF7ABFD3B6B47
:10325000002B0AD04FF43A7222492348FDF756FE5C
:1032600003E000BF02E000BF00E000BF97F8363087
:10327000002B1AD01D48FFF705FC024607F1140386
:103280001B49184606F028FE01210220FEF7A2FD88
:1032900007F114031846FEF767FD104B93F905304C
:1032A000DBB219460220FEF795FD0C4B93F9053071
:1032B0001A4697F82B309A4207D0084B93F90530FD
:1032C000DBB219460220FEF785FD97F83730184625
:1032D0003837BD46B0BD00BF640C0020180C00207C
:1032E000A8B60008B4B900085CB600081E0C00209F
:1032F000C4B6000880B500AF094B1B68094A1846E0
:10330000114651231A4606F0D7FEFDF781FA03460F
:10331000002B01DA112300E01023184680BD00BF06
:1033200034020020640C002080B582B000AF00237E
:103330007B60FDF7D5F9064B9B783B713B1D1A4628
:103340000021E020FEF726FF00BF0837BD4680BD04
:10335000180C002080B588B000AF3B4683E803001E
:103360003B78FB770023FB60FB7F042B04D1A54B4C
:1033700093F82D30BB770CE0FB7F062B03D1A14BDC
:103380005B79BB7705E0FB7F072B02D19D4B9B79D7
:10339000BB77FB7F1846FDF7DFFD0146BB7F1A4672
:1033A0009948FDF7B3FD7B88102B00F2248201A21F
:1033B00052F823F0AB360008AB340008F9330008AC
:1033C000F7370008F9330008F7370008F737000827
:1033D000F73700087F370008F7370008F73700088D
:1033E000F7370008F7370008F7370008F737000805
:1033F000F7370008AB360008844B5B78002B01D10F
:10340000FB7FFEE1BB7F83F00103BB77FB7F042BD7
:1034100012D1BB7F002B01D17D4B00E07D4B1A46C2
:103420007D497E4806F058FD764ABB7F82F82D30F4
:103430007B4BB8221A7028E0FB7F062B11D1BB7F93
:10344000002B01D1774B00E0774B1A467749734840
:1034500006F042FD6B4ABB7F5371714BB1221A706B
:1034600013E0FB7F072B10D1BB7F002B01D1704BEA
:1034700000E0704B1A467049684806F02DFD614A1D
:10348000BB7F9371664BBC221A70BB7F634A19469F
:103490006A48FDF73BFD5D4B1B7C01211846FEF79A
:1034A00099FC5E48FEF760FCAAE1584B5B78002B64
:1034B00000F0A381554B00229A73544B00225A709E
:1034C000524B9B7B1846FDF719F9FB7F042B15D156
:1034D0004E4BDB78082B11D100237B6108E0494B70
:1034E00093F82D20474B83F82D207B6901337B61B6
:1034F000464B1B791A467B699342F0DBFFF7FAFED5
:103500000346FB77FB7F102B01D0112379E1444B5D
:103510001B78B12B10D1BB7F002B02D1FF23FB7393
:1035200001E00123FB73394B1B7907F10C021946AB
:10353000B420FEF72FFE3FE0394B1B78BC2B3BD16C
:10354000304B9B79012B37D12E4BB3F837309BB2E0
:103550003B817B7A3B733B7A7B7307F10C031A4602
:103560000021BE20FEF716FE00233B6110E0254A35
:103570003B6913442E331B783B733B69DBB207F185
:103580000C021946BD20FEF705FE3B6901333B6185
:103590001E4B1B791A463B699342E8DB194B93F8A3
:1035A0002D303B7301237B73184B1B7907F10C0201
:1035B0001946B820FEF7EEFD3B78042B44D1114BA1
:1035C0009B79002B09D10123FB77104B0022DA7085
:1035D0000020FEF789FFB86109E00A4B9B79012BB7
:1035E00005D10523FB770B20FEF77EFFB861BB6991
:1035F000002B3BD040F28A3211491248FDF786FC7D
:1036000034E000BF640C0020D8B60008180C00207D
:10361000C4B30008BCB30008CCB30008290C0020D8
:10362000B60C00200CB4000804B4000814B4000860
:1036300050B400084CB40008FCB6000810B70008ED
:10364000C8B900085CB600080123FB776F4B002265
:10365000DA700020FEF748FFB861BB69002B05D087
:1036600040F291326A496B48FDF750FC6A4B1B7877
:103670001946BB7F1A466948FDF748FCBB7F3B7380
:1036800001237B73644B1B78604A117907F10C02AC
:103690001846FEF77FFDFB7F1846FDF75DFC0346ED
:1036A00019465F48FDF732FCA7E07B88102B38D124
:1036B000FB7F062B1FD1BB7F012B01D1594B00E0B3
:1036C000594B1A4659495A4806F006FC59495A4876
:1036D00006F002FC0920FEF707FFB8614E4BB1224D
:1036E0001A70BB69002B38D040F2AB3248494948C8
:1036F000FDF70CFC31E0FB7F072B2ED1BB7F002BAD
:1037000001D14E4B00E04E4B1A464E49484806F058
:10371000E3FB4849484806F0DFFB3F4BBC221A70E8
:103720001BE07B88002B15D1FB7F042B15D1BB7FC1
:10373000012B01D1444B00E0444B1A4644493C481C
:1037400006F0CAFB43493C4806F0C6FB324BB822A0
:103750001A7002E04048FDF7D9FB2C4B01225A7049
:103760002A4B0022DA73294B02221A74274B0122BA
:103770009A73264B9B7B1846FCF7C0FF40E0FB7F0B
:10378000042B16D1214BDB78082B04D10720FEF740
:10379000ABFEB86103E00620FEF7A6FEB861BB6988
:1037A000002B2CD040F2CD3219491A48FDF7AEFB60
:1037B00025E0FB7F062B0DD10820FEF795FEB861B2
:1037C000BB69002B1BD040F2D23211491148FDF7E2
:1037D0009DFB14E0FB7F072B11D10A20FEF784FE2E
:1037E000B861BB69002B0AD040F2D93208490948B8
:1037F000FDF78CFB03E000BF02E000BF00E000BF6C
:10380000FB7F18462037BD4680BD00BF180C002046
:10381000C8B900085CB60008B60C002030B7000834
:103820004CB7000804B400080CB4000814B4000835
:10383000290C00208CB500083D0C002050B4000875
:103840004CB4000864B70008BCB30008C4B3000857
:10385000CCB30008DCB3000878B7000880B58CB0A2
:1038600000AF3B4683E803003B7887F82F308F4B4F
:10387000DB781A468E4B134493F82E3087F82730A6
:103880000023FB61894BDB7887F8263097F82630D8
:1038900097F8272019468748FDF738FB7B88082BC7
:1038A00000F2C48001A252F823F000BF0B3A0008D6
:1038B00031390008D13800082D3A000801390008D4
:1038C0002D3A00082D3A00082D3A00082D3A00083C
:1038D00097F82620764B134493F82E30591CC8B223
:1038E00073490A44014682F82E10632B40F2A080EF
:1038F00097F826306E4A1344002283F82E2097E072
:1039000097F826206A4B134493F82E30591EC8B2FC
:1039100067490A44014682F82E10002B40F08A8045
:1039200097F82630624A1344642283F82E2081E0FF
:103930005E4B5B78002B57D0FEF734FA5B4B0022CE
:103940005A7097F82630082B0FD097F82630584A2F
:10395000134493F82E303B7707F11C0297F826307A
:103960001946BD20FEF716FC32E097F8261097F8AE
:1039700026304F4A134493F82E301A464E48FDF72E
:10398000C5FA0023BB621DE097F82630484A13446D
:1039900093F82E10464ABB6A13442E330A461A7017
:1039A00097F82630424A134493F82E303B77BB6A8F
:1039B000DBB207F11C021946BD20FEF7EBFBBB6A28
:1039C0000133BB62394B1B791A46BB6A9342DBDB7E
:1039D000FFF790FC034687F82F3097F82F30112B14
:1039E00002D197F82F305DE0012387F82F300020B7
:1039F000FEF77AFD38623B6A002B1DD04FF48262DD
:103A00002E492F48FDF782FA16E0284B01225A7002
:103A1000264B0B225A71254B93F90530DBB2194620
:103A20000220FEF7D7F9FEF7C9F906E000BF04E06F
:103A300000BF02E000BF00E000BF97F826301C4A3C
:103A4000134493F82E3097F827209A4228D097F8FD
:103A50002630174A134493F82E301A4607F108030C
:103A60001849184606F038FA01210220FEF7B2F98B
:103A700007F108031846FEF777F997F826300C4A45
:103A8000134493F82E303B7797F82630082B07D055
:103A900007F11C0297F826301946BD20FEF77AFB85
:103AA00097F82F3018463037BD4680BD180C0020DF
:103AB000640C00208CB70008ACB70008E0B900081F
:103AC0005CB60008D0B7000880B586B000AF3B46B2
:103AD00083E803003B78FB755B4BDB79BB75002308
:103AE000FB607B88013B0F2B00F2918001A252F812
:103AF00023F000BF653B0008353B00080F3C000881
:103B00004D3B00080F3C00080F3C00080F3C00082C
:103B1000ED3B00080F3C00080F3C00080F3C00087C
:103B20000F3C00080F3C00080F3C00080F3C000849
:103B3000B33B0008444BDB795A1CD1B2424AD171E5
:103B4000092B66D9404B0122DA7162E03E4BDB79EA
:103B50005A1ED1B23C4AD171012B5CD83A4B0A2291
:103B6000DA7158E0394B01229A70384B5B78002BA0
:103B70000ED0FEF717F9354B00225A70334B9B7865
:103B80003B7307F10C031A460021E220FEF702FB0B
:103B90002D4B01221A71FFF7ADFB0346FB75FB7D30
:103BA000112B01D1FB7D4BE00B23FB75FFF7BCFB19
:103BB00034E0264B01225A70244B0E225A710D20FC
:103BC000FEF792FC38613B69002B04D040F255416E
:103BD0001F48FDF79BF91D4B93F90530DBB21946E1
:103BE0000220FEF7F7F8FEF7E9F817E0174B5B78CD
:103BF000002B12D10D20FEF777FC38613B69002BBA
:103C00000BD040F25E411248FDF780F905E000BF9D
:103C100004E000BF02E000BF00E000BF0A4BDB7918
:103C2000BA7D9A420BD00D20FEF75EFC38613B69ED
:103C3000002B04D04FF48D610648FDF767F9FB7D3A
:103C400018461837BD4680BD640C0020180C0020B3
:103C5000E4B7000800B8000880B584B000AF786011
:103C60000B46FB707868FEF70DFF0346FB811A4B8D
:103C700093F846307B73F978FA897B7B1748FDF718
:103C800045F9FB89FF2B22D97B7B002B03D17B6875
:103C900000221A701BE0FB78002B05D07B7B7A6832
:103CA000134400221A7012E07B7B012B0AD17B683F
:103CB00002331B78052B05D97B7B7A6813440422D9
:103CC0001A7004E07B7B7A68134405221A7000BFE7
:103CD0001037BD4680BD00BF180C00201CB800087E
:103CE000F0B58FB002AF3B4683E803003B7887F81E
:103CF0002F3007F1200300210A461A800A469A70E5
:103D0000002387F82730B44B93F9053087F8263025
:103D10007B88102B00F2208201A252F823F000BF12
:103D20004941000841400008653D0008594100082C
:103D3000653D0008594100085941000859410008F3
:103D40004941000859410008033F00085941000853
:103D5000953F0008594100085941000859410008A1
:103D6000D74000089C4B5B78002B02D197F82F308E
:103D70000BE20023BB622EE0974B93F845301946C7
:103D8000954A0B465B000B441A44BB6A1344393313
:103D900093F90030002B06DA07F12002BB6A1344C6
:103DA00000221A7014E08C4B93F8453019468A4A69
:103DB0000B465B000B441A44BB6A1344393393F936
:103DC0000030D9B207F12002BB6A13440A461A70C8
:103DD000BB6A0133BB62BB6A022BCDDD7B88022B41
:103DE00023D17D4B93F8463030333B4413F8103CDD
:103DF000092B08D1784B93F8463030333B440022EE
:103E000003F8102C0DE0744B93F8463003F13002A8
:103E10003A4412F8102C0132D2B230333B4403F84A
:103E2000102C012387F827301FE06B4B93F84630A6
:103E300030333B4413F8103C002B08D1664B93F809
:103E4000463030333B44092203F8102C0DE0624B1E
:103E500093F8463003F130023A4412F8102C013A3C
:103E6000D2B230333B4403F8102C97F8272007F1E7
:103E7000200311461846FFF7EFFE574B93F84530E5
:103E80001A4613465B0013443833534A1344013334
:103E90001A4607F1200319889B78118093704F48C8
:103EA000FEF7F0FD0346DBB21D464D48FEF7EAFD86
:103EB0000346DBB21E464B48FEF7E4FD0346DBB289
:103EC0001C464948FEF7DEFD0346DBB207F10C0055
:103ED0000193009433462A46444905F0FDFF012131
:103EE0000220FDF777FF07F10C031846FDF73CFFB2
:103EF000394B93F90530DBB219460220FDF76AFF12
:103F000031E1354B5B78002B02D197F82F303CE143
:103F1000314B93F90530DBB2013BDBB25AB22E4B89
:103F20005A712D4B93F90530002B0BDC2A4B0F22D5
:103F30005A71294B032283F84520274B022283F82C
:103F4000462010E1244B93F84630013BDAB2224B75
:103F500083F84620204B93F90530DBB203F00303CE
:103F6000DBB2002B40F0FA801B4B93F90530DBB23B
:103F7000013BDBB25AB2184B5A71174B93F84530DC
:103F8000013BDAB2144B83F84520134B022283F82D
:103F90004620E3E0104B5B78002B02D197F82F30DE
:103FA000F3E00D4B93F90530DBB20133DBB25AB2CB
:103FB000094B5A71084B93F905300F2B18DD064B4E
:103FC00001225A71044B002283F84520024B002243
:103FD00083F84620C7E000BF180C0020510C0020D9
:103FE000540C0020570C00205A0C0020CCB40008C0
:103FF000684B93F846300133DAB2664B83F84620BB
:10400000644B93F90530DBB203F00303DBB2002B02
:1040100040F0A6805F4B93F90530DBB20133DBB291
:104020005AB25C4B5A715B4B93F845300133DAB2AC
:10403000584B83F84520574B002283F846208FE0E9
:10404000544B5B78002B35D0FDF7ACFE0023BB62F0
:1040500015E0BA6A13465B00134438334D4A1344E3
:1040600001331846FEF70EFD0346D9B24A4ABB6A31
:10407000134439330A461A70BB6A0133BB62BB6A08
:10408000032BE6DDFFF736F9034687F82F30414B67
:1040900000225A7097F82F30112B02D197F82F3049
:1040A00073E03E4A0021E320FEF774F80A2387F804
:1040B0002F3058E0384B02221A71FFF71BF90346E4
:1040C00087F82F30334B02229A700B2387F82F305A
:1040D000FFF72AF947E02F4B0222DA720023BB6276
:1040E00013E02D4ABB6A134439331B781846BA6A69
:1040F00013465B0013443833264A134401331946F0
:10410000FEF77AFCBB6A0133BB62BB6A032BE8DDB6
:10411000204B0F225A711F4B032283F845201D4B61
:10412000022283F846201B4B01225A70194B93F947
:104130000530DBB219460220FDF74CFEFDF73EFECE
:104140000E20FEF7D1F90EE0124B5B78002B09D15F
:104150000E20FEF7C9F905E000BF04E000BF02E051
:1041600000BF00E000BF0B4B93F905301A4697F8EB
:1041700026309A4207D0074B93F90530DBB2194637
:104180000220FDF727FE97F82F3018463437BD463A
:10419000F0BD00BF180C0020640C00209D0C002016
:1041A00080B58EB000AF3B4683E803003B7887F8CC
:1041B0003730B84B93F9053087F82B300123FB6279
:1041C0000023FB607B88102B00F2968101A252F83D
:1041D00023F000BFE9440008254400081942000804
:1041E000F944000819420008F9440008F94400089D
:1041F000F9440008E9440008F94400088D43000828
:10420000F9440008D9430008F9440008F9440008BB
:10421000F9440008A94400089E4B5B78002B02D1AA
:1042200097F837307AE19B4A07F124034732106848
:10423000186012791A717B88022B1BD1954B93F869
:10424000463038333B4413F9143C5A1C924B83FBE1
:1042500002139910D317C91A0B469B000B445B003D
:10426000D11A8C4B93F846304AB238333B4403F8AA
:10427000142C1EE0874B93F8463038333B4413F937
:10428000143C03F10902844B83FB02139910D317EA
:10429000C91A0B469B000B445B00D11A7D4B93F867
:1042A00046304AB238333B4403F8142C4FF0FF3306
:1042B000FB6207F124031846FEF7E4FB38633CE099
:1042C000744B93F8463038333B4413F9143CDAB25C
:1042D000FB6ADBB21344DAB26E4B93F8463052B24B
:1042E00038333B4403F8142C6A4B93F84630383388
:1042F0003B4413F9143C092B08DD664B93F8463018
:1043000038333B44002203F8142C10E0614B93F83F
:10431000463038333B4413F9143C002B07DA5D4B2D
:1043200093F8463038333B44092203F8142C07F144
:1043300024031846FEF7A6FB38633B6BB3F5806F8A
:10434000BEDB3B6BB3F5803FBADC524B473307F122
:1043500024021068186012791A7107F110033A6B81
:104360004E49184605F0B8FD01210220FDF732FD47
:1043700007F110031846FDF7F7FC464B93F905309B
:10438000DBB219460220FDF725FDB5E0414B5B7815
:10439000002B02D197F83730C0E03E4B93F905303F
:1043A000DBB2013BDBB25AB23A4B5A71394B93F94B
:1043B0000530072B07DC374B0C225A71354B042292
:1043C00083F8462098E0334B93F84630013BDAB24D
:1043D000304B83F846208FE02E4B5B78002B02D1C8
:1043E00097F837309AE02B4B93F90530DBB2013365
:1043F000DBB25AB2274B5A71264B93F905300C2B7E
:1044000007DD244B08225A71224B002283F84620F4
:1044100072E0204B93F846300133DAB21D4B83F83B
:10442000462069E01B4B5B78002B17D0FDF7BAFCE8
:104430001B48FEF727FB03469AB21A4BA3F83D2010
:10444000184BB3F83D309BB23B813B89BB8107F1F0
:104450000C031A460021E420FDF79CFE114B0222BA
:104460001A710C4B00225A70FEF744FF034687F87E
:10447000373097F83730112B02D197F837304DE0AD
:10448000044B02229A700B2387F83730FEF74CFF5B
:1044900032E000BF180C002067666666E4B40008CE
:1044A0005F0C0020640C00201E4B01225A701D4B33
:1044B0000C225A711B4B0422DA721A4B042283F825
:1044C0004620194BB3F83D309BB218491846FEF709
:1044D00093FA144B93F90530DBB219460220FDF72D
:1044E00079FCFDF76BFC07E00E4B5B78002B02D1EB
:1044F0000F20FDF7F9FF00BF0A4B93F905301A466C
:1045000097F82B309A4207D0064B93F90530DBB26F
:1045100019460220FDF75EFC97F837301846383709
:10452000BD4680BD180C0020640C00205F0C0020EC
:1045300080B584B000AF3B4683E803003B78FB7353
:104540000023BB607B881846FCF780FD03461946B4
:104550001348FCF7DBFC7B88202B06D0202B19DCD2
:10456000002B13D0082B11D014E007F108031A46D2
:104570000021BB20FDF70EFEFDF74AFE094B00228D
:104580001A71FEF7B7FE0123FB7303E01020FDF75D
:10459000ABFF00BFFB7B18461037BD4680BD00BF98
:1045A00044B80008640C002080B485B000AF034616
:1045B000FB710023FB600BE00A4AFB6813441B7885
:1045C000FA799A4201D1FB6806E0FB680133FB608F
:1045D000FB68402BF0D9002318461437BD4680BC39
:1045E000704700BF5CB9000880B584B000AF786048
:1045F0007B681B781846FFF7D7FFF860FB6801332C
:104600001946084BA3FB01239A0913469B01134447
:10461000CA1A054B9A5C7B681A7000BF1037BD46FA
:1046200080BD00BFFDC00FFC5CB9000880B588B03C
:1046300000AF3B4683E803003B78FB77554B93F98B
:104640000530BB777B88013B0B2B00F2838001A2F6
:1046500052F823F00B47000885460008274700085A
:10466000854600085547000855470008554700088B
:104670005547000855470008CF4600085547000831
:10468000ED460008434B93F905303833424A134452
:1046900007331846FFF7A8FF07F108033F4A4049D0
:1046A000184605F019FC01210120FDF793FB07F1E5
:1046B00008031846FDF758FB364B93F90530DBB27B
:1046C0000133DBB219460120FDF784FB42E0314B98
:1046D00093F905300F335A4203F00F0302F00F0233
:1046E00058BF53425AB22B4B5A7133E0294B93F9BE
:1046F000053001335A4203F00F0302F00F0258BF96
:1047000053425AB2234B5A7124E0FDF74BFB214B25
:1047100000225A70FEF7EEFD0346FB77FB7F112B5C
:1047200017D1FB7F31E01B4B01225A70194B02223B
:104730005A71184B93F90530DBB20133DBB21946DD
:104740000120FDF747FBFDF739FB1120FDF7CCFEFB
:1047500000E000BF0F4B93F905301946BB7F1A46A6
:104760001048FCF7D3FB0B4B93F905301A46BB7F7F
:104770009A4209D0074B93F90530DBB20133DBB223
:1047800019460120FDF726FBFB7F18462037BD4662
:1047900080BD00BF180C0020640C0020A30C00207A
:1047A000F0B100085CB8000880B584B000AF3B46AB
:1047B00083E803001023FB730023BB607B8818464B
:1047C000FCF744FC034619461F48FCF79FFB7B8817
:1047D000012B02D0052B2BD030E007F108031A463D
:1047E0000021B920FDF7D6FC184B1B7A1846FBF7C1
:1047F000C9FF4C220021164805F0CCFB154B1B6865
:10480000124A1046194651231A4605F055FC0F4B23
:104810001B7A0133DBB25B00DAB20D4B1A710C4B21
:104820001B791846FCF74CF90020FDF75DFE05E00A
:104830001220FDF759FE3B78FB7300BFFB7B184647
:104840001037BD4680BD00BF7CB80008640C002056
:10485000180C00203402002080B594B000AF0F4A3D
:104860003B4611465022184605F026FC0C490D48DF
:1048700005F032FB0C4B93F9053019463A460B46CE
:104880009B000B449B0013441A460849084805F056
:1048900023FB00BF5037BD4680BD00BFA0B8000855
:1048A00078B50008290C0020180C00209CB80008DE
:1048B0003D0C002080B586B000AF3B4683E8030086
:1048C0003B78FB750023BB7500237B750023FB60E1
:1048D0007B88013B052B00F2A98001A252F823F04E
:1048E0003D490008F94800082D4A00081B49000806
:1048F0002D4A0008F5490008534B93F9053003335E
:104900005A4203F0030302F0030258BF53425AB263
:104910004D4B5A710123BB758CE04B4B93F905301D
:1049200001335A4203F0030302F0030258BF53421B
:104930005AB2454B5A710123BB757BE0424B5B7801
:10494000002B51D0404B00229A733F4B9B7B184663
:10495000FBF7D4FE3C4B93F90530DAB23B4B1A72AD
:104960003A4B1B7A0133DBB25B00DAB2364B1A7179
:10497000354B00225A70344B0022DA70324B1B79CF
:104980001846FCF79DF8FEF7B5FC0346FB75FB7D6A
:10499000112B01D1FB7D53E000233B610CE0012290
:1049A0003B6902FA03F35AB297F9153013435BB22D
:1049B0007B753B6901333B61234B1B791A463B698D
:1049C0009342ECDB204B1B7919467B7D1A4620482D
:1049D000FCF79CFA7B7DFB731B4B1B7907F10C02E8
:1049E0001946B520FDF7D6FB0020FDF77DFD10230D
:1049F000FB751FE0154B1B7A5AB2134B5A71124BC1
:104A00000022DA73104B01221A740F4B01229A73A1
:104A10000D4B01225A700C4B9B7B1846FBF76EFE28
:104A20000123BB751320FDF75FFD03E00948FCF788
:104A30006DFA00BFBB7D002B01D0FFF70DFFFB7DA2
:104A400018461837BD4680BD180C0020640C0020A5
:104A5000F0B8000810B90008FDF784F80B480C49BD
:104A60000C4A002302E0D458C4500433C4188C42CA
:104A7000F9D3094A094C002301E013600432A24231
:104A8000FBD305F0F3FAFCF799FC70470000002017
:104A9000B401002050BA0008B8010020B838002046
:104AA000FEE7000080B500AF084B1B68074A43F0E3
:104AB00010031360032000F0D1F80F20FCF770FF03
:104AC000FCF7AAFE0023184680BD00BF002002406C
:104AD00080B400AF054B1B781A46054B1B68134486
:104AE000034A136000BFBD4680BC70475C010020D4
:104AF000B80C002080B400AF024B1B681846BD46BE
:104B000080BC7047B80C002080B485B000AF7860DE
:104B10007B6803F00703FB600C4BDB68BB60BA6883
:104B20004FF6FF031340BB60FB681A02BB681343D8
:104B300043F0BF6343F40033BB60044ABB68D360F7
:104B400000BF1437BD4680BC704700BF00ED00E0D9
:104B500080B400AF044BDB681B0A03F00703184660
:104B6000BD4680BC704700BF00ED00E080B483B05C
:104B700000AF0346FB7197F90730002B0BDBFB7985
:104B800003F01F02064997F907305B09012000FA7C
:104B900002F241F8232000BF0C37BD4680BC7047AD
:104BA00000E100E080B483B000AF03463960FB71E0
:104BB00097F90730002B0ADB3B68DAB20C4997F90A
:104BC00007301201D2B20B4483F800230AE03B689D
:104BD000DAB20849FB7903F00F03043B1201D2B2A9
:104BE0000B441A7600BF0C37BD4680BC704700BF2F
:104BF00000E100E000ED00E080B489B000AFF860B3
:104C0000B9607A60FB6803F00703FB61FB69C3F1DD
:104C10000703042B28BF0423BB61FB690433062B65
:104C200002D9FB69033B00E000237B614FF0FF32B8
:104C3000BB6902FA03F3DA43BB681A407B699A4006
:104C40004FF0FF317B6901FA03F3D9437B680B40D6
:104C5000134318462437BD4680BC704780B582B0E8
:104C600000AF78607868FFF74FFF00BF0837BD4698
:104C700080BD80B586B000AF0346B9607A60FB7333
:104C800000237B61FFF764FF78617A68B96878690F
:104C9000FFF7B2FF024697F90F3011461846FFF7AB
:104CA00081FF00BF1837BD4680BD80B582B000AF20
:104CB0000346FB7197F907301846FFF757FF00BF0F
:104CC0000837BD4680BD80B485B000AF7860002352
:104CD000FB737B6893F82130DBB2022B08D07B6832
:104CE00004229A637B68002283F82020012320E0BD
:104CF0007B681B681A687B681B6822F00E021A60CA
:104D00007B681B681A687B681B6822F001021A60C6
:104D10007B681A6C7B68DB6B012101FA02F25A6036
:104D20007B68012283F821207B68002283F8202001
:104D3000FB7B18461437BD4680BC704780B584B0F5
:104D400000AF78600023FB737B6893F82130DBB2FF
:104D5000022B05D07B6804229A630123FB7351E088
:104D60007B681B681A687B681B6822F00E021A6059
:104D70007B681B681A687B681B6822F001021A6056
:104D80007B681B68224A934229D07B681B68214AB2
:104D9000934222D07B681B681F4A93421AD07B68DB
:104DA0001B681E4A934212D07B681B681C4A9342C0
:104DB0000AD07B681B681B4A934202D14FF48013D0
:104DC0000EE04FF080730BE04FF4803308E04FF4B7
:104DD000805305E04FF4807302E0102300E00123CC
:104DE000114A53607B68012283F821207B680022EE
:104DF00083F820207B685B6B002B03D07B685B6BA8
:104E000078689847FB7B18461037BD4680BD00BFC9
:104E1000080002401C0002403000024044000240F2
:104E2000580002406C00024000000240F0B587B01C
:104E300000AFF860B960C7E900230123FB750023C8
:104E4000BB7500237B752F4B1B7E012B01D10223E9
:104E500054E02C4B01221A764CF2503000F0B2F89C
:104E60000346FB75FB7D002B44D1FB68012B02D16F
:104E700001237B7507E0FB68022B02D102237B75BF
:104E800001E004237B750023BB752DE0BB7D5A0038
:104E9000BB6802EB030CBB7D1901D7E90023C1F10C
:104EA0002006A1F1200022FA01F403FA06F63443A9
:104EB00023FA00F0044323FA01F5A3B21946604631
:104EC00000F064F84CF2503000F07CF80346FB75BB
:104ED0000D4B1B690C4A23F001031361FB7D002B72
:104EE00007D1BB7D0133BB75BA7D7B7D9A42CDD3A3
:104EF00000E000BF034B00221A76FB7D18461C37EA
:104F0000BD46F0BDC00C00200020024080B483B03C
:104F100000AF0023FB710D4B1B6903F08003002BD6
:104F20000DD00A4B0A4A5A60084B0A4A5A60074B8E
:104F30001B6903F08003002B01D00123FB71FB7977
:104F400018460C37BD4680BC704700BF00200240A9
:104F500023016745AB89EFCD80B400AF054B1B69DA
:104F6000044A43F08003136100231846BD4680BC09
:104F7000704700BF0020024080B400AF024BDB69E5
:104F80001846BD4680BC7047C00C002080B483B07A
:104F900000AF78600B467B80084B0022DA61084B3B
:104FA0001B69074A43F0010313617B687A881A8002
:104FB00000BF0C37BD4680BC704700BFC00C00204E
:104FC0000020024080B584B000AF7860FFF792FD0A
:104FD000F86010E07B68B3F1FF3F0CD07B68002BDA
:104FE00007D0FFF787FD0246FB68D31A7A689A421A
:104FF00001D2032325E0154BDB6803F00103002BEE
:10500000E8D1124BDB6803F02003002B02D00F4BDA
:105010002022DA600D4BDB6803F01003002B0BD16C
:105020000A4BDB6903F00103002B05D1074BDB685A
:1050300003F00403002B03D000F00AF8012300E082
:10504000002318461037BD4680BD00BF0020024037
:1050500080B483B000AF00237B60234BDB6803F098
:105060001003002B09D0214BDB6943F002031F4AD8
:10507000D3617B6843F010037B601B4BDB6803F05C
:105080000403002B09D0194BDB6943F00103174AD5
:10509000D3617B6843F004037B60134BDB6903F04F
:1050A0000103002B0BD0114BDB6943F004030F4AC3
:1050B000D3610D4BDB690C4A23F00103D3617B689C
:1050C00040F20112934206D1074BDB69064A23F0F6
:1050D0000103D36102E0044A7B68D36000BF0C3750
:1050E000BD4680BC704700BF00200240C00C0020BD
:1050F00080B584B000AF786039600123FB73002372
:10510000BB602F4B1B7E012B01D1022353E02C4BA4
:1051100001221A767B681B68022B16D14CF25030A4
:10512000FFF750FF0346002B41D1012000F04CF85F
:105130004CF25030FFF746FF0346FB73214B1B69CF
:10514000204A23F00403136131E04CF25030FFF7A2
:1051500039FF0346002B2AD13B684FF0FF321A601B
:105160007B689B68BB6019E0B86800F049F84CF2B6
:105170005030FFF727FF0346FB73124B1B69114AA0
:1051800023F002031361FB7B002B03D03B68BA685A
:105190001A600CE0BB6803F58063BB607B68DB686A
:1051A0009A027B689B681344BA689A42DCD3044B2A
:1051B00000221A76FB7B18461037BD4680BD00BF23
:1051C000C00C00200020024080B483B000AF7860A3
:1051D000094B0022DA61094B1B69084A43F00403BA
:1051E0001361064B1B69054A43F04003136100BF7E
:1051F0000C37BD4680BC7047C00C00200020024028
:1052000080B483B000AF78600B4B0022DA610B4BA7
:105210001B690A4A43F002031361084A7B68536121
:10522000064B1B69054A43F04003136100BF0C376E
:10523000BD4680BC704700BFC00C0020002002406B
:1052400080B48BB000AF7860396000237B620023AC
:105250003B6269E101227B6A02FA03F3FB613B686E
:105260001B68FA691340BB61BA69FB699A4240F056
:1052700058813B685B689A4A93425ED0984A934251
:1052800075D8984A934258D0964A93426FD8964A16
:10529000934252D0944A934269D8944A93424CD054
:1052A000924A934263D8924A934246D0904A93429C
:1052B0005DD8122B2AD8122B59D801A252F823F00C
:1052C0003B53000815530008275300086953000892
:1052D0006F5300086F5300086F5300086F530008A6
:1052E0006F5300086F5300086F5300086F53000896
:1052F0006F5300086F5300086F5300086F53000886
:105300006F5300081D53000831530008794A934237
:1053100013D02CE03B68DB683B6229E03B68DB682C
:1053200004333B6224E03B68DB6808333B621FE0E8
:105330003B68DB680C333B621AE03B689B68002BE0
:1053400002D104233B6213E03B689B68012B05D12B
:1053500008233B627B68FA691A6109E008233B6213
:105360007B68FA695A6103E000233B6200E000BFFA
:10537000BB69FF2B01D87B6801E07B6804337B614C
:10538000BB69FF2B02D87B6A9B0002E07B6A083B6B
:105390009B003B617B691A680F213B6901FA03F3AB
:1053A000DB431A40396A3B6901FA03F31A437B690C
:1053B0001A603B685B6803F08053002B00F0B180FB
:1053C0004D4B9B694C4A43F0010393614A4B9B69E7
:1053D00003F00103BB60BB68484A7B6A9B08023349
:1053E00052F82330FB607B6A03F003039B000F221B
:1053F00002FA03F3DB43FA681340FB607B68404A20
:10540000934213D07B683F4A93420DD07B683E4A5B
:10541000934207D07B683D4A934201D1032306E0C3
:10542000042304E0022302E0012300E000237A6A5F
:1054300002F0030292009340FA681343FB602F4985
:105440007B6A9B080233FA6841F823203B685B685B
:1054500003F48013002B06D02D4B9A682C49BB69AE
:1054600013438B6006E02A4B9A68BB69DB432849EB
:1054700013408B603B685B6803F40013002B06D07D
:10548000234BDA682249BB691343CB6006E0204B0B
:10549000DA68BB69DB431E491340CB603B685B683D
:1054A00003F40033002B06D0194B5A681849BB6926
:1054B00013434B6006E0164B5A68BB69DB43144943
:1054C00013404B603B685B6803F48033002B21D0B2
:1054D0000F4B1A680E49BB6913430B6021E000BFF4
:1054E00000003210000031100000221000002110D6
:1054F00000001210000011100010024000000140D6
:1055000000080140000C014000100140001401405F
:10551000000401400B4B1A68BB69DB430949134087
:105520000B607B6A01337B623B681A687B6A22FAF4
:1055300003F3002B7FF48EAE00BF00BF2C37BD46B7
:1055400080BC70470004014080B485B000AF786033
:105550000B467B807B689A687B881340002B02D0C7
:105560000123FB7301E00023FB73FB7B1846143718
:10557000BD4680BC704780B483B000AF78600B46F6
:105580007B8013467B707B78002B03D07A887B6806
:105590001A6103E07B881A047B681A6100BF0C372C
:1055A000BD4680BC704780B485B000AF78600B46C4
:1055B0007B807B68DB68FB607A88FB6813401A0499
:1055C000FB68D9437B880B401A437B681A6100BF94
:1055D0001437BD4680BC704780B586B000AF786098
:1055E0007B68002B01D1012372E27B681B6803F00A
:1055F0000103002B00F08780924B5B6803F00C03E3
:10560000042B0CD08F4B5B6803F00C03082B12D1DA
:105610008C4B5B6803F48033B3F5803F0BD1894B2F
:105620001B6803F40033002B6CD07B685B68002B95
:1056300068D101234CE27B685B68B3F5803F06D1FB
:10564000804B1B687F4A43F4803313602EE07B68F5
:105650005B68002B0CD17B4B1B687A4A23F48033A8
:105660001360784B1B68774A23F4802313601DE096
:105670007B685B68B3F5A02F0CD1724B1B68714A35
:1056800043F4802313606F4B1B686E4A43F48033EE
:1056900013600BE06B4B1B686A4A23F48033136082
:1056A000684B1B68674A23F4802313607B685B6840
:1056B000002B13D0FFF71EFA386108E0FFF71AFA43
:1056C00002463B69D31A642B01D9032300E25D4BE8
:1056D0001B6803F40033002BF0D014E0FFF70AFA44
:1056E000386108E0FFF706FA02463B69D31A642BDB
:1056F00001D90323ECE1534B1B6803F40033002B67
:10570000F0D100E000BF7B681B6803F00203002BB0
:1057100063D04C4B5B6803F00C03002B0BD0494B60
:105720005B6803F00C03082B1CD1464B5B6803F449
:105730008033002B16D1434B1B6803F00203002B70
:1057400005D07B681B69012B01D00123C0E13D4BD3
:105750001B6823F0F8027B685B69DB00394913435F
:105760000B603AE07B681B69002B20D0364B01228E
:105770001A60FFF7BFF9386108E0FFF7BBF902468E
:105780003B69D31A022B01D90323A1E12D4B1B68DE
:1057900003F00203002BF0D02A4B1B6823F0F80221
:1057A0007B685B69DB00274913430B6015E0264BE0
:1057B00000221A60FFF79EF9386108E0FFF79AF9B6
:1057C00002463B69D31A022B01D9032380E11D4B0A
:1057D0001B6803F00203002BF0D17B681B6803F009
:1057E0000803002B3AD07B689B69002B19D0174B1C
:1057F00001221A60FFF77EF9386108E0FFF77AF9B5
:1058000002463B69D31A022B01D9032360E10D4BF9
:105810005B6A03F00203002BF0D0012000F0FEFAD7
:105820001CE00A4B00221A60FFF764F938610FE0B0
:10583000FFF760F902463B69D31A022B08D903230C
:1058400046E100BF00100240000042428004424294
:10585000924B5B6A03F00203002BE9D17B681B6863
:1058600003F00403002B00F0A6800023FB758B4B94
:10587000DB6903F08053002B0DD1884BDB69874A2D
:1058800043F08053D361854BDB6903F08053BB60E9
:10589000BB680123FB75824B1B6803F48073002BEC
:1058A00018D17F4B1B687E4A43F480731360FFF767
:1058B00021F9386108E0FFF71DF902463B69D31A68
:1058C000642B01D9032303E1754B1B6803F4807338
:1058D000002BF0D07B68DB68012B06D16F4B1B6A75
:1058E0006E4A43F0010313622DE07B68DB68002BF6
:1058F0000CD16A4B1B6A694A23F001031362674BA0
:105900001B6A664A23F0040313621CE07B68DB68B1
:10591000052B0CD1614B1B6A604A43F004031362F0
:105920005E4B1B6A5D4A43F0010313620BE05B4B65
:105930001B6A5A4A23F001031362584B1B6A574AE9
:1059400023F0040313627B68DB68002B15D0FFF79C
:10595000D1F838610AE0FFF7CDF802463B69D31A67
:1059600041F28832934201D90323B1E04B4B1B6AC9
:1059700003F00203002BEED014E0FFF7BBF8386110
:105980000AE0FFF7B7F802463B69D31A41F28832C2
:10599000934201D903239BE0404B1B6A03F00203AF
:1059A000002BEED1FB7D012B05D13C4BDB693B4A43
:1059B00023F08053D3617B68DB69002B00F0878084
:1059C000364B5B6803F00C03082B61D07B68DB6906
:1059D000022B46D1334B00221A60FFF78BF8386157
:1059E00008E0FFF787F802463B69D31A022B01D97A
:1059F00003236DE0294B1B6803F00073002BF0D1EB
:105A00007B681B6AB3F5803F08D1244B5B6823F4A5
:105A100000327B689B68214913434B601F4B5B68D6
:105A200023F474127B68196A7B685B6A0B431B4919
:105A300013434B601B4B01221A60FFF75BF8386180
:105A400008E0FFF757F802463B69D31A022B01D949
:105A500003233DE0114B1B6803F00073002BF0D0D3
:105A600035E0104B00221A60FFF744F8386108E077
:105A7000FFF740F802463B69D31A022B01D90323F2
:105A800026E0064B1B6803F00073002BF0D11EE0EC
:105A90007B68DB69012B07D1012319E0001002406C
:105AA00000700040600042420B4B5B68FB60FB688B
:105AB00003F480327B681B6A9A4206D1FB6803F4C8
:105AC00070127B685B6A9A4201D0012300E00023D8
:105AD00018461837BD4680BD0010024080B584B01E
