:020000040800F2
:100000000000022051650008A51D0008AD1D000874
:10001000B51D0008BD1D0008C51D0008000000003A
:1000200000000000000000000000000091DD00085A
:10003000CD1D000800000000E1DF000849E00008D5
:10004000A1650008A1650008A1650008A165000878
:10005000A1650008A1650008A1650008A165000868
:10006000A1650008A1650008A1650008A165000858
:10007000A1650008A1650008A1650008A165000848
:10008000A1650008A1650008A1650008A165000838
:10009000A1650008A1650008A1650008A165000828
:1000A000A1650008A1650008A1650008A165000818
:1000B000A1650008A1650008A1650008A165000808
:1000C000A1650008A1650008A1650008A1650008F8
:1000D000A1650008DD1D0008F11D0008A1650008EC
:1000E000A1650008A1650008A1650008A1650008D8
:1000F000A1650008A1650008A1650008A1650008C8
:10010000A1650008A1650008A1650008A1650008B7
:10011000A1650008A1650008051E0008A16500088A
:10012000A1650008A1650008A1650008A165000897
:10013000A16500080000000000000000A1650008A3
:10014000A1650008A1650008A1650008A165000877
:10015000A1650008A1650008A1650008191E000836
:10016000A1650008A1650008A1650008A165000857
:10017000A1650008A1650008000000000000000063
:08018000A1650008A16500085B
:1001900010B5054C237833B9044B13B10448AFF3C1
:1001A00000800123237010BD5C01002000000000CE
:1001B00078EF000808B5034B1BB103490348AFF3C0
:1001C000008008BD000000006001002078EF0008FA
:1001D000034613F8012B002AFBD1181A0138704787
:1001E00001F0FF01102A2BDB10F0070F08D010F8E8
:1001F000013B013A8B422DD010F0070F42B3F6D1EC
:10020000F0B441EA012141EA014122F007047FF004
:1002100000070023F0E80256083C85EA010586EA5B
:10022000010685FA47F5A3FA87F586FA47F6A5FA97
:1002300087F68EB9EED1F0BC01F0FF0102F00702A3
:1002400032B110F8013B013A83EA010313B1F8D14E
:100250000020704701387047002D06BF354603382F
:10026000073815F0010F07D1013015F4807F02BF68
:10027000013015F4C03F0130F0BC0138704700BFB9
:1002800053B94AB9002908BF00281CBF4FF0FF31FD
:100290004FF0FF3000F088B9ADF1080C6DE904CEE5
:1002A00000F006F8DDF804E0DDE9022304B0704751
:1002B0002DE9F047089D8E4604468846002B4AD11A
:1002C0008A42174662D9B2FA82F64EB1C6F12003CD
:1002D00001FA06F820FA03F3B74043EA0808B440ED
:1002E0004FEA174E1FFA87FCB8FBFEF1230C0EFBFA
:1002F000118843EA084301FB0CF29A4209D9FB1822
:1003000001F1FF3080F0EA809A4240F2E780023942
:100310003B449A1AA3B2B2FBFEF00EFB102243EA52
:10032000024300FB0CFC9C4509D9FB1800F1FF328D
:1003300080F0D6809C4540F2D3803B44023840EAAE
:100340000140A3EB0C0300211DB1F3400022C5E9DD
:100350000032BDE8F0878B4205D90DB1C5E9000137
:1003600000210846F5E7B3FA83F1002946D1734529
:1003700002D3824200F20581841A6EEB030201204F
:100380009046002DE5D0C5E90048E2E7002A00F0DC
:100390009080B2FA82F6002E40F0A4808A1A030CF4
:1003A0004FEA174E80B2BCB20121B2FBFEFC0EFB3D
:1003B0001C2243EA024304FB0CF29A4207D9FB18C1
:1003C0000CF1FF3802D29A4200F2E080C4469B1A38
:1003D000B3FBFEF20EFB123340EA034302FB04F4CC
:1003E0009C4207D9FB1802F1FF3002D29C4200F276
:1003F000CA8002461B1B42EA0C40A5E7C1F1200659
:100400008B4022FA06F71F430EFA01F420FA06F396
:100410002EFA06FE4FEA1749234300FA01F81FFAA5
:1004200087FCBEFBF9F01C0C09FB10EE44EA0E44FD
:1004300000FB0CFEA64502FA01F209D93C1900F1B5
:10044000FF3A80F09C80A64540F2998002383C44F7
:10045000A4EB0E041FFA83FEB4FBF9F309FB13446B
:100460004EEA044403FB0CFCA44508D93C1903F1F3
:10047000FF3E80F08280A4457FD9023B3C4443EAA2
:100480000040A4EB0C04A0FB02EC64457346E1467B
:1004900062D35FD05DB1B8EB030264EB090404FAE8
:1004A00006F622FA01F31E43CC40C5E900640021A0
:1004B0004FE7B1FBF2FC010C41EA0E4180B240EA89
:1004C00001423B4638463C46B846BE462026B1FB74
:1004D000F7F1A2EB080241EA0C4166E7014618E792
:1004E00010462CE7C6F120022EFA02F3B740B140C5
:1004F00020FA02F24FEA174E0A43B3FBFEF8BCB2F1
:100500000EFB1833110C41EA034108FB04F9B0401B
:1005100089454FEA104380B23ED9791808F1FF3C73
:1005200001D289451FD8A1EB0901B1FBFEF909FBF6
:1005300004F80EFB191192B242EA0142424529D257
:10054000BA1809F1FF31C4D24245C2D2A9F1020161
:100550003A44BEE7F0459DD2BEEB02036CEB070CBC
:100560000138E14696E7A7EB09094944A8F1020CD6
:10057000B1FBFEF909FB04F8DBE773467FE7504661
:1005800066E70846FDE63B44023A33E7ACF1020C6D
:100590003B441CE749469CE7A1EB0901C446B1FB7B
:1005A000FEF909FB04F8C4E7704700BF80B584B0CA
:1005B00002AF0346FB71F8790023019300230093F7
:1005C00000230022002103F01DF9034618460837D6
:1005D000BD4680BD80B582B000AF2249224800F000
:1005E000E5FA78607B68002B12D0204B1B78002B3B
:1005F00003D01F491F4800F005FC1C4B1B78002B43
:1006000010D07B6826221A491B4800F0FBFB09E04A
:10061000164B1B78022B03D91549184800F0F2FB42
:1006200000231AE000F02CF878607B68002B13D0D0
:100630000E4B1B78002B03D00D490E4800F0E2FB57
:100640000A4B1B78002B05D07B682E2208490A48EC
:1006500000F0D8FB7B6800E07B6818460837BD4691
:1006600080BD00BFC400002000000020802B0020BF
:100670002005010890EF0008BCEF0008F4EF000827
:1006800080B582B000AF1D4B1B78032B03D91C49EA
:100690001C4800F0B7FB1C4B1B681C4A184611464F
:1006A000C4231A460EF01EF8144B1B78022B03D9F4
:1006B0001349174800F0A6FB134B1B68184600F0BF
:1006C000CBF978607B68002B13D00C4B1B78002B88
:1006D00003D00B490F4800F095FB084B1B78002B0B
:1006E00005D07B683D2206490B4800F08BFB7B68F8
:1006F00000E0002318460837BD4680BD802B00204F
:100700003005010818F00008C40000200000002097
:1007100038F0000890EF0008BCEF000880B584B006
:1007200000AF786039601A4B1B78032B05D93B6802
:100730007A681849184800F065FB184B1B68184682
:1007400000F032F8F860FB68002B19D00C20FFF79E
:100750002DFFFB68002B13D00D4B1B78002B03D013
:100760000C490F4800F04EFB094B1B78002B05D0BD
:10077000FB68502207490B4800F044FBFB6803E08C
:100780000D20FFF713FFFB6818461037BD4680BDEC
:10079000802B00204405010860F00008C400002000
:1007A00090EF0008BCEF000880B5C6B002AF07F5B7
:1007B0008873A3F58673186007F58873A3F58473AF
:1007C00018464FF480731A4600210DF0F9FECC2331
:1007D00087F8093107F58873A3F586731B68002B2A
:1007E00013D1464B1B78002B03D04549454800F0F8
:1007F00009FB424B1B78002B04D040224049424861
:1008000000F000FB6FF0150372E007F58873A3F5A5
:1008100086731B683D4A934213D0384B1B78022BDA
:1008200003D937493A4800F0EDFA3A4A07F5887398
:10083000A3F58673196802F10803C42218460DF067
:1008400051FF344B23221A60C421304805F032FE98
:100850000346304A536007F58873A3F584732D4A25
:1008600018461146CC231A460DF03CFF0023A7F88A
:100870000A311CE0B7F80A3107F108021344B7F84F
:100880000A211021019100930123A021224801F0A7
:100890001DFBC7F80C0105200AF049F9D7F80C3107
:1008A000002B09D1B7F80A311033A7F80A31B7F88D
:1008B0000A31FF2BDED900E000BFD7F80C31002B46
:1008C00015D00E4B1B78002B03D00D490D4800F0BE
:1008D00099FA0A4B1B78002B06D0D7F80C31582216
:1008E00007490E4800F08EFAD7F80C3100E00023DB
:1008F000184607F58877BD4680BD00BF802B0020D5
:100900005805010800F1000834F100080800001043
:1009100054F1000800000010842B002080F1000832
:1009200080B586B002AF78600023FB81CC237B7357
:100930007B7B9BB2FA8901931F4B00930123A0217B
:100940001E4801F0FBFA0346002B09D01C4B1B7814
:10095000002B03D01B491C4800F054FA012327E068
:10096000154B1B68232B0AD0154B1B78022B03D980
:100970001449164800F046FA4FF0FF3318E07B6840
:10098000134A1A60C421124805F094FDB8600A4B5E
:100990005B68BA689A420AD0094B1B78002B03D0D7
:1009A00008490C4800F02EFA4FF0FF3300E0002316
:1009B00018461037BD4680BD00000010842B002073
:1009C000802B002078050108B8F10008E8F1000844
:1009D000080000100CF2000880B582B000AF1022B1
:1009E000002119480DF0ECFD00237B600AE0174A56
:1009F0007B684C335B0013444FF47A729A807B68B7
:100A000001337B607B68072BF1DD104B012283F8FB
:100A100029200E4B002242F001025A8500229A85BD
:100A2000202200210A480DF0CBFD084B23221A603A
:100A3000C421084805F03EFD0346044A536000BF48
:100A40000837BD4680BD00BF8C00001000000010BC
:100A50006B0000100800001080B5C8B002AF07F5A9
:100A60008C73A3F58A731860474B1B78032B03D94B
:100A70004649474800F0C6F907F58C73A3F58A7319
:100A80001B68444A93420BD0434A07F58C73A3F585
:100A90008A73196802F10803C42218460DF022FE79
:100AA000FFF79AFF3C4B23221A60C421394805F016
:100AB00001FD0346384A5360CC23C7F80C31D7F800
:100AC0000C31B3F5807F0BDD2F4B1B78002B05D04D
:100AD000D7F80C212D49314800F094F901234EE05C
:100AE00007F58C73A3F586732B4A18461146CC2361
:100AF0001A460DF0F7FD0023A7F812311DE0B7F8F4
:100B0000123107F10C021344B7F8122110210191A0
:100B100000930123A021224801F0D8F90346C7F829
:100B2000143105200AF003F8D7F81431002B09D14D
:100B3000B7F812311033A7F81231B7F81231FF2B82
:100B4000DDD900E000BFD7F81431002B15D00E4BD3
:100B50001B78002B03D00D49124800F053F90A4BC3
:100B60001B78002B06D0D7F81431B42207490E4861
:100B700000F048F9D7F8143101E0D7F814311846DD
:100B800007F58C77BD4680BD802B002098050108B5
:100B90002CF20008080000100000001050F20008BD
:100BA000842B002000F1000880F1000880B5C8B057
:100BB00002AF07F58C73A3F58A73186007F58C7381
:100BC000A3F58C73196007F58C73A3F58C73186803
:100BD000FFF7A6FE0346002B00F09F80524B1B78C8
:100BE000022B03D95149524800F00CF9514A07F53C
:100BF0008C73A3F58A73196802F10803C42218469E
:100C00000DF070FD4B4B23221A60C4214A4805F0B9
:100C100051FC0346474A5360FFF7DEFECC23C7F87A
:100C20000C31D7F80C31B3F5807F0BDD3E4B1B78D0
:100C3000002B05D0D7F80C213C49404800F0E2F8E1
:100C400001236BE0384B1B78032B05D9D7F80C2117
:100C500036493B4800F0D6F807F58C73A3F5867348
:100C6000344A18461146CC231A460DF03BFD0023AA
:100C7000A7F8123128E02C4B1B78022B06D9B7F8C5
:100C800012311A4629492F4800F0BCF8B7F8123142
:100C900007F10C021344B7F81221102101910093BF
:100CA0000123A021284801F011F90346C7F81431A7
:100CB000052009F03CFFD7F81431002B0BD1B7F811
:100CC00012311033A7F81231B7F81231D7F80C21CE
:100CD0009A42D0DC00E000BFD7F81431002B15D0C9
:100CE000114B1B78002B03D01049184800F08AF8EC
:100CF0000D4B1B78002B06D0D7F81431DD220B49A1
:100D0000134800F07FF8D7F8143107E007F58C732B
:100D1000A3F58C731B68084A1A600023184607F570
:100D20008C77BD4680BD00BF802B0020B005010838
:100D30007CF20008000000100800001050F20008CB
:100D4000C0F20008E0F20008842B002000F1000847
:100D500080F10008B0B500AF0E4B1B6803F1200214
:100D60000D4B20331146A42218460DF0BBFC094B55
:100D70001B681A46084B1C46154628686968AA680D
:100D8000EB680FC428696969AA69EB690FC400BFE1
:100D9000B0BD00BFC40000207801002080B485B041
:100DA00000AFF860B9607A60FB68074A1A60BB68F8
:100DB000064A1A607B684FF400721A6000BF14374D
:100DC000BD465DF8047B70473C020020DC02002039
:100DD00080B485B000AFF860B9607A60FB68074AFC
:100DE0001A60BB68064A1A607B684FF400621A609A
:100DF00000BF1437BD465DF8047B7047DC0A002055
:100E00007C0B00200FB480B582B000AF00237B6064
:100E1000134B1B684FF0FF31184609F02DFF07F107
:100E200014037B607B683A69FF210E480DF0BAFB22
:100E30000C48FFF7CDF903469AB26FF07F4309499A
:100E4000094808F0A7FD064B1B68184609F062FF29
:100E500000BF0837BD46BDE8804004B0704700BF02
:100E60007C2B0020CC000010CC2C002080B584B05E
:100E700000AF786039600023FB6012E0FA683B68DD
:100E80009A4208DAFB687A6813441B7819460A48C4
:100E9000FFF7B8FF02E00948FFF7B4FFFB68013332
:100EA000FB60FB68072BE9D90548FFF7ABFF00BFE4
:100EB0001037BD4680BD00BFFCF2000804F30008F7
:100EC00008F3000880B586B000AFF860B9607A60BA
:100ED000FB687B617868FFF795FF0D48FFF792FF8D
:100EE0000CE0B9687869FFF7C1FFBB68072B09D927
:100EF000BB68083BBB607B6908337B61BB68002B28
:100F0000EFDC00E000BF00BF1837BD4680BD00BF6A
:100F100008F3000880B582B000AF094B04221A70B4
:100F200000233B6000237B603B46184609F08CFEA3
:100F30000346044A136000BF0837BD4680BD00BFAA
:100F4000802B00207C2B002080B584B002AF0346AC
:100F5000FB71F87900230193002300930023002202
:100F6000002102F04FFC034618460837BD4680BDFD
:100F700080B400AF024B1846BD465DF8047B704755
:100F80000CF30008F0B585B004AF8B4B1B78032B36
:100F900003D98A498A48FFF735FF874B1B78032B13
:100FA00003D986498748FFF72DFF834B1B78032B16
:100FB00040F2D88053233F2B17D03223303B4FF4DD
:100FC0007A7203FB02F23023303B642101FB03F30E
:100FD000D1183223A3F1300213469B0013445B0067
:100FE000CA183523303BD51800E0632553233F2B27
:100FF00067D053234A2B05D16523612B02D170237F
:101000006E2B5CD05323462B56D053234D2B05D14A
:101010006523612B02D17023722B4BD05323412BBC
:1010200002D16523702B42D053234D2B05D165236C
:10103000612B02D17023792B36D053234A2B05D153
:101040006523752B02D170236E2B2AD053234A2B94
:1010500005D16523752B02D170236C2B1ED0532331
:10106000412B02D16523752B15D05323532B10D060
:1010700053234F2B0BD053234E2B06D05323442BFB
:1010800001D10C2309E0632307E00B2305E00A23C9
:1010900003E0092301E0082302E001E0072302E066
:1010A00001E0062302E001E0052302E001E0042361
:1010B00004E003E0032305E0022303E002E0012350
:1010C00000E0632353223F2A10D031222F2A08D96F
:1010D0003122A2F130010A4692000A445200114620
:1010E00000E000213722303A114400E06321312230
:1010F0003F2A0CD03122A2F1300002469200024475
:101100005200104631220244A2F1300000E0632078
:1011100031223F2A0CD03022A2F130042246920024
:1011200022445200144639222244A2F1300400E045
:10113000632431223F2A0BD03322A2F130063246FB
:10114000920032445200164630223244303A00E0D7
:10115000632203920294019000912A4617491A488B
:10116000FFF750FE144B1B78032B07D9FFF700FF46
:1011700003461A4611491548FFF744FE0E4B1B78EB
:10118000032B04D9124A0D491248FFF73BFE0A4BC4
:101190001B78032B04D9104A08491048FFF732FE88
:1011A000054B1B78032B03D904490548FFF72AFE9A
:1011B00000BF0437BD46F0BD802B0020C8050108E4
:1011C00014F3000858F3000880F30008B8F300088F
:1011D000D0F30008D8F30008F4F30008FCF300088B
:1011E00080B582B000AF00237B6002F015FC786010
:1011F0007B68002B13D04C4B1B78002B03D04B4942
:101200004B48FFF7FFFD484B1B78002B00F0868012
:101210007B68C42245494748FFF7F4FD7EE0FFF7AD
:10122000D9F978607B68002B12D03F4B1B78002BDC
:1012300003D03E493E48FFF7E5FD3B4B1B78002BB2
:101240006CD07B68C72239493A48FFF7DBFD65E07F
:10125000FFF780FD03F07EF878607B68002B12D0EA
:10126000314B1B78002B03D030493148FFF7CAFDC2
:101270002D4B1B78002B51D07B68CC222B492D485D
:10128000FFF7C0FD4AE005F0A9F878607B68002B05
:1012900012D0254B1B78002B03D024492448FFF79C
:1012A000B1FD214B1B78002B38D07B68CF221F4922
:1012B0002048FFF7A7FD31E002F0ACF978607B68C9
:1012C000002B12D0184B1B78002B03D0174918485D
:1012D000FFF798FD144B1B78002B1FD07B68D222A0
:1012E00012491448FFF78EFD18E004F01BF903467D
:1012F0007B607B68002B11D00B4B1B78002B03D03D
:101300000A490B48FFF77EFD074B1B78002B05D0E1
:101310007B68D52205490748FFF774FD7B681846AE
:101320000837BD4680BD00BF802B0020D0050108D6
:1013300014F4000834F40008B0B58AB000AF05F02A
:101340007DFC00F063F800F0F3F900F0F9F800F02C
:10135000C9F800F00FF900F043F900F06BF900F064
:1013600093F900F0BBF9FFF7D5FDFFF70BFEFFF790
:1013700037FF0346002B0DD01C4B1B78002B03D0EE
:101380001B491C48FFF73EFD4FF47A7005F098FCAE
:1013900005F0B3FD154B1B78022B03D914491648F1
:1013A000FFF730FD154B3B6200237B6207F1200302
:1013B00000220121184609F0CFFB0346104A1360B2
:1013C000104B3C1D1D460FCD0FC495E8070084E867
:1013D00007003B1D0021184609F05DFB03460A4A41
:1013E000136009F051FB00BFFDE700BF802B002018
:1013F000DC0501086CF4000898F40008E9180008FE
:10140000602D0020C8F400085C2D002080B594B049
:1014100000AF07F120033022002118460DF0D0F86C
:1014200007F10C0300221A605A609A60DA601A61B0
:101430000023BB60294B1B6C284A43F08053136484
:10144000264B1B6C03F08053BB60BB6800237B60A2
:10145000234B1B68224A43F480431360204B1B68D4
:1014600003F480437B607B6809233B624FF4803345
:101470007B6201237B630223BB634FF48003FB6326
:1014800019233B644FF4A8737B640223BB640423D9
:10149000FB6407F12003184606F0F2FF0346002B19
:1014A00001D000F041FA0F23FB6002233B610023CF
:1014B0007B614FF4A053BB614FF48053FB6107F194
:1014C0000C030521184607F053FA0346002B01D000
:1014D00000F02AFA00BF5037BD4680BD00380240F8
:1014E0000070004080B500AF124B134A1A60114BD8
:1014F000124A5A600F4B00229A600E4B0022DA60AB
:101500000C4B4FF480421A610A4B00225A61094B7E
:1015100000229A61074B0022DA61064B00221A6210
:10152000044805F037FF0346002B01D000F0FCF91A
:1015300000BF80BD842B002000540040A086010025
:1015400080B500AF094B0A4A1A60084B02225A6064
:10155000064B40F6FF729A60044806F03FFF0346D0
:10156000002B01D000F0E0F900BF80BDD82B002097
:101570000030004080B500AF174B184A1A60164B78
:101580004FF482725A60144B00229A60124B002270
:10159000DA60114B00221A610F4B00225A610E4B88
:1015A0004FF400729A610C4B1022DA610A4B002250
:1015B0001A62094B00225A62074B00229A62064BBC
:1015C0000A22DA62044807F0E5FB0346002B01D04B
:1015D00000F0AAF900BF80BDE42B002000300140DC
:1015E00080B500AF114B124A1A60104B4FF41652DF
:1015F0005A600E4B00229A600C4B0022DA600B4BB3
:1016000000221A61094B0C225A61084B00229A6190
:10161000064B0022DA61054808F06CF90346002BFE
:1016200001D000F081F900BF80BD00BF3C2C00203C
:101630000010014080B500AF114B124A1A60104BE8
:101640004FF4E1325A600E4B00229A600C4B00229C
:10165000DA600B4B00221A61094B0C225A61084BCD
:1016600000229A61064B0022DA61054808F042F92F
:101670000346002B01D000F057F900BF80BD00BF2A
:10168000842C00200044004080B500AF114B124A6A
:101690001A60104B4FF4E1325A600E4B00229A60F0
:1016A0000C4B0022DA600B4B00221A61094B0C2212
:1016B0005A61084B00229A61064B0022DA61054804
:1016C00008F018F90346002B01D000F02DF900BFF7
:1016D00080BD00BFCC2C00200048004080B500AF8A
:1016E000114B124A1A60104B4FF4E1325A600E4B04
:1016F00000229A600C4B0022DA600B4B00221A6128
:10170000094B0C225A61084B00229A61064B0022B9
:10171000DA61054808F0EEF80346002B01D000F02E
:1017200003F900BF80BD00BF142D0020001401404C
:1017300080B58AB000AF07F1140300221A605A6026
:101740009A60DA601A6100233B61474B1B6B464A83
:1017500043F004031363444B1B6B03F004033B612E
:101760003B690023FB60404B1B6B3F4A43F0800307
:1017700013633D4B1B6B03F08003FB60FB6800238E
:10178000BB60394B1B6B384A43F001031363364B84
:101790001B6B03F00103BB60BB6800237B60324B13
:1017A0001B6B314A43F0020313632F4B1B6B03F097
:1017B00002037B607B6800224FF4C0412B4805F098
:1017C000CFFD002210212A4805F0CAFD0122202168
:1017D000284805F0C5FD4FF4C0437B610123BB6180
:1017E0000023FB6100233B6207F1140319461F48E5
:1017F00005F01AFC10237B610123BB610023FB6110
:1018000000233B6207F114031946194805F00CFC4C
:101810004FF440537B610023BB610123FB6107F15F
:1018200014031946134805F0FFFB18237B610023BE
:10183000BB610023FB6107F1140319460D4805F055
:10184000F3FB20237B610123BB610023FB610023A9
:101850003B6207F114031946064805F0E5FB00BF9B
:101860002837BD4680BD00BF003802400008024056
:10187000000002400004024080B483B000AF7860F2
:10188000396000BF00BF0C37BD465DF8047B704770
:1018900080B584B000AF78600E4B1B78032B03D962
:1018A0000D490E48FFF7AEFA0D4BBB600023FB60FD
:1018B00007F10803184601F07BFF0A4B1B684FF441
:1018C000FA71184609F07CF90120FFF73DFB02F0A0
:1018D00045F8FCE7802B0020E4050108E4F400084B
:1018E00079180008602D002080B582B000AF7860C4
:1018F000034806F0B5FD00BF0837BD4680BD00BFF8
:10190000D82B002080B582B000AF78607B681B6860
:10191000044A934201D105F0B3F900BF0837BD4630
:1019200080BD00BF0010004080B400AF72B600BFA1
:1019300000BFFDE780B582B000AF00237B60124B93
:101940005B6C114A43F4804353640F4B5B6C03F4AC
:1019500080437B607B6800233B600B4B1B6C0A4A17
:1019600043F080531364084B1B6C03F080533B60BF
:101970003B6800220F216FF0010005F094FA00BFD0
:101980000837BD4680BD00BF0038024080B58AB030
:1019900000AF786007F1140300221A605A609A6061
:1019A000DA601A617B681B68194A93422BD10023C5
:1019B0003B61184B1B6B174A43F002031363154B33
:1019C0001B6B03F002033B613B69C0237B61122365
:1019D000BB610023FB6103233B6204237B6207F1AD
:1019E000140319460C4805F01FFB0023FB60094B4C
:1019F0001B6C084A43F400131364064B1B6C03F47E
:101A00000013FB60FB6800BF2837BD4680BD00BFE8
:101A100000540040003802400004024080B58AB003
:101A200000AF786007F1140300221A605A609A60D0
:101A3000DA601A617B681B68194A93422BD1002334
:101A40003B61184B5B6C174A43F480535364154B4E
:101A50005B6C03F480533B613B690023FB60114BDB
:101A60001B6B104A43F0010313630E4B1B6B03F017
:101A70000103FB60FB68E0237B610223BB61002361
:101A8000FB6103233B6205237B6207F114031946C4
:101A9000054805F0C9FA00BF2837BD4680BD00BF24
:101AA00000300140003802400000024080B590B094
:101AB00000AF786007F12C0300221A605A609A6028
:101AC000DA601A617B681B68714A934235D1002342
:101AD000BB62704B5B6C6F4A43F0100353646D4BF9
:101AE0005B6C03F01003BB62BB6A00237B62694B33
:101AF0001B6B684A43F001031363664B1B6B03F0D7
:101B000001037B627B6A4FF4C063FB6202233B6389
:101B100000237B630323BB630723FB6307F12C03D1
:101B200019465D4805F080FA00220521252005F0C0
:101B3000BAF9252005F0D3F9A5E07B681B68574A60
:101B4000934234D100233B62524B1B6C514A43F405
:101B5000003313644F4B1B6C03F400333B623B6A4E
:101B60000023FB614B4B1B6B4A4A43F00103136399
:101B7000484B1B6B03F00103FB61FB690C23FB6209
:101B800002233B6300237B630323BB630723FB63C5
:101B900007F12C031946404805F046FA00220521BA
:101BA000262005F080F9262005F099F96BE07B6886
:101BB0001B683B4A93422DD10023BB61354B1B6C04
:101BC000344A43F480231364324B1B6C03F48023A8
:101BD000BB61BB6900237B612E4B1B6B2D4A43F01D
:101BE000040313632B4B1B6B03F004037B617B69C2
:101BF0004FF44063FB6202233B6300237B630323B8
:101C0000BB630723FB6307F12C031946254805F046
:101C10000BFA38E07B681B68234A934233D10023D8
:101C20003B611C4B5B6C1B4A43F020035364194B14
:101C30005B6C03F020033B613B690023FB60154BA9
:101C40001B6B144A43F004031363124B1B6B03F02A
:101C50000403FB60FB68C023FB6202233B63002399
:101C60007B630323BB630823FB6307F12C03194643
:101C70000C4805F0D9F900220521472005F013F999
:101C8000472005F02CF900BF4037BD4680BD00BF9E
:101C900000100140003802400000024000440040B3
:101CA00000480040000802400014014080B58EB09A
:101CB00000AF78600023FB620023BB620023FB605F
:101CC000334B1B6C324A43F010031364304B1B6CD4
:101CD00003F01003FB60FB6807F1100207F1140327
:101CE0001146184607F024F83B6AFB62FB6A002B9A
:101CF00003D106F0F5FF786304E006F0F1FF034638
:101D00005B007B637B6B234AA2FB03239B0C013BA1
:101D1000BB62214B214A1A601F4B40F2E732DA6066
:101D20001D4ABB6A53601C4B00221A611A4B0022E9
:101D30009A60194B00229A61174807F039FB034655
:101D400087F8333097F83330002B1BD1124807F057
:101D500089FB034687F8333097F83330002B11D1D5
:101D6000362005F0BCF87B680F2B08D80022796874
:101D7000362005F098F80A4A7B68136002E00123D8
:101D800087F8333097F8333018463837BD4680BD72
:101D90000038024083DE1B43642D00200010004009
:101DA0000001002080B400AF00BFFDE780B400AFA9
:101DB00000BFFDE780B400AF00BFFDE780B400AF17
:101DC00000BFFDE780B400AF00BFFDE780B400AF07
:101DD00000BFBD465DF8047B7047000080B500AFD2
:101DE000024807F0BDFE00BF80BD00BF3C2C0020B4
:101DF00080B500AF024807F0B3FE00BF80BD00BF52
:101E0000842C002080B500AF024807F09BFB00BF88
:101E100080BD00BF642D002080B500AF024807F0F0
:101E20009FFE00BF80BD00BF142D002080B586B08E
:101E300000AF7860144A154BD31A7B617B693B6114
:101E4000134B1B68002B02D1114B124A1A60104B26
:101E50001A687B6813443A699A4207D20CF016FC60
:101E600003460C221A604FF0FF3309E0084B1B6851
:101E7000FB60074B1A687B681344054A1360FB68D4
:101E800018461837BD4680BD00000220000400003F
:101E9000AC2D00206035012080B400AF064BD3F894
:101EA0008830054A43F47003C2F8883000BFBD464D
:101EB0005DF8047B704700BF00ED00E080B400AF28
:101EC00000231846BD465DF8047B704780B58AB094
:101ED00004AFF860084611461A4603467B810B465C
:101EE0003B811346FB80F8883A8979894FF47A73ED
:101EF0000293BB8C01933B6A00930346F86805F09C
:101F00008DFB0346FB75FB7D002B0CD0084B1B782B
:101F1000002B05D07A89FB7D06490748FEF772FF42
:101F20004FF0FF3300E0002318461837BD4680BD50
:101F3000802B00200806010800F5000880B58AB053
:101F400004AFF860084611461A4603467B810B46EB
:101F50003B811346FB80F8883A8979894FF47A737C
:101F60000293BB8C01933B6A00930346F86805F02B
:101F70004FFC0346FB75FB7D002B0CD0084B1B78F8
:101F8000002B05D07A89FB7D06490748FEF73AFF0A
:101F90004FF0FF3300E0002318461837BD4680BDE0
:101FA000802B00201806010830F5000880B485B0A9
:101FB00000AF78600B467B8013467B700023FB608C
:101FC0007B78012B07D1FB681133FB607A88FB68B3
:101FD0001344083BFB607B78022B19D1FB68063366
:101FE000FB607A88FB681344083BFB6010E07B6869
:101FF0001B781B027A680132127813439BB2FA688D
:102000001344FB607B6802337B607B88023B7B80F0
:102010007B88012BEBD87B88002B0CD07B681B784E
:102020001B02FA681344FB6005E0FB689AB2FB6888
:102030001B0C1344FB60FB681B0C002BF5D1FB68E9
:102040009BB2DB439BB218461437BD465DF8047B58
:102050007047000080B487B000AFF860B9601346E5
:10206000FB800023FB75FB881B0A9BB2DAB2154B81
:102070001A70FB88DAB2144B1A7009E0FB7DBA685B
:102080001A44FB7D1178114AD154FB7D0133FB7555
:10209000FB7D032BF2D90023FB7509E0FB7DFA6879
:1020A0001A44FB7D11780A4AD154FB7D0133FB753C
:1020B000FB7D052BF2D900BF00BF1C37BD465DF884
:1020C000047B7047B02D0020CC000020E02D0020C4
:1020D000D82D002080B485B000AF7860396000232F
:1020E000FB7310E0FB7B1A331A467B6813441A78A3
:1020F000FB7B39680B441B789A4201D0002306E031
:10210000FB7B0133FB73FB7B032BEBD901231846CD
:102110001437BD465DF8047B7047000080B485B07D
:1021200000AF78600B467B800023FB737B88282BF5
:1021300001D800231FE07B680C331B78082B04D1E7
:102140007B680D331B78062B11D0002313E0FB7B3B
:1021500026331A467B6813441A78FB7B0949CB5C0B
:102160009A4201D0002306E0FB7B0133FB73FB7B2B
:10217000032BECD9012318461437BD465DF8047BC8
:10218000704700BFE02D002080B485B000AF7860BC
:102190000B467B800023FB737B88292B01D800230F
:1021A00026E07B680C331B78082B04D17B680D3349
:1021B0001B78002B01D000231AE07B680E331B78BC
:1021C000452B11D0002313E0FB7B1E331A467B689E
:1021D00013441A78FB7B0949CB5C9A4201D0002357
:1021E00006E0FB7B0133FB73FB7B032BECD9012364
:1021F00018461437BD465DF8047B7047E02D00207B
:1022000080B485B000AF78600023FB7315E0FB7BE2
:1022100006331A467B681A44FB7B79680B441278B4
:102220001A70FA7BFB7B063319467B680B4408491E
:102230008A5C1A70FB7B0133FB73FB7B052BE6D9B1
:1022400000BF00BF1437BD465DF8047B704700BF78
:10225000D82D002080B584B000AF78607B6818333B
:1022600000221A707B68193300221A707B681433BD
:1022700040221A707B68153300221A707B6816336F
:1022800040221A707B680E33002214211846FFF793
:102290008DFE0346FB81FB891B0A9AB27B681833CB
:1022A000D2B21A707B681933FA89D2B21A7000BFA1
:1022B0001037BD4680BD000080B584B000AF7860A7
:1022C0000023FB7317E0FB7B1A331A467B681A4422
:1022D000FB7B1E3319467B680B4412781A70FA7B1D
:1022E000FB7B1A3319467B680B4408498A5C1A70D9
:1022F000FB7B0133FB73FB7B032BE4D97868FFF78F
:10230000A9FF00BF1037BD4680BD00BFE02D0020F3
:1023100080B485B000AF78600B467B8013467B703D
:102320000423FB732BE0FB7B25337A6813441B7873
:102330001A467B8813447B80FB7B29337A681344DD
:102340001B78BB73FB7B29337A6813447A88D2B23B
:102350001A707B78002B06D0FB7B25337A681344F8
:10236000BA7B1A7005E0FB7B25337A6813440022A0
:102370001A707B881B0A7B80FB7B013BFB73FB7B1A
:10238000002BD0D100BF00BF1437BD465DF8047BE1
:10239000704780B584B000AF78600B467B801346F1
:1023A0007B707B6893F82430FB737B6824337A68F6
:1023B00092F822201A707B682233FA7B1A707B68AD
:1023C00093F82530FB737B6825337A6892F82320D5
:1023D0001A707B682333FA7B1A707A787B881946E7
:1023E0007868FFF795FF7B68323300221A707B68AC
:1023F000333300221A707B682E3350221A7000BFCC
:102400001037BD4680BD000080B584B000AF786055
:102410000023FB737868FFF7F3FE7B681433002218
:102420001A707B68153302221A7017E0FB7B163393
:102430001A467B681A44FB7B203319467B680B44A1
:1024400012781A70FA7BFB7B163319467B680B44B3
:1024500017498A5C1A70FB7B0133FB73FB7B052BEE
:10246000E4D90023FB7317E0FB7B1C331A467B681F
:102470001A44FB7B263319467B680B4412781A708A
:10248000FA7BFB7B1C3319467B680B4409498A5C49
:102490001A70FB7B0133FB73FB7B032BE4D9796858
:1024A0002A2004F028FB00BF1037BD4680BD00BFC6
:1024B000D82D0020E02D002080B582B000AF7860DC
:1024C0000B467B807868FFF79BFE7868FFF7F4FE89
:1024D0007B68223300221A707B6824331B78F72B29
:1024E00005D97B6825331A780132D2B21A707B681D
:1024F00024331A787B6824330832D2B21A707B886E
:102500007968184604F0F7FA00BF0837BD4680BD69
:1025100080B584B000AF78607868FFF771FE7B68A3
:10252000103300221A707B6811332C221A707868DD
:10253000FFF7C2FE7B682F3312221A70002201219E
:102540007868FFF726FF7B68263300221A707B68C5
:10255000273300221A707B682833234A12781A70B6
:102560007B68293300221A701F4B1B780333DAB2C1
:102570001D4B1A707B68363302221A707B68373322
:1025800004221A707B68383305221A707B6839334D
:1025900000221A707B682E3360221A707B683033F9
:1025A00005221A707B68313378221A707B681A33DF
:1025B000022220211846FFF7F9FC0346FB81FB8924
:1025C0001B0A9AB27B683233D2B21A707B683333FB
:1025D000FA89D2B21A7079683A2004F08CFA00BFF6
:1025E0001037BD4680BD00BFD100002080B485B04B
:1025F00000AF78607B6810331B781BB21B021AB2E5
:102600007B6811331B781BB21343FB81FB89143B9E
:102610009BB2FB81FA897B682E331B781B09DBB2E6
:102620009B009BB2D31A9BB2FB81B7F90E30002BF3
:1026300001DC0023FB81FB8918461437BD465DF899
:10264000047B704780B584B000AF78600B467B8018
:1026500013467B707868FFF7D3FD7B682F337A7859
:1026600042F01002D2B21A707B78042B06D17B881C
:10267000012219467868FFF78CFE0BE0B7F90230AB
:10268000002B01D101237B807B88012219467868C9
:10269000FFF77FFE2823FB81FB891B0A9AB27B6828
:1026A0001033D2B21A707B681133FA89D2B21A7021
:1026B0007868FFF701FE7B68303304221A707B686C
:1026C000313300221A707B681A3302221C2118460B
:1026D000FFF76CFC0346FB81FB891B0A9AB27B68FF
:1026E0003233D2B21A707B683333FA89D2B21A709D
:1026F0007968362004F0FFF900BF1037BD4680BD71
:1027000080B584B000AF78600B467B807B8828332F
:10271000FB81FB891B0A9AB27B681033D2B21A7014
:102720007B681133FA89D2B21A707868FFF792FD8C
:102730007B68323300221A707B68333300221A70B0
:102740007B6803F11A007B881C339BB20222194676
:10275000FFF72CFC0346FB81FB891B0A9AB27B68BE
:102760003233D2B21A707B683333FA89D2B21A701C
:102770007B8836339BB27968184604F0BCF900BFF9
:102780001037BD4680BD000080B582B000AF7860D4
:102790000B467B800A4B1B881BB2002219467868C7
:1027A000FFF750FF7B682F3318221A707B88194679
:1027B0007868FFF7A5FF00BF0837BD4680BD00BFA2
:1027C000E42D002080B485B000AFF8600B467A603D
:1027D0007B810CE07B681A78FB681A70FB68013318
:1027E000FB607B6801337B607B89013B7B817B895C
:1027F000002BEFD100BF00BF1437BD465DF8047B4E
:102800007047000080B584B000AF78603960002365
:10281000FB7310E0FB7B7A681344FF221A70FA7B8B
:10282000FB7B063319467B680B442E498A5C1A7081
:10283000FB7B0133FB73FB7B052BEBD97B680C33F4
:1028400008221A707B680D3306221A707B680E33DB
:10285000254A08211846FFF7B5FF0023FB7312E055
:10286000FA7BFB7B163319467B680B441D498A5C57
:102870001A70FB7B20331A467B68134400221A70BF
:10288000FB7B0133FB73FB7B052BE9D90023FB7337
:1028900015E0FB7B3A681A44FB7B263319467B68BC
:1028A0000B4412781A70FA7BFB7B1C3319467B6849
:1028B0000B440E498A5C1A70FB7B0133FB73FB7B74
:1028C000032BE6D90A4B1B78DBB243F00803DAB2DC
:1028D000074B1A7079682A2004F00DF900BF1037F1
:1028E000BD4680BDD82D002028060108E02D00201F
:1028F000D000002080B485B000AF78600023FB7367
:102900000FE0FB7B1C331A467B6813441A78FB7B71
:102910001249CB5C9A4201D0002318E0FB7B0133C3
:10292000FB73FB7B032BECD90023FB730BE0FB7BDE
:1029300016331A467B681A44FB7B1178084AD15437
:10294000FB7B0133FB73FB7B052BF0D9012318467E
:102950001437BD465DF8047B704700BFC82D0020CA
:10296000CC2D002080B485B000AF78600023FB73CD
:102970000B4B01221A7009E0FB7B7A681A44FB7B3F
:102980001178084AD154FB7B0133FB73FB7B032B8B
:10299000F2D900BF00BF1437BD465DF8047B704715
:1029A000D0000020C82D002080B584B000AF786032
:1029B000084611461A460346FB700B46BB70134689
:1029C0007B700023FB7312E0FA7BFB7B79680B447E
:1029D0005F498A5C1A70FA7BFB7B063319467B6879
:1029E0000B445C498A5C1A70FB7B0133FB73FB7BF5
:1029F000052BE9D97B680C3308221A707B680D33EC
:102A000000221A707B680E33534A09211846FFF7DB
:102A1000D9FE7B6811332C221A707B68173306228B
:102A20001A700023FB7314E0FA7BFB7B1E331946FC
:102A30007B680B4449498A5C1A70FA7BFB7B1A332A
:102A400019467B680B4446498A5C1A70FB7B01334C
:102A5000FB73FB7B032BE7D97868FFF7FBFB7B68F5
:102A60002433BA781A707B6825337A781A707B68B9
:102A700022330B221A707B682333FA781A700023F2
:102A8000FB7309E0FB7B26331A467B681344002264
:102A90001A70FB7B0133FB73FB7B072BF2D97B683E
:102AA0002833304A12781A702E4B1B780333DAB26F
:102AB0002C4B1A707B682E3360221A707B682F3380
:102AC00002221A707B68303304221A707B6831331B
:102AD00000221A707B68323300221A707B6833330D
:102AE00000221A707B68343300221A707B683533F9
:102AF00000221A707B68363302221A707B683733E3
:102B000004221A707B68383302221A707B683933CA
:102B100026221A707B681A33022220211846FFF7FA
:102B200045FA0346BB81BB891B0A9AB27B683233E4
:102B3000D2B21A707B683333BA89D2B21A7079680C
:102B40003A2003F0D8FF00BF1037BD4680BD00BF5C
:102B5000CC2D0020D82D002030060108D42D0020D7
:102B6000E02D0020D100002090B585B000AF786046
:102B70000B467B8000237B737B88002B4FD1974BC8
:102B80001B78DBB203F00103002B06D1934B1B78BB
:102B9000DBB203F00403002B0DD0914BB3F90030EE
:102BA000002B08D103F099FF0346002B03D08D4979
:102BB0007868FFF727FE8A4BB3F900309BB20133E8
:102BC0009BB21AB2864B1A80874B1B78012B24D1FB
:102BD000824B1B78DBB203F00203002B1DD0824B2B
:102BE00002221A70814B1B780133DAB27F4B1A70C4
:102BF0007F4B1B785BB25B015AB27C4B1B785BB29C
:102C000003F01F035BB213435BB2D9B2794B1A785E
:102C1000794B1B787868FFF7C7FE002309E27B88B1
:102C200019467868FFF77AFA0346002B1ED07B68B6
:102C300015331B78012B02D17868FFF7E5FB674B52
:102C40001B78DBB203F00803002B0DD07B68153333
:102C50001B78022B08D17868FFF74CFE0346002B47
:102C600002D05E4B02221A700023E2E17B881946F3
:102C70007868FFF789FA0346002B01D10023D8E1D9
:102C80007B6817331B78012B15D17B6822331B78A7
:102C9000082B10D1594B1B68002B05D0574B1B68D4
:102CA0007A681A32104698477B8819467868FFF789
:102CB00003FC0023BDE17B88352B06D87B681733E6
:102CC0001B78062B01D00023B3E17B6824331B78EB
:102CD0000B2B40F061814A4A7B681360494B1B789B
:102CE000022B03D948494948FEF78CF848497868CF
:102CF000FFF7F0F90346002B01D1002399E17B682F
:102D00002F331B7803F00403002B13D0414B1B68B7
:102D1000002B0AD03F4B1C687B6825331B785B096E
:102D2000D8B2002300220321A0472F4B05221A709E
:102D300000237EE17868FFF759FC0346FB812A4BAC
:102D40001B78022B6AD17B682F331B7803F00203B8
:102D5000002B2BD07B682F331B7803F01003002B44
:102D600024D0002200217868FFF76CFC7B682F33A9
:102D700018221A70284B1B68002B0BD0264B1B689F
:102D80007A68233212785209D2B210469847034625
:102D9000FB8101E00023FB81134B03221A70FB89A6
:102DA00019467868FFF7ACFC002342E10E4B012284
:102DB0001A70FB890133FB817B682F331B7803F08A
:102DC0001003002B01D00023FB81B7F90E30042241
:102DD00019467868FFF736FC00232AE1D00000206E
:102DE000CE000020C82D0020B22D0020CD000020F4
:102DF000B12D0020B32D0020B42D0020C42D0020C3
:102E0000C02D0020802B00203C06010864F600083D
:102E1000D42D0020B82D0020BC2D0020874B1B781E
:102E2000042B45D1864B1B68002B29D07B682E33A1
:102E30001B781B09DBB29B009BB222337B817B8812
:102E4000DA1F7B899A4202DC7B88083B7B81FB8905
:102E50003B817A89FB891A447B889A4203DD7A8810
:102E60007B89D31A3B81764B1C687B6825331B78A2
:102E70005B09D8B23B897A890021A04703467B735E
:102E80007B7B002B0BD0B7F90E30092219467868EE
:102E9000FFF7D8FB694B05221A700023C9E0B7F988
:102EA0000E30002219467868FFF7CCFB0023C0E003
:102EB000624B1B78032B48D1604B04221A70604B85
:102EC0001B68002B29D07B682E331B781B09DBB2D3
:102ED0009B009BB222337B817B88DA1F7B899A42DD
:102EE00002DC7B88083B7B81FB893B817A89FB89FB
:102EF0001A447B889A4203DD7A887B89D31A3B8106
:102F00004F4B1C687B6825331B785B09D8B23B8923
:102F10007A890021A04703467B737B7B002B0BD073
:102F2000B7F90E30092219467868FFF78BFB434B3F
:102F300005221A7000237CE0B7F90E3000221946F2
:102F40007868FFF77FFB002373E03C4B1B78052B71
:102F500001D100236DE07B682F331B7803F0010360
:102F6000002B0DD0FB8901339BB21BB209221946FD
:102F70007868FFF767FB314B05221A70002358E091
:102F8000FB89002B06D0B7F90E300022194678686D
:102F9000FFF758FB00234CE07B6824331A78294B59
:102FA0001B789A4244D17B6825331A78264B1B78CC
:102FB0009A423DD17B682F331B7803F00203002B2C
:102FC00004D07868FFF7A4FA002332E07B682F333F
:102FD0001B7803F01003002B2AD07868FFF706FB5C
:102FE00003461A46194B1A80184B1B88002B0DD12B
:102FF0007B682F331B7803F00103002B04D00022E1
:1030000000217868FFF71EFB002312E07B682E3357
:103010001B781B09DBB29B009BB22233FB817B88B0
:10302000DA1FFB899A4201DC002302E0FB8900E001
:10303000002318461437BD4690BD00BFB22D0020B6
:10304000B82D0020B02D0020CC000020E42D002061
:10305000B0B586B004AF062301933B46009301232D
:103060009A22B0211848FEF769FF0346002B09D0C9
:10307000164B1B78002B03D015491648FDF7C2FEEE
:1030800001231DE0144B1A467B1C186810609B88B6
:1030900093800E4B1B78022B11D97B781C46BB7892
:1030A0001D46FB783A797979B879039002910192BB
:1030B00000932B46224606490848FDF7A3FE00234D
:1030C00018460837BD46B0BD842B0020802B002059
:1030D0005006010878F60008D400002094F6000895
:1030E00080B584B000AF17494FF4006003F094FA44
:1030F0000346BB60BB689BB21946124803F0ADFAA9
:103100000346FB80FB88002B17D0BB689AB2FB8874
:10311000D31A9BB219460C4802F0CEFE0346FB813F
:10312000FB89002B04D1BB689AB2FB88D31AFB81C0
:10313000FB891946034803F0A0FA0023184610370C
:10314000BD4680BDCC01001002020010B0B586B0B3
:1031500004AF354803F025FA03F057FA0346FB7134
:10316000FB79002B0BD1314B1B78002B05D0FB7961
:103170001A462F492F48FDF745FE012350E02B4BFF
:103180001B78032B07D903F040FA03461A46284957
:103190002948FDF737FE254B1B78032B1AD9224B04
:1031A0001B781C46204B5B781D461F4B9B781A46AC
:1031B0001D4BDB7819461C4B1B7918461A4B5B7963
:1031C00003930290019100922B46224618491B4816
:1031D000FDF718FE1A4B1B891A461949124803F0CD
:1031E0002BFA184803F058FA104B1B78022B16D90B
:1031F000134B1B781846124B5B781C46104B9B7880
:103200001A460F4BDB7819460D4B1B89029301912F
:1032100000922346024606490B48FDF7F3FD0023C2
:1032200018460837BD46B0BDD4000020802B0020D2
:1032300060060108B8F60008E4F6000808F7000880
:10324000F02D0020F42D002030F7000880B483B06A
:1032500000AF78607A6813469B0013449B001846C1
:10326000A0F101000028FBD100BF0C37BD465DF87E
:10327000047B704780B582B000AF7860786807F053
:1032800056FC00BF0837BD4680BD000080B500AFCA
:1032900000221021024804F063F800BF80BD00BF87
:1032A0000000024080B500AF01221021024804F066
:1032B00057F800BF80BD00BF0000024080B586B057
:1032C00002AF0346FB7107F10E02F91D4FF47A734A
:1032D000009301230C4805F0E6FD0346FB73FB7BDE
:1032E000002B01D1BB7B0AE0084B1B78002B05D0DB
:1032F000FB7B1A4606490748FDF784FD0023184664
:103300001037BD4680BD00BFE42B0020802B00207D
:103310007006010858F70008F0B58DB008AF786066
:103320000023FB730023BB600FE03D4ABB681344DE
:103330001A787968BB680B441B789A4202D0012343
:10334000FB7305E0BB680133BB60BB68032BECDD9E
:10335000FB7B002B0FD1324B1A897B681B899A4269
:1033600009D1304B1B78022B03D92F492F48FDF789
:1033700049FD002350E00A22796829480BF0B2F990
:103380002B4B1B681A46264B1B681360284B1B6887
:103390000433234A52681A60254B1B68204A12895D
:1033A0001A81204B1B78022B26D91D4B1B789C467B
:1033B0001B4B5B789E461A4B9B781A46184BDB7862
:1033C0001946174B1B891846154B1B791C46144B85
:1033D0005B791D46124B9B791E46114BDB79069398
:1033E00005960495039402900191009273466246FB
:1033F0000D491048FDF706FD094B1B891A4608497F
:103400000D4803F019F90D4803F046F94FF4907197
:103410000548FDF783F9002318461437BD46F0BD73
:10342000F02D0020802B00208806010870F700088E
:10343000C40000208CF70008D4000020F42D0020E8
:1034400080B400AF084B1B681B681A46074B1A6014
:10345000054B1B681B899AB2044B1A81002318463E
:10346000BD465DF8047B7047C4000020F02D0020AD
:1034700090B58DB004AF786039607B68FB61FB6903
:103480001B68FB60FB691B783B74FB695B787B7492
:103490000023BB740123FB74FB691B899BB2BB82B5
:1034A0001A4B1B78022B0FD93B7B18467B7B1C46A3
:1034B000BB7BFA7BB98A02910192009323460246B4
:1034C00013491448FDF79EFC07F10C031846FFF75B
:1034D00023FFB861BB69002B12D00C4B1B78002B6B
:1034E00003D00B490C48FDF78DFC084B1B78002BD3
:1034F00006D0BB6940F25B1205490848FDF782FC23
:10350000FFF724FE00BF2437BD4690BD802B00206E
:10351000A0060108CCF70008FCF7000828F800080E
:1035200080B582B000AF0346FB71FB79022B07D157
:10353000074B1B78022B03D906490748FDF762FCAD
:10354000064AFB79137000BF0837BD4680BD00BF37
:10355000802B0020B406010860F80008E82D002048
:1035600080B582B000AF0346FB71FB791846FFF7C8
:10357000D7FF00BF0837BD4680BD000080B582B0D0
:1035800000AF78600B4B1B78022B03D90A490B481C
:10359000FDF738FC0A4B1B78022B05D1FFF7A0FD85
:1035A0000A2007F0C4FAF5E74FF47A7007F0BFFA83
:1035B000F0E700BF802B0020C006010880F800085B
:1035C000E82D002080B582B000AF786039607B685C
:1035D0001B78182B0FD0182B14DC082B02D0092BCA
:1035E00012D00FE07B681A697B685B691946104648
:1035F000FFF73EFF09E07B685B68DBB21846FFF728
:103600008FFF02E000BF00E000BF00BF0837BD46EB
:1036100080BD0000B0B590B004AF0023FB62584BF2
:103620001B78022B04D9574A56495748FDF7EAFB45
:10363000564B3C461D460FCD0FC495E8070084E865
:1036400007003B460021184607F025FA0346504A7A
:1036500013604F4B1B68002B12D1494B1B78002B7A
:1036600003D048494B48FDF7CDFB4FF0FF3383E0D3
:10367000FFF7EEFC0346002B08D00A2007F057FAAC
:10368000FB6A5A1CFA62092BF2DD00E000BFFFF76B
:10369000D7FE0346002B31D0C0233B77A8237B778E
:1036A0000023BB770523FB7741F2BA33BB84C023E9
:1036B00087F82030A82387F82130002387F82230AC
:1036C000012387F823302E4B1B78032B11D93B7F26
:1036D00018467B7F1C46BB7F1A462F4BDB78B98C84
:1036E0000291019300922346024626492B48FDF79A
:1036F00089FB07F11C031846FFF70EFEFFF726FDB6
:10370000B862BB6A002B14D01D4B1B78002B03D072
:103710001C492348FDF776FB194B1B78002B06D07C
:10372000BB6A4FF4DF7217491E48FDF76BFBBB6A9B
:1037300022E01D4B1D4A1A601B4B00225A601A489A
:1037400000F036F8B862BB6A002B14D00C4B1B7823
:10375000002B03D00B491248FDF754FB084B1B7894
:10376000002B06D0BB6A40F2C31206490D48FDF794
:1037700049FBBB6A00E0002318463037BD46B0BDA8
:10378000802B0020D0060108A0F800082CF90008C2
:10379000EC2D0020B4F80008F02D0020DCF8000823
:1037A000FCF7000828F80008FC2D0020C5350008AB
:1037B00080B483B000AF7860104B1B68092B15DC18
:1037C0000E4B1B687A6812680D4941F833200B4B89
:1037D0001B687A6852680A49DB000B445A60074B41
:1037E0001B680133054A1360002300E001231846DB
:1037F0000C37BD465DF8047B704700BF582E002093
:10380000082E002080B586B000AFF860B9607A60FD
:103810003B603D4B1B684FF0FF31184607F0BEFC84
:1038200078617B69002B09D1384B1B78002B03D0C2
:1038300037493848FDF7E6FA002361E018220021F5
:1038400078690AF0BDFEFB68DAB27B691A707B69A1
:10385000BA685A607B697A689A607B693A68DA600C
:103860007B6A002B21D03B6A002B1ED0786A0AF0BD
:103870007DFC02467B691A617B697A6A5A617B69C1
:103880001B69002B0AD1214B1B78002B03D0204948
:103890002148FDF7B7FA6FF00B0331E07B691B6934
:1038A0007A6A396A18460AF01DFF174B1B68796956
:1038B000184607F089FC03463B613B69002B18D092
:1038C0007B691B69002B04D07B691B6918460AF0D1
:1038D0001BFD0E4B1B78012B04D93A690C490F488C
:1038E000FDF790FA084B1B687969184607F01EFD32
:1038F00000BF0B4B1B780133DAB2094B1A703B69DE
:1039000018461837BD4680BD042E0020802B0020AD
:10391000E006010848F9000874F900089CF900085D
:103920005C2E002080B582B000AF78607B68002BF1
:103930000FD07B681B69002B0BD07B681B69184676
:103940000AF0E2FC7B6800221A617B6800225A615F
:1039500000E000BF0837BD4680BD000080B586B0DE
:1039600000AF254B19683B1D4FF0FF32184607F09A
:1039700069FC7B68202B27D1BB68204A1360002399
:103980007B611CE07B69DB001D4A13443B613B69A2
:103990001B68002B08D03B691B68184A10683A69FD
:1039A00052681146984707E0164B1B78002B03D04E
:1039B00015491648FDF726FA7B6901337B61144BE4
:1039C0001B687A699A42DDDB0C4B1B681846FFF7CF
:1039D000A9FF094B1B68094A12681146184607F0EF
:1039E000A5FC0C4B1B78013BDAB20A4B1A7000BFE6
:1039F0001837BD4680BD00BF042E0020602E002079
:103A0000082E0020802B0020F0060108DCF90008B9
:103A1000582E00205C2E002080B584B000AF142307
:103A20003B6018237B6007F10C03BB603B46002121
:103A3000184607F05BFB03460A4A1360094B1B68F4
:103A4000002B09D1084B1B78002B03D007490848ED
:103A5000FDF7D8F9012300E0002318461037BD46D2
:103A600080BD00BF042E0020802B00200407010829
:103A7000F8F9000880B584B002AF0346FB71F8790D
:103A80000023019300230093002300220021FFF76D
:103A9000B9FE034618460837BD4680BD80B582B0E2
:103AA00000AF7860FEF70AFA03460E4A13600E4B29
:103AB0005A680E4B1B689A420FD00D4B1B78022B95
:103AC00007D9094B5A68074B1B680A490A48FDF792
:103AD00099F9054B5B68054A136000BF0837BD467E
:103AE00080BD00BF782E00207C2E0020DC0000204E
:103AF000802B0020140701081CFA000880B584B050
:103B000000AF786039600023FB600AE0FB687A68E8
:103B100013441B781946022001F04EFDFB68013367
:103B2000FB60FA683B689A42F0DB00BF00BF1037C9
:103B3000BD4680BDB0B582B000AF55211F48FCF72F
:103B4000EDFD78607B68002B1ED11D4B1B6803F1D7
:103B500020021C4B20331146A42218460AF0C2FD55
:103B6000174B1B681A46174B156854689068D16844
:103B70001D605C609860D960156954699069D1696D
:103B80001D615C619861D9617B68002B11D00E4B7F
:103B90001B78002B03D009490C48FDF733F90A4B79
:103BA0001B78002B05D07B685A2204490848FDF792
:103BB00029F900BF0837BD46B0BD00BF2007010886
:103BC000C400002078010020802B002040FA00086B
:103BD0006CFA000880B58EB002AF0346FB7100237B
:103BE00087F82F3000237B6200233B624FF47A700A
:103BF00006F09DFF0021002000F0C2FC0021002003
:103C000000F030FDFF21FF2000F0C4FD884B1B7841
:103C1000022B09D9874B1B68DB7A1A46864BDB7A65
:103C200086498748FDF7EEF8834BD3F822307B6254
:103C3000814BD3F826303B627F4B93F82130FB77E2
:103C4000804BBB61804B7B61804B3B61FB7F042BD6
:103C50001CD00023BB6216E0BB6AD8B2BB6A5B0013
:103C60007A6913441B88194600F0F8FDBB6AD8B284
:103C7000BB6A5B003A6913441B88194600F03EFE9C
:103C8000BB6A0133BB62BB6A072BE5DDFB7F013BEF
:103C9000032B75D801A252F823F000BFAD3C0008F9
:103CA000813D0008B53C0008FD3C0008012387F871
:103CB0002F3065E00023BB621CE0BB6ADAB25E49CC
:103CC000BB6A0C33DB000B44D3F8033019461046B3
:103CD00000F02EFFBB6ADAB25749BB6A0C33DB0037
:103CE0000B44D3F807301946104600F085FFBB6A35
:103CF0000133BB62BB6A032BDFDD41E007F1080340
:103D000000221A605A604C4B93F8323087F82F30FB
:103D10000023BB622BE04849BA6A13469B00134458
:103D20000B443B33197807F10802BB6A13440A4677
:103D30001A7007F10802BB6A13441B78002B13D0DA
:103D4000BB6AD8B2BB6A5B007A6913441B88194608
:103D500000F084FDBB6AD8B2BB6A5B003A691344C9
:103D60001B88194600F0CAFDBB6A0133BB62BB6AFF
:103D7000072BD0DD07F10803184600F06DFE00BFE9
:103D80002D4B93F88330184600F03AFDFB7F796A9B
:103D9000184600F067FC284B93F82030184600F0D6
:103DA000C1FC97F82F20FB7F1146184600F0F2FC6B
:103DB000214B93F82030012B1DD11E4B1B68DB7A61
:103DC0001D4AB2F8B42092B21146184600F002FE25
:103DD0000023BB620CE0BB6AD8B2BB6A5B00BA6965
:103DE00013441B88194600F0BFFDBB6A0133BB6258
:103DF000BB6A072BEFDD0E4B1B78032B07D9FB7F2C
:103E000000933B6A7A6A0D491148FCF7FBFFFB7F80
:103E1000796A184600F026FCFB7F396A184600F0E4
:103E2000AFFB1320FFF726FE00BF3037BD4680BD35
:103E3000802B0020C4000020780100202C070108FE
:103E4000A4FA00081C020020FC0100200C02002043
:103E5000C0FA000880B584B000AF0346FB71274B61
:103E60001B78022B0AD9FB79002B01D0244B00E0F0
:103E7000244B1A4624492548FCF7C4FF244AFB7901
:103E80001370FB79012B2BD10121012000F082FC62
:103E90000021002000F074FB4FF0FF31002000F003
:103EA000E1FB0023FB600FE0FB68DBB2002118465A
:103EB00000F0D4FCFB68DBB24FF4FA61184600F066
:103EC0001DFDFB680133FB60FB68072BECDD114B2C
:103ED0001B68184606F0D4FF0CE0642006F027FEAD
:103EE0000B4B5B78002BF8D00120FFF773FE1720F7
:103EF000FFF7C0FD00BF1037BD4680BD802B0020FE
:103F0000ECFA0008F4FA00083C070108FCFA000883
:103F1000642E00200831002080B483B000AF034637
:103F2000FB71FB79034A136000BF0C37BD465DF897
:103F3000047B70477C2E002080B582B000AF002348
:103F40007B6009E00C4B1B78012B09D10A2006F09D
:103F5000EEFD7B6801337B607B68632BF2DD00E064
:103F600000BF7B68632BD4BF01230023DBB218465C
:103F70000837BD4680BD00BF642E002080B582B0EA
:103F800000AF164B1B78022B03D915491548FCF7D7
:103F900039FF00237B600FE001227B6802FA03F304
:103FA0001946002000F0ECFAFFF7C6FF0346002B8D
:103FB00006D17B6801337B607B68072BECDD00E07A
:103FC00000BF064B1B78022B03D905490648FCF7B6
:103FD00019FF00BF0837BD4680BD00BF802B002001
:103FE0004C07010814FB000830FB000880B584B0C2
:103FF00000AF03463960FB71274B1B78022B05D9B4
:10400000FB791A4625492648FCF7FCFEFB79002B74
:1040100008D0FB79042B05D8FB79013BDBB2DB0030
:10402000FB730AE0FB79052B02D0FB79062B04D148
:10403000FB79053BDBB21B01FB73174B1B78022B93
:1040400004D93A6815491748FCF7DCFEFB7B3A684F
:1040500002FA03F33B603968002000F091FA002374
:10406000BB6007E0FFF768FF0346002B06D1BB6883
:104070000133BB60BB68022BF4DD00E000BF064BE0
:104080001B78022B03D905490748FCF7BBFE00BF8C
:104090001037BD4680BD00BF802B002054070108AB
:1040A00048FB00086CFB00088CFB000880B582B060
:1040B00000AF4FF0FF31002000F062FA00237B6078
:1040C00007E0FFF739FF0346002B06D17B68013379
:1040D0007B607B68022BF4DD00E000BF00BF083787
:1040E000BD4680BD80B582B000AF0346FB71FB7951
:1040F000072B26D801A252F823F000BF1D4100086B
:1041000023410008234100082341000823410008FF
:104110002F4100082F4100083D410008FFF72EFF06
:1041200010E0FB79FF211846FFF760FF0AE0FB79FA
:104130004FF6FF711846FFF759FF03E0FFF7B6FF90
:1041400000E000BF00BF0837BD4680BD80B584B029
:1041500000AF78600023FB73214B1B78022B03D93F
:1041600020492148FCF74EFE204B1B684FF0FF31E1
:10417000184606F037FE0346002B2DD1184B1B784E
:10418000022B23D917491A48FCF73CFE1EE0144BBA
:104190001B78022B05D9FB7B1A4612491548FCF700
:1041A00031FE154B00225A70FB7B1846FFF79AFF31
:1041B000114B01225A70FB7B0133FB73FB7B072BF6
:1041C00001D90023FB73642006F0B1FC0A4B1B7875
:1041D000012BDCD00023FB73642006F0A8FCC3E7AE
:1041E000802B00205C070108A4FB00080831002098
:1041F000C4FB0008E4FB0008642E002080B582B0F8
:1042000000AF786039607B681B78013B1E2B00F2A1
:104210008F8001A252F823F0954200083143000834
:10422000314300083143000831430008ED420008E3
:10423000054300083143000831430008FF420008ED
:10424000314300083143000831430008314300087E
:10425000314300083143000831430008314300086E
:104260003143000831430008134300081B43000892
:10427000314300083143000831430008314300084E
:10428000314300083143000831430008314300083E
:10429000234300082A4B1B68C821184606F090FCEF
:1042A000284B1B78022B07D9274B1B689B7A1A4691
:1042B00026492748FCF7A6FD234B1B689B7A012B58
:1042C00004D0214B1B689B7A022B33D11E4B1B68F9
:1042D0009B7A184601F036FA1B4B1B689B7A1846EE
:1042E000FFF73EF90220FFF775FC23E07B681A69AF
:1042F0007B685B6919461046FFF700FC1BE0FFF77F
:1043000019FC18E07B685B68DBB21846FFF762FCBB
:1043100011E00120FFF79EFD0DE00020FFF79AFD60
:1043200009E07B685B68DBB21846FFF7F5FD02E049
:1043300000BF00E000BF00BF0837BD4680BD00BF22
:10434000682E0020802B0020C40000206C0701088C
:1043500000FC0008B0B58CB000AF4A4B1B78032BB3
:1043600003D949494948FCF74DFD0023BB620023AE
:10437000FB6207F128030121184606F001FD034600
:10438000434A1360434B3B6200237B6207F12003E7
:1043900000220121184606F0DFFB03463E4A136067
:1043A0003D4B1B68002B09D1364B1B78002B03D0EB
:1043B00035493A48FCF726FD01235EE0314B1B7876
:1043C000022B06D9324B1B681A462F493448FCF79A
:1043D00019FD2F4B1B68002B19D02D4B1B6800219A
:1043E000184606F0FFFC0346002B08D1254B1B782E
:1043F000022B0CD924492B48FCF704FD07E0214B84
:104400001B78022B03D920492748FCF7FBFC274BDC
:104410003C1D1D460FCD0FC495E8070084E807003A
:104420003B1D0021184606F036FB0346204A136068
:104430001F4B1B68002B09D1124B1B78002B03D09C
:1044400011491C48FCF7DEFC012316E01A4B1B4AFD
:104450001A60194B00225A601748FFF7A9F9034662
:10446000002B09D0074B1B78002B03D006491448BA
:10447000FCF7C8FC012300E0002318463037BD4696
:10448000B0BD00BF802B00207807010824FC000885
:10449000083100209D3A0008682E00203CFC0008EE
:1044A00064FC000884FC0008A4FC00081CFD000853
:1044B000742E0020C0FC00086C2E0020FD41000876
:1044C000E4FC000880B485B000AF0346FB71124BDA
:1044D0001B6801335A42C3F30A03C2F30A0258BFEE
:1044E0005342FB600D4B1B78002B0DD00C4B1B680F
:1044F000FA689A420AD0084AFB681360064B1B68A8
:104500000849FA79CA5402E000BF00E000BF14373E
:10451000BD465DF8047B704710310020E0000020AC
:104520000C310020D009001080B483B000AF786057
:10453000104B1A68104B1B689A4201D1002312E0FD
:104540000D4B1B6801335A42C3F30A03C2F30A023C
:1045500058BF5342084A1360074B1B68074AD25C96
:104560007B681A70012318460C37BD465DF8047B42
:10457000704700BF103100200C310020D00900101E
:1045800080B586B000AF03463960FB713B68BB6005
:1045900055233B7304237B7300237B6146E07A7BC6
:1045A0007B69DBB2D31ADBB27B737B695B001833A8
:1045B0003B4413F8103CFB737B695B0001331833F9
:1045C0003B4413F8103CBB7307F10C031E4A042153
:1045D0001846FCF777FC1D4B1B78022B04D93A6870
:1045E0001B491C48FCF70EFC07F10C03042219467A
:1045F000012001F013FE38613B69002B13D0134BEF
:104600001B78002B03D012491348FCF7FBFB0F4B20
:104610001B78002B05D03B6981220D490F48FCF720
:10462000F1FB3B690CE07B6901337B617B69012B0A
:10463000B5DD3B68002B02D0094A3B68936000233C
:1046400018461837BD4680BD78FD0008802B002035
:104650008C07010884FD0008A0FD0008CCFD0008BF
:10466000E000002080B586B000AF03463960FB71E2
:104670003B68BB6055233B7302237B7300237B6144
:104680003DE07A7B7B69DBB2D31ADBB27B737B695B
:104690005B0018333B4413F8103CFB737B695B00F1
:1046A000013318333B4413F8103CBB7307F10C0380
:1046B000174A04211846FCF705FC07F10C030422F5
:1046C0001946012001F0AAFD38613B69002B13D087
:1046D000104B1B78002B03D00F491048FCF792FBBE
:1046E0000C4B1B78002B05D03B699B220A490C48D8
:1046F000FCF788FB3B6906E07B6901337B617B69E2
:10470000012BBEDD002318461837BD4680BD00BF13
:1047100004FE0008802B0020A4070108A0FD00086B
:10472000CCFD000880B584B000AF0346FB71552373
:104730003B7305237B73FB79BB730023FB73104B27
:104740001B78022B0AD9FB79002B01D00D4B00E01E
:104750000D4B1A460D490E48FCF754FB07F10C03AC
:1047600004221946012001F059FD0346002B01D017
:10477000012300E0002318461037BD4680BD00BF6E
:10478000802B002010FE000818FE0008BC0701085E
:1047900020FE000880B584B000AF03460A46FB71D6
:1047A0001346BB7155233B7306237B73FB79BB73A5
:1047B0000023FB73FB79012B05D0FB79042B02D07E
:1047C000FB79FF2B01D1BB79FB7307F10C030B4A7B
:1047D00004211846FCF776FB07F10C030422194666
:1047E000012001F01BFD0346002B01D0012300E056
:1047F000002318461037BD4680BD00BF3CFE0008B0
:1048000080B584B000AF0346FB7155233B7307238B
:104810007B73FB79BB730023FB730D4B1B78022B5F
:1048200005D9FB791A460B490B48FCF7EBFA07F15F
:104830000C0304221946012001F0F0FC0346002B72
:1048400001D0012300E0002318461037BD4680BD8B
:10485000802B0020CC0701084CFE000880B586B0F4
:1048600000AF03460A46FB711346BB801E4B1B7804
:10487000022B05D9FA79BB881C491D48FCF7C2FAFE
:10488000BB88BB8155233B74FB791033DBB27B744F
:104890007B7BBB743B7BFB7407F11003042219463E
:1048A000012001F0BBFC78617B69002B16D07B698D
:1048B000002B13D00C4B1B78002B03D00B490D4859
:1048C000FCF7A0FA084B1B78002B05D07B69F92276
:1048D00006490948FCF796FA7B6900E00023184670
:1048E0001837BD4680BD00BF802B0020E0070108BF
:1048F00064FE0008A0FD0008CCFD000880B584B06F
:1049000000AF03460A46FB711346BB80134B1B786E
:10491000022B05D9FA79BB8811491248FCF772FAC3
:10492000BB883B8155233B73FB793033DBB27B7310
:104930007B7ABB733B7AFB7307F10C0304221946A5
:10494000012001F06BFC0346002B02D04FF0FF3337
:1049500000E0002318461037BD4680BD802B0020A4
:10496000F407010888FE000880B584B000AF034654
:104970000A46FB711346BB80134B1B78022B05D9EB
:10498000BB881A4611491248FCF73CFABB883B81A8
:1049900055233B737B7ABB733B7AFB73FB795033B4
:1049A000DBB27B7307F10C0304221946012001F0EE
:1049B00035FC0346002B02D04FF0FF3300E000230C
:1049C00018461037BD4680BD802B0020080801081E
:1049D000A8FE000880B586B000AF03460A46FB710A
:1049E0001346BB80194B1B78022B05D9FA79BB887B
:1049F00017491848FCF706FABB88BB8155233B745E
:104A00007B7BBB743B7BFB7400237B6114E07B6985
:104A1000DBB27033DBB27B7407F11003042219465A
:104A2000012001F0FBFB0346002B02D04FF0FF33C7
:104A300007E07B6901337B61FB797A699A42E6DBA7
:104A4000002318461837BD4680BD00BF802B0020CC
:104A50001C080108C8FE000890B587B002AF786056
:104A60000023BB6055233B720023FB6050E02C4BBE
:104A70001B78022B15D9FB68581CFB687A68134415
:104A80001B781C46FB680233FA68013279680A44D5
:104A90001278019200932346024622492248FCF7ED
:104AA000B1F9FB687A6813441B78002B06D1FB68C8
:104AB00001337A6813441B78002B26D0FB687A6890
:104AC00013441B78BB72FB6801337A6813441B786C
:104AD000FB72FB68DA0F13445B10DBB2703BDBB296
:104AE0007B7207F10803114A04211846FCF7EAF922
:104AF00007F1080304221946012001F08FFB034649
:104B0000002B02D04FF0FF3306E0FB680233FB605E
:104B1000FB68072BABDD002318461437BD4690BD5C
:104B2000802B002034080108F0FE00081CFF00085C
:104B300080B586B000AF03463960FB713B68BB604F
:104B400055233B73FB799B00DBB25F3BDBB27B738E
:104B500000237B613EE07A7B7B69DBB2D31ADBB258
:104B60007B737B695B0018333B4413F8103CFB7389
:104B70007B695B00013318333B4413F8103CBB7373
:104B800007F10C03174A04211846FCF79BF907F1BB
:104B90000C0304221946012001F040FB38613B69F7
:104BA000002B14D0104B1B78002B03D00F4910485A
:104BB000FCF728F90C4B1B78002B06D03B6940F220
:104BC0006D120A490B48FCF71DF93B6906E07B6949
:104BD00001337B617B69012BBDDD0023184618374B
:104BE000BD4680BD28FF0008802B00204C0801082E
:104BF000A0FD0008CCFD000880B586B000AF0346DC
:104C00003960FB713B68BB6055233B73FB799B00AC
:104C1000DBB25D3BDBB27B7300237B613EE07A7BE2
:104C20007B69DBB2D31ADBB27B737B695B00183321
:104C30003B4413F8103CFB737B695B000133183372
:104C40003B4413F8103CBB7307F10C03174A0421D3
:104C50001846FCF737F907F10C0304221946012026
:104C600001F0DCFA38613B69002B14D0104B1B7843
:104C7000002B03D00F491048FCF7C4F80C4B1B78ED
:104C8000002B06D03B694FF4C2720A490B48FCF76F
:104C9000B9F83B6906E07B6901337B617B69012BD5
:104CA000BDDD002318461837BD4680BD38FF00081B
:104CB000802B002064080108A0FD0008CCFD00083E
:104CC00080B483B000AF0346FB71044AFB791370D4
:104CD00000BF0C37BD465DF8047B7047E000002044
:104CE00080B582B000AF78607B681B78332B07D12A
:104CF0007B6804331B78184600F0DCFB012300E0DE
:104D0000002318460837BD4680BD000080B588B036
:104D100000AF0346FB7107F10C0300221A605A60D2
:104D20001A720023BB61574B1B78032B07D9564BD4
:104D30001B68DB7A1A4655495548FCF763F8002092
:104D4000FFF75EFD0023FB612EE0FB69DBB24FF451
:104D50007A711846FFF7D2FDFB69DBB200211846D5
:104D6000FFF77CFDFB69DAB2474B1B68B3F8B43040
:104D70009BB201339BB219461046FFF7F5FD0122A5
:104D8000FB6902FA03F31A46BB691343BB613D4B4F
:104D90001B78022B05D9BB69FA693C493D48FCF7F1
:104DA00031F8FB690133FB61374B1B68DB7A1A462C
:104DB000FB699342C9DB334B1B78022B04D9BA69D8
:104DC00032493548FCF71EF80023FB6128E0FB69F7
:104DD000D9B2FA6913465B0013444A1CD2B220339D
:104DE0003B4403F8142CFB69D9B2FA6913465B0003
:104DF000134401334A1CD2B220333B4403F8142C31
:104E0000FB69D9B2FA6913465B00134402334A1CAA
:104E1000D2B220333B4403F8142CFB690133FB610D
:104E2000FB69022BD3DD07F10C031846FFF714FED4
:104E3000144B1B78032B03D914491848FBF7E2FFE6
:104E4000FF210020FFF70EFCFB79002B04D000218E
:104E50000020FFF795FB0CE00A4B1B78032B04D9CD
:104E6000BA690A490E48FBF7CDFFB9690020FFF780
:104E700087FB00210020FFF78DFC00BF2037BD46D7
:104E800080BD00BF802B0020C40000207C080108EA
:104E900048FF000870FF000890FF0008ACFF000802
:104EA000D0FF000880B483B000AF78607A68064B0A
:104EB0000233196811601B79137100BF0C37BD46AE
:104EC0005DF8047B704700BFE000002080B582B031
:104ED00000AF786039607B681B78182B0ED0182BD8
:104EE00012DC132B02D0142B04D00DE00120FFF7AD
:104EF000E7FE0AE00020FFF7E3FE06E07B685B6860
:104F0000DAB2044B5A7000E000BF00BF0837BD465C
:104F100080BD00BFE000002080B586B000AF7860A3
:104F200007F10C0300221A601A710023FB7500239D
:104F3000BB82464B1B78002B03D1642005F0F7FDA4
:104F400083E007F113031846FFF7EEFA0346002B40
:104F50004BD0FB7D002B09D1FB7C332B06D0FB7C97
:104F6000AA2B03D00A2005F0E2FD6EE0FB7D042BA6
:104F700007D8FB7D5A1CFA75FA7C18333B4403F8BA
:104F80000C2CFB7D052B2CD107F10C031846FFF7E9
:104F9000A7FE0346002B1BD02C4B5B78012B03D0C4
:104FA0002A4B5B78022B13D10123BB82274B5B7802
:104FB000012B05D107F10C03184600F0E1FB07E0D7
:104FC000224B023307F10C021068186012791A7133
:104FD0000023FB7507F10C0305220021184609F098
:104FE000EFFA052005F0A3FDA3E7184B5B78012B32
:104FF00003D0164B5B78022B24D1BB8A002B21D027
:10500000BB8A5A1CBA82142B1CD90023BB8207F11D
:105010000C0305220021184609F0D2FA33233B7312
:105020000A4B5B78012B05D107F10C03184600F001
:10503000A7FB07E0054B023307F10C02106818606C
:1050400012791A71642005F072FD72E7E000002009
:10505000B0B588B000AF124B3C1D1D460FCD0FC43C
:1050600095E8070084E807003B1D0021184605F07D
:1050700012FD03460B4A13600B4B0C4A1A600A4B95
:1050800000225A600848FEF793FB0346002B01D02C
:10509000012300E0002318462037BD46B0BD00BF05
:1050A000000001081431002018310020CD4E000806
:1050B00080B584B002AF0346FB71F87900230193F9
:1050C00000230093002300220021FEF79BFB0346F0
:1050D00018460837BD4680BD80B584B002AF034690
:1050E0003960FB71F87900230193002300930023BA
:1050F00000223968FEF786FB034618460837BD468E
:1051000080BD80B586B002AF0346B9607A60FB739C
:10511000F87B7B680193BB68009300230022002189
:10512000FEF770FB034618461037BD4680BD0000F1
:1051300080B400AF054B00225A80044B5A88034BC1
:105140001A8000BFBD465DF8047B704730310020F7
:1051500080B485B000AF0346FB71114B1B8801334F
:105160005A42C3F30803C2F3080258BF5342FB601C
:105170000B4B5B881A46FB6893420AD0084B1B888E
:105180001946084AFB795354FB689AB2044B1A80BB
:1051900000E000BF1437BD465DF8047B704700BFD8
:1051A00030310020D011001080B483B000AF78609F
:1051B000114B1A88104B5B889A4201D1002314E0EE
:1051C0000D4B5B881A460D4B9A5C7B681A700A4B34
:1051D0005B8801335A42C3F30803C2F3080258BF85
:1051E00053429AB2044B5A80012318460C37BD46ED
:1051F0005DF8047B704700BF30310020D0110010F3
:1052000080B582B000AF0023BB710023FB7134E096
:10521000204B1B88002B02D1BB79EF2B2CD11D4BCF
:105220001B88092B0AD81B4B1B885A1C91B2194AA0
:1052300011801946BA79174B0B449A71154B5B884C
:105240001BB21B021AB2BB791BB213431BB29AB238
:10525000104B5A800F4B5B884FF6FF6293420CD184
:105260000C4B1B88FB710B4B00225A80094B002210
:105270001A80FB799BB208E000BFBB1D1846FFF700
:1052800093FF0346002BC3D1002318460837BD46C1
:1052900080BD00BF2031002080B586B000AFD02394
:1052A0003B743E4B1B7AE03B042B6ED801A252F8B4
:1052B00023F000BFC9520008ED520008F552000863
:1052C000035300084F530008354B1B78022B06D9B7
:1052D000324B9B7A1A4633493348FBF793FD2F4BE9
:1052E0009B7A19461820FFF7F7FE4EE01520FFF7CE
:1052F000DFFE4AE0294B9B7A19461F20FFF7ECFEA0
:1053000043E02A4B1B681B899BB2BB81234BD3F81C
:105310000A307B6000237B6115E03A1D7B691344F2
:105320001A78224B19687B690B441B789A4207D084
:105330003B1D0A2219460820FFF7E3FE00BF24E0C8
:105340007B6901337B617B69032BE6DD1DE0174B35
:105350001B681B687B60114BDB7A1BB21B021AB205
:105360000E4B9B7A1BB213431BB29BB2BB81BA8913
:105370000E4B1B681B899BB29A4205D03B1D0A222B
:1053800019460820FFF7BDFE00BF07F110031846BD
:1053900000F0ACF800BF1837BD4680BD20310020BA
:1053A000802B0020940801081C000108C400002084
:1053B00080B582B000AF0F4A3B4692E8030083E815
:1053C00003001923BB700A23FB703B4608221946D1
:1053D000022000F023FF084B1B78022B06D9BB7874
:1053E0001A46FB7805490648FBF70CFD00BF083755
:1053F000BD4680BD70000108802B0020A408010874
:105400004400010880B584B000AF7860214B1B7860
:10541000022B03D920492148FBF7F4FC0023FB6051
:1054200005E0642005F083FBFB680133FB60FB684B
:10543000092BF6DDFFF7E4FE0346FB72FB7A002B37
:1054400023D0174A0A211748FBF73CFD114B1B7864
:10545000022B06D9144B1B7A1A460F491348FBF747
:10546000D1FC114B1B7ADF2B02D9FFF715FF0CE0A3
:105470000D4B1B7A102B02D1FFF79AFF05E0FB7A48
:105480009BB219460A4800F005FD322005F04FFB9B
:10549000D0E700BF802B0020B40801087800010885
:1054A000980001082631002020310020B0000108BA
:1054B0002831002080B584B000AF0346FB710A4A52
:1054C00007F1080392E8030083E80300FB79BB724D
:1054D00007F1080308221946022000F09FFE00BFD2
:1054E0001037BD4680BD00BFCC00010880B584B038
:1054F00000AF78600A4A07F1080392E8030083E8E6
:1055000003007B681B787B7207F1080308221946A9
:10551000022000F083FE00BF1037BD4680BD00BFF3
:10552000D4000108B0B588B000AFFFF701FE0B4B07
:105530003C1D1D460FCD0FC495E8070084E8070009
:105540003B1D0021184605F0A6FA0346044A1360E5
:10555000002318462037BD46B0BD00BFE800010853
:105560003431002080B584B002AF0346FB71F87976
:105570000023019300230093002300220021FEF763
:1055800041F9034618460837BD4680BD80B584B052
:1055900002AF03463960FB71F879002301930023C1
:1055A0000093002300223968FEF72CF903461846C1
:1055B0000837BD4680BD000080B584B000AF03460B
:1055C0000A46FB711346BB71204B1B6801335A42DC
:1055D000C3F30903C2F3090258BF5342FB601C4BDB
:1055E0001B68FA689A4208D11A4B1B78002B26D008
:1055F00019491A48FBF706FC21E0194B9B78FA7908
:105600009A4213D0174B1B78FA799A4219D0154A4F
:10561000FB7913700F4B1B78022B12D9FA79104BC0
:105620009B780D491048FBF7EDFB0AE0074AFB6841
:105630001360064B1B680D49BA79CA5402E000BFDB
:1056400000E000BF1037BD4680BD00BF64310020C0
:1056500068310020802B0020C008010804010108E7
:10566000F00000206C31002028010108D013001048
:1056700080B483B000AF7860104B1A68104B1B6881
:105680009A4201D1002312E00D4B1B6801335A42AC
:10569000C3F30903C2F3090258BF5342084A136017
:1056A000074B1B68074AD25C7B681A7001231846B7
:1056B0000C37BD465DF8047B704700BF64310020A5
:1056C00068310020D013001080B582B000AF0346CF
:1056D000FB71174B1B78022B07D9164B9B781A4688
:1056E000FB7915491548FBF78DFB124B9B78FA792E
:1056F0009A4219D00F4B9B78002B06D0FB79042BD4
:1057000003D00120FFF702FB04E0FB79042B01D159
:105710000323FB710A4B1B68FA799A72054B00222E
:105720005A70044AFB79937000BF0837BD4680BDAC
:10573000802B0020F0000020D00801085001010853
:10574000C400002080B582B000AF0346FB71084B57
:105750001B78032B05D9FB791A4606490648FBF747
:1057600051FB064AFB79937000BF0837BD4680BDE8
:10577000802B0020DC08010874010108F0000020E3
:1057800080B584B000AF786007F1080300221A608A
:105790005A60DF233B727B681B78332B08D107F1FB
:1057A0000803013305227968184608F09BFF02E0E0
:1057B0007B681B787B72FE23BB73FF23FB7307F1AF
:1057C0000803184600F0FCFD00BF1037BD4680BD41
:1057D00080B588B002AF03463960FB71D0233B73BC
:1057E0003B681B78A03B212B00F2138301A252F8E7
:1057F00023F000BF635D0008135E0008135E00081D
:10580000135E0008135E0008135E0008135E0008B4
:10581000135E0008135E0008135E0008135E0008A4
:10582000135E0008135E0008135E0008135E000894
:10583000135E00086F5D00087D580008E3580008FB
:1058400061590008DF590008415A00083D5B000813
:10585000C35B0008CB5B0008FF5B0008135E000819
:10586000075C0008115C0008AF5C0008535C00088E
:10587000135E00087B5D0008C75D00083B689A78EE
:105880007E4B9A713B6802331A783B6803331B786E
:1058900019461046FEF77EFF3B6802331B78FF2B4C
:1058A00000F0B9823B6802331B78042B05D1744B9E
:1058B0001B683A68D27883F83220714B1B6893F8E2
:1058C00021203B6802331B789A4200F0A6826C4B81
:1058D0001B683A68927883F821200A20FFF742FE7D
:1058E0009BE23B6801331B78072B00F298823B68F0
:1058F00002331B781BB21B021AB23B6803331B78BE
:105900001BB213431BB2FB823B6801331B78FA8A3C
:1059100011461846FEF7F2FF3B6801331B78194623
:10592000584AFB8A22F81130554B1A683B680133FC
:105930001B7848335B0013449B889BB2FA8A9A42D7
:1059400000F06F824E4B1A683B6801331B78483376
:105950005B001344FA8A9A80484B01225A7060E235
:105960003B6801331B78072B00F25D823B680233F2
:105970001B781BB21B021AB23B6803331B781BB2A5
:1059800013431BB2FB823B6801331B78FA8A114632
:105990001846FEF763FF3B6801331B78394908332B
:1059A000FA8A21F81320364B1A683B6801331B78BA
:1059B00040335B0013449B889BB2FA8A9A4200F002
:1059C00034822F4B1A683B6801331B7840335B00ED
:1059D0001344FA8A9A80294B01225A7025E23B68C7
:1059E00002331B781A063B6803331B781B041A43E7
:1059F0003B6804331B781B0213433A680532127864
:105A000013433B6139690020FEF72CFE1C4B1B68D9
:105A1000D3F822303A699A4207D0194B1B683A6989
:105A2000C3F82220154B01225A70144B1B78002B0F
:105A300000F0FD81D3233B73104B00221A70F6E176
:105A40003B6802331B781A063B6803331B781B0440
:105A50001A433B6804331B781B0213433A68053230
:105A6000127813433B613B69002B0DD01A20FFF7DE
:105A700079FD1320FFF776FD11E000BFF000002054
:105A8000C4000020383100201420FFF76BFD944B38
:105A90009B79042B03D100210020FEF77BFE914B64
:105AA0001B78022B0AD93B6801331B781A468E4BB0
:105AB0001B68DB7A8D498E48FBF7A4F93B680133FC
:105AC0001B78002B1BD03B6801331A78864B1B6870
:105AD000DB7A9A4213D0824B01225A70824B1B68A8
