:020000040800F2
:10000000000002209D550008411900084919000808
:100010005119000859190008611900080000000072
:1000200000000000000000000000000081D3000874
:100030006919000800000000D1D5000839D6000871
:10004000ED550008ED550008ED550008ED55000888
:10005000ED550008ED550008ED550008ED55000878
:10006000ED550008ED550008ED550008ED55000868
:10007000ED550008ED550008ED550008ED55000858
:10008000ED550008ED550008ED550008ED55000848
:10009000ED550008ED550008ED550008ED55000838
:1000A000ED550008ED550008ED550008ED55000828
:1000B000ED550008ED550008ED550008ED55000818
:1000C000ED550008ED550008ED550008ED55000808
:1000D000ED550008791900088D190008ED55000844
:1000E000ED550008ED550008ED550008ED550008E8
:1000F000ED550008ED550008ED550008ED550008D8
:10010000ED550008ED550008ED550008ED550008C7
:10011000ED550008ED550008A1190008ED5500083F
:10012000ED550008ED550008ED550008ED550008A7
:10013000ED5500080000000000000000ED5500082B
:10014000ED550008ED550008ED550008ED55000887
:10015000ED550008ED550008ED550008B5190008EB
:10016000ED550008ED550008ED550008ED55000867
:10017000ED550008ED5500080000000000000000EB
:08018000ED550008ED550008E3
:1001900010B5054C237833B9044B13B10448AFF3C1
:1001A00000800123237010BD00010020000000002A
:1001B00078E5000808B5034B1BB103490348AFF3CA
:1001C000008008BD000000000401002078E5000860
:1001D000034613F8012B002AFBD1181A0138704787
:1001E00001F0FF01102A2BDB10F0070F08D010F8E8
:1001F000013B013A8B422DD010F0070F42B3F6D1EC
:10020000F0B441EA012141EA014122F007047FF004
:1002100000070023F0E80256083C85EA010586EA5B
:10022000010685FA47F5A3FA87F586FA47F6A5FA97
:1002300087F68EB9EED1F0BC01F0FF0102F00702A3
:1002400032B110F8013B013A83EA010313B1F8D14E
:100250000020704701387047002D06BF354603382F
:10026000073815F0010F07D1013015F4807F02BF68
:10027000013015F4C03F0130F0BC0138704700BFB9
:1002800053B94AB9002908BF00281CBF4FF0FF31FD
:100290004FF0FF3000F06AB9ADF1080C6DE904CE03
:1002A00000F006F8DDF804E0DDE9022304B0704751
:1002B0002DE9F047089D0C46002B4ED194468C4505
:1002C0008646B2FA82F262D94AB1C2F12003914065
:1002D00020FA03F30CFA02FC194300FA02FE4FEA7B
:1002E0001C471FFA8CF6B1FBF7F44FEA1E4307FBDD
:1002F000141143EA014304FB06F199420AD91CEBAD
:10030000030304F1FF3080F01281994240F20F8123
:10031000023C6344591A1FFA8EF3B1FBF7F007FB56
:10032000101143EA014300FB06F69E420AD91CEB7A
:10033000030300F1FF3180F0FC809E4240F2F9801F
:10034000634402389B1B40EA044000211DB1D340A6
:100350000022C5E90032BDE8F0878B4205D90DB116
:10036000C5E9000100210846F5E7B3FA83F1002949
:1003700046D1A34202D39042C0F0F080861A64EBCB
:1003800003030120002DE6D0C5E90063E3E7002A5E
:1003900040F09080A1EB0C044FEA1C481FFA8CF748
:1003A0000121B4FBF8F64FEA1E4308FB164443EA6A
:1003B000044307FB06F0984208D91CEB030306F13F
:1003C000FF3402D2984200F2CD8026461C1A1FFA52
:1003D0008EF3B4FBF8F008FB104443EA044300FB3F
:1003E00007F79F4208D91CEB030300F1FF3402D248
:1003F0009F4200F2B0802046DB1B40EA0640A5E7A2
:10040000C1F120068B4022FA06F71F4320FA06FCB2
:1004100004FA01F343EA0C03F44000FA01F8380C43
:100420004FEA1349B4FBF0FE1FFA87FC00FB1E44A1
:1004300049EA04440EFB0CF9A14502FA01F20AD97B
:100440003C190EF1FF3A80F08480A14540F2818092
:10045000AEF1020E3C44A4EB09041FFA83F9B4FB8D
:10046000F0F300FB134449EA044403FB0CFCA445ED
:1004700007D93C1903F1FF3067D2A44565D9023B87
:100480003C4443EA0E40A0FB0293A4EB0C049C42C4
:10049000CE469C4651D34ED055B1B8EB0E0364EB1B
:1004A0000C0404FA06F6CB401E43CC40C5E90064B8
:1004B000002150E7C2F1200320FA03F10CFA02FCFC
:1004C00024FA03F394400C434FEA1C4800FA02FE5E
:1004D0001FFA8CF7B3FBF8F008FB1031230C43EA4A
:1004E000014300FB07F1994208D91CEB030300F11B
:1004F000FF362CD299422AD9023863445B1AA4B23F
:10050000B3FBF8F108FB113344EA034401FB07F3A2
:10051000A34208D91CEB040401F1FF3613D2A34215
:1005200011D902396444E41A41EA004139E704462A
:10053000F0E6084606E7C845AED2B9EB020E63EB1B
:10054000070C0138A8E73146EDE7034699E7304646
:10055000D4E7D6467FE7634402384DE70646234694
:1005600008460FE7023E634430E700BF704700BF14
:1005700080B584B002AF0346FB71F8790023019384
:100580000023009300230022002102F0F3FF034622
:1005900018460837BD4680BD80B582B000AF00F078
:1005A00025F878607B68002B13D00C4B1B78002B50
:1005B00003D00B490B4800F00FFA084B1B78002BB7
:1005C00005D07B682C220649074800F005FA7B68B5
:1005D00000E07B6818460837BD4680BDDC2A002055
:1005E00070F7000890E50008BCE5000880B582B00F
:1005F00000AF1D4B1B78032B03D91C491C4800F08E
:10060000EBF91C4B1B681C4A184611467A231A4604
:100610000DF066FB144B1B78022B03D913491748C6
:1006200000F0DAF9134B1B68184600F015F97860F2
:100630007B68002B13D00C4B1B78002B03D00B498D
:100640000F4800F0C9F9084B1B78002B05D07B68D8
:100650003B2206490B4800F0BFF97B6800E000230D
:1006600018460837BD4680BDDC2A002080F7000808
:10067000F4E500087C0000200000002014E60008DB
:1006800090E50008BCE5000880B582B000AF194BCA
:100690001B78032B03D91849184800F09DF9184B13
:1006A0001B68184600F032F878607B68002B19D080
:1006B0000C20FFF75DFF7B68002B13D00D4B1B78E0
:1006C000002B03D00C490F4800F086F9094B1B782A
:1006D000002B05D07B68492207490B4800F07CF9C4
:1006E0007B6803E00D20FFF743FF7B68184608375F
:1006F000BD4680BDDC2A002094F700083CE60008D7
:100700007C00002090E50008BCE5000880B584B0BE
:1007100000AF78607B68002B13D1284B1B78002B2F
:1007200003D02749274800F057F9244B1B78002BAA
:1007300004D02D222249244800F04EF96FF0150311
:1007400038E07B68214A934207D0214B7A6808330E
:1007500011467A2218460DF0C3FA1D4B18221A6072
:100760007A211A4804F0CCFE0346194A536001F07E
:10077000EBF9F8608421164801F04AFA0246FB685A
:100780001343FB60FB68002B13D00C4B1B78002B32
:1007900003D00B490B4800F01FF9084B1B78002BC6
:1007A00005D0FB68372206490A4800F015F9FB68B6
:1007B00000E0002318461037BD4680BDDC2A00202B
:1007C000A4F70008D4E6000808E7000808000010B5
:1007D0000000001028E7000880B582B000AF1022AA
:1007E00000211A480DF0F2F900237B600AE0184A54
:1007F0007B6824335B0013444FF47A725A817B6820
:1008000001337B607B68072BF1DD114B012283F8FC
:1008100038200F4B002242F0010283F839200022D9
:1008200083F83A20002283F83B20002283F83C2002
:10083000074B18221A607A21064804F061FE03462D
:10084000034A536000BF0837BD4680BD4200001018
:10085000000000100800001080B584B000AF786080
:10086000244B1B78032B03D92349244800F0B4F808
:100870007B68234A934207D0224B7A68083311469B
:100880007A2218460DF02CFAFFF7A6FF1D4B18220E
:100890001A607A211A4804F033FE0346194A53605D
:1008A00001F052F90346FB608421164801F0B0F9CB
:1008B00003461A46FB681343FB60FB68002B13D00A
:1008C0000C4B1B78002B03D00B490F4800F084F829
:1008D000084B1B78002B05D0FB68702206490B489B
:1008E00000F07AF8FB6800E0FB6818461037BD4658
:1008F00080BD00BFDC2A0020C4F70008A4E7000880
:100900000800001000000010D4E6000828E70008E6
:10091000F8B500AF144B1B6803F12F02134B2F33B4
:1009200011464B2218460DF0DBF90F4B1B681A4697
:100930000E4B14461E4604F1200C3546234618681B
:1009400059689A68DB680FC5103410366445F4D1D5
:10095000334620686168A26807C3A289A17B1A8018
:100960000A469A7000BFF8BD7C0000201C010020E0
:1009700080B485B000AFF860B9607A60FB68074A60
:100980001A60BB68064A1A607B684FF400721A60EE
:1009900000BF1437BD465DF8047B70479801002006
:1009A0003802002080B485B000AFF860B9607A608A
:1009B000FB68074A1A60BB68064A1A607B684FF4F6
:1009C00000621A6000BF1437BD465DF8047B7047B3
:1009D000380A0020D80A00200FB480B582B000AFDA
:1009E00000237B60134B1B684FF0FF31184609F062
:1009F0003DFC07F114037B607B683A69FF210E48D8
:100A00000DF0C6F80C48FFF7E3FB03469AB26FF00F
:100A10007F430949094808F0B7FA064B1B68184696
:100A200009F072FC00BF0837BD46BDE8804004B045
:100A3000704700BFD82A002084000010282C002016
:100A400080B584B000AF786039600023FB6012E0AD
:100A5000FA683B689A4208DAFB687A6813441B78A4
:100A600019460A48FFF7B8FF02E00948FFF7B4FF4C
:100A7000FB680133FB60FB68072BE9D90548FFF7EA
:100A8000ABFF00BF1037BD4680BD00BF0CE80008BB
:100A900014E8000818E8000880B586B000AFF860D8
:100AA000B9607A60FB687B617868FFF795FF0D4855
:100AB000FFF792FF0CE0B9687869FFF7C1FFBB68E8
:100AC000072B09D9BB68083BBB607B6908337B6196
:100AD000BB68002BEFDC00E000BF00BF1837BD464D
:100AE00080BD00BF18E8000880B582B000AF094B98
:100AF00004221A7000233B6000237B603B461846AB
:100B000009F09CFB0346044A136000BF0837BD464A
:100B100080BD00BFDC2A0020D82A002080B584B028
:100B200002AF0346FB71F879002301930023009381
:100B300000230022002102F01DFD0346184608375D
:100B4000BD4680BD80B400AF024B1846BD465DF87F
:100B5000047B70471CE80008F0B585B004AF8B4BF0
:100B60001B78032B03D98A498A48FFF735FF874B47
:100B70001B78032B03D986498748FFF72DFF834B4A
:100B80001B78032B40F2D88046233F2B17D032230B
:100B9000303B4FF47A7203FB02F23023303B642186
:100BA00001FB03F3D1183223A3F1300213469B005B
:100BB00013445B00CA183523303BD51800E0632589
:100BC00046233F2B67D046234A2B05D16523612B53
:100BD00002D162236E2B5CD04623462B56D046238F
:100BE0004D2B05D16523612B02D16223722B4BD093
:100BF0004623412B02D16523702B42D046234D2B37
:100C000005D16523612B02D16223792B36D046238F
:100C10004A2B05D16523752B02D162236E2B2AD076
:100C200046234A2B05D16523752B02D162236C2BF9
:100C30001ED04623412B02D16523752B15D04623A8
:100C4000532B10D046234F2B0BD046234E2B06D0D0
:100C50004623442B01D10C2309E0632307E00B2337
:100C600005E00A2303E0092301E0082302E001E094
:100C7000072302E001E0062302E001E0052302E091
:100C800001E0042304E003E0032305E0022303E082
:100C900002E0012300E0632346223F2A10D03222E3
:100CA0002F2A08D93222A2F130010A4692000A44C2
:100CB0005200114600E000213122303A114400E098
:100CC000632131223F2A0CD03122A2F130000246AA
:100CD000920002445200104636220244A2F1300033
:100CE00000E0632031223F2A0CD03122A2F13004EF
:100CF0002246920022445200144638222244A2F195
:100D0000300400E0632431223F2A0BD03322A2F1C9
:100D100030063246920032445200164634223244A3
:100D2000303A00E0632203920294019000912A4637
:100D300017491A48FFF750FE144B1B78032B07D9AD
:100D4000FFF700FF03461A4611491548FFF744FE16
:100D50000E4B1B78032B04D9124A0D491248FFF79A
:100D60003BFE0A4B1B78032B04D9104A0849104854
:100D7000FFF732FE054B1B78032B03D904490548C6
:100D8000FFF72AFE00BF0437BD46F0BDDC2A002075
:100D9000DCF7000824E8000868E8000890E800088C
:100DA000C8E80008E0E80008E8E8000804E90008EE
:100DB0000CE9000880B582B000AF00237B6002F030
:100DC000E3FC78607B68002B12D0404B1B78002B33
:100DD00003D03F493F48FFF7FFFD3C4B1B78002BFA
:100DE0006BD07B68C3223A493B48FFF7F5FD64E0CE
:100DF000FFF7D2FB78607B68002B12D0334B1B7857
:100E0000002B03D032493348FFF7E6FD2F4B1B7808
:100E1000002B52D07B68C6222D492F48FFF7DCFDFE
:100E20004BE0FFF775FD03F061F878607B68002BFD
:100E300012D0264B1B78002B03D025492548FFF7FD
:100E4000CBFD224B1B78002B37D07B68CB2220496F
:100E50002148FFF7C1FD30E004F0E6FA78607B68D6
:100E6000002B12D0194B1B78002B03D018491948BE
:100E7000FFF7B2FD154B1B78002B1ED07B68CE22EE
:100E800013491548FFF7A8FD17E002F073FA7860E0
:100E90007B68002B11D00D4B1B78002B03D00C4925
:100EA0000C48FFF799FD094B1B78002B05D07B6898
:100EB000D12207490848FFF78FFD0CF0E5FE0346F5
:100EC0001B6818460837BD4680BD00BFDC2A0020DD
:100ED000E4F7000824E9000844E90008B0B58AB046
:100EE00000AF04F0D1FE00F063F800F0F3F900F079
:100EF000F9F800F0C9F800F00FF900F043F900F03C
:100F00006BF900F093F900F0BBF9FFF7EDFDFFF787
:100F100023FEFFF74FFF0346002B0DD01C4B1B7821
:100F2000002B03D01B491C48FFF756FD4FF47A7085
:100F300004F0ECFE05F007F8154B1B78022B03D9E3
:100F400014491648FFF748FD154B3B6200237B62AE
:100F500007F1200300220121184609F0F7F80346A3
:100F6000104A1360104B3C1D1D460FCD0FC495E871
:100F7000070084E807003B1D0021184609F085F8AA
:100F800003460A4A136009F079F800BFFDE700BF85
:100F9000DC2A0020F0F700087CE90008A8E9000836
:100FA0008D140008BC2C0020D8E90008B82C0020C3
:100FB00080B594B000AF07F120033022002118461D
:100FC0000CF004FE07F10C0300221A605A609A60CC
:100FD000DA601A610023BB60294B1B6C284A43F07E
:100FE00080531364264B1B6C03F08053BB60BB68BB
:100FF00000237B60234B1B68224A43F48043136029
:10100000204B1B6803F480437B607B6809233B62B1
:101010004FF480337B6201237B630223BB634FF475
:101020008003FB6319233B644FF4A8737B640223A2
:10103000BB640423FB6407F12003184606F01AFD85
:101040000346002B01D000F03DFA0F23FB60022382
:101050003B6100237B614FF4A053BB614FF480538D
:10106000FB6107F10C030521184606F07BFF0346E0
:10107000002B01D000F026FA00BF5037BD4680BDDE
:10108000003802400070004080B500AF124B134A98
:101090001A60114B124A5A600F4B00229A600E4B95
:1010A0000022DA600C4B4FF480421A610A4B002296
:1010B0005A61094B00229A61074B0022DA61064B04
:1010C00000221A62044805F06FFC0346002B01D091
:1010D00000F0F8F900BF80BDE02A00200054004075
:1010E000A086010080B500AF094B0A4A1A60084B80
:1010F00002225A60064B40F6FF729A60044806F0DE
:1011000077FC0346002B01D000F0DCF900BF80BD66
:10111000342B00200030004080B500AF174B184A38
:101120001A60164B4FF482725A60144B00229A6078
:10113000124B0022DA60114B00221A610F4B002281
:101140005A610E4B4FF400729A610C4B1022DA6117
:101150000A4B00221A62094B00225A62074B0022F6
:101160009A62064B0A22DA62044807F00DF9034638
:10117000002B01D000F0A6F900BF80BD402B00205D
:101180000030014080B500AF114B124A1A60104B7D
:101190004FF4E1325A600E4B00229A600C4B002251
:1011A000DA600B4B00221A61094B0C225A61084B82
:1011B00000229A61064B0022DA61054807F094FE8E
:1011C0000346002B01D000F07DF900BF80BD00BFB9
:1011D000982B00200010014080B500AF114B124A3F
:1011E0001A60104B4FF4E1325A600E4B00229A60A5
:1011F0000C4B0022DA600B4B00221A61094B0C22C7
:101200005A61084B00229A61064B0022DA610548B8
:1012100007F06AFE0346002B01D000F053F900BF2F
:1012200080BD00BFE02B00200044004080B500AF2F
:10123000114B124A1A60104B4FF4E1325A600E4BB8
:1012400000229A600C4B0022DA600B4B00221A61DC
:10125000094B0C225A61084B00229A61064B00226E
:10126000DA61054807F040FE0346002B01D000F08C
:1012700029F900BF80BD00BF282C00200048004095
:1012800080B500AF114B124A1A60104B4FF4E13297
:101290005A600E4B00229A600C4B0022DA600B4B16
:1012A00000221A61094B0C225A61084B00229A61F4
:1012B000064B0022DA61054807F016FE0346002BB4
:1012C00001D000F0FFF800BF80BD00BF702C0020EF
:1012D0000014014080B58AB000AF07F1140300226A
:1012E0001A605A609A60DA601A6100233B61474BCA
:1012F0001B6B464A43F004031363444B1B6B03F020
:1013000004033B613B690023FB60404B1B6B3F4A7E
:1013100043F0800313633D4B1B6B03F08003FB60C2
:10132000FB680023BB60394B1B6B384A43F0010359
:101330001363364B1B6B03F00103BB60BB680023D8
:101340007B60324B1B6B314A43F0020313632F4B1C
:101350001B6B03F002037B607B6800224FF4C041EB
:101360002B4805F007FB002210212A4805F002FB5C
:1013700000222021284805F0FDFA4FF4C0437B618C
:101380000123BB610023FB6100233B6207F11403CF
:1013900019461F4805F052F910237B610123BB61F8
:1013A0000023FB6100233B6207F11403194619482F
:1013B00005F044F94FF440537B610023BB610123E6
:1013C000FB6107F114031946134805F037F9182398
:1013D0007B610023BB610023FB6107F11403194605
:1013E0000D4805F02BF920237B610123BB6100230D
:1013F000FB6100233B6207F114031946064805F020
:101400001DF900BF2837BD4680BD00BF003802402F
:1014100000080240000002400004024080B483B093
:1014200000AF7860396000BF00BF0C37BD465DF883
:10143000047B704780B584B000AF78600E4B1B789A
:10144000032B03D90D490E48FFF7C6FA0D4BBB60BD
:101450000023FB6007F10803184602F061F80A4B0D
:101460001B684FF4FA71184608F0A4FE0120FFF73C
:1014700055FB02F02BF9FCE7DC2A0020F8F7000806
:10148000F4E900081D140008BC2C002080B483B0CF
:1014900000AF786000BF0C37BD465DF8047B704735
:1014A00080B582B000AF78607B681B68044A9342C5
:1014B00001D104F00BFC00BF0837BD4680BD00BF62
:1014C0000010004080B400AF72B600BF00BFFDE75F
:1014D00080B582B000AF00237B60124B5B6C114A79
:1014E00043F4804353640F4B5B6C03F480437B6095
:1014F0007B6800233B600B4B1B6C0A4A43F0805314
:101500001364084B1B6C03F080533B603B68002264
:101510000F216FF0010004F0ECFC00BF0837BD465E
:1015200080BD00BF0038024080B58AB000AF78604F
:1015300007F1140300221A605A609A60DA601A6197
:101540007B681B68194A93422BD100233B61184BDF
:101550001B6B174A43F002031363154B1B6B03F01D
:1015600002033B613B69C0237B611223BB61002303
:10157000FB6103233B6204237B6207F114031946DA
:101580000C4805F05BF80023FB60094B1B6C084A14
:1015900043F400131364064B1B6C03F40013FB604D
:1015A000FB6800BF2837BD4680BD00BF0054004027
:1015B000003802400004024080B58AB000AF786075
:1015C00007F1140300221A605A609A60DA601A6107
:1015D0007B681B68194A93422BD100233B61184B4F
:1015E0005B6C174A43F480535364154B5B6C03F4F4
:1015F00080533B613B690023FB60114B1B6B104A1E
:1016000043F0010313630E4B1B6B03F00103FB60FC
:10161000FB68E0237B610223BB610023FB610323A2
:101620003B6205237B6207F114031946054805F068
:1016300005F800BF2837BD4680BD00BF003001401F
:10164000003802400000024080B590B000AF7860E2
:1016500007F12C0300221A605A609A60DA601A615E
:101660007B681B68714A934235D10023BB62704B83
:101670005B6C6F4A43F0100353646D4B5B6C03F07B
:101680001003BB62BB6A00237B62694B1B6B684A19
:1016900043F001031363664B1B6B03F001037B6292
:1016A0007B6A4FF4C063FB6202233B6300237B63CE
:1016B0000323BB630723FB6307F12C0319465D4833
:1016C00004F0BCFF00220521252004F012FC252097
:1016D00004F02BFCA5E07B681B68574A934234D189
:1016E00000233B62524B1B6C514A43F4003313649A
:1016F0004F4B1B6C03F400333B623B6A0023FB61DE
:101700004B4B1B6B4A4A43F001031363484B1B6B63
:1017100003F00103FB61FB690C23FB6202233B63C3
:1017200000237B630323BB630723FB6307F12C03C5
:101730001946404804F082FF00220521262004F0CB
:10174000D8FB262004F0F1FB6BE07B681B683B4A6A
:1017500093422DD10023BB61354B1B6C344A43F4BB
:1017600080231364324B1B6C03F48023BB61BB6981
:1017700000237B612E4B1B6B2D4A43F00403136344
:101780002B4B1B6B03F004037B617B694FF44063BD
:10179000FB6202233B6300237B630323BB630723BA
:1017A000FB6307F12C031946254804F047FF38E096
:1017B0007B681B68234A934233D100233B611C4B57
:1017C0005B6C1B4A43F020035364194B5B6C03F0C2
:1017D00020033B613B690023FB60154B1B6B144AE4
:1017E00043F004031363124B1B6B03F00403FB6011
:1017F000FB68C023FB6202233B6300237B6303235C
:10180000BB630823FB6307F12C0319460C4804F063
:1018100015FF00220521472004F06BFB472004F050
:1018200084FB00BF4037BD4680BD00BF00100140B3
:1018300000380240000002400044004000480040E0
:10184000000802400014014080B58EB000AF7860FF
:101850000023FB620023BB620023FB60334B1B6C45
:10186000324A43F010031364304B1B6C03F0100337
:10187000FB60FB6807F1100207F1140311461846DC
:1018800006F050FD3B6AFB62FB6A002B03D106F0B9
:1018900021FD786304E006F01DFD03465B007B63D9
:1018A0007B6B234AA2FB03239B0C013BBB62214BB6
:1018B000214A1A601F4B40F2E732DA601D4ABB6AC8
:1018C00053601C4B00221A611A4B00229A60194B7C
:1018D00000229A61174807F065F8034687F833300D
:1018E00097F83330002B1BD1124807F0B5F80346A8
:1018F00087F8333097F83330002B11D1362004F0BD
:1019000014FB7B680F2B08D800227968362004F07E
:10191000F0FA0A4A7B68136002E0012387F833304B
:1019200097F8333018463837BD4680BD003802403E
:1019300083DE1B43C02C002000100040A4000020C8
:1019400080B400AF00BFFDE780B400AF00BFFDE78B
:1019500080B400AF00BFFDE780B400AF00BFFDE77B
:1019600080B400AF00BFFDE780B400AF00BFBD464C
:101970005DF8047B7047000080B500AF024807F0B7
:10198000E9FB00BF80BD00BF982B002080B500AFF1
:10199000024807F0DFFB00BF80BD00BFE02B002046
:1019A00080B500AF024807F0C7F800BF80BD00BF98
:1019B000C02C002080B500AF024807F0CBFB00BF71
:1019C00080BD00BF702C002080B586B000AF78606D
:1019D000144A154BD31A7B617B693B61134B1B681F
:1019E000002B02D1114B124A1A60104B1A687B6807
:1019F00013443A699A4207D20CF046F903460C2286
:101A00001A604FF0FF3309E0084B1B68FB60074B7F
:101A10001A687B681344054A1360FB681846183738
:101A2000BD4680BD0000022000040000082D0020FB
:101A30006835012080B400AF064BD3F88830054AE2
:101A400043F47003C2F8883000BFBD465DF8047BE4
:101A5000704700BF00ED00E080B400AF00231846DF
:101A6000BD465DF8047B704780B58AB004AFF8606E
:101A7000084611461A4603467B810B463B811346B6
:101A8000FB80F8883A8979894FF47A730293BB8C8A
:101A900001933B6A00930346F86805F0C9F80346D2
:101AA000FB75FB7D002B0CD0084B1B78002B05D061
:101AB0007A89FB7D06490748FEF78EFF4FF0FF331A
:101AC00000E0002318461837BD4680BDDC2A002000
:101AD0001CF8000810EA000880B58AB004AFF8606E
:101AE000084611461A4603467B810B463B81134646
:101AF000FB80F8883A8979894FF47A730293BB8C1A
:101B000001933B6A00930346F86805F08BF903469E
:101B1000FB75FB7D002B0CD0084B1B78002B05D0F0
:101B20007A89FB7D06490748FEF756FF4FF0FF33E1
:101B300000E0002318461837BD4680BDDC2A00208F
:101B40002CF8000840EA000890B589B000AF04F016
:101B5000E5FA294B0122DA60274B0222DA60264B94
:101B60001022DA60244B2022DA60234B4022DA6014
:101B7000214B8022DA6000237B6002237B610B23F0
:101B8000FB6001233B6107F118023B1D114618461B
:101B900004F032FC0346FB61FB69002B25D0174B98
:101BA0001B78002B08D0BC6904F0EAFA03462246F1
:101BB00013491448FEF710FF04F0D2FAFB69002B1A
:101BC00013D00E4B1B78002B03D00D490E48FEF7A7
:101BD00003FF0A4B1B78002B05D0FB69352208490F
:101BE0000A48FEF7F9FEFB6902E004F0B9FA0023A7
:101BF00018462437BD4690BD003C0240DC2A002038
:101C00003CF800086CEA000898EA0008C0EA0008FE
:101C1000B0B588B002AF7860396000237B611F4B9C
:101C20003B617B68FB6004F079FA2BE0FB681B6882
:101C3000BB60BB6800221C46154622462B4639690C
:101C4000022004F017FA0346002B12D0144B1B7825
:101C5000002B09D004F094FA02467B6900933B689C
:101C600010491148FEF7B8FE04F07AFA4FF0FF333E
:101C70000FE0FB680433FB607B6904337B613B69E5
:101C800004333B613B687A699A42CFD304F068FA27
:101C9000002318461837BD46B0BD00BF00000E082F
:101CA000DC2A002054F80008F8EA000880B485B067
:101CB00000AF78600B467B8013467B700023FB608F
:101CC0007B78012B07D1FB681133FB607A88FB68B6
:101CD0001344083BFB607B78022B19D1FB68063369
:101CE000FB607A88FB681344083BFB6010E07B686C
:101CF0001B781B027A680132127813439BB2FA6890
:101D00001344FB607B6802337B607B88023B7B80F3
:101D10007B88012BEBD87B88002B0CD07B681B7851
:101D20001B02FA681344FB6005E0FB689AB2FB688B
:101D30001B0C1344FB60FB681B0C002BF5D1FB68EC
:101D40009BB2DB439BB218461437BD465DF8047B5B
:101D50007047000080B487B000AFF860B9601346E8
:101D6000FB800023FB75FB881B0A9BB2DAB2154B84
:101D70001A70FB88DAB2144B1A7009E0FB7DBA685E
:101D80001A44FB7D1178114AD154FB7D0133FB7558
:101D9000FB7D032BF2D90023FB7509E0FB7DFA687C
:101DA0001A44FB7D11780A4AD154FB7D0133FB753F
:101DB000FB7D052BF2D900BF00BF1C37BD465DF887
:101DC000047B70470C2D0020840000203C2D002057
:101DD000342D002080B485B000AF786039600023D6
:101DE000FB7310E0FB7B1A331A467B6813441A78A6
:101DF000FB7B39680B441B789A4201D0002306E034
:101E0000FB7B0133FB73FB7B032BEBD901231846D0
:101E10001437BD465DF8047B7047000080B485B080
:101E200000AF78600B467B800023FB737B88282BF8
:101E300001D800231FE07B680C331B78082B04D1EA
:101E40007B680D331B78062B11D0002313E0FB7B3E
:101E500026331A467B6813441A78FB7B0949CB5C0E
:101E60009A4201D0002306E0FB7B0133FB73FB7B2E
:101E7000032BECD9012318461437BD465DF8047BCB
:101E8000704700BF3C2D002080B485B000AF786063
:101E90000B467B800023FB737B88292B01D8002312
:101EA00026E07B680C331B78082B04D17B680D334C
:101EB0001B78002B01D000231AE07B680E331B78BF
:101EC000452B11D0002313E0FB7B1E331A467B68A1
:101ED00013441A78FB7B0949CB5C9A4201D000235A
:101EE00006E0FB7B0133FB73FB7B032BECD9012367
:101EF00018461437BD465DF8047B70473C2D002022
:101F000080B485B000AF78600023FB7315E0FB7BE5
:101F100006331A467B681A44FB7B79680B441278B7
:101F20001A70FA7BFB7B063319467B680B44084921
:101F30008A5C1A70FB7B0133FB73FB7B052BE6D9B4
:101F400000BF00BF1437BD465DF8047B704700BF7B
:101F5000342D002080B584B000AF78607B681833E2
:101F600000221A707B68193300221A707B681433C0
:101F700040221A707B68153300221A707B68163372
:101F800040221A707B680E33002214211846FFF796
:101F90008DFE0346FB81FB891B0A9AB27B681833CE
:101FA000D2B21A707B681933FA89D2B21A7000BFA4
:101FB0001037BD4680BD000080B584B000AF7860AA
:101FC0000023FB7317E0FB7B1A331A467B681A4425
:101FD000FB7B1E3319467B680B4412781A70FA7B20
:101FE000FB7B1A3319467B680B4408498A5C1A70DC
:101FF000FB7B0133FB73FB7B032BE4D97868FFF792
:10200000A9FF00BF1037BD4680BD00BF3C2D00209A
:1020100080B485B000AF78600B467B8013467B7040
:102020000423FB732BE0FB7B25337A6813441B7876
:102030001A467B8813447B80FB7B29337A681344E0
:102040001B78BB73FB7B29337A6813447A88D2B23E
:102050001A707B78002B06D0FB7B25337A681344FB
:10206000BA7B1A7005E0FB7B25337A6813440022A3
:102070001A707B881B0A7B80FB7B013BFB73FB7B1D
:10208000002BD0D100BF00BF1437BD465DF8047BE4
:10209000704780B584B000AF78600B467B801346F4
:1020A0007B707B6893F82430FB737B6824337A68F9
:1020B00092F822201A707B682233FA7B1A707B68B0
:1020C00093F82530FB737B6825337A6892F82320D8
:1020D0001A707B682333FA7B1A707A787B881946EA
:1020E0007868FFF795FF7B68323300221A707B68AF
:1020F000333300221A707B682E3350221A7000BFCF
:102100001037BD4680BD000080B584B000AF786058
:102110000023FB737868FFF7F3FE7B68143300221B
:102120001A707B68153302221A7017E0FB7B163396
:102130001A467B681A44FB7B203319467B680B44A4
:1021400012781A70FA7BFB7B163319467B680B44B6
:1021500017498A5C1A70FB7B0133FB73FB7B052BF1
:10216000E4D90023FB7317E0FB7B1C331A467B6822
:102170001A44FB7B263319467B680B4412781A708D
:10218000FA7BFB7B1C3319467B680B4409498A5C4C
:102190001A70FB7B0133FB73FB7B032BE4D979685B
:1021A0002A2003F0CEFC00BF1037BD4680BD00BF23
:1021B000342D00203C2D002080B582B000AF786027
:1021C0000B467B807868FFF79BFE7868FFF7F4FE8C
:1021D0007B68223300221A707B6824331B78F72B2C
:1021E00005D97B6825331A780132D2B21A707B6820
:1021F00024331A787B6824330832D2B21A707B8871
:102200007968184603F09DFC00BF0837BD4680BDC5
:1022100080B584B000AF78607868FFF771FE7B68A6
:10222000103300221A707B6811332C221A707868E0
:10223000FFF7C2FE7B682F3312221A7000220121A1
:102240007868FFF726FF7B68263300221A707B68C8
:10225000273300221A707B682833234A12781A70B9
:102260007B68293300221A701F4B1B780333DAB2C4
:102270001D4B1A707B68363302221A707B68373325
:1022800004221A707B68383305221A707B68393350
:1022900000221A707B682E3360221A707B683033FC
:1022A00005221A707B68313378221A707B681A33E2
:1022B000022220211846FFF7F9FC0346FB81FB8927
:1022C0001B0A9AB27B683233D2B21A707B683333FE
:1022D000FA89D2B21A7079683A2003F032FC00BF52
:1022E0001037BD4680BD00BF8900002080B485B096
:1022F00000AF78607B6810331B781B021AB27B68D2
:1023000011331B781BB21343FB81FB89143B9BB237
:10231000FB81FA897B682E331B781B09DBB29B009B
:102320009BB2D31A9BB2FB81B7F90E30002B01DCB4
:102330000023FB81FB8918461437BD465DF8047BFA
:10234000704780B584B000AF78600B467B80134641
:102350007B707868FFF7D4FD7B682F337A7842F082
:102360001002D2B21A707B78042B06D17B8801222E
:1023700019467868FFF78DFE0BE0B7F90230002BA5
:1023800001D101237B807B88012219467868FFF701
:1023900080FE2823FB81FB891B0A9AB27B681033DD
:1023A000D2B21A707B681133FA89D2B21A70786887
:1023B000FFF702FE7B68303304221A707B683133EA
:1023C00000221A707B681A3302221C211846FFF77C
:1023D0006DFC0346FB81FB891B0A9AB27B68323392
:1023E000D2B21A707B683333FA89D2B21A70796824
:1023F000362003F0A6FB00BF1037BD4680BD80B578
:1024000084B000AF78600B467B807B882833FB81EB
:10241000FB891B0A9AB27B681033D2B21A707B68B0
:102420001133FA89D2B21A707868FFF793FD7B688E
:10243000323300221A707B68333300221A707B68B3
:1024400003F11A007B881C339BB202221946FFF766
:102450002DFC0346FB81FB891B0A9AB27B68323351
:10246000D2B21A707B683333FA89D2B21A707B8881
:1024700036339BB27968184603F063FB00BF103710
:10248000BD4680BD80B582B000AF78600B467B80D2
:102490000A4B1B881BB2002219467868FFF751FFD0
:1024A0007B682F3318221A707B8819467868FFF7EB
:1024B000A6FF00BF0837BD4680BD00BF402D0020ED
:1024C00080B485B000AFF8600B467A607B810CE089
:1024D0007B681A78FB681A70FB680133FB607B68C5
:1024E00001337B607B89013B7B817B89002BEFD1B2
:1024F00000BF00BF1437BD465DF8047B7047000085
:1025000080B584B000AF786039600023FB7310E0C1
:10251000FB7B7A681344FF221A70FA7BFB7B06333D
:1025200019467B680B442E498A5C1A70FB7B013389
:10253000FB73FB7B052BEBD97B680C3308221A70ED
:102540007B680D3306221A707B680E33254A0821FA
:102550001846FFF7B5FF0023FB7312E0FA7BFB7B05
:10256000163319467B680B441D498A5C1A70FB7B45
:1025700020331A467B68134400221A70FB7B013318
:10258000FB73FB7B052BE9D90023FB7315E0FB7B79
:102590003A681A44FB7B263319467B680B44127851
:1025A0001A70FA7BFB7B1C3319467B680B440E497F
:1025B0008A5C1A70FB7B0133FB73FB7B032BE6D930
:1025C0000A4B1B78DBB243F00803DAB2074B1A70F0
:1025D00079682A2003F0B5FA00BF1037BD4680BDE8
:1025E000342D00206CF800083C2D002088000020CD
:1025F00080B485B000AF78600023FB730FE0FB7BF5
:102600001C331A467B6813441A78FB7B1249CB5C57
:102610009A4201D0002318E0FB7B0133FB73FB7B64
:10262000032BECD90023FB730BE0FB7B16331A461C
:102630007B681A44FB7B1178084AD154FB7B013339
:10264000FB73FB7B052BF0D9012318461437BD46DD
:102650005DF8047B704700BF242D0020282D00204A
:1026600080B485B000AF78600023FB730B4B012270
:102670001A7009E0FB7B7A681A44FB7B1178084AE0
:10268000D154FB7B0133FB73FB7B032BF2D900BFDF
:1026900000BF1437BD465DF8047B704788000020FA
:1026A000242D002080B584B000AF78600846114624
:1026B0001A460346FB700B46BB7013467B70002323
:1026C000FB7312E0FA7BFB7B79680B445F498A5C01
:1026D0001A70FA7BFB7B063319467B680B445C4916
:1026E0008A5C1A70FB7B0133FB73FB7B052BE9D9FA
:1026F0007B680C3308221A707B680D3300221A7035
:102700007B680E33534A09211846FFF7D9FE7B68D0
:1027100011332C221A707B68173306221A7000239B
:10272000FB7314E0FA7BFB7B1E3319467B680B447A
:1027300049498A5C1A70FA7BFB7B1A3319467B681D
:102740000B4446498A5C1A70FB7B0133FB73FB7BAD
:10275000032BE7D97868FFF7FDFB7B682433BA7851
:102760001A707B6825337A781A707B6822330B22C3
:102770001A707B682333FA781A700023FB7309E020
:10278000FB7B26331A467B68134400221A70FB7BBE
:102790000133FB73FB7B072BF2D97B682833304A6C
:1027A00012781A702E4B1B780333DAB22C4B1A7046
:1027B0007B682E3360221A707B682F3302221A70D6
:1027C0007B68303304221A707B68313300221A7020
:1027D0007B68323300221A707B68333300221A7010
:1027E0007B68343300221A707B68353300221A70FC
:1027F0007B68363302221A707B68373304221A70E2
:102800007B68383302221A707B68393326221A70AB
:102810007B681A33022220211846FFF747FA034645
:10282000BB81BB891B0A9AB27B683233D2B21A7061
:102830007B683333BA89D2B21A7079683A2003F0D0
:1028400080F900BF1037BD4680BD00BF282D002095
:10285000342D002074F80008302D00203C2D00207D
:102860008900002090B585B000AF78600B467B8072
:1028700000237B737B88002B4ED1974B1B78DBB2F8
:1028800003F00103002B06D1934B1B78DBB203F05E
:102890000403002B0DD0914BB3F90030002B08D16D
:1028A00003F041F90346002B03D08D497868FFF708
:1028B00027FE8A4BB3F900309BB201339BB21AB2A8
:1028C000864B1A80874B1B78012B23D1824B1B78B8
:1028D000DBB203F00203002B1CD0824B02221A70E1
:1028E000814B1B780133DAB27F4B1A707F4B1B7818
:1028F0005B015AB27C4B1B785BB203F01F035BB2E7
:1029000013435BB2D9B27A4B1A787A4B1B7878684A
:10291000FFF7C8FE00230AE27B8819467868FFF7B4
:102920007DFA0346002B1ED07B6815331B78012BE4
:1029300002D17868FFF7E8FB674B1B78DBB203F046
:102940000803002B0DD07B6815331B78022B08D1B0
:102950007868FFF74DFE0346002B02D05E4B022243
:102960001A700023E3E17B8819467868FFF78CFA38
:102970000346002B01D10023D9E17B6817331B7874
:10298000012B15D17B6822331B78082B10D15A4BB1
:102990001B68002B05D0584B1B687A681A3210460A
:1029A00098477B8819467868FFF706FC0023BEE14C
:1029B0007B88352B06D87B6817331B78062B01D014
:1029C0000023B4E17B6824331B780B2B40F0628139
:1029D0004A4A7B6813604A4B1B78022B03D949494A
:1029E0004948FDF7F9FF49497868FFF7F3F90346CD
:1029F000002B01D100239AE17B682F331B7803F071
:102A00000403002B13D0424B1B68002B0AD0404B11
:102A10001C687B6825331B785B09D8B20023002231
:102A20000321A0472F4B05221A7000237FE178680D
:102A3000FFF75CFC0346FB812A4B1B78022B6BD112
:102A40007B682F331B7803F00203002B2BD07B68AD
:102A50002F331B7803F01003002B24D00022002119
:102A60007868FFF76EFC7B682F3318221A70294BA9
:102A70001B68002B0BD0274B1B687A682332127817
:102A80005209D2B2104698470346FB8101E0002369
:102A9000FB81144B03221A70FB8919467868FFF7F3
:102AA000AEFC002343E10F4B01221A70FB89013376
:102AB000FB817B682F331B7803F01003002B01D0C0
:102AC0000023FB81B7F90E30042219467868FFF71E
:102AD00038FC00232BE100BF880000208600002086
:102AE000242D00200E2D0020850000200D2D00201B
:102AF0000F2D0020102D0020202D00201C2D002047
:102B0000DC2A002080F8000840EC0008302D00206E
:102B1000142D0020182D0020874B1B78042B45D145
:102B2000864B1B68002B29D07B682E331B781B0932
:102B3000DBB29B009BB222337B817B88DA1F7B89CF
:102B40009A4202DC7B88083B7B81FB893B817A8946
:102B5000FB891A447B889A4203DD7A887B89D31AE1
:102B60003B81764B1C687B6825331B785B09D8B2A8
:102B70003B897A890021A04703467B737B7B002B2E
:102B80000BD0B7F90E30092219467868FFF7D9FB48
:102B9000694B05221A700023C9E0B7F90E300022F4
:102BA00019467868FFF7CDFB0023C0E0624B1B7825
:102BB000032B48D1604B04221A70604B1B68002B1A
:102BC00029D07B682E331B781B09DBB29B009BB29C
:102BD00022337B817B88DA1F7B899A4202DC7B88E7
:102BE000083B7B81FB893B817A89FB891A447B887E
:102BF0009A4203DD7A887B89D31A3B814F4B1C684C
:102C00007B6825331B785B09D8B23B897A89002120
:102C1000A04703467B737B7B002B0BD0B7F90E30AC
:102C2000092219467868FFF78CFB434B05221A707E
:102C300000237CE0B7F90E30002219467868FFF7D0
:102C400080FB002373E03C4B1B78052B01D1002354
:102C50006DE07B682F331B7803F00103002B0DD050
:102C6000FB8901339BB21BB2092219467868FFF732
:102C700068FB314B05221A70002358E0FB89002BBA
:102C800006D0B7F90E30002219467868FFF759FBD5
:102C900000234CE07B6824331A78294B1B789A4236
:102CA00044D17B6825331A78264B1B789A423DD154
:102CB0007B682F331B7803F00203002B04D0786865
:102CC000FFF7A6FA002332E07B682F331B7803F06E
:102CD0001003002B2AD07868FFF708FB03461A463A
:102CE000194B1A80184B1B88002B0DD17B682F3392
:102CF0001B7803F00103002B04D000220021786828
:102D0000FFF71FFB002312E07B682E331B781B09A3
:102D1000DBB29B009BB22233FB817B88DA1FFB89ED
:102D20009A4201DC002302E0FB8900E00023184600
:102D30001437BD4690BD00BF0E2D0020142D00207D
:102D40000C2D002084000020402D0020B0B586B05E
:102D500004AF062301933B46009301239A22B0213E
:102D60001848FEF7B9FE0346002B09D0164B1B7816
:102D7000002B03D015491648FDF72EFE01231DE058
:102D8000144B1A467B1C186810609B8893800E4B6E
:102D90001B78022B11D97B781C46BB781D46FB782B
:102DA0003A797979B87903900291019200932B4690
:102DB000224606490848FDF70FFE0023184608374B
:102DC000BD46B0BDE02A0020DC2A002094F80008AF
:102DD00054EC00088C00002070EC000880B584B032
:102DE00000AF17494FF4006002F03CFC0346BB60A3
:102DF000BB689BB21946124802F055FC0346FB80A3
:102E0000FB88002B17D0BB689AB2FB88D31A9BB201
:102E100019460C4802F076F80346FB81FB89002B2B
:102E200004D1BB689AB2FB88D31AFB81FB8919468F
:102E3000034802F048FC002318461037BD4680BD09
:102E400084010010BA010010B0B586B004AF334859
:102E500002F0CDFB02F0FFFB0346FB71FB79002B78
:102E60000BD12F4B1B78002B05D0FB791A462D492F
:102E70002D48FDF7B1FD01234CE0294B1B78032BB6
:102E800007D902F0E8FB03461A4626492748FDF712
:102E9000A3FD234B1B78032B1AD9204B1B781C4610
:102EA0001E4B5B781D461D4B9B781A461B4BDB78EF
:102EB00019461A4B1B791846184B5B7903930290FD
:102EC000019100922B46224616491948FDF784FDD0
:102ED000184BDB891A461849104802F0D3FB1748F3
:102EE00002F000FC0E4B1B78022B12D9114B9B7881
:102EF0001946104BDB7818460E4B1B791A460D4BC2
:102F00005B790193009203460A4606490C48FDF797
:102F100063FD002318460837BD46B0BD8C00002075
:102F2000DC2A0020A4F8000894EC0008C0EC00089B
:102F3000E4EC00084C2D00204E2D0020562D0020E2
:102F40000CED000880B483B000AF78607A68134657
:102F50009B0013449B001846A0F101000028FBD100
:102F600000BF0C37BD465DF8047B704780B582B06A
:102F700000AF7860786807F0D4F800BF0837BD4626
:102F800080BD000080B500AF00221021024803F090
:102F9000F1FC00BF80BD00BF0000024080B500AF63
:102FA00001221021024803F0E5FC00BF80BD00BFF4
:102FB0000000024080B586B002AF0346FB7107F106
:102FC0000E02F91D4FF47A73009301230C4805F0AB
:102FD00064FA0346FB73FB7B002B01D1BB7B0AE049
:102FE000084B1B78002B05D0FB7B1A460649074887
:102FF000FDF7F2FC002318461037BD4680BD00BF28
:10300000402B0020DC2A0020B4F8000830ED000836
:1030100080B58EB002AF78600023FB6007F110032B
:1030200000221A605A609A60DA601A615A619A61E5
:103030000023FB85102387F82D30214B59221A706D
:103040001F4B53225A700E2279681E480AF048FE20
:1030500007F10C0310221A4918460AF041FE97F8AE
:103060002D1007F10C03184A1846FDF715FD97F8C7
:103070002D309BB2FA8D019307F10C0300930123CD
:10308000A0211248FEF7F0FC0346002B09D0104B9C
:103090001B78002B03D00F490F48FDF79DFC01233F
:1030A0000AE0074BDB891A4606490C4802F0EAFAA7
:1030B0000B4802F017FB002318463037BD4680BD91
:1030C0004C2D00204E2D002048ED0008E02A002065
:1030D000DC2A0020CCF8000854ED00088C00002009
:1030E000562D0020B0B58EB004AF00237B6007F1F1
:1030F000080300221A605A609A60DA601A615A6105
:103100009A610023FB84102387F8253097F8253037
:103110009BB2FA8C01933B1D00930123A021284808
:10312000FEF7DAFC0346002B09D0264B1B78002B58
:1031300003D025492548FDF74FFC01233CE097F8D3
:1031400025103B1D224A1846FDF7A6FC3B1D102208
:10315000194620480AF0C4FD02221F491D480AF002
:1031600025FD0346002B1ED1164B1B78032B18D9C7
:1031700097F82520174B9B781D46164BDB78194690
:10318000144B1B791846134B5B791C46114BDB899A
:1031900003930294019000912B460B490F48FDF7D1
:1031A0001BFC002308E0074B1B78002B03D00649CB
:1031B0000B48FDF711FC012318462837BD46B0BD6A
:1031C000E02A0020DC2A0020E4F8000880ED000856
:1031D000B0ED00084C2D0020BCED0008C0ED00084B
:1031E00004EE000890B58DB004AF786039607B685C
:1031F000FB61FB6904331B68FB60FB691B68BB60F8
:10320000FB691B783B74FB695B787B740023BB74A0
:103210000123FB74FB691B899BB2BB821A4B1B7891
:10322000022B0FD93B7A18467B7A1C46BB7AFA7A76
:10323000B98A029101920093234602461349144829
:10324000FDF7CAFB07F108031846FFF7E1FEB86176
:10325000BB69002B12D00C4B1B78002B03D00B4901
:103260000C48FDF7B9FB084B1B78002B06D0BB6957
:1032700040F2351205490848FDF7AEFBFFF7E4FDC3
:1032800000BF2437BD4690BDDC2A0020F0F80008BE
:1032900034EE000864EE000890EE000880B582B0BD
:1032A00000AF0346FB71FB79022B07D1074B1B785C
:1032B000022B03D906490748FDF78EFB064AFB7926
:1032C000137000BF0837BD4680BD00BFDC2A002058
:1032D00004F90008C8EE0008442D002080B582B033
:1032E00000AF78600B4B1B78022B03D90A490B48BF
:1032F000FDF772FB0A4B1B78022B05D1FFF76EFD21
:103300000A2006F00EFFF5E74FF47A7006F009FF89
:10331000F0E700BFDC2A002010F90008E8EE000802
:10332000442D002080B582B000AF786039607B68A2
:103330001B78182B0FD0182B14DC082B02D0092B6C
:1033400012D00FE07B681A697B685B6919461046EA
:10335000FFF748FF09E07B685B68DBB21846FFF7C0
:103360009DFF02E000BF00E000BF00BF0837BD4680
:1033700080BD0000B0B592B004AF00237B635C4B0E
:103380001B78022B04D95B4A5A495B48FDF724FBA2
:103390005A4B3C1D1D460FCD0FC495E8070084E82D
:1033A00007003B1D0021184606F06FFE0346544AF5
:1033B0001360534B1B68002B12D14D4B1B78002B15
:1033C00003D04C494F48FDF707FB4FF0FF338AE02D
:1033D000FFF7BCFC0346002B08D00A2006F0A1FE34
:1033E0007B6B5A1C7A63092BF2DD00E000BFFFF70C
:1033F00079FE0346002B38D0C02387F82030A8235D
:1034000087F82130002387F82230052387F82330FE
:1034100041F2BA33BB85C02387F82830A82387F848
:103420002930002387F82A30012387F82B30304BCE
:103430001B78032B14D997F82030184697F82130C1
:103440001C4697F822301A462F4B5B79B98D0291B2
:10345000019300922346024626492C48FDF7BCFA08
:1034600007F120031846FFF7D3FDFFF7EDFC3863A3
:103470003B6B002B14D01E4B1B78002B03D01D4937
:103480002348FDF7A9FA1A4B1B78002B06D03B6B9B
:1034900040F2931217491F48FDF79EFA3B6B22E05A
:1034A0001D4B1E4A1A601C4B00225A601A4800F03D
:1034B00037F838633B6B002B14D00D4B1B78002B77
:1034C00003D00C491248FDF787FA094B1B78002BF3
:1034D00006D03B6B4FF4CC7206490E48FDF77CFAE0
:1034E0003B6B00E0002318463837BD46B0BD00BF37
:1034F000DC2A002020F9000808EF000894EF0008FB
:10350000482D00201CEF00084C2D002044EF00083F
:1035100064EE000890EE00085C2D002025330008C2
:1035200080B483B000AF7860104B1B68092B15DCAA
:103530000E4B1B687A6812680D4941F833200B4B1B
:103540001B687A6852680A49DB000B445A60074BD3
:103550001B680133054A1360002300E0012318466D
:103560000C37BD465DF8047B704700BFB82D0020C6
:10357000682D002080B586B000AFF860B9607A6031
:103580003B603D4B1B684FF0FF31184607F000F9D8
:1035900078617B69002B09D1384B1B78002B03D055
:1035A00037493848FDF718FA002361E01822002156
:1035B00078690AF00BFBFB68DAB27B691A707B69E9
:1035C000BA685A607B697A689A607B693A68DA609F
:1035D0007B6A002B21D03B6A002B1ED0786A0AF050
:1035E000BDF802467B691A617B697A6A5A617B6918
:1035F0001B69002B0AD1214B1B78002B03D02049DB
:103600002148FDF7E9F96FF00B0331E07B691B6995
:103610007A6A396A18460AF063FB174B1B687969A6
:10362000184607F0CBF803463B613B69002B18D0E6
:103630007B691B69002B04D07B691B6918460AF063
:103640005BF90E4B1B78012B04D93A690C490F48E2
:10365000FDF7C2F9084B1B687969184607F060F955
:1036600000BF0B4B1B780133DAB2094B1A703B6970
:1036700018461837BD4680BD642D0020DC2A002086
:1036800030F90008B0EF0008DCEF000804F0000893
:10369000BC2D002080B582B000AF78607B68002B25
:1036A0000FD07B681B69002B0BD07B681B69184609
:1036B0000AF022F97B6800221A617B6800225A61B5
:1036C00000E000BF0837BD4680BD000080B586B071
:1036D00000AF254B19683B1D4FF0FF32184607F02D
:1036E000ABF87B68202B27D1BB68204A13600023EE
:1036F0007B611CE07B69DB001D4A13443B613B6935
:103700001B68002B08D03B691B68184A10683A698F
:1037100052681146984707E0164B1B78002B03D0E0
:1037200015491648FDF758F97B6901337B61144B45
:103730001B687A699A42DDDB0C4B1B681846FFF761
:10374000A9FF094B1B68094A12681146184607F081
:10375000E7F80C4B1B78013BDAB20A4B1A7000BF3A
:103760001837BD4680BD00BF642D0020C02D00204D
:10377000682D0020DC2A002040F9000844F00008F1
:10378000B82D0020BC2D002080B584B000AF1423DC
:103790003B6018237B6007F10C03BB603B460021B4
:1037A000184606F09DFF03460A4A1360094B1B6842
:1037B000002B09D1084B1B78002B03D00749084880
:1037C000FDF70AF9012300E0002318461037BD4633
:1037D00080BD00BF642D0020DC2A002054F90008C1
:1037E00060F0000880B584B002AF0346FB71F87941
:1037F0000023019300230093002300220021FFF700
:10380000B9FE034618460837BD4680BD80B584B072
:1038100002AF03463960FB71F8790023019300235E
:103820000093002300223968FFF7A4FE03461846E0
:103830000837BD4680BD000080B582B000AF78601B
:10384000FEF70AF903460E4A13600E4B5A680E4BF8
:103850001B689A420FD00D4B1B78022B07D9094BDE
:103860005A68074B1B680A490A48FDF7B5F8054B2B
:103870005B68054A136000BF0837BD4680BD00BFC6
:10388000D82D0020DC2D002094000020DC2A002010
:1038900064F9000884F0000880B584B000AF786057
:1038A00039600023FB600AE0FB687A6813441B78E8
:1038B0001946022001F05CF9FB680133FB60FA68ED
:1038C0003B689A42F0DB00BF00BF1037BD4680BDA9
:1038D000F0B583B000AFFCF7D7FE78607B68002BB3
:1038E0002CD1234B1B6803F12F02224B2F3311469F
:1038F0004B2218460AF0F4F91D4B1B681A461D4B63
:10390000184602F1200403461146D1F800C04E6863
:103910008D68C968C3F800C05E609D60D9601032D0
:103920001030A242EFD103461468506891681C60C1
:10393000586099609189927B99819A737B68002B7A
:1039400011D00D4B1B78002B03D00C490C48FDF710
:1039500043F8094B1B78002B05D07B685922074997
:103960000848FDF739F800BF0C37BD46F0BD00BF71
:103970007C0000201C010020DC2A002070F90008D7
:10398000A8F00008D4F0000880B588B000AF034666
:10399000FB710023FB760023BB7600237B610023B1
:1039A0003B61FB7E184600F07FFC254B93F83930D5
:1039B000184600F0D7FC234BFB60234BBB60002371
:1039C000FB6116E0FB69D8B2FB695B00FA6813443F
:1039D0001B88194600F0E4FCFB69D8B2FB695B0068
:1039E000BA6813441B88194600F01EFDFB690133B9
:1039F000FB61FB69072BE5DDFB7E7969184600F06A
:103A0000F3FBFB79012B05D0FB7E3969184600F0EA
:103A100083FB04E0FB7E0021184600F07DFBBA7EAC
:103A2000FB7E1146184600F06DFCFB79012B03D19B
:103A300000211920FFF7EAFE00BF2037BD4680BDF8
:103A40001C010020560100206601002080B584B0D2
:103A500000AF0346FB71274B1B78022B0AD9FB7979
:103A6000002B01D0244B00E0244B1A462449254862
:103A7000FCF7B2FF244AFB791370FB79012B2BD1A1
:103A80000121012000F03EFC0021002000F044FB59
:103A90004FF0FF31002000F0A7FB0023FB600FE098
:103AA000FB68DBB20021184600F07AFCFB68DBB251
:103AB0004FF4FA61184600F0B7FCFB680133FB6075
:103AC000FB68072BECDD114B1B68184606F0D2FC97
:103AD0000CE0642006F025FB0B4B5B78002BF8D044
:103AE0000120FFF751FF1720FFF77CFE00BF1037C2
:103AF000BD4680BDDC2A00200CF1000814F100084E
:103B00007CF900081CF10008C42D0020683000205A
:103B100080B483B000AF0346FB71FB79034A1360A6
:103B200000BF0C37BD465DF8047B7047DC2D0020DC
:103B300080B582B000AF00237B6009E00C4B1B789E
:103B4000012B09D10A2006F0ECFA7B6801337B6077
:103B50007B68632BF2DD00E000BF7B68632BD4BF82
:103B600001230023DBB218460837BD4680BD00BFE5
:103B7000C42D002080B582B000AF164B1B78022BFD
:103B800003D915491548FCF727FF00237B600FE098
:103B900001227B6802FA03F31946002000F0BCFA08
:103BA000FFF7C6FF0346002B06D17B6801337B601D
:103BB0007B68072BECDD00E000BF064B1B78022B77
:103BC00003D905490648FCF707FF00BF0837BD4683
:103BD00080BD00BFDC2A00208CF9000834F1000809
:103BE00050F1000880B584B000AF03463960FB7126
:103BF000274B1B78022B05D9FB791A462549264805
:103C0000FCF7EAFEFB79002B08D0FB79042B05D8E2
:103C1000FB79013BDBB2DB00FB730AE0FB79052B90
:103C200002D0FB79062B04D1FB79053BDBB21B01EB
:103C3000FB73174B1B78022B04D93A6815491748B8
:103C4000FCF7CAFEFB7B3A6802FA03F33B60396873
:103C5000002000F061FA0023BB6007E0FFF768FF77
:103C60000346002B06D1BB680133BB60BB68022B47
:103C7000F4DD00E000BF064B1B78022B03D9054999
:103C80000748FCF7A9FE00BF1037BD4680BD00BF46
:103C9000DC2A002094F9000868F100088CF1000883
:103CA000ACF1000880B582B000AF4FF0FF310020CA
:103CB00000F032FA00237B6007E0FFF739FF03468C
:103CC000002B06D17B6801337B607B68022BF4DD1F
:103CD00000E000BF00BF0837BD4680BD80B582B0A0
:103CE00000AF0346FB71FB79072B26D801A252F8DF
:103CF00023F000BF153D00081B3D00081B3D0008D8
:103D00001B3D00081B3D0008273D0008273D00081B
:103D1000353D0008FFF72EFF10E0FB79FF21184624
:103D2000FFF760FF0AE0FB794FF6FF711846FFF7D7
:103D300059FF03E0FFF7B6FF00E000BF00BF083700
:103D4000BD4680BD80B584B000AF78600023FB73B2
:103D5000214B1B78022B03D920492148FCF73CFE5C
:103D6000204B1B684FF0FF31184606F035FB034629
:103D7000002B2DD1184B1B78022B23D917491A4839
:103D8000FCF72AFE1EE0144B1B78022B05D9FB7BA7
:103D90001A4612491548FCF71FFE154B00225A70AF
:103DA000FB7B1846FFF79AFF114B01225A70FB7BF1
:103DB0000133FB73FB7B072B01D90023FB736420CA
:103DC00006F0AFF90A4B1B78012BDCD00023FB7304
:103DD000642006F0A6F9C3E7DC2A00209CF900085D
:103DE000C4F1000868300020E4F1000804F2000883
:103DF000C42D002080B582B000AF786039607B6848
:103E00001B78013B1E2B6AD801A252F823F000BF99
:103E10008D3E0008DF3E0008DF3E0008DF3E000860
:103E2000DF3E00089B3E0008B33E0008DF3E00086E
:103E3000DF3E0008AD3E0008DF3E0008DF3E000820
:103E4000DF3E0008DF3E0008DF3E0008DF3E0008DE
:103E5000DF3E0008DF3E0008DF3E0008DF3E0008CE
:103E6000C13E0008C93E0008DF3E0008DF3E0008F2
:103E7000DF3E0008DF3E0008DF3E0008DF3E0008AE
:103E8000DF3E0008DF3E0008D13E0008164B1B68ED
:103E9000C821184606F08EF922E07B681A697B6813
:103EA0005B6919461046FFF7F7FC19E0FFF710FDB4
:103EB00016E07B685B68DBB21846FFF765FD0FE034
:103EC0000120FFF7C3FD0BE00020FFF7BFFD07E077
:103ED0007B685B68DBB21846FFF71AFE00E000BFA4
:103EE00000BF0837BD4680BDC82D0020B0B58CB0DE
:103EF00000AF4A4B1B78032B03D949494948FCF7CB
:103F00006BFD0023BB620023FB6207F12803012144
:103F1000184606F02FFA0346434A1360434B3B62B0
:103F200000237B6207F1200300220121184606F0DE
:103F30000DF903463E4A13603D4B1B68002B09D127
:103F4000364B1B78002B03D035493A48FCF744FD2B
:103F500001235EE0314B1B78022B06D9324B1B68E4
:103F60001A462F493448FCF737FD2F4B1B68002BAE
:103F700019D02D4B1B680021184606F02DFA034678
:103F8000002B08D1254B1B78022B0CD924492B4838
:103F9000FCF722FD07E0214B1B78022B03D92049B7
:103FA0002748FCF719FD274B3C1D1D460FCD0FC4BC
:103FB00095E8070084E807003B1D0021184606F03D
:103FC00064F80346204A13601F4B1B68002B09D17D
:103FD000124B1B78002B03D011491C48FCF7FCFC4A
:103FE000012316E01A4B1B4A1A60194B00225A6033
:103FF0001748FFF795FA0346002B09D0074B1B78AB
:10400000002B03D006491448FCF7E6FC012300E02E
:10401000002318463037BD46B0BD00BFDC2A002063
:10402000ACF9000820F20008683000203938000898
:10403000C82D002038F2000860F2000880F2000865
:10404000A0F2000818F30008D42D0020BCF20008EC
:10405000CC2D0020F53D0008E0F2000880B485B0CA
:1040600000AF0346FB71124B1B6801335A42C3F386
:104070000A03C2F30A0258BF5342FB600D4B1B7880
:10408000002B0DD00C4B1B68FA689A420AD0084AE4
:10409000FB681360064B1B680849FA79CA5402E0B2
:1040A00000BF00E000BF1437BD465DF8047B7047D9
:1040B00070300020783000206C300020880900101B
:1040C00080B483B000AF7860104B1A68104B1B6847
:1040D0009A4201D1002312E00D4B1B6801335A4272
:1040E000C3F30A03C2F30A0258BF5342084A1360DB
:1040F000074B1B68074AD25C7B681A70012318467D
:104100000C37BD465DF8047B704700BF703000205F
:104110006C3000208809001080B586B000AF0346DF
:104120003960FB713B68BB6055233B7304237B7391
:1041300000237B613DE07A7B7B69DBB2D31ADBB283
:104140007B737B695B0018333B4413F8103CFB73B3
:104150007B695B00013318333B4413F8103CBB739D
:1041600007F10C031A4A04211846FCF795FC07F1E5
:104170000C0304221946012001F076F838613B69EE
:10418000002B13D0134B1B78002B03D0124913487C
:10419000FCF722FC0F4B1B78002B05D03B697822E3
:1041A0000D490F48FCF718FC3B690CE07B690133B3
:1041B0007B617B69012BBEDD3B68002B02D0094A85
:1041C0003B689360002318461837BD4680BD00BF8A
:1041D00074F30008DC2A0020C0F9000880F300080E
:1041E000ACF300087830002080B586B000AF0346FD
:1041F0003960FB713B68BB6055233B7302237B73C3
:1042000000237B613DE07A7B7B69DBB2D31ADBB2B2
:104210007B737B695B0018333B4413F8103CFB73E2
:104220007B695B00013318333B4413F8103CBB73CC
:1042300007F10C03174A04211846FCF72DFC07F17F
:104240000C0304221946012001F00EF838613B6985
:10425000002B13D0104B1B78002B03D00F491048B4
:10426000FCF7BAFB0C4B1B78002B05D03B69902266
:104270000A490C48FCF7B0FB3B6906E07B69013357
:104280007B617B69012BBEDD002318461837BD46D4
:1042900080BD00BFE4F30008DC2A0020D8F9000844
:1042A00080F30008ACF3000880B584B000AF03468B
:1042B000FB7155233B7305237B73FB79BB73002391
:1042C000FB730D4B1B78022B05D9FB791A460B4962
:1042D0000B48FCF781FB07F10C030422194601206F
:1042E00000F0C2FF0346002B01D0012300E00023B1
:1042F00018461037BD4680BDDC2A0020F0F90008C2
:10430000F0F3000880B584B000AF03460A46FB71A5
:104310001346BB7155233B7306237B73FB79BB7339
:104320000023FB73FB79012B01D1BB79FB7307F1F0
:104330000C030B4A04211846FCF7AEFB07F10C03F3
:1043400004221946012000F08FFF0346002B01D004
:10435000012300E0002318461037BD4680BD00BF92
:104360000CF4000880B584B000AF0346FB71552300
:104370003B7307237B73FB79BB730023FB7307F14C
:104380000C0304221946012000F06EFF0346002BA7
:1043900001D0012300E0002318461037BD4680BD40
:1043A00080B586B000AF03460A46FB711346BB805A
:1043B000BB88BB8155233B74FB791033DBB27B7424
:1043C0007B7BBB743B7BFB7407F110030422194613
:1043D000012000F049FF78617B69002B16D07B69D2
:1043E000002B13D00C4B1B78002B03D00B490C482F
:1043F000FCF7F2FA084B1B78002B05D07B69E92209
:1044000006490848FCF7E8FA7B6900E000231846F3
:104410001837BD4680BD00BFDC2A002000FA000826
:1044200080F30008ACF3000880B584B000AF034609
:104430000A46FB711346BB80BB883B8155233B7307
:10444000FB793033DBB27B737B7ABB733B7AFB73D4
:1044500007F10C0304221946012000F005FF034672
:10446000002B02D04FF0FF3300E000231846103736
:10447000BD4680BD90B587B002AF78600023BB60B9
:1044800055233B720023FB6050E02C4B1B78022B22
:1044900015D9FB68581CFB687A6813441B781C46C6
:1044A000FB680233FA68013279680A441278019293
:1044B00000932346024622492248FCF78DFAFB6806
:1044C0007A6813441B78002B06D1FB6801337A68A5
:1044D00013441B78002B26D0FB687A6813441B78A2
:1044E000BB72FB6801337A6813441B78FB72FB686C
:1044F000DA0F13445B10DBB2703BDBB27B7207F167
:104500000803114A04211846FCF7C6FA07F108030C
:1045100004221946012000F0A7FE0346002B02D01A
:104520004FF0FF3306E0FB680233FB60FB68072BAC
:10453000ABDD002318461437BD4690BDDC2A0020B1
:1045400014FA00081CF4000848F4000880B483B092
:1045500000AF0346FB71044AFB79137000BF0C37B0
:10456000BD465DF8047B70477830002080B582B08E
:1045700000AF78607B681B78332B07D17B680133F1
:104580001B78184600F092FA012300E00023184639
:104590000837BD4680BD80B584B000AF00237B6086
:1045A0000023BB6000210020FFF7ACFE0120FFF7D5
:1045B000D9FE0023FB600FE0FB68DBB24FF47A7199
:1045C0001846FFF731FFFB68DBB200211846FFF702
:1045D000E7FEFB680133FB60FB68072BECDD002383
:1045E000FB6028E0FB68D9B2FA6813465B0013440D
:1045F0004A1CD2B210333B4403F80C2CFB68D9B2EE
:10460000FA6813465B00134401334A1CD2B21033DC
:104610003B4403F80C2CFB68D9B2FA6813465B00E4
:10462000134402334A1CD2B210333B4403F80C2C1F
:10463000FB680133FB60FB68022BD3DD3B1D184692
:10464000FFF718FF01210020FFF7CEFD0021002019
:10465000FFF762FD00BF1037BD4680BD80B483B058
:1046600000AF78607A68064B0233196811601B79D5
:10467000137100BF0C37BD465DF8047B704700BF67
:104680007830002080B582B000AF786039607B68F8
:104690001B78182B0ED0182B12DC132B02D0142BE6
:1046A00004D00DE00120FFF751FF0AE00020FFF7E2
:1046B0004DFF06E07B685B68DAB2044B5A7000E09D
:1046C00000BF00BF0837BD4680BD00BF7830002066
:1046D00080B586B000AF78600023FB6000233B7498
:1046E0000023FB750023BB824A4B1B78002B03D1B0
:1046F000642005F016FD8BE007F113031846FFF761
:10470000DFFC0346002B4BD0FB7D002B09D1FB7C4B
:10471000332B06D0FB7CAA2B03D00A2005F001FD29
:1047200076E0FB7D042B07D8FB7D5A1CFA75FA7CDA
:1047300018333B4403F80C2CFB7D052B2CD107F1DF
:104740000C031846FFF712FF0346002B1BD0314B1A
:104750005B78012B03D02F4B5B78022B13D1012305
:10476000BB822C4B5B78012B05D107F10C0318465B
:1047700000F098FA07E0274B023307F10C021068AB
:10478000186012791A710023FB7507F10C030522DA
:104790000021184609F01AFA052005F0C2FCA3E72B
:1047A0001C4B5B78012B03D01A4B5B78022B2CD16E
:1047B000BB8A002B29D0BB8A5A1CBA82142B24D95D
:1047C000154B1B78022B03D914491548FCF704F943
:1047D0000023BB8207F10C0305220021184609F0D3
:1047E000F5F933233B730B4B5B78012B05D107F1B4
:1047F0000C03184600F056FA07E0064B023307F1A7
:104800000C021068186012791A71642005F089FC96
:104810006AE700BF78300020DC2A00202CFA00086C
:1048200054F40008B0B588B000AF124B3C1D1D46D3
:104830000FCD0FC495E8070084E807003B1D002159
:10484000184605F022FC03460B4A13600B4B0C4A3A
:104850001A600A4B00225A600848FEF761FE0346C0
:10486000002B01D0012300E0002318462037BD466D
:10487000B0BD00BF80F400087430002084300020F8
:104880008546000880B584B002AF0346FB71F87915
:104890000023019300230093002300220021FEF750
:1048A00069FE034618460837BD4680BD80B584B012
:1048B00002AF03463960FB71F879002301930023AE
:1048C0000093002300223968FEF754FE0346184681
:1048D0000837BD4680BD000080B485B000AF0346F8
:1048E000FB71114B1B8801335A4203F07F0302F026
:1048F0007F0258BF5342FB600B4B5B881A46FB6834
:1049000093420BD0084B1B881A46074B1344FA7985
:104910001A71FB689AB2044B1A8000E000BF14378A
:10492000BD465DF8047B70479C30002080B483B0A6
:1049300000AF7860114B1A88104B5B889A4201D106
:10494000002315E00D4B5B881A460C4B13441A7973
:104950007B681A70094B5B8801335A4203F07F036E
:1049600002F07F0258BF53429AB2044B5A8001238F
:1049700018460C37BD465DF8047B70479C3000201C
:1049800080B582B000AF0023BB710023FB7131E022
:104990001F4B1B88002B02D1BB79EF2B29D11C4B5D
:1049A0001B88072B0AD81A4B1B885A1C91B2184A2D
:1049B00011801946BA79164B0B449A71144B5B88D7
:1049C0001B021AB2BB791BB213431BB29AB2104B33
:1049D0005A800F4B5B884FF6FF6293420AD10C4B13
:1049E0001B88FB710A4B00225A80094B00221A8057
:1049F00000E000BFBB1D1846FFF798FF0346002BE1
:104A0000C6D1FB799BB218460837BD4680BD00BFB2
:104A10008C30002080B582B000AFD0233B71124BA8
:104A20001B7AC22B11D0C22B16DCC02B02D0C12B9B
:104A300007D011E00C4B9B7A19461820FFF736FF80
:104A40000AE01520FFF71EFF06E0074B9B7A194688
:104A50001F20FFF72BFF00BF3B1D184600F042F858
:104A600000BF0837BD4680BD8C30002080B584B0C3
:104A700000AF7860FFF784FF0346FB73FB7B002BDE
:104A8000F8D0084B1B7ABF2B02D9FFF7C3FFF1E721
:104A9000FB7B9BB21946044800F022FA0346BB7325
:104AA000E8E700BF8C3000209430002080B584B04F
:104AB00000AF0346FB710A4A07F1080392E80300BE
:104AC00083E80300FB79BB7207F10803082219464B
:104AD000022000F0C9FB00BF1037BD4680BD00BFFB
:104AE0009CF4000880B584B000AF78600A4A07F1F2
:104AF000080392E8030083E803007B681B787B725D
:104B000007F1080308221946022000F0ADFB00BFA0
:104B10001037BD4680BD00BFA4F4000880B584B046
:104B200002AF0346FB71F879002301930023009341
:104B3000002300220021FEF71DFD0346184608371A
:104B4000BD4680BD80B584B002AF03463960FB71BD
:104B5000F879002301930023009300230022396891
:104B6000FEF708FD034618460837BD4680BD000025
:104B700080B584B000AF03460A46FB711346BB7193
:104B80001B4B1B6801335A42C3F30903C2F30902EA
:104B900058BF5342FB60174B1B68FA689A4221D0FA
:104BA000154B5B78FA799A4213D0144B1B78FA793B
:104BB0009A4219D0114AFB791370114B1B78022BC2
:104BC00012D9FA790C4B5B780E490F48FBF704FFBA
:104BD0000AE0074AFB681360054B1B680B49BA796A
:104BE000CA5402E000BF00E000BF1037BD4680BDE0
:104BF0004C3100205031002098000020543100201A
:104C0000DC2A00203CFA0008D4F4000888110010C7
:104C100080B483B000AF7860104B1A68104B1B68EB
:104C20009A4201D1002312E00D4B1B6801335A4216
:104C3000C3F30903C2F3090258BF5342084A136081
:104C4000074B1B68074AD25C7B681A700123184621
:104C50000C37BD465DF8047B704700BF4C31002027
:104C6000503100208811001080B582B000AF03469B
:104C7000FB710B4B5B78FA799A4208D0084B5B7852
:104C8000002B01D0FFF787FC054AFB795370FB79B5
:104C900019461920FFF756FF00BF0837BD4680BDF3
:104CA0009800002080B584B000AF78600023BB601E
:104CB0000023FB60DF233B727B681B78332B08D11A
:104CC00007F10803013305227968184609F008F84E
:104CD00002E07B681B787B72FE23BB73FF23FB73B0
:104CE00007F10803184600F091FB00BF1037BD46DE
:104CF00080BD000080B584B000AF03463960FB7111
:104D0000D0233B723B681B78A03B1B2B00F2C48076
:104D100001A252F823F000BF814E0008994E00080E
:104D2000994E0008994E0008994E0008994E0008C7
:104D3000994E0008994E0008994E0008994E0008B7
:104D4000994E0008994E0008994E0008994E0008A7
:104D5000994E0008994E00088D4E0008894D0008B4
:104D60009F4D0008D94D0008134E0008374E00082B
:104D7000994E0008994E0008634E0008714E0008D5
:104D8000994E0008774E00083B6802331A783B685A
:104D900003331B7819461046FFF7B4FA7FE03B68EF
:104DA00002331B781B021AB23B6803331B781BB219
:104DB00013431BB27B813B6801331B787A89114610
:104DC0001846FFF731FB3B6801331B781946424A0E
:104DD0007B8922F8113062E03B6802331B781B02AA
:104DE0001AB23B6803331B781BB213431BB27B819F
:104DF0003B6801331B787A8911461846FFF7D0FAD1
:104E00003B6801331B78344908337A8921F8132031
:104E100045E03B6802331B78FB60F9680020FFF730
:104E2000E3F92E4B1B78002B38D0D3233B722B4B4E
:104E300000221A7032E03B6802331B78FB60F9688D
:104E40000020FFF769F9FB68002B06D01A20FFF756
:104E500065FE1320FFF762FE21E01420FFF75EFEDF
:104E60001DE03B6802331B781846FFF77BFA16E01B
:104E7000FFF791FB13E004211820FFF763FE0EE01B
:104E8000D2233B721420FFF749FE08E0D0233B7287
:104E9000124B01221A7002E000BF00E000BFFB7954
:104EA000022B01D13B7A12E0FB79012B06D107F1ED
:104EB00008031846FFF7F6FE002308E0FB79032BF2
:104EC00004D107F108031846FFF70CFE002318462B
:104ED0001037BD4680BD00BF203100209800002063
:104EE00080B584B000AF78600B467B807968032082
:104EF000FFF700FF0346FB73FB7B18461037BD46E8
:104F000080BD000080B58AB000AF78600B467B8022
:104F10007B68FB6100233B6107F1140300221A60E8
:104F20009A80002387F827300023BB8400237B84EA
:104F3000394A07F1080392E8030083E8030055E0CB
:104F4000BB8C5A1CBA841A46FB6913441B78FB7647
:104F500097F82730002B02D1FB7EEF2B45D197F835
:104F60002730092B09D897F827305A1C87F82720B3
:104F700028333B44FA7E03F8182C7B8C1B021AB2B0
:104F8000FB7E1BB213431BB27B847B8C4FF6FF620C
:104F900093422BD17B7C002B1AD0BB7CBA2B06D141
:104FA00007F1080301331846FFF758FB10E007F13B
:104FB0001003023319460220FFF79CFE0346BB761E
:104FC000BB7ED22B02D0BB7ED32B01D1BB7E7B72AA
:104FD000002387F8273000237B8407F110030A227F
:104FE0000021184608F0F2FD00E000BF7A88BB8C73
:104FF0009A42A5D8BA8C7B889A4208D17B681A4617
:1050000007F1080303CB10605160082300E0002380
:1050100018462837BD4680BD34F6000880B586B0F6
:1050200000AF78600023FB6007F1100300221A60D4
:105030009A800023FB752E4B1B78022B03D92D4938
:105040002D48FBF7C9FC2D4B5B78012B03D0642066
:1050500005F067F84AE007F116031846FFF7D8FD98
:105060000346002B3FD0FB7D002B06D1BB7DEF2BF1
:1050700003D00A2005F055F838E0FB7D092B07D84E
:10508000FB7D5A1CFA75BA7D18333B4403F80C2C8F
:105090001A4B5B881B021AB2BB7D1BB213431BB2B7
:1050A0009AB2164B5A80154B5B884FF6FF629342BB
:1050B000C9D17B7B002BC6D007F10C030233194604
:1050C0000120FFF717FE0023FB750C4B00225A80CE
:1050D00007F10C030A220021184608F077FD012091
:1050E00005F01FF8AFE70A2005F01BF8ABE700BF9B
:1050F000DC2A00204CFA00083CF60008980000204A
:1051000080B582B000AF786039607B681B78182B5F
:1051100006D17B685B68DBB21846FFF7A5FD00E0AF
:1051200000BF00BF0837BD4680BD0000B0B588B0E5
:1051300000AF194B3C1D1D460FCD0FC495E807006D
:1051400084E807003B1D0021184604F09EFF03463B
:10515000124A1360114B1B68002B01D1012316E08A
:105160000F4B104A1A600E4B00225A600C48FEF793
:10517000D7F90346002B09D00B4B1B78022B03D920
:105180000A490B48FBF728FC012300E000231846DE
:105190002037BD46B0BD00BFA0F600084831002052
:1051A0004031002001510008DC2A00205CFA000890
:1051B00060F6000880B582B000AF78607B681B683D
:1051C000184A93420AD1184B1B781846FEF746FF3F
:1051D00001221549154803F098FF1FE07B681B6802
:1051E000134A93420BD1134B1B7819460120FFF74A
:1051F000BFFC01220F49104803F087FF0EE07B68D7
:105200001B680E4A934209D10D4B1B781846FFF7D5
:1052100063FB01220A490B4803F077FF00BF083700
:10522000BD4680BD0014014058310020702C002084
:105230000010014060310020982B00200044004005
:105240005C310020E02B002080B483B000AF786098
:10525000044B01221A7000BF0C37BD465DF8047B79
:10526000704700BF6131002080B588B000AF0346B1
:10527000B9607A60FB735C4BFB6100237B61FB7B55
:10528000022B02D1594BFB6117E0FB7B002B14D1A1
:10529000574BFB6111E00A2004F043FF7B695A1C65
:1052A0007A610A2B09DD534B1B78022B03D9524933
:1052B0005248FBF791FB00237B61FB6993F8413077
:1052C000DBB2202BE7D100237B6100233B6111E09F
:1052D0007B689BB21A46B968F86903F0E0FE0346A2
:1052E000BB61BB69002B09D00A2004F01AFF3B699F
:1052F00001333B613B69022BEADD00E000BFBB6983
:10530000002B36D0BB69002B33D03A4B1B78002BD7
:1053100003D039493A48FBF75FFB364B1B78002B2B
:1053200005D0BB69692234493648FBF755FBBB6998
:1053300056E07B695A1C7A61B3F57A7F16DDBB694A
:10534000002B13D02B4B1B78002B03D02A492C4861
:10535000FBF742FB274B1B78002B05D0BB696E2265
:1053600025492848FBF738FBBB6939E00A2004F0DF
:10537000D8FEF86904F096F90346212BD9D0F869D4
:1053800004F090F90346232BD3D000237B6122E065
:105390007B695A1C7A61B3F57A7F19DD1A4B0022BA
:1053A0001A70BB69002B13D0124B1B78002B03D053
:1053B00011491348FBF710FB0E4B1B78002B05D04F
:1053C000BB6977220C490F48FBF706FBBB6907E076
:1053D0000A2004F0A6FE0C4B1B78002BD8D0BB692A
:1053E00018462037BD4680BD702C0020E02B0020E1
:1053F000982B0020DC2A002070FA0008BCF6000878
:10540000D8F6000804F700086131002080B582B0AA
:1054100000AF7860082279680020FFF725FF00BF01
:105420000837BD4680BD000080B582B000AF294B73
:105430001B78032B03D928492848FBF7CDFAFFF73F
:10544000F1F903467B607B68002B13D0214B1B785E
:10545000002B03D020492248FBF7BEFA1D4B1B78D6
:10546000002B05D07B689C221B491E48FBF7B4FA31
:105470007B682AE0FFF75AFE03467B607B68002BBF
:1054800013D0144B1B78002B03D013491448FBF79F
:10549000A3FA104B1B78002B05D07B689F220E4986
:1054A0001048FBF799FA7B680FE001220E490F487C
:1054B00003F02BFE01220E490E4803F026FE0122C6
:1054C0000D490E4803F021FE002318460837BD465B
:1054D00080BD00BFDC2A002080FA00083CF70008ED
:1054E000D8F6000804F7000858310020702C00207E
:1054F00060310020982B00205C310020E02B002040
:1055000080B582B000AF786039603A687968002071
:1055100000F006F8034618460837BD4680BD000077
:1055200080B487B000AFF860B9607A60FB68DB4395
:10553000FB6000237B6122E0BA687B6913441B781F
:10554000FB74FB681A09F97CFB684B4003F00F03FE
:10555000114951F823305340FB60FB681A09FB7C6A
:105560001B09DBB21946FB684B4003F00F030A49E5
:1055700051F823305340FB607B6901337B617A69CA
:105580007B689A42D8D3FB68DB4318461C37BD467C
:105590005DF8047B704700BF90FA0008DFF834D054
:1055A000FCF748FA0C480D490D4A002302E0D45894
:1055B000C4500433C4188C42F9D30A4A0A4C00235D
:1055C00001E013600432A242FBD308F063FBFBF757
:1055D00085FC704700000220000000200001002030
:1055E00014FB00080001002064350120FEE780B5AF
:1055F00084B000AF7860786800F0E8F9022000F02D
:10560000D4F90A20FDF7B2FC0023FB6014E04FF44C
:105610006251142000F09DF94FF4FA70FDF7A6FCDA
:1056200043F69011142000F094F94FF4FA70FDF74E
:105630009DFCFB680133FB60FB68022BE7DD43F256
:105640007641142000F085F96420FDF78FFC00BF3F
:105650001037BD4680BD80B500AF00F051FA03465B
:10566000184680BD80B582B000AF03463960FB802C
:10567000FB883968184600F0A7FA03461846083731
:10568000BD4680BD80B584B000AFF860B9601346F8
:10569000FB80FB881A46B968F868FCF75BFB00BF23
:1056A0001037BD4680BD80B582B000AF78600B4634
:1056B0007B807B8819467868FDF7D4F80346184646
:1056C0000837BD4680BD80B582B000AF78600B461C
:1056D0007B807B8819467868FCF7D4FE00BF0837CA
:1056E000BD4680BD80B582B000AF78607868FCF7B9
:1056F000B7FF00BF0837BD4680BD80B584B000AF9E
:1057000003460A46FB711346BB71FDF73BFC97F954
:10571000063003F01F035AB297F9073013435BB208
:10572000DBB21846FDF746FCFF20FDF743FC0346BD
:10573000FB7397F90630002B04DAFF20FDF73AFCE3
:105740000346FB73FDF72AFCFB7B18461037BD466A
:1057500080BD80B582B000AF0346FB710B46BB71C4
:1057600013467B71FDF70EFC97F9063003F01F031B
:105770005AB297F9073013435BB2DBB21846FDF714
:1057800019FC7B791846FDF715FCFDF707FC00BFF7
:105790000837BD4680BD90B583B000AF0346396081
:1057A000FB80FDF7EFFB3A20FDF704FC07E03C68C7
:1057B000631C3B600020FDF7FDFB03462370FB8864
:1057C0005A1EFA80002BF2D1FDF7E8FB00BF0C3720
:1057D000BD4690BD80B582B000AFBB1D194602200A
:1057E000FFF7D9FFFB8818460837BD4680BD80B556
:1057F00082B000AF03463960FB80FDF7C3FB7A201F
:10580000FDF7D8FB06E03B685A1C3A601B78184647
:10581000FDF7D0FBFB885A1EFA80002BF3D1FDF771
:10582000BDFB00BF0837BD4680BD000080B582B01B
:1058300000AF0346FB71FB7903F060030D4A127859
:10584000934213D003221F21A020FFF782FFFB7990
:1058500003F06003DAB2074B1A70064B1B785B0942
:10586000DBB21A461F218020FFF773FF00BF083705
:10587000BD4680BD6231002080B582B000AF0346D6
:10588000FB71FB791846FFF7D1FFFB791946002021
:10589000FFF733FF034618460837BD4680BD80B585
:1058A00082B000AF03460A46FB711346BB80BB883B
:1058B000DAB2FB791146184600F035F8FB7901336E
:1058C000DAB2BB881B0A9BB2DBB21946104600F065
:1058D0002AF800BF0837BD4680BD80B582B000AF52
:1058E0000346FB71FB791946D42000F01CF8012116
:1058F000D22000F018F80F20FDF724FB00BFEA20AB
:10590000FFF7BAFF034603F00103002BF7D1002194
:10591000D22000F008F8D920FFF7AEFF0346184662
:105920000837BD4680BD80B582B000AF03460A4649
:10593000FB711346BB71FB791846FFF777FFBA7905
:10594000FB7919464020FFF704FF00BF0837BD462A
:1059500080BD80B582B000AF03460A46FB71134696
:10596000BB80FB791946D420FFF7DDFFBB88DBB293
:105970001946D620FFF7D7FFBB881B0A9BB2DBB2C4
:105980001946D720FFF7CFFF02E00F20FDF7DAFA24
:10599000EA20FFF771FF034603F00103002BF4D167
:1059A00000BF00BF0837BD4680BD80B582B000AFE4
:1059B0000346FB71FB7903F00703DBB21946752040
:1059C000FFF7B1FF00BF0837BD4680BD80B582B08C
:1059D00000AF7860FDF7D6FAFF220021FF20FFF725
:1059E000B8FE3220FDF7C2FA434B00221A80002194
:1059F0000820FFF754FF00210C20FFF750FF41F66D
:105A0000FE110A20FFF74BFF41F6FF110420FFF7BC
:105A100046FF41F6FF710620FFF741FF374BB122E9
:105A20001A70364B1B7819463820FFF77CFF43F27B
:105A30003F012820FFF733FF4FF2F9713020FFF7C5
:105A40002EFF0D21C020FFF76EFF0021C120FFF7C0
:105A50006AFF3222C2218020FFF77BFE40F612410E
:105A6000C620FFF71CFF1221C420FFF75CFF40F2A5
:105A7000DC51CA20FFF713FF7B681B781946E4202E
:105A8000FFF751FF7B6801331B781946E520FFF7CC
:105A90004AFF7B6802331B781946E220FFF743FF79
:105AA0007B6803331B781946E320FFF73CFF7B68D4
:105AB00004331B781946E020FFF735FF7B68053378
:105AC0001B781946E120FFF72EFF4FF4807110205C
:105AD000FFF73FFF1F20FFF7A9FEC0221B218020F8
